:020000040800F2
:1000000000500020712500083D2200083F22000812
:100010004122000843220008452200080000000099
:10002000000000000000000000000000472200085F
:1000300049220008000000004B2200084D22000861
:10004000B9250008B9250008B9250008B925000818
:10005000B9250008B9250008B9250008B925000808
:10006000B9250008B9250008B9250008B9250008F8
:10007000B9250008B9250008B9250008B9250008E8
:10008000B9250008B9250008B9250008B9250008D8
:10009000B9250008B9250008B92500085122000833
:1000A000B9250008B9250008B9250008B9250008B8
:1000B000B9250008B9250008B9250008B9250008A8
:1000C000B9250008B9250008B9250008B925000898
:1000D000B9250008B92500086D220008B9250008D7
:1000E000B9250008B9250008B9250008000000005E
:1000F0000000000000000000000000000000000000
:0C01000000000000000000005FF808F1A3
:1001100010B5054C237833B9044B13B10448AFF341
:1001200000800123237010BDE009002000000000C2
:1001300084EA000808B5034B1BB103490348AFF339
:10014000008008BD00000000E409002084EA0008E7
:1001500081F0004102E000BF83F0004330B54FEA78
:1001600041044FEA430594EA050F08BF90EA020FE5
:100170001FBF54EA000C55EA020C7FEA645C7FEA78
:10018000655C00F0E2804FEA5454D4EB5555B8BF9B
:100190006D420CDD2C4480EA020281EA030382EA0C
:1001A000000083EA010180EA020281EA0303362D9E
:1001B00088BF30BD11F0004F4FEA01314FF4801C71
:1001C0004CEA113102D0404261EB410113F0004F83
:1001D0004FEA03334CEA133302D0524263EB43033A
:1001E00094EA050F00F0A780A4F10104D5F1200ED8
:1001F0000DDB02FA0EFC22FA05F2801841F1000133
:1002000003FA0EF2801843FA05F359410EE0A5F106
:1002100020050EF1200E012A03FA0EFC28BF4CF037
:10022000020C43FA05F3C01851EBE37101F00045ED
:1002300007D54FF0000EDCF1000C7EEB00006EEBFA
:100240000101B1F5801F1BD3B1F5001F0CD3490884
:100250005FEA30004FEA3C0C04F101044FEA4452DB
:1002600012F5800F80F09A80BCF1004F08BF5FEA62
:10027000500C50F1000041EB045141EA050130BD42
:100280005FEA4C0C404141EB0101013C28BFB1F554
:10029000801FE9D291F0000F04BF01460020B1FA9F
:1002A00081F308BF2033A3F10B03B3F120020CDA72
:1002B0000C3208DD02F1140CC2F10C0201FA0CF050
:1002C00021FA02F10CE002F11402D8BFC2F1200CB5
:1002D00001FA02F120FA0CFCDCBF41EA0C0190406B
:1002E000E41AA2BF01EB0451294330BD6FEA0404B4
:1002F0001F3C1CDA0C340EDC04F11404C4F120029F
:1003000020FA04F001FA02F340EA030021FA04F3B0
:1003100045EA030130BDC4F10C04C4F1200220FA07
:1003200002F001FA04F340EA0300294630BD21FA45
:1003300004F0294630BD94F0000F83F4801306BF0B
:1003400081F480110134013D4EE77FEA645C18BFFF
:100350007FEA655C29D094EA050F08BF90EA020F96
:1003600005D054EA000C04BF1946104630BD91EA8E
:10037000030F1EBF0021002030BD5FEA545C05D191
:100380004000494128BF41F0004130BD14F58004D0
:100390003CBF01F5801130BD01F0004545F0FE4144
:1003A00041F470014FF0000030BD7FEA645C1ABF79
:1003B000194610467FEA655C1CBF0B46024650EAB0
:1003C000013406BF52EA033591EA030F41F40021DC
:1003D00030BD00BF90F0000F04BF0021704730B562
:1003E0004FF4806404F132044FF000054FF0000137
:1003F00050E700BF90F0000F04BF0021704730B5F8
:100400004FF4806404F1320410F0004548BF4042CC
:100410004FF000013EE700BF42004FEAE2014FEA21
:1004200031014FEA02701FBF12F07F4393F07F4FFC
:1004300081F06051704732F07F4208BF704793F0FF
:100440007F4F04BF41F40021704730B54FF4607412
:1004500001F0004521F000411CE700BF50EA010215
:1004600008BF704730B54FF000050AE050EA0102BE
:1004700008BF704730B511F0004502D5404261EB2E
:1004800041014FF4806404F132045FEA915C3FF46F
:10049000D8AE4FF003025FEADC0C18BF03325FEA0C
:1004A000DC0C18BF033202EBDC02C2F1200300FABD
:1004B00003FC20FA02F001FA03FE40EA0E0021FAE2
:1004C00002F11444BDE600BF4FF0FF3C06E000BF60
:1004D0004FF0010C02E000BF4FF0010C4DF804CDCD
:1004E0004FEA410C7FEA6C5C4FEA430C18BF7FEA8D
:1004F0006C5C1BD001B050EA410C0CBF52EA430CBB
:1005000091EA030F02BF90EA020F0020704710F13A
:10051000000F91EA030F58BF994208BF90422CBFC9
:10052000D8176FEAE37040F0010070474FEA410CC2
:100530007FEA6C5C02D150EA013C07D14FEA430CE0
:100540007FEA6C5CD6D152EA033CD3D05DF8040B51
:10055000704700BF8446104662468C461946634683
:1005600000E000BF01B5FFF7B7FF002848BF10F15A
:10057000000F01BD4DF808EDFFF7F4FF0CBF01209F
:1005800000205DF808FB00BF4DF808EDFFF7EAFF1B
:1005900034BF012000205DF808FB00BF4DF808EDD6
:1005A000FFF7E0FF94BF012000205DF808FB00BFCB
:1005B0004DF808EDFFF7CEFF94BF012000205DF855
:1005C00008FB00BF4DF808EDFFF7C4FF34BF012062
:1005D00000205DF808FB00BF4FEA410212F500124F
:1005E00015D211D56FF47873B3EB625212D94FEA7A
:1005F000C12343F0004343EA505311F0004F23FA64
:1006000002F018BF404270474FF00000704750EAB8
:10061000013005D111F0004008BF6FF00040704775
:100620004FF00000704700BF844641EA000313F01A
:10063000030349D1403A23D30B6803604B684360FE
:100640008B688360CB68C3600B6903614B6943614E
:100650008B698361CB69C3610B6A03624B6A436236
:100660008B6A8362CB6AC3620B6B03634B6B43631E
:100670008B6B8363CB6BC36340304031403ADBD23A
:1006800030320BD30B6803604B6843608B68836028
:10069000CB68C36010301031103AF3D20C3205D35E
:1006A00051F8043B40F8043B043AF9D2043208D034
:1006B000D2071CBF11F8013B00F8013B01D30B88A6
:1006C00003806046704700BF082A13D38B07B1D060
:1006D00010F00303AED0C3F10403D21ADB071CBF32
:1006E00011F8013B00F8013BA4D331F8023B20F89C
:1006F000023B9FE7043AD9D3013A11F8013B00F8D5
:10070000013BF9D20B7803704B7843708B78837080
:100710006046704770B54FF0FF0C4CF4E06C1CEA7B
:1007200011541DBF1CEA135594EA0C0F95EA0C0FE7
:1007300000F0DEF82C4481EA030621EA4C5123EA5A
:100740004C5350EA013518BF52EA033541F4801189
:1007500043F4801338D0A0FB02CE4FF00005E1FB3C
:1007600002E506F00042E0FB03E54FF00006E1FB86
:1007700003569CF0000F18BF4EF0010EA4F1FF04C9
:10078000B6F5007F64F5407404D25FEA4E0E6D4109
:1007900046EB060642EAC62141EA55514FEAC5201A
:1007A00040EA5E504FEACE2EB4F1FD0C88BFBCF596
:1007B000E06F1ED8BEF1004F08BF5FEA500E50F147
:1007C000000041EB045170BD06F0004646EA01010D
:1007D00040EA020081EA0301B4EB5C04C2BFD4EB3F
:1007E0000C0541EA045170BD41F480114FF0000E38
:1007F000013C00F3AB8014F1360FDEBF002001F0A6
:10080000004170BDC4F10004203C35DA0C341BDC1F
:1008100004F11404C4F1200500FA05F320FA04F0F1
:1008200001FA05F240EA020001F0004221F0004125
:1008300010EBD37021FA04F642EB06015EEA430E98
:1008400008BF20EAD37070BDC4F10C04C4F12005C8
:1008500000FA04F320FA05F001FA04F240EA02007B
:1008600001F0004110EBD37041F100015EEA430E4C
:1008700008BF20EAD37070BDC4F1200500FA05F26C
:100880004EEA020E20FA04F301FA05F243EA0203EB
:1008900021FA04F001F0004121FA04F220EA0200FA
:1008A00000EBD3705EEA430E08BF20EAD37070BD40
:1008B00094F0000F0FD101F00046400041EB010120
:1008C00011F4801F08BF013CF7D041EA060195F002
:1008D000000F18BF704703F00046520043EB0303BC
:1008E00013F4801F08BF013DF7D043EA06037047A9
:1008F00094EA0C0F0CEA135518BF95EA0C0F0CD0B4
:1009000050EA410618BF52EA4306D1D181EA0301F9
:1009100001F000414FF0000070BD50EA410606BFF3
:100920001046194652EA430619D094EA0C0F02D138
:1009300050EA013613D195EA0C0F05D152EA03367D
:100940001CBF104619460AD181EA030101F000419B
:1009500041F0FE4141F470014FF0000070BD41F0E4
:10096000FE4141F4780170BD70B54FF0FF0C4CF4BE
:10097000E06C1CEA11541DBF1CEA135594EA0C0FDD
:1009800095EA0C0F00F0A7F8A4EB050481EA030E2A
:1009900052EA03354FEA013100F088804FEA033311
:1009A0004FF0805545EA131343EA12634FEA0222DF
:1009B00045EA111545EA10654FEA00260EF00041A0
:1009C0009D4208BF964244F1FD0404F5407402D2F2
:1009D0005B084FEA3202B61A65EB03055B084FEA83
:1009E00032024FF480104FF4002CB6EB020E75EB80
:1009F000030E22BFB61A754640EA0C005B084FEAA8
:100A00003202B6EB020E75EB030E22BFB61A754624
:100A100040EA5C005B084FEA3202B6EB020E75EB6F
:100A2000030E22BFB61A754640EA9C005B084FEAE7
:100A30003202B6EB020E75EB030E22BFB61A7546F4
:100A400040EADC0055EA060E18D04FEA051545EAE3
:100A500016754FEA06164FEAC30343EA52734FEA8C
:100A6000C2025FEA1C1CC0D111F4801F0BD141EA05
:100A700000014FF000004FF0004CB6E711F4801F6A
:100A800004BF01430020B4F1FD0C88BFBCF5E06F4A
:100A90003FF6AFAEB5EB030C04BFB6EB020C5FEA5A
:100AA000500C50F1000041EB045170BD0EF0004EAF
:100AB0004EEA113114EB5C04C2BFD4EB0C0541EAE1
:100AC000045170BD41F480114FF0000E013C90E6DE
:100AD00045EA060E8DE60CEA135594EA0C0F08BFA2
:100AE00095EA0C0F3FF43BAF94EA0C0F0AD150EAA1
:100AF00001347FF434AF95EA0C0F7FF425AF104634
:100B000019462CE795EA0C0F06D152EA03353FF45B
:100B1000FDAE1046194622E750EA410618BF52EAD8
:100B200043067FF4C5AE50EA41047FF40DAF52EAAC
:100B300043057FF4EBAE12E74FEA410C7FEA6C5CB1
:100B400002D150EA013C0AD14FEA430C7FEA6C5CC7
:100B500002D152EA033C02D14FF0000070474FF03F
:100B60000100704753B94AB9002908BF00281CBFCB
:100B70004FF0FF314FF0FF3000F076B9ADF1080CC7
:100B80006DE904CE00F006F8DDF804E0DDE90223AB
:100B900004B070472DE9F047089E0D46044688468C
:100BA000002B4DD18A42944668D9B2FA82F252B1F2
:100BB00001FA02F3C2F1200120FA01F10CFA02FC61
:100BC00041EA030894404FEA1C41B8FBF1F71FFAD1
:100BD0008CFE01FB178807FB0EF0230C43EA084349
:100BE00098420AD91CEB030307F1FF3580F01E8100
:100BF000984240F21B81023F63441B1AB3FBF1F0A1
:100C000001FB103300FB0EFEA4B244EA0344A645E8
:100C10000AD91CEB040400F1FF3380F00981A645DA
:100C200040F20681644402380021A4EB0E0440EA3D
:100C300007401EB10023D440C6E90043BDE8F08759
:100C40008B4208D9002E00F0EE800021C6E9000595
:100C50000846BDE8F087B3FA83F100294AD1AB42D8
:100C600002D3824200F2FC80841A65EB0303012068
:100C70009846002EE2D0C6E90048DFE702B9FFDE61
:100C8000B2FA82F2002A40F09180A1EB0C0001211F
:100C90004FEA1C471FFA8CFEB0FBF7F307FB13006B
:100CA000250C45EA00450EFB03F0A84208D91CEBD1
:100CB000050503F1FF3802D2A84200F2CE80434678
:100CC0002D1AB5FBF7F007FB10550EFB00FEA4B282
:100CD00044EA0544A64508D91CEB040400F1FF359D
:100CE00002D2A64500F2B6802846A4EB0E0440EAE4
:100CF00003409EE7C1F120078B4022FA07FC4CEA33
:100D0000030C25FA07FA4FEA1C49BAFBF9F820FA56
:100D100007F309FB18AA8D401FFA8CFE1D4300FA49
:100D200001F308FB0EF02C0C44EA0A44A04202FA3C
:100D300001F20BD91CEB040408F1FF3A80F0888023
:100D4000A04240F28580A8F102086444241AB4FB52
:100D5000F9F009FB104400FB0EFEADB245EA044475
:100D6000A64508D91CEB040400F1FF356CD2A6455A
:100D70006AD90238644440EA0840A0FB0295A4EB1B
:100D80000E04AC42C846AE4656D353D0002E69D0AE
:100D9000B3EB080264EB0E0422FA01F304FA07F73E
:100DA0001F43CC40C6E90074002147E70CFA02FC5F
:100DB000C2F1200125FA01F34FEA1C4720FA01F1A4
:100DC00095400D43B3FBF7F107FB11331FFA8CFE7F
:100DD000280C40EA034001FB0EF3834204FA02F4BC
:100DE00008D91CEB000001F1FF382FD283422DD926
:100DF00002396044C01AB0FBF7F307FB1300ADB231
:100E000045EA004503FB0EF0A84208D91CEB050596
:100E100003F1FF3816D2A84214D9023B6544281AC0
:100E200043EA014138E73146304607E72F46E4E61A
:100E30001846F9E64B45A9D2B9EB020865EB0C0E52
:100E40000138A3E74346EAE7284694E74146D1E75D
:100E5000D0467BE76444023847E7023B65442FE70E
:100E6000084606E73146E9E6704700BF0122022145
:100E7000014802F08FB800BF000C0140002202219F
:100E8000014802F087B800BF000C014010B5074CC4
:100E900001221021204602F07DF801222021204667
:100EA00002F078F80122024B1A7010BD00080140D0
:100EB000000A0020074B00F132021B683228DA6377
:100EC00003D10122044B1A7070475A28FCD100222A
:100ED000014BF8E7940A0020010A002008B5082118
:100EE000034803F007F8BDE808405A20FFF7E2BFC7
:100EF000940A002008B5094801F026FD642107483E
:100F000001F0B6FB054801F0E1FC10F4007003D0DD
:100F1000024801F059FC80B208BD00BF040A00205D
:100F200008B5084801F016FEFFF7E4FF064B1880ED
:100F3000064B1B78984294BF00200120044B187088
:100F400008BD00BF040A0020FC09002000000020AA
:100F5000FF09002010B5074C0749204600F086F92C
:100F6000064B1A782378934294BF00230123044A46
:100F7000137010BD040000200300002002000020B8
:100F8000020A002010B5044618B1BDE81040FFF772
:100F90007DBF02461021054801F0FCFF22462021BA
:100FA000024801F0F7FF024B1C7010BD0008014021
:100FB000000A002008B5FFF7B3FFFFF7CBFF154B82
:100FC0001B78012B144B1B7815D123B9134B1B78BD
:100FD00003F0FF005BB1FFF751FF0122104B1A70C5
:100FE000FFF754FFBDE808403220FFF763BFBDE8BC
:100FF0000840FFF7C7BF13B9084B1B7843B1FFF791
:101000003DFF0122064B1A70BDE80840FFF73EBFC6
:1010100008BD00BF01000020020A0020FF090020D7
:10102000FE09002037B500240C25CDE90054214AE3
:10103000022306210A20127800F04FFACDE900546D
:101040001D4A022306213220127800F046FACDE92B
:1010500000541A4A032306215A20128800F03DFA50
:10106000174B18491878184A2B46012818BF0A460A
:1010700000942146204600F003FA144B14491878D6
:10108000144A2B46012818BF0A4600942046022124
:1010900000F0F6F9104B11491878114A2B46012837
:1010A00018BF0A4600940421204600F0E9F903B075
:1010B00030BD00BF0400002003000020FC09002018
:1010C00001000020ADEA0008A0EA0008010A0020A3
:1010D000C7EA0008BAEA0008000A0020E1EA0008AE
:1010E000D4EA0008F8B54FF0E0270546BC6901F0E6
:1010F000A7FA064648204543AC420ED201F0A0FABA
:10110000B042FBD04FF0E02204F58C3404F5A0741B
:10111000641B9369A342FCD8F8BD641BBB69A3425E
:10112000FAD901F08DFAB042F8D0F5E71FB50123E6
:10113000CDE900330293032369460348039301F08A
:1011400049FE05B05DF804FB000C01401FB500230B
:10115000CDE9013301230093032369460348039338
:1011600001F038FE05B05DF804FB00BF000C014043
:1011700010B50A4CFFF7DAFF00220121204601F0EA
:1011800009FF142001F062FA01222046114601F005
:1011900001FFBDE810401E20FFF7A4BF000C014076
:1011A000F8B5FFF7D3FF0025124F0121384601F0B3
:1011B000EBFEEEB2044640B10135652D01D10120B0
:1011C000F8BD0120FFF78EFFEFE7642EF7D0094E40
:1011D00001213046E5B201F0D7FE30B90134652C6B
:1011E000EDD00120FFF77EFFF2E7A5F1640358423E
:1011F0005841E5E7000C014038B56524134D012145
:10120000284601F0C1FE18B1013C14F0FF0402D1E0
:1012100065240E4D06E00120FFF764FFEFE7012093
:10122000FFF760FF0121284601F0AEFE18B9013C2E
:1012300014F0FF04F3D12820FFF754FF01210348E5
:1012400001F0A2FE003818BF012038BD000C01409B
:1012500038B5002008254000C4B2FFF7CDFF013D9E
:10126000204315F0FF05C0B2F5D138BDF7B50546EE
:101270000E46FFF77DFFFFF793FFE8B96F460524A1
:10128000FFF7E6FF013C14F0FF0407F8010BF7D16C
:101290009DF800109DF801309DF802209DF8030094
:1012A0000B44134403449DF80400834201D1317080
:1012B0002A70204603B0F0BD0124FAE7202810B5BB
:1012C00006D10F4A1378C3F10103DBB2137010BDCE
:1012D000B0F5807F0BD10A4B1B7803F0FF04002B85
:1012E000F5D12046FFF74EFE064B1C70EFE7B0F538
:1012F000007FECD1BDE810405A20FFF7DBBD00BFF6
:1013000001000020000A00207FB501234FF4807205
:10131000CDE901320DF117028DF817000092782106
:101320000022034802F040F807B05DF804FB00BF5C
:10133000380A002038B5C82001F088F91724054D77
:1013400015F8010B013CFFF7DFFF14F0FF04F7D1A4
:1013500038BD00BF050000207FB501234FF4807227
:10136000CDE901320DF117028DF8170000927821B6
:101370004022034802F018F807B05DF804FB00BFF4
:10138000380A002038B5B0242046FFF7BDFF002002
:10139000FFF7BAFF1020FFF7B7FF80250020013DBF
:1013A000FFF7DAFF15F0FF05F8D10134E4B2B82CED
:1013B000EAD138BD10B50446A1F15000C0B2FFF724
:1013C000A3FF200940F01000FFF79EFF04F00F007C
:1013D000BDE81040FFF798BF2DE9F047203A0C46D2
:1013E000D5B20206074642BF00270234E4B2102BF2
:1013F000214638469DF820602BD1FFF7DBFF4FF0E8
:101400000809DFF874804FEA051A08EB051515F88E
:10141000010B0EB1C043C0B209F1FF39FFF79CFFC9
:1014200019F0FF09F3D1611C3846C9B2FFF7C2FFBA
:1014300008240AF1080AD04418F8010B0EB1C04381
:10144000C0B2013CFFF788FF14F0FF04F4D1BDE8FF
:10145000F0870624FFF7AEFF084A04FB052515F8C0
:10146000010B0EB1C043C0B2013CFFF775FF14F091
:10147000FF04F4D1EBE700BF16ED0008EEEA000828
:101480002DE9F743044689461546984600269DF8FF
:101490002870F0B22A5C12B903B0BDE8F08343466D
:1014A000494620460097FFF797FFB8F10C0F07D188
:1014B0000634E4B27A2C0AD8782C05D80136E8E74D
:1014C0000834E4B27A2CF7D9B8F1100FF6D109F14B
:1014D000010100245FFA81F9F0E72DE9F04F0025C2
:1014E00007468B46A9464FF00A0887B09DF840A0F2
:1014F00005929DF844205E1E03924FEA5A02049220
:10150000F4B2FF2C29D107B0BDE8F08F08FB02F23E
:101510000CF1FF3C5FFA8CFCBCF1FF0FF6D1059B90
:10152000B3FBF2F2B2FBF8FC08FB1C225FFA82FC70
:10153000B9F1000F16D1AE4214DD8AB9039B202207
:101540000093534638465946FFF746FF049B013C3B
:10155000F8180135C7B2E4B2D3E7A4460122D7E7B1
:101560004FF00109039B0CF130020093D2B25346B5
:10157000E8E700001FB51148114A0023012402606A
:101580004FF46022CDE90133039383600373037545
:10159000C2614360046101F05FFA08B100F0BCFD74
:1015A0000723CDE901340023044801A9039301F086
:1015B0000FF908B100F0B0FD04B010BD040A00201E
:1015C0000024014010B5044686B01022002102A874
:1015D00004F07AFA2268104B9A421BD103F56C434F
:1015E0009A690E4842F400729A619A6902A902F45B
:1015F00000720092009A9A6942F004029A619B6913
:10160000802203F004030193019B0323CDE902230D
:1016100001F0E0FB06B010BD0024014000080140CD
:1016200010B503780246A3F13000C1B2092905D9EB
:10163000A3F1410105291AD8A3F13700537800011D
:10164000A3F13001CCB2092C18D8084493780001DA
:10165000A3F13001CCB2092C1DD80844D378000185
:10166000A3F13002D1B2092922D8104410BDA3F150
:101670006101052929D8A3F15700DFE7A3F1410152
:10168000052902D8373B1844E0E7A3F16101052999
:101690001BD8573BF7E7A3F14101052902D8373B97
:1016A0001844DBE7A3F1610105290ED8573BF7E7A2
:1016B000A3F14102052A02D8373B1844D6E7A3F12B
:1016C0006102052A01D8573BF7E70020CEE700006A
:1016D0002DE9F84F0B780646222B0CD101F10108B9
:1016E000434600201A780130222A0CD05AB15C2AD5
:1016F00007D00133F6E70027614B19603846BDE893
:10170000F88F0233EEE75F4B1B68984707460028C7
:10171000F4D004464FF009094FF00D0A4FF00A0BC0
:1017200098F80020222A00D062B9002204232270F7
:1017300098F800203761222A08BF08F101084746BF
:10174000F360DBE75C2A08F1010C03D004F8012BFD
:10175000E046E5E798F80120752A07D86D2A08D8F1
:10176000622A04F101011BD0662A1FD004F8012B64
:1017700019E0A2F16E000728F8D801A353F820F071
:10178000B11700086D1700086D1700086D170008E5
:10179000B71700086D170008BD170008C317000829
:1017A000082222700C460CF1010CD1E70C22F8E75C
:1017B00004F801BBF7E704F801ABF4E704F8019B78
:1017C000F1E708F10200FFF72BFFA0F55C42B2F54C
:1017D000806F054608F1050CE5D30028E3D0A0F59D
:1017E0005842B2F5806F23D298F806205C2ADAD1ED
:1017F00098F80720752AD6D108F10800FFF710FFE6
:10180000A0F55C42B2F5806F08F10B0CCBD21E4BF9
:10181000C0F3090003EA8525284300F5803505F06B
:101820003F0262F07F02E270E01C0422AD0913E087
:101830007F2809D801220134144B985C013A0543F2
:1018400004F8015C1444AEE7B0F5006F0DD3B0F5B9
:10185000803FE4D20322E01C05F03F0464F07F04E3
:10186000411E00F8014CAD0901E00222A11C05F067
:101870003F0060F07F004C1E01F8010CAD09DBE772
:10188000340A00202000002000FC0F0006F30008AE
:101890000346184623B102780133013A1F2AF8D9CA
:1018A00070470000064B10B528201B689847044677
:1018B00018B12822002104F007F9204610BD00BF0E
:1018C0002000002070B518B9081E18BF012070BD97
:1018D000D9B10F4E431E013913F8010F0446825D42
:1018E00002F00302012A11F8012F08BF00F12004C1
:1018F000B55C05F00305012D08BF2032944201D0EC
:10190000A01AE4E70028E7D1E1E70120DFE700BF04
:1019100071F700082DE9F74F05460C4609B9002478
:1019200011E004222046BA4904F064FB18B90223EE
:10193000EB60043407E005222046B64904F05AFB68
:1019400028B9E8600534204603B0BDE8F08F0422D2
:101950002046B14904F04EFB18B90123EB606B61DE
:10196000E7E72378222B06D12146284603B0BDE8BD
:10197000F04FFFF7ADBE2D2B07D0A3F13002092A9F
:1019800000F2AC800022A54B02E00022A44B0134FF
:10199000CDE9002323780026302B08BF01342378BB
:1019A0000027313B082B1AD84FF00008DFF874925B
:1019B00042464B4630463946FEF7ACFE06460F46D9
:1019C00014F8010B3038FEF715FD3B463246FEF7A2
:1019D000C5FB23780646303B092B0F46E8D9237810
:1019E0002E2B37D16378303B092B33D84FF0000AC8
:1019F0004FF0000B4FF00008DFF828920134424608
:101A00004B4630463946FEF785FE06460F4614F82B
:101A1000010B3038FEF7EEFC32463B46FEF79EFBEC
:101A20007E4B06460F46504659460022FEF794FB71
:101A300023788246303B092B8B46E0D9237803F08C
:101A4000DF03452B45D163782B2B08D1A01C4FF029
:101A5000010909E04FF0000A4FF0000BEEE72D2BD3
:101A600035D14FF0FF39A01C4FF000080A2101E0EA
:101A700001FB0838044610F8013B303BDAB2092A72
:101A8000F6D9DDE9002330463946FEF743FE064627
:101A900009FB08F00F46FEF7ADFC52465B46FEF729
:101AA0005DFB02460B4600205E490CF07BF80246C7
:101AB0000B4630463946FEF72DFE0B460246C5E979
:101AC0000623FEF789FD03236861EB603BE7601C9A
:101AD000BDE74FF001094FF00008D2E75B2B3DD185
:101AE0000523601CEB60FFF7D3FE037804465D2BF3
:101AF00001D1013427E7FFF7D5FE0646A86000288C
:101B00003FF40DAF2046FFF7C3FE01463046FFF716
:101B100001FFFFF7BDFE044600283FF400AF237825
:101B20002C2B04D05D2BE4D03F4B1C60F7E6FFF775
:101B3000B9FE054600283FF4F2AE30604660601CF6
:101B4000FFF7A6FE01462846FFF7E4FEFFF7A0FEDA
:101B5000044600283FF4E3AE2E46E0E77B2BE3D1BA
:101B60000623601CEB60FFF793FE037804467D2B91
:101B7000BFD0FFF797FE0646A86000283FF4CFAE1F
:101B80002046FFF785FE01463046FFF7A1FDFFF72F
:101B90007FFE00283FF4C3AE002433693461336212
:101BA00003783A2B02D0204B1860CCE60130FFF7C7
:101BB0006FFE01463046FFF7ADFEFFF769FE0546B2
:101BC00000283FF4ACAE2B782C2B03D07D2B3CD1DE
:101BD0006C1CB8E6FFF766FE074600283FF49FAE90
:101BE00030604660681CFFF753FE01463846FFF739
:101BF0006FFDFFF74DFE00283FF491AE3B693C615D
:101C00003B6203783A2B11D0074B186087E600BF80
:101C1000F6F20008FBF2000801F300080000F03FB4
:101C20000000F0BF00002440340A00200130FFF71C
:101C30002FFE01463846FFF76DFEFFF729FE0546E9
:101C400000283FF46CAE3E46BDE7014B1D6066E6E2
:101C5000340A0020014B1868704700BF340A002086
:101C600070B504460F4D04B970BDE3682668D90508
:101C700003D4A06868B9206988B9E3689B0503D4D8
:101C8000206A08B12B68984720462B68984734464D
:101C9000E9E7FFF7E5FFE368DA05ECD5EDE72B6848
:101CA0009847EAE71C0000202DE9F84304460E4659
:101CB00017464FF00008FFF7F5FDDFF84C9005469A
:101CC000C9F8008060B12046FFF7E2FD01462846D2
:101CD000FFF720FE044630B92846FFF7C1FF25462E
:101CE0002846BDE8F8835FB1FFF7D2FD03780446CC
:101CF00033B12846FFF7B4FF4546C9F80040EFE787
:101D0000002EEDD03460EBE7340A002000221146AB
:101D1000FFF7CABF38B50D46846824B12946206A4A
:101D2000FFF7D0FD08B9204638BD2468F5E700006C
:101D30002DE9F0474FF0100988B04A4600210DEB1D
:101D4000090003F0C1FE444BDFF810A19A69DFF8E7
:101D5000108142EA09029A619A69504602EA090230
:101D60000092009A9A694FF4005142F020029A6161
:101D70009A693C4E02F020020192019A9A6901246C
:101D800042F004029A619A69022502F0040202926A
:101D9000029A9A69002742F008029A619B6901221F
:101DA00003F008030393039B01F0F4F8404600227C
:101DB000302101F0EFF801223046114601F0EAF837
:101DC00000223046022101F0E5F84FF4005350465E
:101DD0000DEB0901CDE90434CDE9067500F0FAFFF9
:101DE00040460DEB0901CDE90494CDE9064500F02C
:101DF000F1FF202340460DEB0901CDE90434CDE984
:101E0000067500F0E7FF032330460DEB0901079349
:101E1000CDE90444069400F0DDFF30460DEB0901E6
:101E2000CDE90454CDE9065500F0D4FF4FF44872D3
:101E30000D4B30460DEB0901CDE90423069400F06B
:101E4000C9FF3A463946172000F006FF172000F078
:101E500035FF08B0BDE8F0870010024000100140D7
:101E600000080140000C01400000111008B50B48AB
:101E70000B4A0C4BC0E9002300234FF48042C0E919
:101E80000233C0E90423C0E90633036201F0E4F938
:101E900018B1BDE8084000F03FB908BD380A00207D
:101EA00000540040A086010010B5044686B0102200
:101EB000002102A803F008FE2268114B9A421CD1AF
:101EC000104CC022A369104843F00803A361A36922
:101ED00002A903F008030093009B1223CDE902231B
:101EE0000323059300F076FFE36943F40013E361F5
:101EF000E36903F400130193019B06B010BD00BF1A
:101F00000054004000100240000C014010B594B095
:101F1000142200210CA803F0D7FD142200210DEBA0
:101F2000020003F0D1FD1022002101A803F0CCFD36
:101F300002244FF480330122CDE91143CDE90A2375
:101F40004FF4E0130AA80E92139301F0BDFA08B102
:101F500072B6FEE70F23CDE905344FF48063079096
:101F6000CDE90830214605A801F070FC08B172B631
:101F7000FEE74FF4004301A80194039301F022FD12
:101F800008B172B6FEE714B010BD00002DE9F041B3
:101F9000A8B003AA1546414B0293414B03F110062A
:101FA000144618685968083303C4B3422246F7D16F
:101FB0001868206000F026FBFFF7A8FFFFF7B8FEC7
:101FC00000F008FAFFF752FF00F0CAF900F01EFA1D
:101FD000FFF7D0FA334800F0A1F8FEF747FFFFF70C
:101FE000A9F9FFF7CFF9FEF779FF01222E492F4813
:101FF00002F0E9FA03F03EF803F0C2F804460028C4
:1020000048D1012102A803F029F90C2307210A2055
:10201000274A0094FFF734FA0C2307213220254A7F
:102020000094FFF72DFA0C2307215A20224A00942E
:10203000FFF726FA214E224FDFF88880FEF7F2FFE5
:10204000FEF7B8FF3378012B04D14FF40051384626
:1020500000F0A5FF0134A4B2632C11D91A4B1B4A1E
:102060001B881B490093127898F8003008A803F0E9
:10207000DDFE284608A903F01FF9002402F052FFF4
:10208000032002F0D5FF08B103F042F90A2000F066
:10209000DDFAD3E702F046FFAEE700BF0DF300081C
:1020A0004BF30008DC0A0020B40B0020240B0020B6
:1020B00021F3000825F3000829F30008FE09002099
:1020C0000010014003000020FC0900200400002053
:1020D0002DF300080C4A08B513883F2B0CD90021BA
:1020E0000A481180402203F0EFFCBDE808400122BD
:1020F0000749084802F067BA591C1180044A117850
:10210000024AD154F1E700BFB00B0020700B002051
:10211000B40B0020240B002072B6FEE7044B022211
:102120001860044B186800238068194603F0A6BDA8
:102130008C0A002030000020022808B505D903F0E1
:10214000DDF909230360002008BD0120FCE7000041
:102150000138012810B514460BD809484FF0FF3359
:10216000006892B201F0C3FF002818BF0524204682
:1021700010BD03F0C3F909234FF0FF340360F6E705
:102180008C0A0020022808B506D903F0B7F9092304
:1021900003604FF0FF3008BD0020FCE708B503F0F6
:1021A000ADF9092303604FF0FF3008BD08B558B9F9
:1021B00009484FF0FF330122006801F0E3FF0028D7
:1021C0000CBF0120052008BD03F098F90923036026
:1021D0004FF0FF30F7E700BF8C0A0020022808B557
:1021E00004D84FF400534B60002008BD03F086F97B
:1021F00009230360F8E700000E4B82B09A6942F0B1
:1022000001029A619A6902F001020092009ADA6969
:1022100042F08052DA61DB69074A03F08053019390
:10222000019B536823F0E06343F00073536002B0F6
:10223000704700BF0010024000000140FEE7FEE7CB
:10224000FEE7FEE7FEE770477047704700F0ECB925
:1022500008B5202000F0ACFE4FF4807000F0A8FE1E
:10226000BDE808404FF4007000F0A2BE014802F043
:102270003FB800BF240B00200120704708B503F0D1
:102280003DF9162303604FF0FF3008BD08B503F099
:1022900035F916230360FEE70B4A0346116810B5B3
:1022A00009B90A491160106809490A4C0344091B1D
:1022B0008B4206D903F022F90C2303604FF0FF3064
:1022C00010BD1360FCE700BF900A0020000C002046
:1022D00000500020000400007047036882B0B3F192
:1022E000804F0AD103F50433DA6942F00102DA6162
:1022F000DB6903F001030193019B02B0704700000A
:1023000010B5044686B01022002102A803F0DCFBC1
:102310002368B3F1804F1DD103F504339A690E4849
:1023200042F008029A619B694FF4806203F008034F
:102330000193019B022302A9CDE90223059300F03A
:1023400049FD064A536823F4407343F0E06343F4C5
:102350000073536006B010BD000C01400000014046
:1023600010B500248AB021461C2203A8CDE90144FF
:1023700003F0AAFB40F2CF234FF080411448C0E99C
:10238000001340F2CF738460C0E90334846101F02C
:102390009DFC08B1FFF7C0FE0D4801A9CDE901443D
:1023A00001F0AAFD08B1FFF7B7FE0023602208483C
:1023B000CDE9032303A908220593079301F0DEFC6E
:1023C00008B1FFF7A9FE0248FFF79AFF0AB010BD57
:1023D000940A002008B54FF4E1330A480A4AC0E9DC
:1023E000002300230C22C0E90233C0E90523036166
:1023F000C36101F04DFE18B1BDE80840FFF78CBE87
:1024000008BD00BFDC0A0020003801404FF4E13372
:1024100010B5104A104CC4E9002300230C222046BA
:10242000C4E90233C4E905232361E36101F030FE0E
:1024300008B1FFF771FE00220521262000F00CFCF8
:10244000262000F03BFC2268D36843F02003D360D1
:1024500010BD00BF00440040240B0020102210B526
:10246000044688B00DEB0200002103F02DFB236829
:102470002F4A934229D12F4B4FF400719A692E486D
:1024800042F480429A619A6902F480420092009A72
:102490009A6942F004029A619B6903F00403019374
:1024A000019B0223CDE90413032304A9079300F041
:1024B00091FC4FF48060002304A9CDE904031E4879
:1024C000069300F087FC08B010BD1C4A9342FAD175
:1024D000184B04A9DA69184842F40032DA61DA6963
:1024E000002402F400320292029A9A6942F0040235
:1024F0009A619B69042203F004030393039B022364
:10250000CDE904230323079300F064FC082304A906
:102510000948CDE90434069400F05CFC22462146CB
:10252000262000F099FB262000F0C8FBCBE700BF77
:102530000038014000100240000801400044004003
:1025400084B038B504AC84E80F001699BDF85C403F
:102550000C44A14203D1BDE8384004B070474D1C83
:102560004FF0FF33012204A801F0C1FD2946F0E736
:10257000FFF7B2FE0B480C490C4A002302E0D45886
:10258000C4500433C4188C42F9D3094A094C0023BF
:1025900001E013600432A242FBD302F0B5FFFFF763
:1025A000F5FC704700000020E0090020A8FB0008AF
:1025B000E0090020000C0020FEE7000038B50E4BBB
:1025C000054618784FF47A73B3FBF0F30B4A1068A2
:1025D000B0FBF3F000F080FB044658B90F2D09D88A
:1025E000024629464FF0FF3000F036FB2046044BF0
:1025F0001D6038BD0120FCE72800002024000020D9
:102600002C000020074A08B51368032043F010038C
:10261000136000F00FFB0F20FFF7D0FFFFF7ECFD7A
:10262000002008BD00200240034A044B11681B78BB
:102630000B441360704700BF6C0B00202800002083
:10264000014B1868704700BF6C0B002038B504467A
:10265000FFF7F6FF0546631C1EBF044B1B78E4180A
:10266000FFF7EEFF431BA342FAD338BD280000203A
:10267000F7B5002604460D460196FFF7E1FF2368F3
:1026800007469A68D20508D50120A36A84F8246019
:1026900043F02003A36203B0F0BD5A68D60503D40B
:1026A000DB6A13F4700F3FD0414B02201E6801F02B
:1026B00003FA23683F4A1969B6FBF0F611423E4A15
:1026C00053D1D8683D4908424FD1196911425DD1B3
:1026D000DA683B4B1A4214BF292314235E43019B43
:1026E000B34225D26A1C5CD0002D55D1019BB34268
:1026F00057D2A36A43F00403A36200230BE0681CD3
:1027000013D065B923681B6813F002030CD1A26AC9
:1027100042F00402A262032084F82430BBE7FFF7F2
:102720008FFFC01BA842EDD8226813689907E6D531
:102730006FF0120322681360A36A43F40073A3626C
:10274000936803F46023B3F5602F2ED1207B00281B
:102750002BD1A36A23F48073A362A36ADB0424D47D
:10276000A36A43F00103A36295E71969114203D1FB
:10277000D968134A11420BD01969124A114209D182
:10278000DB68134214BFFC235423A7E72923A5E7E2
:102790005423A3E7FC23A1E7FFF752FFC01BA84285
:1027A000A4D8019B0133019399E7002073E700BF90
:1027B00024000020244992249224491224499200A2
:1027C00092244900499224000368D86C70470000A5
:1027D000002373B5019390F824300446012B6CD08C
:1027E000012380F824304D680268062D086805EB47
:1027F000850322D81F26556B053B9E4025EA06051A
:1028000000FA03F32B43536309288B6800EB400560
:102810004FF0070129D9D6681E3DA94026EA0101DB
:10282000AB400B43D360A0F11003012B25D900204E
:10283000002384F8243002B070BD0C2D4FF01F052A
:1028400009D8166B233B9D4026EA050500FA03F3E1
:102850002B431363D8E7D66A413B9D4026EA050522
:1028600000FA03F32B43D362CEE71069A94020EAB4
:102870000101AB400B431361D9E7114B9A4216D1CA
:1028800093681B02D3D49368102843F40003936029
:10289000CDD10C4B0C4A1B68B3FBF2F30A22534315
:1028A0000193019B002BC2D0019B013BF8E7A36A77
:1028B000012043F02003A362BAE70220BBE700BF78
:1028C000002401402400002040420F00806A70472D
:1028D000002337B50193036804469A68D20702D5EE
:1028E000002003B030BD9A6842F001029A60144B98
:1028F000144A1B68B3FBF2F30193019BE3B9FFF7A2
:102900009FFE054623689B68DB07E9D4FFF798FE26
:10291000401B0228F6D923689B6813F00103F1D10C
:10292000A26A012042F01002A262E26A84F8243016
:1029300042F00102E262D4E7019B013BDCE700BF09
:102940002400002040420F0010B590F824300446C7
:10295000012B54D0012380F82430FFF7B9FF002861
:1029600049D1A36A274A23F4407323F0010343F4B7
:102970008073A3622368934204D123494A6812F406
:10298000702F2ED1A26A22F48012A2625A685205D8
:1029900041BFA26A22F4405242F48052A262A26A6B
:1029A00012F480521CBFE26A22F00602E2620022A8
:1029B00084F824206FF002021A609A6802F4602200
:1029C000B2F5602F13D10F4A934205D1A2F5806270
:1029D000526812F4702F0AD19A6842F4A0029A60E9
:1029E00010BDA26A42F48012A2624A68CFE79A68D8
:1029F00042F48012F3E7002384F82430F0E7022049
:102A0000EEE700BF002801400024014038B503680C
:102A100004469A68D10701D4002038BD9A6822F094
:102A200001029A60FFF70CFE054623689B68DB07EE
:102A3000F2D5FFF705FE401B0228F6D923689B68F4
:102A4000DA07F2D5A36A012043F01003A362E36A18
:102A500043F00103E362E0E7F8B5044600286ED0D6
:102A6000836A23B9C36280F82430FEF7ABFD2046A9
:102A7000FFF7CCFFA36A13F0100362D1002860D1E6
:102A8000A26AE569616822F4885222F0020242F0EB
:102A900002022943A568A262227BB5F5807F41EA44
:102AA000420137D0012D14BF00274FF48077267DD7
:102AB000012E06D182BBA269013A47EA423646F4AA
:102AC00000672268B5F5807F566826F4694646EAB5
:102AD0000706566097681D4E06EA070646EA010695
:102AE000966001D0012D02D12369013B1B05D56AF7
:102AF00025F470052B43D3629268154B134099421D
:102B000013D10023E362A36A23F0030343F001031C
:102B1000A362F8BD2F46CAE7A26A42F02002A26271
:102B2000E26A42F00102E262CBE7A36A23F01203F9
:102B300043F01003A362E36A43F00103E362012060
:102B4000E7E7A36A43F01003A362F8E7FDF7E1FFAC
:102B5000FE0E1FFF002373B5019390F82430044646
:102B6000012B62D0012380F82430FFF74FFF20466D
:102B7000FFF7AEFE054600282FD1A36A022023F4FA
:102B8000885323F0020343F00203A362284B1E681C
:102B900000F092FFB6FBF0F676000196019B03BBB6
:102BA0002268936843F008039360FFF749FD0646E7
:102BB00023689A68110718D49A6842F004029A6050
:102BC000FFF73EFD064623689B685B0723D4A36A94
:102BD00023F0030343F00103A362002384F82430AD
:102BE00016E0019B013B0193D8E7FFF729FD801B0D
:102BF0000A28DDD923689B681807D9D5A36A01255F
:102C000023F0120343F01003A362002384F824305E
:102C1000284602B070BDFFF713FD801B0A28D2D9E9
:102C200023689B685A07CED5E8E70225F0E700BF86
:102C30002400002007490302CA6803F4E06322F479
:102C4000E0621204120C134343F0BF6343F40033F9
:102C5000CB60704700ED00E0164B30B5DC68C4F384
:102C60000224C4F10703251D042B28BF0423062DCD
:102C70004FF0FF3598BF002405FA03F388BF033CEB
:102C800021EA0303A34005FA04F422EA040200281F
:102C900043EA0203ACBF00F16040074A4FEA031366
:102CA000DBB2ABBF00F5614000F00F0080F80033ED
:102CB000135430BD00ED00E014ED00E0002808DB07
:102CC0000123420900F01F0003FA00F0014B43F812
:102CD0002200704700E100E00138B0F1807F0BD2A4
:102CE0004FF0E023F021054A586182F823100020BC
:102CF000072298611A6170470120704700ED00E0DB
:102D000090F82130022B06D004238363002380F83F
:102D10002030012070470368C16B1A6822F00E0250
:102D20001A601A6822F001021A600122036C02FA8A
:102D300003F34B60002380F8212080F820301846F0
:102D40007047000010B590F82130022B03D0042307
:102D50008363012010BD03681A6822F00E021A6016
:102D60001A6822F001021A60184A93421FD01432E6
:102D700093421ED0143293421DD0143293421DD080
:102D8000143293421DD0143293420CBF4FF480137F
:102D90004FF080730E4A00245360012380F82130E5
:102DA000436B80F820407BB198472046D2E701234F
:102DB000F0E71023EEE74FF48073EBE74FF4805316
:102DC000E8E74FF48033E5E71846C3E70800024020
:102DD000000002402DE9F74F00221646644F654B74
:102DE000DFF894C1DFF894E10D6835FA06F402D1FA
:102DF00003B0BDE8F08F4FF0010808FA06F805EAC5
:102E0000080438EA05057BD14D68032D07D8013D3C
:102E1000022D00F28880DFE805F0969BA100122DBC
:102E200000F099806ED8112D00F08F80FF2C98BF94
:102E300082464FF00F0988BF00F1040A4FEA860569
:102E4000DAF8008088BF203D09FA05FB28EA0B0864
:102E500002FA05F548EA0505CAF80050D1F804A0C1
:102E60001AF0805F4CD0BD6926F0030845F00105DB
:102E7000BD61BD6908F1804805F00105019508F5BF
:102E8000803806F0030B019D4FEA8B0BD8F80850F1
:102E900009FA0BF925EA0909394DA84262D005F56E
:102EA0008065A84260D005F58065A8425ED005F532
:102EB0008065A8420CBF0325042505FA0BF545EAF9
:102EC0000905C8F808509D681AF4801F14BF2543EF
:102ED000A5439D60DD681AF4001F14BF2543A54378
:102EE000DD605D681AF4003F14BF2543A5435D60B3
:102EF0001D681AF4803F14BF2C4325EA04041C60AB
:102F0000013671E7DFF87C904D450CD017D8A9F554
:102F100080194D4507D009F570294D4503D0A9F515
:102F200080194D4582D18A68D2B1012A08BFC0F804
:102F300010804FF0080218BFC0F8148076E765458E
:102F4000F1D07545EEE7CA6870E7CA6804326DE7EC
:102F5000CA6808326AE7CA680C3267E7002265E788
:102F6000042263E70025A8E70125A6E70225A4E7D8
:102F70000010024000040140000031100000321037
:102F800000080140000022108368194214BF01208C
:102F9000002070470AB1016170470904FBE7C3686C
:102FA00001EA030221EA030141EA0241016170479B
:102FB000044A08B55169014202D05061FEF77EF91A
:102FC00008BD00BF00040140016800224B6913F4F2
:102FD000806310D06FF480634B612023026380F81C
:102FE0003D3080F83E20036C80F83C2043F0040321
:102FF000036401207047184670472DE9F8460646DD
:103000000F4691461D464FEA114A3368BAF1010F47
:103010000CBF5C699C6927EA0404A4B2B4FA84F486
:103020006409A14501D0002025E06A1CEED0FFF71D
:1030300007FB089BC01AA84201D8002DE5D13368D0
:10304000BAF1010F0CBF5B699B6927EA03039BB2CE
:10305000B3FA83F35B099945D7D1002320220120DD
:10306000336386F83D2086F83E30326C86F83C307B
:1030700042F020023264BDE8F8862DE9F0410446B2
:103080000F46164698462568686927EA000080B210
:10309000B8B16B695A0516D52B68202243F400732A
:1030A0002B606FF480636B610023236384F83D2001
:1030B00084F83E30226C42F004020120226484F83D
:1030C0003C30BDE8F081731CDED0FFF7B9FAA0EB0D
:1030D0000800B04201D8002ED5D123685A6927EAEA
:1030E000020292B2002ACED000232022236384F869
:1030F0003D2084F83E30226C42F02002DDE770B5BE
:1031000004460D46164623685B691B0601D5002060
:1031100070BD2046FFF758FFC8B96A1CF3D0FFF70F
:103120008FFA801BA84201D8002DECD123685B697F
:1031300013F08003E7D12022236384F83D2084F834
:103140003E30226C84F83C3042F0200222640120A0
:10315000DEE700002DE9F043154602689946136842
:1031600085B043F480731360DDE90C780E463B466E
:1031700000224FF00111CDF800800446FFF73DFF1B
:10318000236838B11B68DB0502D54FF40073236454
:1031900003200AE006F0FE061E613A46434620463A
:1031A0001749FFF76AFF18B1012005B0BDE8F083A9
:1031B000236803905A69394603929B6942460393F8
:1031C0002046039BFFF79BFF40B1236C042B01BFFC
:1031D0002268136843F400731360E5E7B9F1010F47
:1031E000236802D1EDB21D61DFE72A0A1A61394670
:1031F00042462046FFF783FF0028E6D12368F1E727
:103200000200010070B504460D46164623685B694E
:103210005B0701D5002070BD2046FFF7D5FEC8B979
:103220006A1CF3D0FFF70CFA801BA84201D8002DCE
:10323000ECD123685B6913F00403E7D120222363F8
:1032400084F83D2084F83E30226C84F83C3042F013
:10325000200222640120DEE770B5044608B901208F
:1032600070BD90F83D3003F0FF021BB980F83C20A0
:10327000FEF71AFE242384F83D3023681A6822F0F2
:1032800001021A601A6842F400421A601A6822F4B5
:1032900000421A6000F076FB3F4A6368934294BF95
:1032A0003E4A3F4A90428CBF00220122002AD6D1DA
:1032B000394E3C49B342B0FBF1F188BF4FF49676EA
:1032C000226800F1FF30556825F03F0545EA010509
:1032D00082BF71434FF47A76B1FBF6F15560156AFF
:1032E000013125F03F0529431162D1692A4D21F4AE
:1032F0004F41AB4221F0FF0132D85B00B0FBF3F04D
:10330000431C40F6FC70034242D0C3F30B030B4353
:10331000D3611168D4E9073021F0C00103430B43A6
:1033200013609168D4E9030321F40341034321F0BE
:10333000FF010B439360D168D4E9053021F0FF0110
:1033400003430B43D3601368002043F00103136071
:103350002023206484F83D30206384F83E007FE71A
:10336000A56855B903EB4303B0FBF3F30133C3F393
:103370000B037BB143F40043C9E719256B43B0FB52
:10338000F3F30133C3F30B0323B143F44043BEE72C
:103390000423BCE70123BAE7A08601007F841E0056
:1033A000FF083D0040420F002DE9F74304469946CF
:1033B0000F4690460C9EFFF743F994F83D300546C2
:1033C000202B03D0022003B0BDE8F0830090192326
:1033D000012220463A49FFF710FE0028F2D194F866
:1033E0003C30012BEED00123206884F83C30036888
:1033F0004246D90758BF036839465CBF43F0010312
:103400000360036823F400630360212384F83D30E4
:10341000402384F83E30002323640A9B20466362E5
:10342000BDF82C30CDE900656385638D2385254B80
:10343000E3624B46FFF78EFE00282AD00120C2E748
:10344000FFF75DFE40B1236C042B01BF22681368B7
:1034500043F400731360F1E7636A27681A4612F8B1
:10346000011B39616262628D218D013A92B26285DF
:103470007A69481E80B2520720850AD548B15A7829
:1034800002333A616362638D0239013B9BB221854D
:103490006385238D2A4631462046002BD0D1FFF785
:1034A000B1FE0028CFD12268136843F40073136083
:1034B000202384F83C0084F83D3084F83E0082E705
:1034C000020010000000FFFF2DE9F341054638B36C
:1034D0000368DB0710D42B689F075ED42B6819079D
:1034E00000F195802B685A0700F1C180E869002837
:1034F00040F02C81002029E0904C636803F00C031D
:10350000042B07D0636803F00C03082B0AD163680F
:10351000DE0307D523689C03DDD56B68002BDAD169
:10352000012013E06B68B3F5803F12D1236843F4A8
:1035300080332360FFF784F8064623689803CAD4D3
:10354000FFF77EF8801B6428F7D9032002B0BDE89E
:10355000F0819BB9236823F480332360236823F42C
:1035600080232360FFF76CF8064623689903B2D5E1
:10357000FFF766F8801B6428F7D9E6E7B3F5A02FBC
:10358000236803D143F480232360CFE723F48033FF
:103590002360236823F48023CBE7684C636813F02F
:1035A0000C0F07D0636803F00C03082B10D163687D
:1035B000DA030DD423689B0702D52B69012BAFD109
:1035C00023686A6923F0F80343EAC203236085E7AE
:1035D0002A695B4B6AB101221A60FFF731F806468F
:1035E00023689F07ECD4FFF72BF8801B0228F7D93C
:1035F000ABE71A60FFF724F80646236898077FF5C3
:103600006DAFFFF71DF8801B0228F6D99DE7AA6968
:103610004A4E4B4BE2B10122C3F88024FFF710F869
:103620000446736A9B070DD54FF4FA52454B1B684D
:10363000B3FBF2F3019300BF019B5A1E0192002BD2
:10364000F9D14FE7FEF7FCFF001B0228E9D97CE720
:10365000C3F88024FEF7F4FF0446736A9F077FF5E2
:1036600041AFFEF7EDFF001B0228F6D96DE7334CA2
:10367000E369D80024D40127E36943F08053E36170
:10368000E36903F080530093009B2F4E3368D90504
:1036900018D5EB68012B26D1236A43F0010323627E
:1036A000FEF7CEFF41F288380646236A9B073FD5D6
:1036B000002F3FF41BAFE36923F08053E36115E76C
:1036C0000027E2E7336843F480733360FEF7B8FF06
:1036D00080463368DA05DCD4FEF7B2FFA0EB0800C1
:1036E0006428F6D931E7ABB9236A41F2883823F070
:1036F00001032362236A23F004032362FEF7A0FF81
:103700000646236A9807D3D5FEF79AFF801B4045EB
:10371000F7D91AE7052B236A03D143F00403236288
:10372000BAE723F001032362236A23F00403B6E718
:10373000FEF786FF801B4045B7D906E70010024020
:103740000000424224000020007000402A4C6368C0
:1037500003F00C03082B3ED00022284B02281A66E7
:103760002CD1FEF76DFF06462368990120D42B6A01
:10377000B3F5803F05D16268A96822F400320A439C
:103780006260696A62680B4322F474121343012277
:1037900063601A4B1A66FEF753FF054623689A01C9
:1037A0003FF5A8AEFEF74CFF401B0228F6D9CCE649
:1037B000FEF746FF801B0228D6D9C6E6FEF740FF7B
:1037C000054623689B017FF595AEFEF739FF401B48
:1037D0000228F6D9B9E601283FF4B8AE63682A6A30
:1037E00003F4803191427FF49BAE6A6A03F4701354
:1037F00093423FF47FAE93E6001002400000424245
:103800000D4A536803F00C01082912D10B48C3F389
:103810008341DB03405C09D55368094AC3F3404345
:103820005043084AD35CB0FBF3F07047064B584353
:1038300070470348704700BF0010024077F300084C
:1038400000127A0087F3000800093D002DE9F041DD
:103850000D46044610B90120BDE8F081444A1368C2
:1038600003F007038B4228D321688E0730D4CA07A0
:1038700043D43F4A136803F00703AB4265D822687C
:103880003C4D12F0040F6CD1130706D56B6822690A
:1038900023F4605343EAC2036B60FFF7B1FF6B6828
:1038A000354AC3F30313D35CD840344B1860344B10
:1038B0001868FEF783FE0020CEE7136823F00703A5
:1038C0000B431360136803F007038B42C3D1CBE7AC
:1038D000284B11F0040F1EBF5A6842F4E0625A6090
:1038E000080742BF5A6842F460525A605A68A0689A
:1038F00022F0F00202435A60B9E762681D4E012AC5
:1039000033681AD113F4003FA5D0736841F28838A8
:1039100023F0030313437360FEF792FE07467368B8
:10392000626803F00C03B3EB820FA2D0FEF788FEAF
:10393000C01B4045F3D903208EE7022A02D113F0C1
:10394000007FE1E713F0020FDEE7136823F00703BF
:103950002B431360136803F00703AB427FF47BAF84
:103960008DE76B68E16823F4E0630B436B608BE7E2
:1039700000200240001002405FF3000824000020F5
:103980002C000020044B054A5B68C3F30223D35C80
:10399000034A1068D8407047001002406FF30008D7
:1039A00024000020044B054A5B68C3F3C223D35CA8
:1039B000034A1068D8407047001002406FF30008B7
:1039C0002400002003682DE9F341D907054620D5DE
:1039D000364CE369DA0032D40126E36943F08053C0
:1039E000E361E36903F080530193019B304F3B682F
:1039F000DB0526D5236A13F4407336D1236A6A683F
:103A000023F44073134323621EB1E36923F0805310
:103A1000E3612868830706D52449AB684A6822F425
:103A200040421A434A6010F010001BD01F4AE96858
:103A30005368002023F480030B43536012E00026F8
:103A4000D4E73B6843F480733B60FEF7F9FD8046A2
:103A50003B68D805CED4FEF7F3FDA0EB0800642840
:103A6000F6D9032002B0BDE8F0816A6802F4407222
:103A70009A42C3D001200F4A236AC2F840040020B2
:103A800023F44071C2F840042162D907B6D5FEF78D
:103A9000D7FD41F288380746236A9A07AED4FEF76D
:103AA000CFFDC01B4045F7D9DBE700BF0010024047
:103AB0000070004000004242022808B544D010289F
:103AC00003D0012822D0002034E0254B5A68186822
:103AD00010F080702ED0C2F383412248D20348BF39
:103AE0005A68405C41BF2049C2F34042895C1F4A8A
:103AF0005B684CBFB2FBF1F21D4A5B0202FB00F0B7
:103B000018D403234000B0FBF3F013E040F202317D
:103B1000134A136A1940B1F5817F1ED003F4407334
:103B2000B3F5007F07D149F64043506A10F0020018
:103B300018BF184608BDB3F5407FC4D110684FF2D6
:103B4000244310F40030F3E7FFF72CFF044B5B68CD
:103B5000C3F3813301335B00D5E74FF40040E9E75D
:103B60000010024089F3000899F3000800127A005F
:103B700000093D00036A026A70B522F00102026288
:103B8000446882690D6822F073022A438D6823F02D
:103B900002032B430A4DA8420BD1CD6823F0080342
:103BA0002B4324F44074D1E90556354323F0040334
:103BB0002C43446082614A684263036270BD00BF67
:103BC000002C0140036A026A70B522F4807202621E
:103BD0004468C2690D6822F073022A438D6823F499
:103BE000007343EA05230B4DA8420DD1CD6823F4A1
:103BF000006343EA052324F44054D1E905563543D4
:103C000023F4806344EA05144460C2614A68C263D5
:103C1000036270BD002C0140036A026A30B522F4D1
:103C2000805202624468C2690D6822F4E64242EAA8
:103C300005228D6823F4005343EA0533064DA8425C
:103C400002BF4D6924F4804444EA85144460C26193
:103C50004A680264036230BD002C01401A4A0368BE
:103C600090420AD0B0F1804F07D0A2F59432904232
:103C700003D002F58062904215D14A6823F07003A8
:103C80001343114A90420AD0B0F1804F07D0A2F5F9
:103C90009432904203D002F58062904203D1CA6808
:103CA00023F4407313434A6923F0800313430360F2
:103CB0008B68C3620B688362034B984204BF0B6935
:103CC0000363012343617047002C014010B5044693
:103CD00030B390F83D3003F0FF021BB980F83C2070
:103CE000FEF7FBFA0223206884F83D30211DFFF720
:103CF000B5FF0123002084F8463084F83E3084F874
:103D00003F3084F8403084F8413084F8423084F801
:103D1000433084F8443084F8453084F83D3010BD99
:103D20000120FCE7036A026A70B522F01002026209
:103D3000446882690D6822F4E64242EA05228D68F1
:103D400023F0200343EA05130B4DA8420DD1CD68A3
:103D500023F0800343EA051324F44064D1E90556B7
:103D6000354323F0400344EA8504446082614A6895
:103D70008263036270BD00BF002C014070B590F8F3
:103D80003C300546012B53D00120082A85F83C0021
:103D90003DD006D8C2B1042A28D0002385F83C3093
:103DA00070BD0C2AF9D12868FFF736FF2B68096926
:103DB000DA6942F40062DA61DA6922F48062DA6177
:103DC000DA6942EA012231E02868FFF7D3FE2B6866
:103DD00009699A6942F008029A619A6922F004021C
:103DE0009A619A690A439A610020D6E72868FFF72A
:103DF00099FF2B6809699A6942F400629A619A698D
:103E000022F480629A619A6942EA0122EBE728680B
:103E1000FFF7D8FE2B680969DA6942F00802DA6117
:103E2000DA6922F00402DA61DA690A43DA61DBE76F
:103E30000220B5E710B50124036A01F01F018C4090
:103E400023EA04030362036A8A401A43026210BD34
:103E500010B5044629B990F83E30012B21D001203D
:103E600010BD042907D190F83F30012BF7D1022370
:103E700084F83F3018E0082907D190F84030012B32
:103E8000EDD1022384F840300EE090F84130012B50
:103E9000E5D10429EBD00829F3D0022380F8413082
:103EA00002E0022380F83E3001222068FFF7C2FFC3
:103EB00023680E4A93420AD15A6C42F400425A6473
:103EC0009A6802F00702062A0BD10020C8E7B3F176
:103ED000804FF5D0064A9342F2D002F580629342B9
:103EE000EED01A6842F001021A60EEE7002C0140A1
:103EF00000040040FFF7ACBF30B590F83C300246FC
:103F0000012B4FF0020022D0136882F83D005C685C
:103F10000D6824F070042C4398685C600C4CA3423C
:103F20000AD0B3F1804F07D0A4F59434A34203D054
:103F300004F58064A34204D1496820F08000014365
:103F400099600123002082F83D3082F83C0030BDAA
:103F5000002C0140026802F10C0353E8003F23F4F7
:103F600090730C3242E8003102680029F2D102F16C
:103F7000140353E8003F23F0010302F1140C4CE852
:103F800000310029F3D1036B012B0BD102F10C039B
:103F900053E8003F23F0100302F10C0C4CE8003111
:103FA0000029F3D1202380F84230002303637047B7
:103FB00010B504460368C1681A6922F440520A43E6
:103FC0001A6182680069D9680243606921F4B051BE
:103FD00021F00C0102430A43DA605A69A16922F414
:103FE00040720A435A610E4A934215D1FFF7DAFC38
:103FF00019234343626820689200B3FBF2F3642202
:10400000B3FBF2F102FB11331B013233B3FBF2F3CA
:1040100003EB0113836010BDFFF7B4FCE8E700BFBA
:1040200000380140F8B504460E4617461D46226882
:10403000136836EA030301D1002028E06B1CF7D097
:1040400025B1FEF7FDFAC01B8542F0D2226802F1CD
:104050000C0353E8003F23F4D0730C3242E80030E5
:1040600021680028F2D101F1140353E8003F23F046
:10407000010301F1140040E80032002AF3D12023AB
:10408000032084F8413084F8402084F84230F8BDA1
:1040900010B5044648B390F8413003F0FF021BB955
:1040A00080F84020FEF7DAF92423226884F84130B2
:1040B000D368204623F40053D360FFF779FF2368C9
:1040C00000201A6922F490421A615A6922F02A02E9
:1040D0005A61DA6842F40052DA602023606484F89E
:1040E000413084F84230606310BD0120FCE72DE9C7
:1040F000F843994690F841300446202B0E46174667
:104100003CD100293CD0002A3AD021230025456427
:1041100080F84130FEF794FAA3688046B3F5805FDB
:10412000A784E78403D123690BB935461E46E38C87
:104130009BB253B94B46424640212046FFF772FFDF
:1041400050B9202384F8413007E04B464246802195
:104150002046FFF767FF10B10320BDE8F88322680F
:104160004EB935F8023BC3F308035360E18C0139C3
:1041700089B2E184DBE716F8013BF6E70220ECE7C1
:104180000120EAE72DE9F8431F4690F84230044643
:10419000202B0E46914643D1002943D0002A41D01E
:1041A00022230025456480F842300563FEF748FA73
:1041B000A3688046B3F5805FA4F82C90A4F82E90F5
:1041C00003D123690BB935461E46E08D80B220B974
:1041D000202384F84230BDE8F8833B464246202144
:1041E0002046FFF71FFFF8B923684EB95B68C3F399
:1041F000080325F8023BE38D013B9BB2E385E4E72E
:10420000A268B2F5805F02D032B9226922B959683A
:10421000C9B206F8011BEEE7596801F07F01F8E723
:104220000220D8E70120D6E70320D4E77047704783
:1042300008B50023406AC385C384FFF7F8FF08BDB3
:10424000704707B58168836AB1F5805F02683FD126
:10425000016900293FD15268C2F3080223F8022BFA
:104260008362C38D013B9BB2C385002B2DD10268B5
:10427000D16821F02001D160D16821F48071D16032
:10428000516921F001015161202280F842204363ED
:10429000026B012A026828D1036302F10C0353E880
:1042A000003F23F0100302F10C0C4CE80031002910
:1042B000F3D11368DB0605D50191136801935368A8
:1042C0000193019B818DFFF7BBFF03B05DF804FBF9
:1042D00039B9016929B95268D2B21A70836A0133B7
:1042E000BEE7526802F07F02F7E7FDF7F3FEECE766
:1042F000036837B51A68044612F00F0FD9685D6974
:104300000CD1950670D58D066ED590F84230222BD3
:1043100064D103B0BDE83040FFF793BF05F0010062
:1043200001F4907505435FD0D50705D5CB0542BF95
:10433000636C43F001036364550704D518B1636CE3
:1043400043F002036364930704D518B1636C43F030
:1043500004036364150707D501F0200303431EBF60
:10436000636C43F008036364636C002B36D09006E3
:1043700008D58A0606D594F84230222B02D1204671
:10438000FFF75FFF236820465B69656C03F040031D
:1043900005F008051D4323D0FFF7DCFD22685369B3
:1043A0005B0618D502F1140353E8003F23F04003E5
:1043B00002F1140040E800310029F3D1E06B50B164
:1043C000734B4363FEF7BEFC40B1E06B436B03B03D
:1043D000BDE8304018472046FFF729FF03B030BD45
:1043E000FFF725FF6564F9E7206B012840F0948012
:1043F000D50640F19180C80640F18E8000220192DE
:104400001A6801925A680192019A5A6955064DD567
:10441000E16B0A68526892B2002ADFD0A08D904208
:10442000DCD9E2858A69202A36D003F10C0252E8F1
:10443000002F22F4807203F10C0040E800210029D3
:10444000F3D103F1140252E8002F22F0010203F12C
:10445000140040E800210029F3D103F1140252E8CE
:10446000002F22F0400203F1140040E8002100294F
:10447000F3D1202284F84220216303F10C0252E898
:10448000002F22F0100203F10C0040E80021002967
:10449000F3D1E06BFEF734FC02236363E38DA18D5F
:1044A000C91A89B22046FFF7CBFE97E7E18D8AB2A1
:1044B000E18D89B2002991D0A18D891A89B2002994
:1044C0008CD003F10C0252E8002F22F4907203F119
:1044D0000C0545E800200028F3D103F1140252E84E
:1044E000002F22F0010203F1140545E80020002806
:1044F000F3D1202284F84220206303F10C0252E819
:10450000002F22F0100203F10C0545E800200028DE
:10451000F3D102236363C5E7100628D50D0626D51F
:1045200094F84120212A7FF459AFA168226AB1F59D
:10453000805F17D12169A9B932F8021BC1F30801C4
:1045400059602262E28C013A92B2E284002A7FF43E
:1045500045AFDA6822F08002DA60DA6842F04002A1
:10456000DA603BE7511C216212785A60EAE7500694
:104570007FF534AF4A067FF531AFDA68204622F086
:104580004002DA60202384F84130FFF74FFE25E730
:10459000314200080023C2854364222382850269D8
:1045A00080F84230816203681AB1DA6842F480729E
:1045B000DA605A69002042F001025A61DA6842F07A
:1045C0002002DA60704770B490F84260202E06D165
:1045D00041B13AB10024046370BCFFF7DBBF022095
:1045E00070BC70470120FBE770B5056804460E46B5
:1045F00095B901230373084600F0AAFF206030B18B
:104600002B462946C4E90156A268934200D370BDE7
:104610002268D1540133F7E70223037300231A46BB
:10462000A168994204D8B142626038BF2260EEE7C7
:104630002168CA540133F3E710B5037B0446012B0C
:1046400002D1006800F08CFF0023C4E90033A360AE
:10465000237310BD0346012003F07F02DB0909D05C
:10466000013062F07F02052801F8012BF4D14FF0F0
:10467000FF3070470A7070472DE9F04F154600264D
:1046800085B09946CDE901019DF83830109C009322
:10469000029B9F5D9FBB0F9B06EB090A002B009BB3
:1046A0000CBF4FF0300B4FF0310B012B2DD0022BF4
:1046B00030D0002B40F0A3800AF1020A002D52D026
:1046C0002B78022B3FD16B1EC5F1010101EB0308D2
:1046D00013F8012F7D2AF9D1C9F1030208F1050869
:1046E00052444244114620460392FFF77DFF206862
:1046F000039A90B90427384605B0BDE8F08F07F05B
:10470000F707232F79D00136C2E74BF0020B0AF1ED
:10471000040AD3E74BF0040BF9E7002101F0D4F9C8
:10472000D4E90023591C616002F803B0D4E90013F6
:1047300050461944FFF78EFF002823DA2046FFF782
:104740007BFF0527D7E70AF1050820464146FFF71A
:104750004BFF20680028CDD04246002101F0B4F97B
:104760004FF00008DCE70AF1050820464146FFF754
:104770003BFF20680028BDD04246294601F0A4F93D
:10478000A846CDE763681844421C23686260320A79
:104790001A54D4E90023591C6160D6542368606818
:1047A00032461844029901F0F7FB63681E44009BEF
:1047B00066605BB1721C6260019A2368120A9A55A6
:1047C000D4E90023591C61600199D154002D92D085
:1047D000D4E9000318442B78022B07D1424629461E
:1047E000FBF722FF63684344636084E74A46294637
:1047F000FBF71AFF63684B44F6E702277BE70327C2
:1048000079E7002370B5441E0125184613608842DD
:1048100002DB4FF0FF300CE014F8013F03F07F069D
:10482000136805FB0633136094F90030002B01DB9D
:10483000013070BD02284FEAC51501D00130E6E70E
:104840006FF00100F5E7000037B50478054624094C
:10485000631E0D2B20D8032C1BD1002301AA042199
:1048600001300193FFF7CDFF019A012A14D92B786B
:10487000DB0711D4431CE818EB5A5BBA9BB2023336
:104880009A4209D30549023001F04EFD002818BFB5
:104890000F24204603B030BDFF24FAE79BF3000845
:1048A0002DE9F04F064685B010460D46019391461E
:1048B00001F044FB9DF838308346002B109B0CBF61
:1048C0004FF0000A4FF0020A9DF83C70DDF844807A
:1048D000139C81B2002B3ED101F111039BB20FB1A9
:1048E0004AF00C0A129A0AB14AF0240A0293002EE6
:1048F00000F00881002D00F00581304601F01EFB1C
:104900000746284601F01AFB029B04333B4403444C
:104910009FB220463946FFF767FE2068002800F066
:10492000F3803A46002101F0CFF8D4E90023591C66
:1049300061601021D154D4E90013781F1944FFF7A6
:1049400089FE00B2002818DA2046FFF775FE052020
:1049500005B0BDE8F08F1098039101F0EFFA0290D6
:10496000404601F0EBFA0399029B1531DBB201449A
:1049700019444AF0040A8BB2B1E763680FFA8BF767
:104980001844421C6260002223681A54D4E90021B2
:104990004B1C636004235354D4E90021481C60601D
:1049A0004D205054D4E90021481C606051205054DF
:1049B000D4E90021481C60605420505461684A1CAE
:1049C000626022685054D4E90021481C606053544E
:1049D000D4E90023591C61606AF03F01D154D4E945
:1049E0000023591C61600199090AD154D4E90023BC
:1049F000591C61600199D154D4E90023591C6160AC
:104A00004BF30721D154D4E90023591C616002F80B
:104A100003B0D4E900033A464946184401F0BCFA11
:104A200062681AF0040F1744676036D0374B10984D
:104A3000B8F1000F08BF984601F080FA23687A1C8D
:104A40006260C0F30722DA55D4E90023591C616083
:104A500087B2D054D4E900033A461099184401F0C3
:104A60009BFA626840461744676001F067FA236862
:104A70007A1C6260C0F30722DA55D4E90023591C7E
:104A8000616087B2D054D4E900033A4641461844E5
:104A900001F082FA606838446060304601F04EFAF6
:104AA000D4E90023591C6160C0F30721D154D4E933
:104AB0000023591C616087B2D0543146D4E9000309
:104AC0003A46184401F068FA666828463E44666033
:104AD00001F034FA2368721C6260C0F307229A5511
:104AE000D4E90023591C616086B2D054D4E9000394
:104AF00032462946184401F04FFA6068304460603D
:104B0000002025E7032023E7042021E74CF40008D8
:104B10004378022B04D18378012B03D8C0787047E7
:104B200001207047FF2070472DE9F34704460E46E9
:104B300006302F21174698464FF0000A01F098F9E9
:104B4000CDF804A0814600283AD0042101AA451CD2
:104B5000601CFFF756FE252000F0FAFC044630608A
:104B600080B380F824A009F12102234628686968EF
:104B7000083503C395421C46F7D1286809F1250979
:104B80001860019C2C3CA4B2A8F8004004F1010874
:104B9000404600F0DDFC0546386030B9306800F072
:104BA000DFFC032002B0BDE8F0874246002100F0A0
:104BB0008BFF224649462846FBF736FD0020F1E7E9
:104BC0000120EFE70220EDE72DE9F84F0A9C0F46A0
:104BD00015461E468146002860D093464FF0000AD5
:104BE00002EB8308C3451FD106EB46065644204618
:104BF000F11DFFF7F9FC226806F1020A002A51D0E4
:104C000063685046591C61608221D154D4E9001375
:104C10001944FFF71FFD00B200280DDA2046FFF708
:104C20000BFD0420BDE8F88F5BF8040B002837D09B
:104C300001F084F98244D5E763681844421C236874
:104C400062604FEA19221A54D4E90023591C6160AA
:104C500002F80390454501D10020E3E7286801F000
:104C60006DF9D4E900238146591C6160010AD154D1
:104C7000D4E90023591C6160D054D4E900604A464D
:104C800055F8041B304401F087F9626823689144A9
:104C900009F10102626003F80970DBE70120C1E756
:104CA0000220BFE70320BDE70346807850B9DA78D9
:104CB000142A07D11B79022B05D9802B14BF02209F
:104CC00001207047FF207047837823B9C0781E38D1
:104CD00018BF012070470120704770B4069E9DF8F0
:104CE0000C4020B10596039470BCFFF7C5BC0120B1
:104CF00070BC70472DE9F04F9046002287B0074600
:104D000010F801AB0193119B0592CAF341021A708E
:104D10000E4605AA0421FFF774FD059C012C01D85D
:104D2000FF2590E01AF00105FAD101303A5A07EB5D
:104D3000000952BA97B2A8F80020BA1C9442EFD3E7
:104D400009F1020B5846434901F0EEFA00287ED1E2
:104D5000119B1A78002A34D0013A012AE0D84F4436
:104D6000BA78FB7843EA0223129A1380B8F80070ED
:104D70007A1C1046039200F0EBFB30600290002892
:104D8000CED02946039A00F09FFE029B043C3A468F
:104D900059461846E71BFBF747FCBFB2109B07F1CB
:104DA000010B1F80584600F0D3FB019B044618609E
:104DB00058B329465A4600F087FEB8F8001004316F
:104DC0002EE01AF0080FABD17A1C1046039200F0C7
:104DD000BFFB306002900028A2D02946039A00F061
:104DE00073FE029B023C3A4659461846E71BFBF706
:104DF0001BFCBFB2109B07F1010B1F80584600F04F
:104E0000A7FB019B0446186018B9306800F0A8FBA6
:104E100086E729465A4600F057FEB8F800100231DE
:104E200049443A462046FBF7FFFB2B21304601F070
:104E30001FF800287FF474AF2321304601F018F8E2
:104E400000287FF46DAF284607B0BDE8F08F0F252E
:104E5000F9E700BF9BF300084378022B06D1837863
:104E600023B9C0780A3818BF012070470120704765
:104E7000FFF7F2BF38B50C46054604212046FFF780
:104E8000B3FB2268BAB163680020591C61606221DB
:104E9000D154D4E90023591C61600221D154D4E9D2
:104EA0000023591C6160290AD154D4E90023591CFC
:104EB0006160D55438BD0120FCE74378022B09D14D
:104EC0008378B3EB112F05D1C078C9B2401A18BF4F
:104ED000012070470120704738B50C460546042173
:104EE0002046FFF781FB2268BAB163680020591C95
:104EF00061607021D154D4E90023591C6160022102
:104F0000D154D4E90023591C6160290AD154D4E951
:104F10000023591C6160D55438BD0120FCE7FFF720
:104F20009BBF0000402208B50021034800F0CCFDE3
:104F30000022024B1A8008BD700B0020B00B00202D
:104F400006490B883BB1064A1088984202D10020DE
:104F50000880704713800120704700BFB00B00200D
:104F6000B20B0020F0B591B004460F4600F0E6FF0A
:104F700080B2CDE90E406C46154E06F110050FCDFE
:104F80000FC40FCD0FC40FCD0FC495E8030084E804
:104F9000030096E80F00FDF7D3FAC9250D4E013D39
:104FA00015F0FF0501D101240AE0FFF7C9FF04460F
:104FB00048B93946304601F0B7F920B1FFF7B2FFE2
:104FC000204611B0F0BD0A20FDF740FBE7E700BF27
:104FD000240B0020700B002070B50C4698B00546DD
:104FE000FFF7A0FF0F49224610A800F01FFF0E494F
:104FF00010A8FFF7B7FF98B9CDE90E546C460B4ED9
:1050000006F110050FCD0FC40FCD0FC40FCD0FC487
:1050100095E8030084E8030096E80F00FDF790FA96
:1050200018B070BDA1F30008B1F30008240B0020F4
:1050300070B504460D4D0E4EFFF782FF60B929464C
:10504000304601F071F938B13A2100F011FF50B14A
:10505000013070BD1C46EFE70520FDF7F7FA631E2F
:105060009BB2002CF6D10020F3E700BFB3F3000899
:10507000700B002038B5FFF755FF2F4800F0E4FD16
:105080002E4D2F4C29462046FFF76CFF0028F9D102
:105090002C4800F0D9FD2C492C48FFF763FF4FF452
:1050A000FA70FDF7D3FA28492948FFF75BFF4FF460
:1050B000FA70FDF7CBFA274800F0C6FD1F4D264CCD
:1050C00029462046FFF74EFF10BB244800F0BCFDE8
:1050D0001A4D234C29462046FFF744FFE8B92148E2
:1050E00000F0B2FD204D214C29462046FFF73AFF43
:1050F000C0B91F4800F0A8FD1E4D1F4C2946204690
:10510000FFF730FF98B9BDE838401C4800F09CBD5F
:105110004FF4FA70FDF79AFAD2E74FF4FA70FDF700
:1051200095FAD7E74FF4FA70FDF790FADCE74FF401
:10513000FA70FDF78BFAE1E7B8F30008BFF3000857
:10514000C2F30008C7F300084CF40008CFF30008CE
:10515000D8F30008E6F30008F1F30008FFF30008B5
:105160000DF400081DF4000827F400082EF40008D0
:105170004DF400085AF4000862F400088CF40008AA
:1051800030B58BB006AD10220021284600F09CFC03
:10519000264B274A2749284800F0F4FC0023234ADD
:1051A000CDE90333CDE90133009321494FF48073F6
:1051B00020480595FFF774FB002831D1BDF81C107D
:1051C0000698FFF709FFFA20FFF732FF044608B9F7
:1051D000012411E0FFF738FB0228F9D12046FFF740
:1051E00097FC05281AD8DFE800F0030D11131517F6
:1051F000124800F029FD00242846FFF71DFA20463A
:105200000BB030BD0E4800F01FFDE1E70D48FAE796
:105210000D48F8E70D48F6E70D48F4E70D48F2E7CA
:105220000D4800F011FD0124E9E700BF9FF40008DC
:10523000A7F40008ACF40008B2F40008E2F4000897
:10524000F2F400080CF500082CF5000848F50008F9
:105250006AF5000893F50008ACF500082DE9F04365
:10526000044687B002AE0D4610220021304600F001
:105270002BFC2746DFF83C9004EB8508474512D10C
:105280002B462246022114200096FFF79DFC38B9D8
:105290000298BDF80C10FFF79FFE3046FFF7CCF9DF
:1052A00007B0BDE8F083484657F8041B00F06AFCDD
:1052B000E4E700BFCDF5000870B50C46054688B0A0
:1052C00004AE10220021304600F0FEFB22462946A3
:1052D0000E4800F057FC204600F030FE002201216D
:1052E000CDE90121022203460092294622460A20E6
:1052F0000396FFF7F2FC38B90498BDF81410FFF7D5
:105300006BFE3046FFF798F908B070BDE3F5000872
:1053100030B591B00446102200210CA800F0D4FB57
:1053200000232046CDE90733ADF81830ADF81A3028
:105330008DF81730FFF788FAC31E05460C2B08D8E6
:10534000DFE803F01F6D768D9F07A607AE070707FE
:105350000B00FFF7E7FD11B030BD20460DF11A0339
:1053600007AA08A9FFF7E0FB002831D1DDE90721F2
:10537000BDF81A30504800F005FC0CA8FFF75CF9A6
:1053800026E04E4B204602930DF1170301930DF1D9
:105390001A03009306AA07AB08A9FFF7ABFCB8B93C
:1053A000BDF81A30BDF81820089900934448079BAF
:1053B00000F0E8FB0798FCF7A9FC044628BBFCF7C3
:1053C00049FC01463F4800F0DDFB2046FCF748FC65
:1053D000FFF7A8FD7D21079800F04AFD034648B17C
:1053E00009AA104613F8011FA1F13004092C5FD956
:1053F00000F080F80F2D01D0032DACD1089800F0FB
:10540000AFF8079800F0ACF8A5E72F49FCF782FC4D
:105410004369002BD9D05A20FBF74CFDD5E7204635
:10542000FFF71AFD0028D3D1284800F00DFCCFE784
:105430002046FFF71DFD0028CAD1254800F004FCD6
:105440000A200CA9FFF716FD0028C1D1214800F061
:10545000FBFBBDF834100C98FFF7BEFD8DE7174B32
:1054600020461988FFF729FD0028B1D11A4800F01D
:10547000EBFB0A200CA9FFF72FFD0028A8D1174845
:10548000E5E72046FFF74BFD0028A1D11448CCE703
:105490002046FFF709FC08B91248C6E71248C4E7DE
:1054A0002046FFF711FC08B91048BEE71048BCE7DA
:1054B00002F8011B96E700BF00F60008B60B0020BB
:1054C00022F600085BF600086FF6000878F6000880
:1054D00094F60008AAF60008C1F60008D7F60008FE
:1054E000EFF6000806F700081FF7000839F7000874
:1054F00054F700080A22002101F05AB8014B18683D
:10550000704700BF3000002070B50D4E0D4D761B6A
:10551000B61006D0002455F8043B01349847A64243
:10552000F9D1094E094D09F0ADFA761BB61006D037
:10553000002455F8043B01349847A642F9D170BDC8
:105540009CFB00089CFB0008A4FB00089CFB0008D7
:10555000024B0146186800F00BB800BF3000002075
:10556000024B0146186805F0AFBD00BF30000020B7
:105570002DE9F04F01F10B05162D064683B025D815
:10558000102900F2B88000F0F1FA102518224FF02F
:10559000020CB54F3A445368A2F108018B4200F067
:1055A000B7805A68D96822F003021A449C683046D2
:1055B000E1608C60516803F1080441F00101516021
:1055C00000F0DAFA204603B0BDE8F08F35F00705A9
:1055D00000F19180A94200F28E8000F0C7FAB5F583
:1055E000FC7FC0F094816B0A00F08C80042B00F2E9
:1055F0006A81AB0903F1390C03F138044FEACC009E
:10560000994F384443680838984206D10CE0002985
:1056100080F22681DB68984206D05A6822F00302A5
:10562000511B0F29F3DDA4463C69DFF840E27445C5
:105630007AD0626822F00302531B0F2B00F37681AD
:10564000002BC7E904EE80F26781B2F5007F80F09D
:1056500019810121D30852090B4491407A6857F807
:1056600033000A4307EBC3010839A060E1607A60A8
:1056700047F83340C46001214FEAAC03994091429E
:1056800059D8114206D12CF0030C490011420CF1FB
:10569000040CFAD007EBCC0948466446D0F80C80DD
:1056A000404508D11CE1002B80F22181D8F80C8004
:1056B000404500F01581D8F8042022F00302531B66
:1056C0000F2BF0DD08EB050145F00105C8F804508B
:1056D0003046D8E90264F460A66043F00104C7E9EB
:1056E00004114C60C1E902EE48F8023000F044FABF
:1056F00008F1080402E00C2300243360204603B0C4
:10570000BDE8F08F4FF400704FF0400C3F2477E776
:10571000D3689A4208BF0CF1020C7FF442AF3C6997
:10572000DFF848E1744584D101217A684FEAAC037F
:1057300099409142A5D9BC68636823F003094D459F
:1057400003D8A9EB05030F2B7ADCDFF824B1494B12
:10575000DBF800201B6801322B4404EB090A00F03F
:105760002F8103F580530F3323F47F6828F00F084F
:105770004146304600F070FA411C024600F0EF80CE
:10578000824500F2EA803C4B1968414408461960A2
:1057900000F04981DBF80010019301311BBFA2EB3F
:1057A0000A0A5044CBF80020186012F0070B00F0F2
:1057B0001181CBF108010A44CBF5805190440831A6
:1057C000A1EB0801C1F30B0A51463046009200F0EC
:1057D00043FA421CDDE9002300F04B81801A00EB04
:1057E0000A08196848F001005144BC42BA601960C7
:1057F000506000F02481B9F10F0F40F222814FF088
:10580000050E6068A9F10C0C2CF0070C00F00100EB
:1058100040EA0C006060BCF10F0F04EB0C00C0E923
:1058200001EE00F22E8114465068144B1A688A4229
:1058300038BF1960124B1A688A4238BF196090E06D
:10584000621943F0010345F0010565603046BA6016
:105850000834536000F090F9204603B0BDE8F08FA3
:10586000D9681A44A2E600BF600400206804002042
:1058700068080020E80B0020B80B0020E00B002097
:10588000E40B0020B2F5206F4FEA52235FD3142BB4
:1058900000F2B18003F15C01C9005B3378187958DC
:1058A0000838884200F08F804B6823F0030393424E
:1058B00002D989688842F7D1C8687A68C4E90210B9
:1058C0008460CC60D7E6142B59D9542B00F29B800E
:1058D0002B0B03F16F0C03F16E044FEACC008FE643
:1058E0000134A30700F108007FF4D8AE53E044462A
:1058F00042445368D8F80C1043F00103536054F845
:10590000083F3046D9608B6000F036F9F6E64FEA82
:10591000D50C05F108023CE622445368304643F0BA
:105920000103536000F028F90834E7E6611945F0F7
:105930000105656043F00105C7E904113046C1E97E
:1059400002EE4D60A35000F017F90834D6E6930933
:1059500003F13901C9003833A0E7BC425ED0BC680E
:10596000606820F003084545A8EB050302D80F2B1B
:105970003FF766AF304600F0FFF80024BEE603F1C3
:105980005C0C03F15B044FEACC0039E659F80839A6
:105990004B4540F095801CF0030F0CF1FF3CF5D116
:1059A0007B6823EA01037B60490099423FF6C3AE5E
:1059B00011B9C0E6490004341942FBD0A44669E697
:1059C00003F11008D4E601229B109A407B681A4329
:1059D0007A6073E702EB08014942C1F30B0A5146B2
:1059E0003046009200F038F9431CDDE900237FF4D3
:1059F000F5AEDA46F5E6542B26D8130B03F16F010A
:105A0000C9006E334AE7B3F5AA7F26D8EB0B03F142
:105A1000780C03F177044FEACC00F1E5294B1868C4
:105A200040441860B6E6CAF30B0CBCF1000F7FF4DB
:105A3000B1AEBC68C84448F001006060F5E61446A9
:105A4000F3E60123536095E7B3F5AA7F24D8D30B7F
:105A500003F17801C900773320E740F254529342B2
:105A600024D8AB0C03F17D0C03F17C044FEACC008D
:105A7000C6E5ABF1080BD8444FF0000AA8EB0208CA
:105A8000AFE604F108013046009305F01DFBBC6849
:105A9000009B60681968C8E640F254518B420BD8ED
:105AA000930C03F17D01C9007C33F7E64FF47E705F
:105AB0004FF07F0C7E24A3E54FF47E717E23EDE64C
:105AC0007B6871E7B80B0020830730B548D0541EBF
:105AD000002A3FD00346CAB201E0013C3AD303F8A2
