:020000040800F2
:1000000000500020891B0008BD180008BF18000818
:10001000C1180008C3180008C51800080000000037
:10002000000000000000000000000000C7180008E9
:10003000C918000800000000CB180008CD180008FF
:10004000D11B0008D11B0008D11B0008D11B0008E0
:10005000D11B0008D11B0008D11B0008D11B0008D0
:10006000D11B0008D11B0008D11B0008D11B0008C0
:10007000D11B0008D11B0008D11B0008D11B0008B0
:10008000D11B0008D11B0008D11B0008D11B0008A0
:10009000D11B0008D11B0008D11B0008D11B000890
:1000A000D11B0008D11B0008D11B0008D11B000880
:1000B000D11B0008D11B0008D11B0008D11B000870
:1000C000D11B0008D11B0008D11B0008D11B000860
:1000D000D11B0008D11B0008D11B0008D51800084F
:1000E000D11B0008D11B0008D11B00080000000034
:1000F0000000000000000000000000000000000000
:0C01000000000000000000005FF808F1A3
:1001100010B5054C237833B9044B13B10448AFF341
:1001200000800123237010BDD009002000000000D2
:100130008CD0000808B5034B1BB103490348AFF34B
:10014000008008BD00000000D40900208CD0000809
:1001500081F0004102E000BF83F0004330B54FEA78
:1001600041044FEA430594EA050F08BF90EA020FE5
:100170001FBF54EA000C55EA020C7FEA645C7FEA78
:10018000655C00F0E2804FEA5454D4EB5555B8BF9B
:100190006D420CDD2C4480EA020281EA030382EA0C
:1001A000000083EA010180EA020281EA0303362D9E
:1001B00088BF30BD11F0004F4FEA01314FF4801C71
:1001C0004CEA113102D0404261EB410113F0004F83
:1001D0004FEA03334CEA133302D0524263EB43033A
:1001E00094EA050F00F0A780A4F10104D5F1200ED8
:1001F0000DDB02FA0EFC22FA05F2801841F1000133
:1002000003FA0EF2801843FA05F359410EE0A5F106
:1002100020050EF1200E012A03FA0EFC28BF4CF037
:10022000020C43FA05F3C01851EBE37101F00045ED
:1002300007D54FF0000EDCF1000C7EEB00006EEBFA
:100240000101B1F5801F1BD3B1F5001F0CD3490884
:100250005FEA30004FEA3C0C04F101044FEA4452DB
:1002600012F5800F80F09A80BCF1004F08BF5FEA62
:10027000500C50F1000041EB045141EA050130BD42
:100280005FEA4C0C404141EB0101013C28BFB1F554
:10029000801FE9D291F0000F04BF01460020B1FA9F
:1002A00081F308BF2033A3F10B03B3F120020CDA72
:1002B0000C3208DD02F1140CC2F10C0201FA0CF050
:1002C00021FA02F10CE002F11402D8BFC2F1200CB5
:1002D00001FA02F120FA0CFCDCBF41EA0C0190406B
:1002E000E41AA2BF01EB0451294330BD6FEA0404B4
:1002F0001F3C1CDA0C340EDC04F11404C4F120029F
:1003000020FA04F001FA02F340EA030021FA04F3B0
:1003100045EA030130BDC4F10C04C4F1200220FA07
:1003200002F001FA04F340EA0300294630BD21FA45
:1003300004F0294630BD94F0000F83F4801306BF0B
:1003400081F480110134013D4EE77FEA645C18BFFF
:100350007FEA655C29D094EA050F08BF90EA020F96
:1003600005D054EA000C04BF1946104630BD91EA8E
:10037000030F1EBF0021002030BD5FEA545C05D191
:100380004000494128BF41F0004130BD14F58004D0
:100390003CBF01F5801130BD01F0004545F0FE4144
:1003A00041F470014FF0000030BD7FEA645C1ABF79
:1003B000194610467FEA655C1CBF0B46024650EAB0
:1003C000013406BF52EA033591EA030F41F40021DC
:1003D00030BD00BF90F0000F04BF0021704730B562
:1003E0004FF4806404F132044FF000054FF0000137
:1003F00050E700BF90F0000F04BF0021704730B5F8
:100400004FF4806404F1320410F0004548BF4042CC
:100410004FF000013EE700BF42004FEAE2014FEA21
:1004200031014FEA02701FBF12F07F4393F07F4FFC
:1004300081F06051704732F07F4208BF704793F0FF
:100440007F4F04BF41F40021704730B54FF4607412
:1004500001F0004521F000411CE700BF50EA010215
:1004600008BF704730B54FF000050AE050EA0102BE
:1004700008BF704730B511F0004502D5404261EB2E
:1004800041014FF4806404F132045FEA915C3FF46F
:10049000D8AE4FF003025FEADC0C18BF03325FEA0C
:1004A000DC0C18BF033202EBDC02C2F1200300FABD
:1004B00003FC20FA02F001FA03FE40EA0E0021FAE2
:1004C00002F11444BDE600BF80F0004002E000BF2E
:1004D00081F0004142001FBF5FEA410392EA030F2F
:1004E0007FEA226C7FEA236C6AD04FEA1262D2EB79
:1004F0001363C1BFD218414048404140B8BF5B427E
:10050000192B88BF704710F0004F40F4000020F016
:100510007F4018BF404211F0004F41F4000121F02C
:100520007F4118BF494292EA030F3FD0A2F1010276
:1005300041FA03FC10EB0C00C3F1200301FA03F1B4
:1005400000F0004302D5494260EB4000B0F5000FD7
:1005500013D3B0F1807F06D340084FEA310102F196
:100560000102FE2A51D2B1F1004F40EBC25008BF48
:1005700020F0010040EA03007047490040EB000012
:10058000013A28BFB0F5000FEDD2B0FA80FCACF113
:10059000080CB2EB0C0200FA0CF0AABF00EBC25040
:1005A00052421843BCBFD0401843704792F0000F2E
:1005B00081F4000106BF80F400000132013BB5E781
:1005C0004FEA41037FEA226C18BF7FEA236C21D0F7
:1005D00092EA030F04D092F0000F08BF084670475C
:1005E00090EA010F1CBF0020704712F07F4F04D12A
:1005F000400028BF40F00040704712F100723CBF3D
:1006000000F50000704700F0004343F0FE4040F466
:10061000000070477FEA226216BF08467FEA236324
:100620000146420206BF5FEA412390EA010F40F40F
:10063000800070474FF0000304E000BF10F000435B
:1006400048BF40425FEA000C08BF704743F0964342
:1006500001464FF000001CE050EA010208BF70475D
:100660004FF000030AE000BF50EA010208BF7047E4
:1006700011F0004302D5404261EB41015FEA010CF9
:1006800002BF84460146002043F0B64308BFA3F1F1
:100690008053A3F50003BCFA8CF2083AA3EBC253D3
:1006A00010DB01FA02FC634400FA02FCC2F12002F2
:1006B000BCF1004F20FA02F243EB020008BF20F029
:1006C0000100704702F1200201FA02FCC2F120028F
:1006D00050EA4C0021FA02F243EB020008BF20EA84
:1006E000DC7070474FF0FF0C1CEAD0521EBF1CEAB2
:1006F000D15392EA0C0F93EA0C0F6FD01A4480EAA0
:10070000010C400218BF5FEA41211ED04FF0006388
:1007100043EA501043EA5111A0FB01310CF00040B4
:10072000B1F5000F3EBF490041EAD3715B0040EADA
:10073000010062F17F02FD2A1DD8B3F1004F40EBAA
:10074000C25008BF20F00100704790F0000F0CF07D
:10075000004C08BF49024CEA502040EA51207F3A41
:10076000C2BFD2F1FF0340EAC250704740F400001C
:100770004FF00003013A5DDC12F1190FDCBF00F00D
:1007800000407047C2F10002410021FA02F1C2F1BB
:10079000200200FA02FC5FEA310040F1000053EA57
:1007A0004C0308BF20EADC70704792F0000F00F0A5
:1007B000004C02BF400010F4000F013AF9D040EAAB
:1007C0000C0093F0000F01F0004C02BF490011F43F
:1007D000000F013BF9D041EA0C018FE70CEAD1533D
:1007E00092EA0C0F18BF93EA0C0F0AD030F0004CBD
:1007F00018BF31F0004CD8D180EA010000F0004071
:10080000704790F0000F17BF90F0004F084691F02E
:10081000000F91F0004F14D092EA0C0F01D1420268
:100820000FD193EA0C0F03D14B0218BF084608D131
:1008300080EA010000F0004040F0FE4040F400007B
:10084000704740F0FE4040F4400070474FF0FF0C0E
:100850001CEAD0521EBF1CEAD15392EA0C0F93EA55
:100860000C0F69D0A2EB030280EA010C49024FEAA7
:10087000402037D04FF0805343EA111143EA101360
:100880000CF000408B4238BF5B0042F17D024FF418
:10089000000C8B4224BF5B1A40EA0C00B3EB510FF3
:1008A00024BFA3EB510340EA5C00B3EB910F24BFDC
:1008B000A3EB910340EA9C00B3EBD10F24BFA3EB61
:1008C000D10340EADC001B0118BF5FEA1C1CE0D129
:1008D000FD2A3FF650AF8B4240EBC25008BF20F0DC
:1008E000010070470CF0004C4CEA50207F32C2BF30
:1008F000D2F1FF0340EAC250704740F400004FF0CD
:100900000003013A37E792F0000F00F0004C02BFFD
:10091000400010F4000F013AF9D040EA0C0093F0C7
:10092000000F01F0004C02BF490011F4000F013B21
:10093000F9D041EA0C0195E70CEAD15392EA0C0F89
:1009400008D142027FF47DAF93EA0C0F7FF470AFC1
:10095000084676E793EA0C0F04D14B023FF44CAF04
:1009600008466EE730F0004C18BF31F0004CCAD199
:1009700030F000427FF45CAF31F000437FF43CAFD5
:100980005FE700BF844641EA000313F0030349D147
:10099000403A23D30B6803604B6843608B688360E5
:1009A000CB68C3600B6903614B6943618B698361E9
:1009B000CB69C3610B6A03624B6A43628B6A8362D1
:1009C000CB6AC3620B6B03634B6B43638B6B8363B9
:1009D000CB6BC36340304031403ADBD230320BD373
:1009E0000B6803604B6843608B688360CB68C360AF
:1009F00010301031103AF3D20C3205D351F8043BC9
:100A000040F8043B043AF9D2043208D0D2071CBFA4
:100A100011F8013B00F8013B01D30B8803806046CD
:100A2000704700BF082A13D38B07B1D010F003031F
:100A3000AED0C3F10403D21ADB071CBF11F8013B8F
:100A400000F8013BA4D331F8023B20F8023B9FE7BA
:100A5000043AD9D3013A11F8013B00F8013BF9D22D
:100A60000B7803704B7843708B78837060467047C7
:100A700070B54FF0FF0C4CF4E06C1CEA11541DBF34
:100A80001CEA135594EA0C0F95EA0C0F00F0DEF8FF
:100A90002C4481EA030621EA4C5123EA4C5350EAE4
:100AA000013518BF52EA033541F4801143F4801335
:100AB00038D0A0FB02CE4FF00005E1FB02E506F0C6
:100AC0000042E0FB03E54FF00006E1FB03569CF01B
:100AD000000F18BF4EF0010EA4F1FF04B6F5007F21
:100AE00064F5407404D25FEA4E0E6D4146EB060693
:100AF00042EAC62141EA55514FEAC52040EA5E501C
:100B00004FEACE2EB4F1FD0C88BFBCF5E06F1ED8C5
:100B1000BEF1004F08BF5FEA500E50F1000041EBFC
:100B2000045170BD06F0004646EA010140EA0200A9
:100B300081EA0301B4EB5C04C2BFD4EB0C0541EACB
:100B4000045170BD41F480114FF0000E013C00F3E0
:100B5000AB8014F1360FDEBF002001F0004170BD04
:100B6000C4F10004203C35DA0C341BDC04F114041D
:100B7000C4F1200500FA05F320FA04F001FA05F2A9
:100B800040EA020001F0004221F0004110EBD37076
:100B900021FA04F642EB06015EEA430E08BF20EAA2
:100BA000D37070BDC4F10C04C4F1200500FA04F345
:100BB00020FA05F001FA04F240EA020001F00041D7
:100BC00010EBD37041F100015EEA430E08BF20EA4A
:100BD000D37070BDC4F1200500FA05F24EEA020E92
:100BE00020FA04F301FA05F243EA020321FA04F0C1
:100BF00001F0004121FA04F220EA020000EBD37078
:100C00005EEA430E08BF20EAD37070BD94F0000F77
:100C10000FD101F00046400041EB010111F4801FAB
:100C200008BF013CF7D041EA060195F0000F18BF5C
:100C3000704703F00046520043EB030313F4801F98
:100C400008BF013DF7D043EA0603704794EA0C0F52
:100C50000CEA135518BF95EA0C0F0CD050EA410668
:100C600018BF52EA4306D1D181EA030101F00041E5
:100C70004FF0000070BD50EA410606BF104619460D
:100C800052EA430619D094EA0C0F02D150EA013619
:100C900013D195EA0C0F05D152EA03361CBF10465A
:100CA00019460AD181EA030101F0004141F0FE41F9
:100CB00041F470014FF0000070BD41F0FE4141F47D
:100CC000780170BD70B54FF0FF0C4CF4E06C1CEA7D
:100CD00011541DBF1CEA135594EA0C0F95EA0C0F32
:100CE00000F0A7F8A4EB050481EA030E52EA0335ED
:100CF0004FEA013100F088804FEA03334FF080550E
:100D000045EA131343EA12634FEA022245EA11153A
:100D100045EA10654FEA00260EF000419D4208BFEB
:100D2000964244F1FD0404F5407402D25B084FEA98
:100D30003202B61A65EB03055B084FEA32024FF444
:100D400080104FF4002CB6EB020E75EB030E22BFA1
:100D5000B61A754640EA0C005B084FEA3202B6EB61
:100D6000020E75EB030E22BFB61A754640EA5C0010
:100D70005B084FEA3202B6EB020E75EB030E22BFA0
:100D8000B61A754640EA9C005B084FEA3202B6EBA1
:100D9000020E75EB030E22BFB61A754640EADC0060
:100DA00055EA060E18D04FEA051545EA16754FEAC2
:100DB00006164FEAC30343EA52734FEAC2025FEAE0
:100DC0001C1CC0D111F4801F0BD141EA00014FF06F
:100DD00000004FF0004CB6E711F4801F04BF014340
:100DE0000020B4F1FD0C88BFBCF5E06F3FF6AFAE5C
:100DF000B5EB030C04BFB6EB020C5FEA500C50F1EC
:100E0000000041EB045170BD0EF0004E4EEA11316E
:100E100014EB5C04C2BFD4EB0C0541EA045170BD75
:100E200041F480114FF0000E013C90E645EA060EB9
:100E30008DE60CEA135594EA0C0F08BF95EA0C0FE7
:100E40003FF43BAF94EA0C0F0AD150EA01347FF42F
:100E500034AF95EA0C0F7FF425AF104619462CE706
:100E600095EA0C0F06D152EA03353FF4FDAE104669
:100E7000194622E750EA410618BF52EA43067FF4BA
:100E8000C5AE50EA41047FF40DAF52EA43057FF44A
:100E9000EBAE12E74FF0FF3C06E000BF4FF0010C55
:100EA00002E000BF4FF0010C4DF804CD4FEA410CB9
:100EB0007FEA6C5C4FEA430C18BF7FEA6C5C1BD086
:100EC00001B050EA410C0CBF52EA430C91EA030F07
:100ED00002BF90EA020F0020704710F1000F91EA64
:100EE000030F58BF994208BF90422CBFD8176FEA32
:100EF000E37040F0010070474FEA410C7FEA6C5C00
:100F000002D150EA013C07D14FEA430C7FEA6C5C06
:100F1000D6D152EA033CD3D05DF8040B704700BF32
:100F20008446104662468C461946634600E000BF80
:100F300001B5FFF7B7FF002848BF10F1000F01BD52
:100F40004DF808EDFFF7F4FF0CBF012000205DF81D
:100F500008FB00BF4DF808EDFFF7EAFF34BF0120A2
:100F600000205DF808FB00BF4DF808EDFFF7E0FF3B
:100F700094BF012000205DF808FB00BF4DF808ED8C
:100F8000FFF7CEFF94BF012000205DF808FB00BFF3
:100F90004DF808EDFFF7C4FF34BF012000205DF8D5
:100FA00008FB00BF4FEA410C7FEA6C5C02D150EABB
:100FB000013C0AD14FEA430C7FEA6C5C02D152EA51
:100FC000033C02D14FF0000070474FF00100704722
:100FD0004FEA410212F5001215D211D56FF4787361
:100FE000B3EB625212D94FEAC12343F0004343EA04
:100FF000505311F0004F23FA02F018BF40427047DF
:101000004FF00000704750EA013005D111F0004068
:1010100008BF6FF0004070474FF00000704700BFFE
:1010200053B94AB9002908BF00281CBF4FF0FF314F
:101030004FF0FF3000F076B9ADF1080C6DE904CE49
:1010400000F006F8DDF804E0DDE9022304B07047A3
:101050002DE9F047089E0D4604468846002B4DD1E9
:101060008A42944668D9B2FA82F252B101FA02F386
:10107000C2F1200120FA01F10CFA02FC41EA030856
:1010800094404FEA1C41B8FBF1F71FFA8CFE01FBBC
:10109000178807FB0EF0230C43EA084398420AD94D
:1010A0001CEB030307F1FF3580F01E81984240F2EC
:1010B0001B81023F63441B1AB3FBF1F001FB1033A9
:1010C00000FB0EFEA4B244EA0344A6450AD91CEB79
:1010D000040400F1FF3380F00981A64540F2068147
:1010E000644402380021A4EB0E0440EA07401EB11C
:1010F0000023D440C6E90043BDE8F0878B4208D9FD
:10110000002E00F0EE800021C6E900050846BDE88B
:10111000F087B3FA83F100294AD1AB4202D382426D
:1011200000F2FC80841A65EB030301209846002E30
:10113000E2D0C6E90048DFE702B9FFDEB2FA82F288
:10114000002A40F09180A1EB0C0001214FEA1C47DE
:101150001FFA8CFEB0FBF7F307FB1300250C45EAE2
:1011600000450EFB03F0A84208D91CEB050503F16E
:10117000FF3802D2A84200F2CE8043462D1AB5FBBA
:10118000F7F007FB10550EFB00FEA4B244EA05443D
:10119000A64508D91CEB040400F1FF3502D2A64590
:1011A00000F2B6802846A4EB0E0440EA03409EE716
:1011B000C1F120078B4022FA07FC4CEA030C25FA08
:1011C00007FA4FEA1C49BAFBF9F820FA07F309FBC2
:1011D00018AA8D401FFA8CFE1D4300FA01F308FB8C
:1011E0000EF02C0C44EA0A44A04202FA01F20BD998
:1011F0001CEB040408F1FF3A80F08880A04240F222
:101200008580A8F102086444241AB4FBF9F009FBB4
:10121000104400FB0EFEADB245EA0444A64508D9D1
:101220001CEB040400F1FF356CD2A6456AD90238E4
:10123000644440EA0840A0FB0295A4EB0E04AC42D3
:10124000C846AE4656D353D0002E69D0B3EB080241
:1012500064EB0E0422FA01F304FA07F71F43CC40B3
:10126000C6E90074002147E70CFA02FCC2F1200134
:1012700025FA01F34FEA1C4720FA01F195400D438E
:10128000B3FBF7F107FB11331FFA8CFE280C40EA81
:10129000034001FB0EF3834204FA02F408D91CEB6D
:1012A000000001F1FF382FD283422DD9023960446A
:1012B000C01AB0FBF7F307FB1300ADB245EA0045D7
:1012C00003FB0EF0A84208D91CEB050503F1FF381B
:1012D00016D2A84214D9023B6544281A43EA0141B8
:1012E00038E73146304607E72F46E4E61846F9E688
:1012F0004B45A9D2B9EB020865EB0C0E0138A3E708
:101300004346EAE7284694E74146D1E7D0467BE7E3
:101310006444023847E7023B65442FE7084606E786
:101320003146E9E6704700BF08B5012202210248B4
:1013300000F0EEFF08BD00BF000C014000B587B013
:101340008DF817004FF480730293012301930DF180
:101350001702009200227821024801F06BFA07B0D0
:101360005DF804FB240A002010B5C82000F07CFCC6
:10137000002405E0044B185DFFF7E0FF0134E4B200
:10138000162CF7D910BD00BF0000002000B587B0B3
:101390008DF817004FF480730293012301930DF130
:1013A0001702009240227821024801F043FA07B068
:1013B0005DF804FB240A002038B5002509E0002070
:1013C000FFF7E4FF0134E4B214F0800FF7D00135E9
:1013D000EDB2072D0CD8A5F15000C0B2FFF7AEFF5B
:1013E0000020FFF7ABFF1020FFF7A8FF0024EBE77A
:1013F00038BD000000B585B000230193029303932C
:101400001148124A02608360037303754FF460222F
:10141000C26143600123036100F008FD68B9022343
:101420000193012302930023039301A9064800F0CE
:101430002FFC28B905B05DF804FB00F00DF9EEE7CC
:1014400000F00AF9F6E700BFF4090020002401408B
:1014500000B587B0002302930393049305930268B9
:10146000114B9A4202D007B05DF804FB03F56C43C0
:101470009A6942F400729A619A6902F400720092C9
:10148000009A9A6942F004029A619B6903F004038E
:101490000193019B042302930323039302A90348AE
:1014A00000F024FEDFE700BF0024014000080140F7
:1014B0002DE9F04389B00024049405940694079420
:1014C000394B9A6942F010029A619A6902F010024F
:1014D0000092009A9A6942F020029A619A6902F099
:1014E00020020192019A9A6942F004029A619A6973
:1014F00002F004020292029A9A6942F008029A618A
:101500009B6903F008030393039BDFF8A09001227B
:101510004FF40051484600F0FBFEDFF8948022466D
:101520003A21404600F0F4FE224E22460B2130467E
:1015300000F0EEFE01220821304600F0E9FE4FF4F3
:10154000005304930125059506940227079704A9E3
:10155000484600F0CBFD2A2304930595069407978F
:1015600004A9404600F0C2FD10230493059506959A
:1015700007970DEB0301404600F0B8FD0B230493E1
:1015800005950694079704A9304600F0AFFD4FF487
:101590004C7304930594069404A9304600F0A6FD0C
:1015A00009B0BDE8F08300BF001002400010014008
:1015B00000080140000C014008B50B480B4B0360CC
:1015C0000B4B436000238360C3604FF48042026191
:1015D00043618361C361036201F04EF800B908BD45
:1015E00000F03AF8FBE700BF240A00200054004056
:1015F000A086010010B586B00023029303930493E4
:1016000005930268114B9A4201D006B010BD104CF0
:10161000A36943F00803A361A36903F008030093DF
:10162000009BC0230293122303930323059302A973
:10163000084800F05BFDE36943F40013E361E369EC
:1016400003F400130193019BDFE700BF0054004047
:1016500000100240000C014072B6FEE700B595B0E4
:10166000282200210DEB020003F062FC0023059309
:1016700006930793089309930193029303930493AA
:1016800001220A924FF480330B930E9202221192A0
:1016900012934FF4E01313930AA801F093F9C8B919
:1016A0000F23059302210691002307934FF48062D4
:1016B0000892099305A801F0B7FB68B902230193CA
:1016C0004FF40043039301A801F08AFC30B915B030
:1016D0005DF804FBFFF7C0FFFFF7BEFFFFF7BCFF9D
:1016E00010B500F09DFAFFF7B9FFFFF7E1FE00F03B
:1016F0007DF9FFF761FF00F02BF9FFF77BFE00F0AB
:101700008FF91E4800F048F8FFF70EFEFFF72CFE99
:10171000FFF752FE1A4803F0CBFC012219491A4880
:1017200002F00BFA02F0A2FE01E002F0EDFD02F081
:1017300075FF0028F9D1154803F0BAFC002410E029
:10174000032002F073FE08B103F084F80A2000F0D1
:101750008BFA4FF400510E4800F0E0FD642000F0D9
:1017600083FA0134A4B24F2CEAD90A4803F0A0FC52
:1017700003F028F802F0C8FD0024E1E7C80A0020C1
:10178000A8D00008E00B0020100B0020BCD00008FF
:1017900000100140CCD0000808B5054B1860054B7F
:1017A0001868002302221946806803F09BFC08BDDC
:1017B000780A002024000020022801D80120704768
:1017C00008B503F0CFF809230360002008BD00002E
:1017D00010B5013801280AD814464FF0FF3392B2F1
:1017E0000748006801F0FAFE40B9204610BD03F03A
:1017F000B9F8092303604FF0FF30F7E70520F5E75C
:10180000780A0020022801D80020704708B503F0AC
:10181000A9F8092303604FF0FF3008BD08B503F0B5
:10182000A1F8092303604FF0FF3008BD08B548B99F
:101830004FF0FF3301220848006801F02EFF40B945
:10184000012008BD03F08EF8092303604FF0FF303C
:10185000F7E70520F5E700BF780A002008B5022861
:1018600004D84FF400534B60002008BD03F07AF811
:1018700009230360F8E7000082B00E4B9A6942F03A
:1018800001029A619A6902F001020092009ADA69F3
:1018900042F08052DA61DB6903F080530193019BCF
:1018A000054A536823F0E06343F00073536002B0CD
:1018B000704700BF0010024000000140FEE7FEE755
:1018C000FEE7FEE7FEE770477047704708B500F097
:1018D000B9F908BD08B5024801F0D0FF08BD00BF46
:1018E000100B00200120704708B503F03BF81623C9
:1018F00003604FF0FF3008BD08B54FF0FF31FFF730
:10190000F3FFFEE710B503460C4A0D490D48006889
:1019100040B10C4800680344521A934206D8094A61
:10192000136010BD0748084C0460F2E703F01AF892
:101930000C2303604FF0FF30F3E700BF005000209E
:10194000000400007C0A0020300C002070470000DA
:1019500000B587B00023029303930493059300938B
:1019600001931548154A02604722426083604FF692
:10197000FF72C26003614361836101F025FC90B98D
:101980004FF48053029302A90B4801F055FC68B94B
:101990000023009301936946074801F0CDFC40B94C
:1019A00007B05DF804FBFFF757FEE9E7FFF754FEC9
:1019B000EEE7FFF751FEF3E7800A0020002C01401C
:1019C0000268094B9A4200D0704782B003F5644325
:1019D0009A6942F400629A619B6903F4006301937F
:1019E000019B02B0704700BF002C014008B50A48B7
:1019F0000A4B03604FF4E133436000238360C3600C
:101A000003610C2242618361C36101F0B7FD00B93B
:101A100008BDFFF721FEFBE7C80A0020003801409F
:101A200008B50F480F4B03604FF4E13343600023C8
:101A30008360C36003610C2242618361C36101F072
:101A40009DFD50B9064B1B68DA6842F02002DA604F
:101A5000DA6842F01002DA6008BDFFF7FDFDF1E739
:101A6000100B00200048004030B589B000230493DB
:101A70000593069307930368314A934204D0314A91
:101A800093422BD009B030BD2F4B9A6942F480426B
:101A90009A619A6902F480420092009A9A6942F02F
:101AA00004029A619B6903F004030193019B4FF4C4
:101AB000007304930223059303230793234C04A983
:101AC000204600F013FB4FF480630493002305933A
:101AD000069304A9204600F009FBD3E71A4BDA6904
:101AE00042F48022DA61DA6902F480220292029AD8
:101AF0009A6942F008029A619B6903F00803039314
:101B0000039B4FF4806304930223059303230793FD
:101B10000F4D04A9284600F0E9FA4FF4006304933E
:101B200000240594069404A9284600F0DFFA224612
:101B30002146272000F010FA272000F045FAA1E7FF
:101B400000380140004800400010024000080140F9
:101B5000000C014084B070B504AC84E80F00169905
:101B6000BDF85C60002409E04D1C4FF0FF330122FA
:101B700004A801F033FD0134A4B22946B442F3D3E2
:101B8000BDE8704004B07047FFF7E0FE0B480C4919
:101B90000C4A002302E0D458C4500433C4188C42C9
:101BA000F9D3094A094C002301E013600432A24230
:101BB000FBD302F0DDFEFFF793FD7047000000202D
:101BC000D009002070D80008D00900202C0C00207B
:101BD000FEE7000010B504460E4B18784FF47A73F8
:101BE000B3FBF0F30C4A1068B0FBF3F000F0FAF925
:101BF00068B90F2C01D901200AE0002221464FF0DC
:101C0000FF3000F0A9F9054B1C60002000E0012026
:101C100010BD00BF1C000020180000202000002084
:101C200008B5074A136843F010031360032000F05F
:101C300081F90F20FFF7CEFFFFF71EFE002008BD41
:101C400000200240034A1168034B1B780B441360C9
:101C5000704700BF580B00201C000020014B186883
:101C6000704700BF580B002038B50446FFF7F6FF59
:101C70000546B4F1FF3F02D0044B1B781C44FFF72C
:101C8000EDFF401BA042FAD338BD00BF1C0000206E
:101C900030B482B00022019290F82420012A00F092
:101CA00091800346012280F824204A68062A2DD814
:101CB0000468606B02EB8202053A4FF01F0C0CFACD
:101CC00002FC20EA0C000D6805FA02F2024362638E
:101CD0000A68092A3AD91C68E06802EB42021E3AF7
:101CE0004FF0070C0CFA02FC20EA0C008D6805FA94
:101CF00002F20243E2600A68103A012A36D9002053
:101D0000002283F8242002B030BC70470C2A0ED881
:101D10000568286B02EB8202233A1F24944020EAD4
:101D200004000C6804FA02F202432A63D0E7056853
:101D3000E86A02EB8202413A1F24944020EA040040
:101D40000C6804FA02F20243EA62C1E71C682069E7
:101D500002EB42024FF0070C0CFA02FC20EA0C00E6
:101D60008D6805FA02F202432261C4E71A68164838
:101D7000824205D09A6A42F020029A620120BFE7AF
:101D8000906810F4000F1BD1906840F40000906040
:101D90000A68102A01D00020B2E70C4A12680C49E8
:101DA000A1FB0212920C02EB82025200019202E0AD
:101DB000019A013A0192019A002AF9D100209FE785
:101DC00000209DE702209EE700240140180000202B
:101DD00083DE1B4338B503689A6812F0010F01D106
:101DE000002038BD04469A6822F001029A60FFF78D
:101DF00035FF054623689B6813F0010F13D0FFF7EA
:101E00002DFF431B022BF5D923689B6813F0010FAC
:101E1000F0D0A36A43F01003A362E36A43F0010326
:101E2000E3620120DDE70020DBE7000000287BD033
:101E300070B50446836A002B4DD02046FFF7CAFFD9
:101E4000A36A13F0100369D1002867D1A26A22F4B3
:101E5000885222F0020242F00202A2626268E16944
:101E60000A43217B42EA4102A568B5F5807F02D092
:101E7000012D36D01D46267D012E35D0266871688D
:101E800021F46941294371602568AE6827493140D2
:101E90001143A960A168B1F5807F01D0012902D169
:101EA0002369013B1B052568E96A21F470010B4396
:101EB000EB62236899681E4B0B409A4225D0A36AB7
:101EC00023F0120343F01003A362E36A43F001031B
:101ED000E362012027E0C36280F82430FFF7B8FAFC
:101EE000ABE74FF48075C6E731B9A169013945EA1E
:101EF000413141F40065C1E7A16A41F02001A162CE
:101F0000E16A41F00101E162B8E70023E362A36AFC
:101F100023F0030343F00103A36204E0A36A43F048
:101F20001003A362012070BD01207047FDF7E1FF9F
:101F3000FE0E1FFF074AD36823F4E0631B041B0C4B
:101F4000000200F4E060034343F0BF6343F4003356
:101F5000D360704700ED00E000B5194BDB68C3F3B8
:101F60000223C3F1070CBCF1040F28BF4FF0040C8F
:101F700003F1040EBEF1060F18D9033B4FF0FF3EEC
:101F80000EFA0CFC21EA0C0199400EFA03F322EA46
:101F90000303194300280BDB0901C9B200F16040BB
:101FA00000F5614080F800135DF804FB0023E5E7CD
:101FB00000F00F000901C9B2024B1954F4E700BF49
:101FC00000ED00E014ED00E0002807DB00F01F0248
:101FD000400901239340024A42F82030704700BF75
:101FE00000E100E00138B0F1807F0BD24FF0E02338
:101FF0005861054AF02182F82310002098610722D9
:102000001A6170470120704700ED00E090F8213020
:10201000DBB2022B06D004238363002380F8203038
:10202000012070470268136823F00E0313600268F2
:10203000136823F001031360036CC16B012202FAE1
:1020400003F34B6080F82120002380F820301846ED
:102050007047000008B590F82130DBB2022B03D0A6
:1020600004238363012008BD0268136823F00E0374
:1020700013600268136823F0010313600368194AB0
:10208000934214D0143293421FD0143293421ED084
:10209000143293421ED0143293421ED01432934213
:1020A00002D04FF0807203E04FF4801200E0012272
:1020B0000D4B5A60012380F82130002380F8203036
:1020C000436B6BB198470020CDE71022F0E74FF447
:1020D0008072EDE74FF48052EAE74FF48032E7E791
:1020E0000020C0E7080002400000024070B582B046
:1020F0000024A446A6E0804DAA4210D007D97F4D07
:10210000AA420CD005F58035AA4208D013E0A5F507
:102110008015AA4203D005F57025AA4207D18A6826
:10212000002A58D0012A51D04361082403E0A5F5C4
:102130008015AA42F3D0BEF1FF0F4ED80646BEF17D
:10214000FF0F4CD84FEA8C0233680F25954023EAE5
:10215000050304FA02F2134333604B6813F0805F07
:102160006ED0674B9A6942F001029A619B6903F055
:1021700001030193019B4FEA9C02951C614B53F8AC
:1021800025600CF003039D000F23AB4026EA0306F5
:102190005D4B984229D003F58063984200F08E8011
:1021A00003F58063984200F08B8003F580639842CA
:1021B00019D004231AE0CC68BDE7CC680434BAE730
:1021C000CC680834B7E7CC680C34B4E70361082462
:1021D000B1E70024AFE70424ADE7061DAFE7ACF19B
:1021E00008029200B0E7032300E00023AB40334332
:1021F0000232444D45F822304B6813F4801F61D001
:10220000424A936843EA0E0393604B6813F4001F3D
:102210005ED03E4AD36843EA0E03D3604B6813F4A2
:10222000003F5BD0394A536843EA0E0353604B6862
:1022300013F4803F58D0354A136843EA0E03136005
:102240000CF1010C0A6832FA0CF353D0012303FAA3
:102250000CF302EA030E33EA0202F1D14A68122AB1
:102260003FF649AF122A3FF666AF01A555F822F0B6
:102270001F210008B7210008C1210008D321000850
:1022800037210008372100083721000837210008CE
:1022900037210008372100083721000837210008BE
:1022A00037210008372100083721000837210008AE
:1022B00037210008BB210008C7210008012395E74A
:1022C000022393E7114A936823EA0E0393609CE785
:1022D0000E4AD36823EA0E03D3609FE70B4A536884
:1022E00023EA0E035360A2E7084A136823EA0E03A9
:1022F0001360A5E702B070BD00002210000031108D
:1023000000100240000001400008014000040140AC
:102310000AB101617047090401617047C36801EAAD
:10232000030221EA030141EA0241016170470368A7
:102330005A6912F4806F01D1002070476FF48062F7
:102340005A6100230363202280F83D2080F83E304C
:10235000026C42F00402026480F83C3001207047B5
:102360002DE9F04106460C46174698463BE0FFF73C
:1023700075FC069BC01A404502D8B8F1000F32D157
:10238000012D18D033689B6924EA03039BB2B3FA8A
:1023900083F35B099F4226D100233363202286F812
:1023A0003D2086F83E30326C42F02002326486F8DE
:1023B0003C30012027E033685B6924EA03039BB2C9
:1023C000B3FA83F35B09E5E733685B6924EA030C3E
:1023D0001FFA8CFCBCFA8CFC4FEA5C1C674511D1DF
:1023E000B8F1FF3FC3D1C4F30745012DECD03368EA
:1023F0009B6924EA030C1FFA8CFCBCFA8CFC4FEAA4
:102400005C1CEBE70020BDE8F0812DE9F8430546B0
:102410000E469046994653E01A6842F400721A60DC
:102420002B686FF480625A6100232B63202285F8A9
:102430003D2085F83E302A6C42F004022A6485F87B
:102440003C3001204AE0FFF709FCA0EB09004045C1
:1024500002D8B8F1000F33D1012F17D02B689B6938
:1024600026EA03039BB2003B18BF012343B30023BA
:102470002B63202285F83D2085F83E302A6C42F0FF
:1024800020022A6485F83C30012027E02B685B6934
:1024900026EA03039BB2003B18BF0123E6E72B6843
:1024A0009C6926EA0404A4B2003C18BF0124A4B12C
:1024B0002B685A6912F4806FAED1B8F1FF3FC2D1D8
:1024C000C6F30747012FEAD12B685C6926EA0404AA
:1024D000A4B2003C18BF0124E9E70020BDE8F8835E
:1024E00070B504460D46164623685B6913F0800FED
:1024F00021D12046FFF71BFFF8B9B5F1FF3FF3D01C
:10250000FFF7ACFB801BA84201D8002DECD123685B
:102510005B6913F0800FE7D100232363202284F846
:102520003D2084F83E30226C42F02002226484F880
:102530003C30012000E0002070BD0120FCE70000DD
:102540002DE9F04385B004460D4691461F46DDF85F
:1025500030800D9E0368196841F4807119600096FF
:10256000434600224FF00111FFF7FAFE60B92368DD
:1025700005F0FE051D613346424626492046FFF719
:1025800044FF68B1012008E023681B6813F4807FD2
:1025900002D04FF400732364032005B0BDE8F0833C
:1025A0000023039323685A6903929B690393039B57
:1025B000324641462046FFF793FF30B9012F0FD135
:1025C00023685FFA89F61E61E7E7236C042B01D0CC
:1025D0000120E2E72268136843F400731360F7E711
:1025E00023684FEA19221A61324641462046FFF716
:1025F00077FF20B923685FFA89F61E61CDE7236C67
:10260000042B01D00120C8E72268136843F400734B
:102610001360F7E70200010070B504460D46164648
:1026200023685B6913F0040F21D12046FFF77FFE7A
:10263000F8B9B5F1FF3FF3D0FFF710FB801BA842BC
:1026400001D8002DECD123685B6913F0040FE7D1AA
:1026500000232363202284F83D2084F83E30226C3E
:1026600042F02002226484F83C30012000E0002087
:1026700070BD0120FCE70000002800F0CC8070B5A0
:10268000044690F83D30002B77D0242384F83D3069
:102690002268136823F0010313602268136843F46F
:1026A000004313602268136823F40043136000F0B2
:1026B00077FC62685A4B9A4264D85A4B98428CBF56
:1026C00000230123002B40F0A8805749A1FB0031D3
:1026D0008B0C25686A6822F03F0242EA91426A60E8
:1026E00021680A6A22F03F0266684D4DAE424FD81B
:1026F000013313430B622168CA6922F44F4222F06E
:10270000FF026668464B9E424CD8431E7600B3FBE0
:10271000F6F3013340F6FC70034278D0C3F30B03A9
:102720001343CB6121680B6823F0C003E269206A80
:10273000024313430B6021688B6823F4034323F0A7
:10274000FF032269E068024313438B602168CB6872
:1027500023F0FF036269A06902431343CB60226840
:10276000136843F00103136000202064202384F8E1
:102770003D30206384F83E0070BD80F83C30FEF7A9
:1027800039FF82E7294B98428CBF0023012399E748
:102790004FF4967505FB03F3254DA5FB03539B09E9
:1027A0000133A6E7A368BBB9451E06EB460CB5FB93
:1027B000FCF50135C5F30B05B5FA85F56D0945BB8B
:1027C000C3B9013806EB4603B0FBF3F30133C3F39F
:1027D0000B0343F40043A3E7451E06EB860C0CEB0A
:1027E0008C0CB5FBFCF50135C5F30B05B5FA85F589
:1027F0006D09E4E7013806EB860303EB8303B0FBC6
:10280000F3F30133C3F30B0343F4404388E704239A
:1028100086E7012384E7012070470120ACE700BF71
:10282000A08601007F841E0083DE1B43FF083D005D
:10283000D34D62102DE9F04383B004460F46904615
:1028400099460C9EFFF70AFA054694F83D00C0B27F
:10285000202803D0022003B0BDE8F083009519239F
:1028600001224B492046FFF77BFD002840F089807C
:1028700094F83C30012B00F08680012384F83C3032
:1028800023681A6812F0010F03D11A6842F001029E
:102890001A602268136823F400631360212384F80C
:1028A0003D30402384F83E30002323640A9B63625A
:1028B000BDF82C306385638D2385364BE36201952B
:1028C00000964B46424639462046FFF739FE00281F
:1028D0005BD1238D002B35D02A4631462046FFF7A9
:1028E000FFFD20BB626A236812781A61626A531C7A
:1028F0006362218D013989B22185638D9BB2013BD1
:102900009BB263852368586910F0040FE1D0002959
:10291000DFD052781A61636A01336362238D013B11
:102920002385638D9BB2013B9BB26385D1E7236C0A
:10293000042B01D001208EE72268136843F4007352
:102940001360F7E72A4631462046FFF765FE50B18F
:10295000236C042B01D001207DE72268136843F427
:1029600000731360F7E72268136843F40073136081
:10297000202384F83D30002384F83E3084F83C3036
:1029800069E7022067E7022065E7012063E700BFEF
:10299000020010000000FFFF82B0084B1B68084ACD
:1029A000A2FB03235B0A00FB03F3019300BF019B1F
:1029B0005A1E0192002BF9D102B070471800002076
:1029C000D34D6210002800F0F18170B582B004464A
:1029D000036813F0010F2CD0994B5B6803F00C03D4
:1029E000042B1DD0964B5B6803F00C03082B12D010
:1029F0006368B3F5803F41D0002B55D103F180438C
:102A000003F504331A6822F480321A601A6822F43B
:102A100080221A6037E08A4B5B6813F4803FE7D06E
:102A2000874B1B6813F4003F03D06368002B00F052
:102A3000BF81236813F0020F75D0814B5B6813F0E0
:102A40000C0F5FD07E4B5B6803F00C03082B54D057
:102A50002369002B00F08A807A4B01221A60FFF76D
:102A6000FDF80546764B1B6813F0020F75D1FFF792
:102A7000F5F8401B0228F5D903209EE1704A13683F
:102A800043F480331360636843B3FFF7E7F8054608
:102A90006B4B1B6813F4003FCBD1FFF7DFF8401BF3
:102AA0006428F5D9032088E1B3F5A02F09D0644B41
:102AB0001A6822F480321A601A6822F480221A609E
:102AC000E1E703F18043A3F53C331A6842F4802226
:102AD0001A601A6842F480321A60D4E7FFF7BEF831
:102AE0000546574B1B6813F4003FA2D0FFF7B6F81A
:102AF000401B6428F5D903205FE1514B5B6813F458
:102B0000803FA5D14E4B1B6813F0020F03D0236901
:102B1000012B40F04F814A4A136823F0F8036169A2
:102B200043EAC1031360236813F0080F33D0A3698D
:102B3000002B5CD0434B0122C3F88024FFF78EF8B2
:102B400005463F4B5B6A13F0020F21D1FFF786F871
:102B5000401B0228F5D903202FE1394A136823F0DE
:102B6000F803616943EAC1031360DCE7354B0022D7
:102B70001A60FFF773F80546314B1B6813F0020F1C
:102B8000D1D0FFF76BF8401B0228F5D9032014E1E0
:102B90000120FFF701FF236813F0040F00F0968077
:102BA000274BDB6913F0805F34D1254BDA6942F0A3
:102BB0008052DA61DB6903F080530193019B0125A8
:102BC000214B1B6813F4807F26D0E368012B3DD096
:102BD000002B53D103F1804303F504331A6A22F02A
:102BE00001021A621A6A22F004021A6233E0154BDB
:102BF0000022C3F88024FFF731F80546104B5B6ACA
:102C000013F0020FC7D0FFF729F8401B0228F5D9AF
:102C10000320D2E00025D3E70B4A136843F4807306
:102C20001360FFF71BF80646074B1B6813F4807F01
:102C3000CBD1FFF713F8801B6428F5D90320BCE043
:102C40000010024000004242007000405F4A136AD8
:102C500043F001031362E36833B3FEF7FFFF064658
:102C60005A4B1B6A13F0020F2FD1FEF7F7FF801BA0
:102C700041F288339842F3D903209EE0052B09D016
:102C8000524B1A6A22F001021A621A6A22F00402F6
:102C90001A62E0E74D4B1A6A42F004021A621A6A9D
:102CA00042F001021A62D6E7FEF7D8FF0646474B0C
:102CB0001B6A13F0020F08D0FEF7D0FF801B41F211
:102CC00088339842F3D9032077E0E5B9E369002B14
:102CD00072D03E4A526802F00C02082A56D0022BEB
:102CE00017D03B4B00221A66FEF7B8FF0446374B5D
:102CF0001B6813F0007F47D0FEF7B0FF001B0228CF
:102D0000F5D9032059E0314AD36923F08053D361C8
:102D1000DCE72F4B00221A66FEF7A0FF05462B4B7F
:102D20001B6813F0007F06D0FEF798FF401B0228B7
:102D3000F5D9032041E0236AB3F5803F1AD0234937
:102D40004B6823F47413226A606A024313434B6096
:102D50001F4B01221A66FEF781FF04461B4B1B68BE
:102D600013F0007F0ED1FEF779FF001B0228F5D982
:102D7000032022E0154A536823F40033A1680B4373
:102D80005360DCE7002018E0002016E0012B16D08D
:102D90000E4B5B6803F48031226A914211D103F437
:102DA0007013626A93420ED1002006E00120704742
:102DB000012002E0012000E0002002B070BD0120EF
:102DC000FBE70120F9E70120F7E700BF0010024010
:102DD000000042420F4B5B6803F00C02082A01D04E
:102DE0000D487047C3F383420C49885C13F4803F5D
:102DF0000BD0084B5B68C3F34043094AD35C064AD7
:102E000002FB00F0B0FBF3F07047064B03FB00F051
:102E1000704700BF0010024000127A00F8D000088E
:102E200008D1000800093D00002800F0A08070B51E
:102E30000D460446524B1B6803F007038B420BD22E
:102E40004F4A136823F007030B431360136803F022
:102E500007038B4240F08D80236813F0020F17D0D8
:102E600013F0040F04D0474A536843F4E0635360FF
:102E7000236813F0080F04D0424A536843F46053A8
:102E80005360404A536823F0F003A1680B4353603A
:102E9000236813F0010F31D06368012B20D0022B7F
:102EA00025D0384A126812F0020F64D035494A68BA
:102EB00022F0030213434B60FEF7D0FE0646314B6F
:102EC0005B6803F00C036268B3EB820F16D0FEF769
:102ED000C5FE801B41F288339842F0D9032045E0BB
:102EE000284A126812F4003FE0D101203EE0254A52
:102EF000126812F0007FD9D1012037E0204B1B6807
:102F000003F00703AB420AD91D4A136823F00703F5
:102F10002B431360136803F00703AB422DD12368E2
:102F200013F0040F06D0174A536823F4E063E168F6
:102F30000B435360236813F0080F07D0114A5368FE
:102F400023F46053216943EAC1035360FFF742FF52
:102F50000C4B5B68C3F303130B4AD35CD8400B4B99
:102F600018600B4B1868FEF735FE002070BD01207D
:102F700070470120FAE70120F8E70120F6E700BFDB
:102F80000020024000100240E0D00008180000209D
:102F900020000020014B1868704700BF1800002077
:102FA00008B5FFF7F7FF044B5B68C3F30223034A3E
:102FB000D35CD84008BD00BF00100240F0D000082C
:102FC00008B5FFF7E7FF044B5B68C3F3C223034A6E
:102FD000D35CD84008BD00BF00100240F0D000080C
:102FE00070B582B00446036813F0010F36D03F4B32
:102FF000DB6913F0805F49D13C4BDA6942F08052C3
:10300000DA61DB6903F080530193019B0125384BA2
:103010001B6813F4807F3BD0344B1B6A13F440735E
:1030200013D0626802F440729A420ED02F4A136A9B
:1030300023F440702F490126C1F840640026C1F8EE
:103040004064106213F0010F36D1284A136A23F44A
:10305000407361680B431362002D3ED1236813F067
:10306000020F06D0214A536823F44043A1680B4362
:103070005360236813F0100F34D01C4A536823F4B4
:103080008003E1680B43536000202CE00025BEE77D
:10309000174A136843F480731360FEF7DFFD06469A
:1030A000134B1B6813F4807FB6D1FEF7D7FD801B4E
:1030B0006428F5D9032016E0FEF7D0FD06460B4B39
:1030C0001B6A13F0020FC0D1FEF7C8FD801B41F24E
:1030D00088339842F3D9032005E0D36923F0805365
:1030E000D361BBE7002002B070BD00BF00100240FA
:1030F000007000400000424210B4036A046A24F0E9
:1031000001040462846924F0F00C4CEA021223F0FA
:103110000A030B438261036210BC704710B4036A58
:10312000046A24F010040462846924F4704C4CEAAC
:10313000023223F0A00343EA01138261036210BC50
:103140007047836823F070030B4343F007038360E9
:103150007047000003681B4A90420AD0B0F1804FCC
:1031600007D0A2F59432904203D002F580629042DB
:1031700003D123F070034A681343124A90420AD0E5
:10318000B0F1804F07D0A2F59432904203D002F5FF
:103190008062904203D123F44073CA68134323F042
:1031A00080034A69134303608B68C3620B688362C0
:1031B000044B984202D00123436170470B690363BB
:1031C000F9E700BF002C014040B310B5044690F869
:1031D0003D30F3B1022384F83D30214651F8040B11
:1031E000FFF7B8FF012384F8463084F83E3084F8B6
:1031F0003F3084F8403084F8413084F8423084F81D
:10320000433084F8443084F8453084F83D30002061
:1032100010BD80F83C30FEF7D3FBDBE701207047A0
:1032200010B4846824F47F4C42EA03220A4342EA41
:103230000C02826010BC704790F83C30012B78D0B3
:1032400010B50446012380F83C30022380F83D305D
:103250000268936823F47F4323F0770393600B683D
:10326000602B4CD029D8402B54D00CD9502B22D1D4
:10327000CA6849680068FFF73FFF50212068FFF7E0
:1032800060FF002005E0202B0DD009D9302B0AD09B
:103290000120012384F83D30002384F83C3010BD28
:1032A0000BB1102B05D119462068FFF74AFF00200B
:1032B000EFE70120EDE70120EBE7B3F5805F34D0C5
:1032C000B3F5005F0CD1CB684A6889680068FFF7E6
:1032D000A7FF2268936843F4804393600020D8E7F7
:1032E000702B24D1CB684A6889680068FFF798FF83
:1032F0002268936843F0770393600020C9E7CA68A7
:1033000049680068FFF70AFF60212068FFF719FF8E
:103310000020BEE7CA6849680068FFF7EDFE40215B
:103320002068FFF70EFF0020B3E70020B1E701207F
:10333000AFE702207047000090F83C30012B2CD002
:1033400010B4012380F83C30022380F83D3003683C
:103350005A689C6822F0700C0A6842EA0C025A60B3
:1033600003680F4A93420AD0B3F1804F07D0A2F509
:103370009432934203D002F58062934204D124F048
:1033800080044A6814439C60012380F83D30002388
:1033900080F83C30184610BC70470220704700BFD0
:1033A000002C0140026802F10C0353E8003F23F4B3
:1033B00090730C3242E800310029F3D1026802F127
:1033C000140353E8003F23F00103143242E80031B4
:1033D0000029F3D1036B012B05D0202380F8423064
:1033E000002303637047026802F10C0353E8003FB7
:1033F00023F010030C3242E800310029F3D1ECE74E
:1034000090F84130DBB2212B01D002207047836855
:10341000B3F5805F17D0036A5A1C02621A780368FA
:103420005A60C38C9BB2013B9BB2C3844BB9026808
:10343000D36823F08003D3600268D36843F040036D
:10344000D360002070470369002BE4D1036A1B8816
:103450000268C3F308035360036A02330362E0E7C0
:1034600010B504460268136923F44053C1680B4346
:10347000136183680269134342691A430168CB6888
:1034800023F4B05323F00C031343CB600268536959
:1034900023F4407381690B4353610268134B9A42D2
:1034A00020D0FFF77DFD024602EB820202EB820292
:1034B00063689B00B2FBF3F20D48A0FB023149099F
:1034C000642303FB11231B013233A0FB03235B099D
:1034D00003F0F00202EB011203F00F032168134422
:1034E0008B6010BDFFF76CFD0246DDE70038014040
:1034F0001F85EB512DE9F84305460F4616469946C0
:10350000DDF820802C68246837EA04030CBF4FF0F4
:10351000010C4FF0000CB4452DD1B8F1FF3FF1D0B4
:10352000B8F1000F05D0FEF799FBA0EB090040456C
:10353000E8D92A6802F10C0353E8003F23F4D07362
:103540000C3242E800310029F3D12A6802F1140359
:1035500053E8003F23F00103143242E80031002910
:10356000F3D1202385F8413085F84230002385F8D7
:103570004030032000E00020BDE8F88360B310B5C0
:10358000044690F8413013B3242384F84130226874
:10359000D36823F40053D3602046FFF761FF22680D
:1035A000136923F4904313612268536923F02A03BB
:1035B00053612268D36843F40053D36000206064F1
:1035C000202384F8413084F84230606310BD80F8D5
:1035D0004030FEF749FAD7E7012070472DE9F04166
:1035E00082B01E4690F84130DBB2202B4BD104460E
:1035F0000D46904600294AD00AB9012044E0002334
:103600004364212380F84130FEF728FB0746A4F8E5
:103610002480A4F82680A368B3F5805F02D04FF021
:1036200000080FE02369FBB14FF000080AE038F80A
:10363000023B2268C3F308035360E28C92B2013A62
:1036400092B2E284E38C9BB28BB100963B4600229F
:1036500080212046FFF74EFFD8B9002DE7D015F89E
:10366000012B23685A60E8E7A8460025EAE70096A0
:103670003B46002240212046FFF73CFF58B920235B
:1036800084F8413000E0022002B0BDE8F081012062
:10369000FAE70320F8E70320F6E72DE9F04182B0CE
:1036A0001E4690F84230DBB2202B53D104460D4623
:1036B0009046002952D00AB901204CE0002343640F
:1036C000222280F842200363FEF7C8FA0746A4F8D6
:1036D0002C80A4F82E80A368B3F5805F02D04FF051
:1036E000000817E0236913B14FF0000812E0A84664
:1036F00000250FE023685B68C3F3080328F8023B4A
:1037000003E023685B682B700135E28D92B2013AC9
:1037100092B2E285E38D9BB2BBB100963B4600229C
:1037200020212046FFF7E6FED0B9002DE2D0A368A5
:10373000B3F5805FE5D013B92369002BE1D023688E
:103740005B6803F07F032B70DEE7202384F84230B0
:10375000002000E0022002B0BDE8F0810120FAE77D
:103760000320F8E7704708B50168CA6822F04002F4
:10377000CA60202280F84120FFF7F4FF002008BD36
:10378000704708B5406A0023C385C384FFF7F8FF7C
:1037900008BD704790F84230DBB2222B69D18368B4
:1037A000B3F5805F4FD0826AB3F5805F04D0002B01
:1037B00056D10369002B53D103685B681370836A89
:1037C00001338362C38D9BB2013B9BB2C385002B47
:1037D00051D100B583B00268D36823F02003D360D1
:1037E0000268D36823F48073D3600268536923F0BE
:1037F00001035361202380F8423000234363036BAD
:10380000012B33D100230363026802F10C0353E858
:10381000003F23F010030C3242E800310029F3D1BD
:1038200003681A6812F0100F06D0002201921A687D
:1038300001925B680193019B818DFFF7AAFF002035
:1038400003B05DF804FB0269002AACD1826A036808
:103850005B68C3F308031380836A02338362B1E7B2
:1038600003685B6803F07F031370A8E700F08EFE27
:10387000E5E70220704700207047000030B583B0B4
:10388000044602681368D068516913F00F0505D12A
:1038900013F0200F02D010F0200F19D12DB111F02C
:1038A000010119D110F4907F16D1216B01297DD02F
:1038B00013F0800F03D010F0800F40F0188113F048
:1038C000400F03D010F0400F40F0158103B030BD21
:1038D0002046FFF75FFFF9E713F0010F06D010F461
:1038E000807F03D0626C42F00102626413F0040F27
:1038F00004D019B1626C42F00202626413F0020F4C
:1039000004D019B1626C42F00402626413F0080F33
:1039100007D010F0200F00D119B1626C42F00802FC
:103920006264626C002AD1D013F0200F02D010F034
:10393000200F29D123685B6903F04003626C12F009
:10394000080F00D163B32046FFF72CFD23685B69A5
:1039500013F0400F20D0226802F1140353E8003F17
:1039600023F04003143242E800310029F3D1E36B25
:1039700073B1634A5A63E06BFEF76CFB0028A5D075
:10398000E06B436B9847A1E72046FFF703FFD1E7C1
:103990002046FFF7F5FE99E72046FFF7F1FE95E791
:1039A0002046FFF7EDFE002363648FE713F0100F4E
:1039B0003FF47EAF10F0100F3FF47AAF0023019375
:1039C0001368019353680193019B536913F0400FEF
:1039D00051D0E26B13685B689BB2002B3FF476AF6B
:1039E000A18D99427FF672AFE3859369202B37D082
:1039F000226802F10C0353E8003F23F480730C3279
:103A000042E800310029F3D1226802F1140353E89F
:103A1000003F23F00103143242E800310029F3D1C2
:103A2000226802F1140353E8003F23F040031432EC
:103A300042E800310029F3D1202384F842300023EA
:103A40002363226802F10C0353E8003F23F01003C4
:103A50000C3242E800310029F3D1E06BFEF7D6FAD0
:103A600002236363A18DE38D9BB2C91A89B22046FC
:103A7000FFF78FFE2AE7A18DE38D9BB2C91A89B2A9
:103A8000E38D9BB2002B3FF421AF00293FF41EAF22
:103A9000226802F10C0353E8003F23F490730C32C8
:103AA00042E800300028F3D1226802F1140353E801
:103AB000003F23F00103143242E800300028F3D124
:103AC000202384F8423000232363226802F10C0390
:103AD00053E8003F23F010030C3242E80030002886
:103AE000F3D1022363632046FFF753FEEEE6204640
:103AF000FFF786FCEAE62046FFF735FEE6E600BF64
:103B00008337000881628285C285002343642223B3
:103B100080F84230036923B10268D36843F48073AC
:103B2000D3600268536943F0010353610268D368AC
:103B300043F02003D3600020704708B590F842306E
:103B4000DBB2202B08D149B10AB9012008BD0023FE
:103B50000363FFF7D7FFF9E70220F7E70120F5E756
:103B600038B504460D4603681BB1022303730023D6
:103B700018E001230373084600F01EFF2060C8B15F
:103B800000236360A56003E022680021D154013363
:103B9000A2689A42F8D80DE022684FF0000C02F8B3
:103BA00003C00133A2689A42F6D800236360AA4298
:103BB00000D2236038BD10B50446037B012B05D02D
:103BC000002323606360A360237310BD006800F0CE
:103BD000FBFEF5E70346012004280ADC03F07F0220
:103BE0000A70DB0907D062F07F0201F8012B013077
:103BF000F2E74FF0FF307047002313604FF0010CE5
:103C00008B421BDA10B5C45C04F07F04D2F800E0EC
:103C10000CFB04E41460C456002C0ADA4FEACC1CF6
:103C2000BCF5001F07D201338B42ECDB4FF0FF30B5
:103C300003E0581C01E06FF0010010BD4FF0FF30B1
:103C40007047000030B583B004782409631EDBB2EE
:103C50000D2B26D80546032C02D0204603B030BDDC
:103C60000023019301AA04210130FFF7C5FF431C83
:103C7000E818019A012A12D9297811F0010F0ED102
:103C8000E95C437843EA012302339A4207D30649A9
:103C9000023001F0BDFD0028DFD00F24DDE7FF2456
:103CA000DBE7FF24D9E700BF0CD100082DE9F04F76
:103CB00085B001900F46164603939DF838509DF845
:103CC0003CB0139C104601F0EBFB0290002E00F07C
:103CD0003A810FFA80FA00F111091FFA89F91DBB28
:103CE0004FF00008109B8BB148F00408184601F013
:103CF000D7FBC5B2119801F0D3FB0544ADB2A9447E
:103D00001FFA89F909F104091FFA89F9BBF1010FBA
:103D10000DD0BBF1020F00F0EF80BBF1000F08D017
:103D2000022005B0BDE8F08F4FF00208DAE748F056
:103D30000C08129B0BB148F024080198002800F0F1
:103D40000481002F00F0038148F0C00B01F0A8FBB4
:103D50000546384601F0A4FB0544ADB2A9441FFA5C
:103D600089F909F104091FFA89F949462046FFF744
:103D7000F7FE2068002800F0EC804A46002101F0A0
:103D8000D7F822686368591C61601021D1542168FA
:103D900063681944A9F10500FFF71CFF00B2002871
:103DA000C0F2AD806368184460602368421C6260A2
:103DB00000221A54216863685A1C62600422CA54A3
:103DC00021686368581C60604D20C854216863688E
:103DD000581C60605120C85420686368591C616099
:103DE0005421C154206863685D1C6560C15421681A
:103DF0006368581C6060CA5422686368591C61601B
:103E000002F803B022686368591C61600398010AD4
:103E1000D15422686368591C6160D0542268636879
:103E2000591C6160CAF30721D15422686368591C88
:103E300061600299D1542068636852463146184443
:103E400001F05CFB65685544656018F0040F34D0E0
:103E5000119B002B58D0109801F022FB86B22368EA
:103E60006A1C6260C0F307225A5522686368591CB5
:103E70006160D0542068636832461099184401F09C
:103E80003DFB656835446560119801F009FB86B219
:103E900023686A1C6260C0F307225A55226863686F
:103EA000591C6160D05420686368324611991844E7
:103EB00001F024FB6368334463601BF0800F26D15C
:103EC000384601F0EDFA85B222686368591C6160DA
:103ED000C0F30721D15422686368591C6160D05433
:103EE000206863682A463946184401F007FB636876
:103EF0002B446360002014E748F0140819E72046BB
:103F0000FFF759FE05200CE7134B1193A3E7019E21
:103F1000304601F0C5FA85B222686368591C6160B9
:103F2000C0F30721D15422686368591C6160D054E2
:103F3000206863682A463146184401F0DFFA636856
:103F40002B446360BCE70120EBE60320E9E6032095
:103F5000E7E60420E5E600BF2CD200084378022BF8
:103F600004D18378012B03D8C078704701207047B3
:103F7000FF2070472DE9F04383B004460F461646F4
:103F80001D462F21063001F0C7F9002301930028B8
:103F900043D0814600F1010801AA0421601CFFF70B
:103FA0002BFE252000F008FD3860002837D02522A0
:103FB000002100F0BDFF40463C6809F12108D0F81F
:103FC00000C041688268C368C4F800C06160A26034
:103FD000E360103010344045F1D10368236009F1EB
:103FE000250901982C3880B22880013000F0E4FCCB
:103FF000306068B12A880132002100F099FF2A88D8
:1040000049463068FCF7BEFC002003B0BDE8F083F1
:10401000386800F0D9FC0320F7E70120F5E702201B
:10402000F3E72DE9F04F85B000939DF83890DDF867
:1040300044800190002800F0E6800E4617460025D7
:1040400000E00135745D34B1232C00F0E1802B2CAD
:10405000F7D10224D8E00F9B8BB930230293009B49
:10406000EB1803F1020AB9F1010F0BD0B9F1020FFD
:1040700000F08D80B9F1000F0AD00324C4E0312391
:104080000293ECE7029A42F00202029203F1040A60
:10409000002F00F093803B78022B7FD100231A463B
:1040A0000133B95C7D29FAD1531D0393009AA3EB28
:1040B000020BD3440BF1030B59464046FFF750FD6A
:1040C000D8F80000002800F0A5805A46002100F032
:1040D0002FFFD8F80020D8F80430591CC8F8041075
:1040E0000299D154D8F80010D8F804301944504639
:1040F000FFF770FD002871DBD8F804300344C8F8DE
:104100000430D8F80020591CC8F80410C5F3072162
:10411000D154D8F80020D8F80430591CC8F804103D
:10412000D554D8F80000D8F804302A46314618444F
:1041300001F0E4F9D8F804301D44C8F80450B9F18E
:10414000000F0FD0D8F800306A1CC8F8042001987E
:10415000020A5A55D8F80020D8F80430591CC8F87B
:104160000410D054002F4FD03B78022B3BD0D8F80E
:104170000000D8F80430009D2A4639461844FCF760
:1041800001FCD8F804302B44C8F804303CE0029A13
:1041900042F00402029203F1040A79E70AF1050BE6
:1041A00059464046FFF7DCFCD8F80000A0B35A4659
:1041B000002100F0BDFE002303938AE70AF1050BFE
:1041C00059464046FFF7CCFCD8F8000030B35A46B9
:1041D000002100F0ADFE002303937AE74046FFF78D
:1041E000EAFC052410E0D8F80000D8F80430039D5C
:1041F0002A4639461844FCF7C5FBD8F804302B444E
:10420000C8F8043000E00124204605B0BDE8F08F76
:104210000224F9E70424F7E70424F5E70424F3E78C
:1042200070B584B00D461E46089C0394012102918E
:10423000002201920091EB1C0C490A20FFF7F1FECD
:1042400090B922686368591C6160D654226863681B
:10425000591C6160C5F30721D15422686368591C59
:104260006160D55404B070BD0120FBE714D1000893
:104270002DE9F04385B080460E46174601F010F94F
:1042800085B205F10709484600F096FB40B30446A5
:104290004A46002100F04CFE124B186820609B88B3
:1042A000A3802A464146204601F028F9304601F015
:1042B000F7F803460397012202920022019200922E
:1042C000324621460A20FFF7ACFE38B900252046C9
:1042D00000F07AFB284605B0BDE8F0830125F6E73B
:1042E0000125F7E718D100084378022B06D183781F
:1042F00033B9C3780A2B05D00120704701207047DD
:10430000012070470020704708B580220021034833
:1043100000F00EFE024B00221A8008BD5C0B00204C
:10432000DC0B0020084B1B885BB1084A12889342C3
:1043300003D0064A1380012070470020024B1880EA
:1043400070470120704700BFDC0B0020DE0B00200F
:10435000F0B591B004460E4601F0A2F8174F80B2B6
:104360000F900E946C4607F110050FCD0FC40FCDC2
:104370000FC40FCD0FC495E8030084E8030097E84D
:104380000F00FDF7E7FBC82203E00A20FDF76CFCF5
:104390002246531EDCB27AB1FFF7C4FF054600285F
:1043A000F3D13146064801F033FA0028EDD0FFF78B
:1043B000ABFF284611B0F0BD0125FAE7100B002035
:1043C0005C0B002070B598B005460C46FFF79CFFCB
:1043D0002246134910A800F05DFF124910A8FFF70C
:1043E000B7FF08B118B070BD0F4E0F940E95EC4694
:1043F00006F1100EBEE80F00ACE80F00BEE80F009B
:10440000ACE80F00BEE80F00ACE80F009EE8030028
:104410008CE8030096E80F00FDF79CFBE2E700BF85
:1044200020D1000830D10008100B002010B5044640
:1044300005E00520FDF718FC013CA4B27CB1FFF7B4
:1044400071FF0028F5D10749074801F0E1F900287C
:10445000EFD03A2100F060FF10B1013000E0002001
:1044600010BD00BF34D100085C0B002010B5FFF771
:104470004BFF334800F01CFE07E032493248FFF79B
:1044800067FF0146314800F0B1FD2E492E48FFF785
:104490005FFF0028F1D14FF4FA70FDF7E5FB2C48DF
:1044A00000F006FE2B4C21462B48FFF751FF4FF43E
:1044B000FA70FDF7D9FB21462848FFF749FF4FF472
:1044C000FA70FDF7D1FB264800F0F2FD03E04FF44F
:1044D000FA70FDF7C9FB1B492248FFF739FF002896
:1044E000F5D1214800F0E4FD03E04FF4FA70FDF748
:1044F000BBFB14491D48FFF72BFF0028F5D11C48D2
:1045000000F0D6FD03E04FF4FA70FDF7ADFB19495A
:104510001948FFF71DFF0028F5D1184800F0C8FD25
:1045200003E04FF4FA70FDF79FFB15491548FFF7BC
:104530000FFF0028F5D1144800F0BAFD10BD00BFF0
:104540003CD1000844D1000848D1000850D10008EF
:1045500058D100082CD2000860D100086CD10008A6
:104560007CD1000888D1000898D10008A8D10008A3
:10457000B8D10008C4D10008CCD10008ECD10008A3
:10458000FCD1000804D2000830D2000808B51B4B4B
:104590001B887F2B14D81A4A5168581C174A108060
:1045A000184AD154184B1B78312B18D0164B1B7856
:1045B000302B1BD0012214491448FFF7BEFA08BD66
:1045C00000210E4B198080220E4800F0B1FC4FF6FE
:1045D000FF730A220E490F48FFF700F8EAE70122AD
:1045E0004FF400510C48FDF793FEDFE700224FF433
:1045F00000510948FDF78CFEDCE700BFDC0B002012
:10460000004800405C0B0020E00B0020100B002055
:1046100044D20008C80A00200010014070B58AB0DA
:1046200006AE002406940794089409942F4D2B4657
:104630002A4629462E4800F0D9FC05960494039496
:104640000294019400944FF480732A462946284628
:10465000FFF72CFB002841D1BDF81C100698FFF78E
:10466000B1FEFA20FFF7E2FE044690B3FFF7EAFA44
:10467000022801D001242DE02046FFF76FFC052819
:1046800022D8DFE800F003080D12171C194800F0CB
:104690000FFD00241EE0184800F00AFD012419E077
:1046A000164800F005FD012414E0154800F000FD57
:1046B00001240FE0134800F0FBFC01240AE012483B
:1046C00000F0F6FC012405E0104800F0F1FC0124A4
:1046D00000E0012406A8FFF76EFA03E00C4800F0A2
:1046E000E7FC012420460AB070BD00BF54D2000888
:1046F00058D2000888D2000898D20008B4D2000826
:10470000D4D20008F0D2000814D3000840D3000827
:104710005CD300082DE9F0418AB004464FF0200830
:104720004246002102A800F003FC224B1A889B7825
:104730002280A370204DA878FBF780FF0646E8781A
:10474000FBF778FF1D49FCF781F801463046FBF77F
:10475000C1FE06462878FBF771FF07466878FBF72D
:1047600069FF1649FCF772F801463846FBF7B2FEBE
:1047700005464246002102A800F0DAFB3046FBF76E
:104780004BFE06460F462846FBF746FECDE90001E4
:1047900032463B460A4902A800F07CFD02A92046A9
:1047A00000F09AFD204600F07BFEC0B20AB0BDE8E2
:1047B000F08100BF80D30008EC09002000002041F8
:1047C00084D3000810B5A6B0002422942394249426
:1047D00025941C4800F06CFC8022214602A800F0C1
:1047E000A7FB02A8FFF796FF04B20CB926B010BDD4
:1047F00022AB00930523002221461348FFF710FD4A
:10480000E0B900230BE0239A511C239103F1980196
:10481000694411F8900C2299885401331BB2A342C9
:10482000F1DBBDF88C102298FFF7CCFD23990748E7
:1048300000F0DCFB22A8FFF7BEF9D7E7044800F040
:1048400037FCD3E7A0D3000854D20008BCD300083B
:10485000CCD3000830B58BB00546002306930793F0
:104860000893099305930493ADF80E30FFF7EAF926
:104870000446042836D00F2843D10DF10E0305AAB3
:1048800004A92846FFF776FB05B28DB1FFF73CFD82
:10489000B5F1FF3F37D07D21059800F03DFD024680
:1048A00000284AD0B5F1FF3F47D00132002133E064
:1048B000BDF80E30059A0499254800F097FB06AA2A
:1048C00005990498FFF7D4FC0028DFD1214800F0B7
:1048D000EFFBBDF81C100698FFF774FD06A8FFF764
:1048E0006AF9D3E72846FFF7FFFC30B91A4800F011
:1048F000DFFBFFF709FD0025CDE7FFF705FD0025EC
:10490000C9E7FFF701FD0BB030BD013201F128030B
:104910006B4403F824CC013192F800C0ACF13003B1
:10492000DBB2092BF1D901F128030DEB03010023C0
:1049300001F8243C01A800F011F80F2C01D0032C41
:10494000E1D1049800F040F8059800F03DF8DAE76E
:10495000E8D300080CD4000820D400080A22002163
:1049600001F09AB8014B1868704700BF240000207E
:1049700070B50D4E0D4D761BB61006D0002455F8BF
:10498000043B01349847A642F9D1094E094D08F07D
:104990007DFB761BB61006D0002455F8043B01348D
:1049A0009847A642F9D170BD64D8000864D80008C1
:1049B0006CD8000864D80008024B0146186800F063
:1049C0000BB800BF24000020024B0146186805F018
:1049D000EFBD00BF240000202DE9F04F01F10B05D1
:1049E000162D064683B025D8102900F2B88000F0B5
:1049F000F1FA102518224FF0020CB54F3A445368D3
:104A0000A2F108018B4200F0B7805A68D96822F001
:104A100003021A449C683046E1608C60516803F1DF
:104A2000080441F00101516000F0DAFA204603B0B9
:104A3000BDE8F08F35F0070500F19180A94200F242
:104A40008E8000F0C7FAB5F5FC7FC0F094816B0A48
:104A500000F08C80042B00F26A81AB0903F1390C61
:104A600003F138044FEACC00994F384443680838C2
:104A7000984206D10CE0002980F22681DB6898423A
:104A800006D05A6822F00302511B0F29F3DDA44619
:104A90003C69DFF840E274457AD0626822F0030294
:104AA000531B0F2B00F37681002BC7E904EE80F235
:104AB0006781B2F5007F80F019810121D308520986
:104AC0000B4491407A6857F833000A4307EBC3015F
:104AD0000839A060E1607A6047F83340C460012182
:104AE0004FEAAC039940914259D8114206D12CF0BB
:104AF000030C490011420CF1040CFAD007EBCC096D
:104B000048466446D0F80C80404508D11CE1002B93
:104B100080F22181D8F80C80404500F01581D8F84A
:104B2000042022F00302531B0F2BF0DD08EB0501DC
:104B300045F00105C8F804503046D8E90264F46035
:104B4000A66043F00104C7E904114C60C1E902EE1C
:104B500048F8023000F044FA08F1080402E00C239F
:104B600000243360204603B0BDE8F08F4FF400709E
:104B70004FF0400C3F2477E7D3689A4208BF0CF10E
:104B8000020C7FF442AF3C69DFF848E1744584D100
:104B900001217A684FEAAC0399409142A5D9BC68DB
:104BA000636823F003094D4503D8A9EB05030F2BD8
:104BB0007ADCDFF824B1494BDBF800201B680132B6
:104BC0002B4404EB090A00F02F8103F580530F33C7
:104BD00023F47F6828F00F084146304600F070FA51
:104BE000411C024600F0EF80824500F2EA803C4B17
:104BF000196841440846196000F04981DBF800104B
:104C0000019301311BBFA2EB0A0A5044CBF80020EC
:104C1000186012F0070B00F01181CBF108010A4473
:104C2000CBF5805190440831A1EB0801C1F30B0A88
:104C300051463046009200F043FA421CDDE9002361
:104C400000F04B81801A00EB0A08196848F0010057
:104C50005144BC42BA601960506000F02481B9F13F
:104C60000F0F40F222814FF0050E6068A9F10C0C85
:104C70002CF0070C00F0010040EA0C006060BCF171
:104C80000F0F04EB0C00C0E901EE00F22E81144678
:104C90005068144B1A688A4238BF1960124B1A6860
:104CA0008A4238BF196090E0621943F0010345F071
:104CB000010565603046BA600834536000F090F931
:104CC000204603B0BDE8F08FD9681A44A2E600BFC1
:104CD000500400205804002058080020140C002024
:104CE000E40B00200C0C0020100C0020B2F5206F0B
:104CF0004FEA52235FD3142B00F2B18003F15C0121
:104D0000C9005B33781879580838884200F08F80E2
:104D10004B6823F00303934202D989688842F7D194
:104D2000C8687A68C4E902108460CC60D7E6142BA6
:104D300059D9542B00F29B802B0B03F16F0C03F11C
:104D40006E044FEACC008FE60134A30700F108009F
:104D50007FF4D8AE53E0444642445368D8F80C1070
:104D600043F00103536054F8083F3046D9608B602C
:104D700000F036F9F6E64FEAD50C05F108023CE6FC
:104D800022445368304643F00103536000F028F991
:104D90000834E7E6611945F00105656043F0010557
:104DA000C7E904113046C1E902EE4D60A35000F09E
:104DB00017F90834D6E6930903F13901C9003833ED
:104DC000A0E7BC425ED0BC68606820F0030845459F
:104DD000A8EB050302D80F2B3FF766AF304600F073
:104DE000FFF80024BEE603F15C0C03F15B044FEA1C
:104DF000CC0039E659F808394B4540F095801CF055
:104E0000030F0CF1FF3CF5D17B6823EA01037B60C3
:104E1000490099423FF6C3AE11B9C0E649000434D7
:104E20001942FBD0A44669E603F11008D4E601223A
:104E30009B109A407B681A437A6073E702EB080183
:104E40004942C1F30B0A51463046009200F038F94E
:104E5000431CDDE900237FF4F5AEDA46F5E6542B7A
:104E600026D8130B03F16F01C9006E334AE7B3F57F
:104E7000AA7F26D8EB0B03F1780C03F177044FEAF5
:104E8000CC00F1E5294B186840441860B6E6CAF337
:104E90000B0CBCF1000F7FF4B1AEBC68C84448F005
:104EA00001006060F5E61446F3E60123536095E7E0
:104EB000B3F5AA7F24D8D30B03F17801C900773367
:104EC00020E740F25452934224D8AB0C03F17D0CFE
:104ED00003F17C044FEACC00C6E5ABF1080BD844E3
:104EE0004FF0000AA8EB0208AFE604F108013046D3
:104EF000009305F05DFBBC68009B60681968C8E61C
:104F000040F254518B420BD8930C03F17D01C90040
:104F10007C33F7E64FF47E704FF07F0C7E24A3E5E0
:104F20004FF47E717E23EDE67B6871E7E40B002091
:104F3000830730B548D0541E002A3FD00346CAB27A
:104F400001E0013C3AD303F8012B9D07F9D1032C72
:104F50002DD9CDB245EA05250F2C45EA054536D9B0
:104F6000A4F1100222F00F0C03F1200EE6444FEAE8
:104F7000121C03F1100242E9045542E902551032B5
:104F80007245F8D10CF1010214F00C0F03EB021280
:104F900004F00F0C13D0ACF1040323F0030304332B
:104FA000134442F8045B9342FBD10CF003042CB190
:104FB000CAB21C4403F8012B9C42FBD130BD6446AD
:104FC0001346002CF4D1F9E703461446BFE71A460E
:104FD000A446E0E7014805F08FBD00BF1C0C00208F
:104FE000014805F08BBD00BF1C0C00200FB400B5BC
:104FF000074A83B004AB106853F8042B816801930F
:1050000002F0B2FA03B05DF804EB04B0704700BFE1
:105010002400002030B5054689B008460C4600F053
:105020003FFA01210223214A04940692AA6B04ACA0
:105030000590084401940791AC680293039022B351
:10504000636E13F0010FB4F90C309AB201D19805D8
:1050500025D5910406D4626E43F4005322F4005225
:10506000A3816266284601AA214605F0A1FB636E72
:10507000002814BF4FF0FF350A25DA0702D4A389B0
:105080009B0506D5284609B030BD284605F098F99D
:10509000D6E7A06D05F032FD284609B030BDA06D01
:1050A00005F02AFDB4F90C309AB2D2E794D1000889
:1050B000024B01461868FFF7ADBF00BF2400002077
:1050C000002238B5064D044608462A60FCF71AFC53
:1050D000431C00D038BD2B68002BFBD0236038BDAB
:1050E000280C00202DE9F043694C0E46D4F80080CE
:1050F000174604461D4683B0B8F1000F03D0D8F818
:105100003830002B77D0022F05D0012F00F2AC8071
:10511000002DC0F2A980636EDA0752D521464046C1
:1051200005F01AF9216B41B104F14003994202D014
:10513000404605F03DFA002323630023B4F90CC078
:10514000A3611CF0800F636064D12CF44A6C2CF0D6
:10515000030C022FA4F80CC06AD001AB21464046D4
:105160006A4605F03DFDA3891843A081002D2FD08C
:10517000002E2ED0D8F83830002B38D0009BC4E950
:105180000465AB42B4F90C3026601CBF43F40063E5
:10519000A381012F04BF43F00103A3819AB213F04E
:1051A00008032CD0D1075DD500216D42A561656E45
:1051B000A16015F0010527D00025284603B0BDE801
:1051C000F083A3899B05A9D4A06D05F095FCA5E704
:1051D000009D2846FFF7F0FB0646002847D0A3892C
:1051E00043F08003A381D8F83830002BC6D1404665
:1051F00005F0E6F8C2E7404605F0E2F883E7A36071
:10520000656E15F00105D7D1930524D5284603B066
:10521000BDE8F0834046216905F0CAF9B4F90CC035
:10522000022F2CF44A6C2CF0030CA4F80CC094D17F
:1052300000250021012204F1430323602361636EF2
:105240004CF0020CD807A4F80CC0A1606261DDD458
:105250001CF4007FDAD1A06D05F050FC284603B0A5
:10526000BDE8F083A560CBE74FF0FF35CEE7DDF872
:105270000090A94504D04846FFF79EFB064620B99A
:105280004FF0FF35B4F90CC0D3E74D46A7E700BF98
:10529000240000200EB430B504466FF000459CB0E9
:1052A0000B4A1FAB0B49059253F8042B086802A95F
:1052B000CDE9013407950495069400F003FC002223
:1052C000029B1A701CB0BDE8304003B0704700BFAD
:1052D0000802FFFF24000020830710B5044610D108
:1052E0000268A2F1013323EA020313F0803F08D1E0
:1052F00050F8042FA2F1013323EA020313F0803F98
:10530000F6D003781BB110F8013F002BFBD100F061
:1053100069F8204610BD00BF11F0FF01034644D0DC
:10532000820732D110B5046841EA012E4EEA0E4ED2
:105330008EEA0402A2F1013323EA0203A4F101324E
:1053400022EA0402134313F0803F0FD150F8044FB8
:1053500084EA0E0CA4F10133ACF1013223EA040318
:1053600022EA0C02134313F0803FEFD0037823B9F5
:1053700036E010F8013F002B32D09942F9D110BD30
:105380008A4211D09A071846CCD0184613F8012B40
:10539000002AF5D1104670479907184607D01846DD
:1053A00002780133002AF7D170478207F7D10268EB
:1053B000A2F1013323EA020313F0803F08D150F831
:1053C000042FA2F1013323EA020313F0803FF6D049
:1053D0000378002BE8D010F8013F002BFBD1704779
:1053E000184610BD80EA0102844612F0030F4FD127
:1053F00011F0030F32D14DF8044D11F0040F51F8A4
:10540000043B0BD0A3F101329A4312F0803F04BF5A
:105410004CF8043B51F8043B16D100BF51F8044B43
:10542000A3F101329A4312F0803FA4F101320BD173
:105430004CF8043BA24312F0803F04BF51F8043BF8
:105440004CF8044BEAD023460CF8013B13F0FF0F55
:105450004FEA3323F8D15DF8044B704711F0010F88
:1054600006D011F8012B0CF8012B002A08BF704759
:1054700011F0020FBFD031F8022B12F0FF0F16BF50
:105480002CF8022B8CF8002012F47F4FB3D1704718
:1054900011F8012B0CF8012B002AF9D1704700BF3D
:1054A00020F0030110F00300C0F1000051F8043BAC
:1054B00000F1040C4FEACC0C6FF000021CBF22FA82
:1054C0000CF213434FF0010C4CEA0C2C4CEA0C4C40
:1054D000A3EB0C0222EA030212EACC1204BF51F839
:1054E000043B0430F4D0C2F1000102EA0102B2FA36
:1054F00082F2C2F11F0200EBD2007047830730B482
:1055000028D10468A4F1013323EA040313F0803F97
:10551000034608D153F8045FA5F1013424EA0504D9
:1055200014F0803FF6D01C781CB113F8014F002C0A
:10553000FBD19C4601391344634509D011F8012F72
:105540000CF8012B22B19C45F6D100238CF80030D9
:1055500030BC70470346E6E72DE9F04F012B1D46AE
:1055600081460F469046ADF21C4D40F24781012323
:1055700000219C464FF0FF341A4606E019460122EE
:10558000A3EB040C8B189D4210D908EB0400805C3F
:1055900018F803608642F1D300F081804FF0010CCF
:1055A00062460C4661448B189D42EED8CDF808C087
:1055B0004FF0010C00204FF0FF366146634606E0D5
:1055C00018460121A3EB060C43189D420FD908EBA6
:1055D000010218F803E0925D9645F1D865D04FF0CE
:1055E000010C61460646604443189D42EFD80136DF
:1055F00004F1010BB34502D8B346CDF808C005ABA2
:105600000DF2144243F8045F9342FBD1002D00F0E9
:10561000FA806C1E06AE08F1FF3208EB040001961A
:1056200012F8011FD3432B444344904246F82130E3
:10563000F6D1029E5A46404608EB060105F048FBAB
:10564000002840F083800BF1FF3305938246AB1BAB
:105650000646039309EB060E1EF80430019A52F831
:10566000233043B3BAF1000F04D0029A9342039A55
:1056700038BF13464FF0000A1E447B1BB342E9D2E9
:1056800009EB070045F4006106F016FA07447B1B9E
:10569000B342DFD200200DF21C4DBDE8F08F9445DF
:1056A0000ABF0122013261446CE761450ABF40181C
:1056B0000131012188E7D3455B4638BF5346A342F9
:1056C00014D2591E9A1941444A4402E00133A342BC
:1056D0000CD212F8010B11F801CF8445F6D0CBF1B2
:1056E000010216444FF0000A1E44C6E7D345059B4D
:1056F0007DD90BEB06024A4408EB0B01CDF810B044
:1057000002E0534516D0034612F8010D11F801CD01
:1057100003F1010B844503F1FF30F2D05B46DDF865
:1057200010B00AF1010A9A450BD8029BDDF80CA0D3
:105730001E44A2E753460AF1010A9A45DDF810B06B
:10574000F3D970460DF21C4DBDE8F08FA5EB0B03AD
:105750005B4538BF5B4600260BF1FF3202920133F6
:10576000CBF10102039245F4006A049309EB060EA3
:105770001EF80430019A52F823306BB11E447B1B93
:105780009E42F3D909EB0700514606F095F907440C
:105790007B1B9E42EAD97DE7A34513D202990BEB0E
:1057A00006025B464A44414402E00133A34209D267
:1057B00012F8010B11F801CF8445F6D0039A164474
:1057C0001E44DCE7BBF1000F13D00BEB060149448C
:1057D00008EB0B0202E0013B43450AD0134611F8E7
:1057E000010D12F801CD8445F5D0049BC6E75B4658
:1057F00097E770460DF21C4DBDE8F08F01234FF086
:10580000000B0293FBE606AB4FF0FF34019310E769
:105810002DE9F0410D460978044690B0002953D097
:105820006A78002A00F08380AB78002B50D0E878AB
:10583000002800F083802B79002B57D02846FFF7F3
:105840002FFE0646204646F4007106F035F98642E2
:105850005CD8FE2E00F28780801B27184022684605
:10586000711CFFF765FB7EB16A1E5FFA86FC90191A
:1058700012F8013F03F03F034033A91A6B4461441F
:10588000824203F8401CF3D1013CA35D03F03F03C7
:1058900040336B4413F8400C0444A74203D23AE06F
:1058A0004444A74237D314F806C020460CF03F0CFE
:1058B0000CF140030DEB030C324629461CF8408CDA
:1058C00005F006FA0028EBD1204610B0BDE8F081C3
:1058D000007842EA014200E00C4640EA0343611CC2
:1058E000A0B19A426078F7D1013CEDE722786AB125
:1058F000296809BA01E099421ED0204642EA0323F2
:1059000014F8012F002AF6D1994215D00024204620
:1059100010B0BDE8F081BB5DB819002BF6D04FF494
:10592000006106F0C9F80744BC42ADD9EEE710B0FB
:10593000BDE8F041FFF7F0BCC41EC5E7120442EA1F
:10594000016242EA03230146207800E02C4640EA47
:105950000102651C11020028D8D0B3EB022F607839
:10596000F4D1023CB0E7014633462A46204610B047
:10597000BDE8F041FFF7F0BD2DE9F04F81468E46BE
:10598000444D70461EF801CB15F80C4014F0080485
:10599000F7D1BCF12D0FE34653D06FF00048BCF1B6
:1059A0002B0F04BF9EF800B000F1020E1BB1102BAC
:1059B0004FD01F4604E0BBF1300F55D00A231F46DD
:1059C0000025B8FBF7F6284607FB168A07E0864253
:1059D00015D329D0012507FB00C01EF801BBABF190
:1059E000300CBCF1090F06D9ABF1410CBCF1190F19
:1059F00008D8ABF1370C63450DDD002DE7DA4FF029
:105A0000FF35EAE7ABF1610CBCF1190F03D8ABF13C
:105A1000570C6345F1DC002D0BDB04B140420AB1A9
:105A200095BB1160BDE8F08FE245D3DA4FF0FF354A
:105A3000D3E72223C9F800301AB340460EF1FF31F4
:105A4000EFE79EF800B04FF00048012400F1020E8D
:105A5000ACE7BBF1300FACD19EF8000000F0DF00E6
:105A6000582807D01F46ABE79EF8003003F0DF034D
:105A7000582B0BD110279EF801B03B460EF1020EB9
:105A80009EE74046BDE8F08F8046D6E708231F46D4
:105A900096E700BFC5D40008012A10B50AD0242A11
:105AA00008D8074C13460A4601462068BDE8104056
:105AB000FFF762BFFEF756FF16230360002010BDFC
:105AC000240000202DE9F04FD5B00C460C919146F2
:105AD0000E930A9005F008F8036818461793FFF72D
