:020000040800F2
:10000000005000204D260008152300081723000883
:10001000192300081B2300081D230008000000000E
:100020000000000000000000000000001F23000886
:1000300021230008000000002323000825230008D6
:1000400095260008952600089526000895260008A4
:100050009526000895260008952600089526000894
:100060009526000895260008952600089526000884
:100070009526000895260008952600089526000874
:100080009526000895260008952600089526000864
:100090009526000895260008952600089526000854
:1000A0009526000895260008952600089526000844
:1000B0009526000895260008952600089526000834
:1000C0009526000895260008952600089526000824
:1000D00095260008952600082D230008952600087F
:1000E00095260008952600089526000800000000C7
:1000F0000000000000000000000000000000000000
:0C01000000000000000000005FF808F1A3
:1001100010B5054C237833B9044B13B10448AFF341
:1001200000800123237010BDE009002000000000C2
:10013000CCF3000808B5034B1BB103490348AFF3E8
:10014000008008BD00000000E4090020CCF3000896
:1001500081F0004102E000BF83F0004330B54FEA78
:1001600041044FEA430594EA050F08BF90EA020FE5
:100170001FBF54EA000C55EA020C7FEA645C7FEA78
:10018000655C00F0E2804FEA5454D4EB5555B8BF9B
:100190006D420CDD2C4480EA020281EA030382EA0C
:1001A000000083EA010180EA020281EA0303362D9E
:1001B00088BF30BD11F0004F4FEA01314FF4801C71
:1001C0004CEA113102D0404261EB410113F0004F83
:1001D0004FEA03334CEA133302D0524263EB43033A
:1001E00094EA050F00F0A780A4F10104D5F1200ED8
:1001F0000DDB02FA0EFC22FA05F2801841F1000133
:1002000003FA0EF2801843FA05F359410EE0A5F106
:1002100020050EF1200E012A03FA0EFC28BF4CF037
:10022000020C43FA05F3C01851EBE37101F00045ED
:1002300007D54FF0000EDCF1000C7EEB00006EEBFA
:100240000101B1F5801F1BD3B1F5001F0CD3490884
:100250005FEA30004FEA3C0C04F101044FEA4452DB
:1002600012F5800F80F09A80BCF1004F08BF5FEA62
:10027000500C50F1000041EB045141EA050130BD42
:100280005FEA4C0C404141EB0101013C28BFB1F554
:10029000801FE9D291F0000F04BF01460020B1FA9F
:1002A00081F308BF2033A3F10B03B3F120020CDA72
:1002B0000C3208DD02F1140CC2F10C0201FA0CF050
:1002C00021FA02F10CE002F11402D8BFC2F1200CB5
:1002D00001FA02F120FA0CFCDCBF41EA0C0190406B
:1002E000E41AA2BF01EB0451294330BD6FEA0404B4
:1002F0001F3C1CDA0C340EDC04F11404C4F120029F
:1003000020FA04F001FA02F340EA030021FA04F3B0
:1003100045EA030130BDC4F10C04C4F1200220FA07
:1003200002F001FA04F340EA0300294630BD21FA45
:1003300004F0294630BD94F0000F83F4801306BF0B
:1003400081F480110134013D4EE77FEA645C18BFFF
:100350007FEA655C29D094EA050F08BF90EA020F96
:1003600005D054EA000C04BF1946104630BD91EA8E
:10037000030F1EBF0021002030BD5FEA545C05D191
:100380004000494128BF41F0004130BD14F58004D0
:100390003CBF01F5801130BD01F0004545F0FE4144
:1003A00041F470014FF0000030BD7FEA645C1ABF79
:1003B000194610467FEA655C1CBF0B46024650EAB0
:1003C000013406BF52EA033591EA030F41F40021DC
:1003D00030BD00BF90F0000F04BF0021704730B562
:1003E0004FF4806404F132044FF000054FF0000137
:1003F00050E700BF90F0000F04BF0021704730B5F8
:100400004FF4806404F1320410F0004548BF4042CC
:100410004FF000013EE700BF42004FEAE2014FEA21
:1004200031014FEA02701FBF12F07F4393F07F4FFC
:1004300081F06051704732F07F4208BF704793F0FF
:100440007F4F04BF41F40021704730B54FF4607412
:1004500001F0004521F000411CE700BF50EA010215
:1004600008BF704730B54FF000050AE050EA0102BE
:1004700008BF704730B511F0004502D5404261EB2E
:1004800041014FF4806404F132045FEA915C3FF46F
:10049000D8AE4FF003025FEADC0C18BF03325FEA0C
:1004A000DC0C18BF033202EBDC02C2F1200300FABD
:1004B00003FC20FA02F001FA03FE40EA0E0021FAE2
:1004C00002F11444BDE600BF4FF0FF3C06E000BF60
:1004D0004FF0010C02E000BF4FF0010C4DF804CDCD
:1004E0004FEA410C7FEA6C5C4FEA430C18BF7FEA8D
:1004F0006C5C1BD001B050EA410C0CBF52EA430CBB
:1005000091EA030F02BF90EA020F0020704710F13A
:10051000000F91EA030F58BF994208BF90422CBFC9
:10052000D8176FEAE37040F0010070474FEA410CC2
:100530007FEA6C5C02D150EA013C07D14FEA430CE0
:100540007FEA6C5CD6D152EA033CD3D05DF8040B51
:10055000704700BF8446104662468C461946634683
:1005600000E000BF01B5FFF7B7FF002848BF10F15A
:10057000000F01BD4DF808EDFFF7F4FF0CBF01209F
:1005800000205DF808FB00BF4DF808EDFFF7EAFF1B
:1005900034BF012000205DF808FB00BF4DF808EDD6
:1005A000FFF7E0FF94BF012000205DF808FB00BFCB
:1005B0004DF808EDFFF7CEFF94BF012000205DF855
:1005C00008FB00BF4DF808EDFFF7C4FF34BF012062
:1005D00000205DF808FB00BF4FEA410212F500124F
:1005E00015D211D56FF47873B3EB625212D94FEA7A
:1005F000C12343F0004343EA505311F0004F23FA64
:1006000002F018BF404270474FF00000704750EAB8
:10061000013005D111F0004008BF6FF00040704775
:100620004FF00000704700BF844641EA000313F01A
:10063000030349D1403A23D30B6803604B684360FE
:100640008B688360CB68C3600B6903614B6943614E
:100650008B698361CB69C3610B6A03624B6A436236
:100660008B6A8362CB6AC3620B6B03634B6B43631E
:100670008B6B8363CB6BC36340304031403ADBD23A
:1006800030320BD30B6803604B6843608B68836028
:10069000CB68C36010301031103AF3D20C3205D35E
:1006A00051F8043B40F8043B043AF9D2043208D034
:1006B000D2071CBF11F8013B00F8013B01D30B88A6
:1006C00003806046704700BF082A13D38B07B1D060
:1006D00010F00303AED0C3F10403D21ADB071CBF32
:1006E00011F8013B00F8013BA4D331F8023B20F89C
:1006F000023B9FE7043AD9D3013A11F8013B00F8D5
:10070000013BF9D20B7803704B7843708B78837080
:100710006046704770B54FF0FF0C4CF4E06C1CEA7B
:1007200011541DBF1CEA135594EA0C0F95EA0C0FE7
:1007300000F0DEF82C4481EA030621EA4C5123EA5A
:100740004C5350EA013518BF52EA033541F4801189
:1007500043F4801338D0A0FB02CE4FF00005E1FB3C
:1007600002E506F00042E0FB03E54FF00006E1FB86
:1007700003569CF0000F18BF4EF0010EA4F1FF04C9
:10078000B6F5007F64F5407404D25FEA4E0E6D4109
:1007900046EB060642EAC62141EA55514FEAC5201A
:1007A00040EA5E504FEACE2EB4F1FD0C88BFBCF596
:1007B000E06F1ED8BEF1004F08BF5FEA500E50F147
:1007C000000041EB045170BD06F0004646EA01010D
:1007D00040EA020081EA0301B4EB5C04C2BFD4EB3F
:1007E0000C0541EA045170BD41F480114FF0000E38
:1007F000013C00F3AB8014F1360FDEBF002001F0A6
:10080000004170BDC4F10004203C35DA0C341BDC1F
:1008100004F11404C4F1200500FA05F320FA04F0F1
:1008200001FA05F240EA020001F0004221F0004125
:1008300010EBD37021FA04F642EB06015EEA430E98
:1008400008BF20EAD37070BDC4F10C04C4F12005C8
:1008500000FA04F320FA05F001FA04F240EA02007B
:1008600001F0004110EBD37041F100015EEA430E4C
:1008700008BF20EAD37070BDC4F1200500FA05F26C
:100880004EEA020E20FA04F301FA05F243EA0203EB
:1008900021FA04F001F0004121FA04F220EA0200FA
:1008A00000EBD3705EEA430E08BF20EAD37070BD40
:1008B00094F0000F0FD101F00046400041EB010120
:1008C00011F4801F08BF013CF7D041EA060195F002
:1008D000000F18BF704703F00046520043EB0303BC
:1008E00013F4801F08BF013DF7D043EA06037047A9
:1008F00094EA0C0F0CEA135518BF95EA0C0F0CD0B4
:1009000050EA410618BF52EA4306D1D181EA0301F9
:1009100001F000414FF0000070BD50EA410606BFF3
:100920001046194652EA430619D094EA0C0F02D138
:1009300050EA013613D195EA0C0F05D152EA03367D
:100940001CBF104619460AD181EA030101F000419B
:1009500041F0FE4141F470014FF0000070BD41F0E4
:10096000FE4141F4780170BD70B54FF0FF0C4CF4BE
:10097000E06C1CEA11541DBF1CEA135594EA0C0FDD
:1009800095EA0C0F00F0A7F8A4EB050481EA030E2A
:1009900052EA03354FEA013100F088804FEA033311
:1009A0004FF0805545EA131343EA12634FEA0222DF
:1009B00045EA111545EA10654FEA00260EF00041A0
:1009C0009D4208BF964244F1FD0404F5407402D2F2
:1009D0005B084FEA3202B61A65EB03055B084FEA83
:1009E00032024FF480104FF4002CB6EB020E75EB80
:1009F000030E22BFB61A754640EA0C005B084FEAA8
:100A00003202B6EB020E75EB030E22BFB61A754624
:100A100040EA5C005B084FEA3202B6EB020E75EB6F
:100A2000030E22BFB61A754640EA9C005B084FEAE7
:100A30003202B6EB020E75EB030E22BFB61A7546F4
:100A400040EADC0055EA060E18D04FEA051545EAE3
:100A500016754FEA06164FEAC30343EA52734FEA8C
:100A6000C2025FEA1C1CC0D111F4801F0BD141EA05
:100A700000014FF000004FF0004CB6E711F4801F6A
:100A800004BF01430020B4F1FD0C88BFBCF5E06F4A
:100A90003FF6AFAEB5EB030C04BFB6EB020C5FEA5A
:100AA000500C50F1000041EB045170BD0EF0004EAF
:100AB0004EEA113114EB5C04C2BFD4EB0C0541EAE1
:100AC000045170BD41F480114FF0000E013C90E6DE
:100AD00045EA060E8DE60CEA135594EA0C0F08BFA2
:100AE00095EA0C0F3FF43BAF94EA0C0F0AD150EAA1
:100AF00001347FF434AF95EA0C0F7FF425AF104634
:100B000019462CE795EA0C0F06D152EA03353FF45B
:100B1000FDAE1046194622E750EA410618BF52EAD8
:100B200043067FF4C5AE50EA41047FF40DAF52EAAC
:100B300043057FF4EBAE12E74FEA410C7FEA6C5CB1
:100B400002D150EA013C0AD14FEA430C7FEA6C5CC7
:100B500002D152EA033C02D14FF0000070474FF03F
:100B60000100704753B94AB9002908BF00281CBFCB
:100B70004FF0FF314FF0FF3000F076B9ADF1080CC7
:100B80006DE904CE00F006F8DDF804E0DDE90223AB
:100B900004B070472DE9F047089E0D46044688468C
:100BA000002B4DD18A42944668D9B2FA82F252B1F2
:100BB00001FA02F3C2F1200120FA01F10CFA02FC61
:100BC00041EA030894404FEA1C41B8FBF1F71FFAD1
:100BD0008CFE01FB178807FB0EF0230C43EA084349
:100BE00098420AD91CEB030307F1FF3580F01E8100
:100BF000984240F21B81023F63441B1AB3FBF1F0A1
:100C000001FB103300FB0EFEA4B244EA0344A645E8
:100C10000AD91CEB040400F1FF3380F00981A645DA
:100C200040F20681644402380021A4EB0E0440EA3D
:100C300007401EB10023D440C6E90043BDE8F08759
:100C40008B4208D9002E00F0EE800021C6E9000595
:100C50000846BDE8F087B3FA83F100294AD1AB42D8
:100C600002D3824200F2FC80841A65EB0303012068
:100C70009846002EE2D0C6E90048DFE702B9FFDE61
:100C8000B2FA82F2002A40F09180A1EB0C0001211F
:100C90004FEA1C471FFA8CFEB0FBF7F307FB13006B
:100CA000250C45EA00450EFB03F0A84208D91CEBD1
:100CB000050503F1FF3802D2A84200F2CE80434678
:100CC0002D1AB5FBF7F007FB10550EFB00FEA4B282
:100CD00044EA0544A64508D91CEB040400F1FF359D
:100CE00002D2A64500F2B6802846A4EB0E0440EAE4
:100CF00003409EE7C1F120078B4022FA07FC4CEA33
:100D0000030C25FA07FA4FEA1C49BAFBF9F820FA56
:100D100007F309FB18AA8D401FFA8CFE1D4300FA49
:100D200001F308FB0EF02C0C44EA0A44A04202FA3C
:100D300001F20BD91CEB040408F1FF3A80F0888023
:100D4000A04240F28580A8F102086444241AB4FB52
:100D5000F9F009FB104400FB0EFEADB245EA044475
:100D6000A64508D91CEB040400F1FF356CD2A6455A
:100D70006AD90238644440EA0840A0FB0295A4EB1B
:100D80000E04AC42C846AE4656D353D0002E69D0AE
:100D9000B3EB080264EB0E0422FA01F304FA07F73E
:100DA0001F43CC40C6E90074002147E70CFA02FC5F
:100DB000C2F1200125FA01F34FEA1C4720FA01F1A4
:100DC00095400D43B3FBF7F107FB11331FFA8CFE7F
:100DD000280C40EA034001FB0EF3834204FA02F4BC
:100DE00008D91CEB000001F1FF382FD283422DD926
:100DF00002396044C01AB0FBF7F307FB1300ADB231
:100E000045EA004503FB0EF0A84208D91CEB050596
:100E100003F1FF3816D2A84214D9023B6544281AC0
:100E200043EA014138E73146304607E72F46E4E61A
:100E30001846F9E64B45A9D2B9EB020865EB0C0E52
:100E40000138A3E74346EAE7284694E74146D1E75D
:100E5000D0467BE76444023847E7023B65442FE70E
:100E6000084606E73146E9E6704700BF08B50122AB
:100E70000221024802F0B5F908BD00BF000C014094
:100E800008B500220221024802F0ABF908BD00BFFC
:100E9000000C0140084B1B6800F13202DA63322873
:100EA00002D05A2804D07047044B01221A70F8E788
:100EB000024B00221A70F6E7940A0020010A002073
:100EC00008B50821034803F085FA5A20FFF7E2FF2E
:100ED00008BD00BF940A002010B50A4C204601F05E
:100EE000E7FD6421204601F035FC204601F09AFD23
:100EF00010F4007F01D1002010BD204601F0ECFC71
:100F000080B2F9E7040A002008B5084801F0F4FEB1
:100F1000FFF7E2FF064B1880064B1B78984294BF00
:100F200000200120044B187008BD00BF040A0020F7
:100F3000FC09002000000020FF09002010B5084C2B
:100F40000849204600F0A1F9074B1B78DAB2237854
:100F5000934294BF00230123044A137010BD00BFC5
:100F6000040000200300002002000020020A0020EC
:100F700010B570B10E4C01221021204602F031F95B
:100F800001222021204602F02CF90A4B01221A707E
:100F900010BD074C00221021204602F022F9002249
:100FA0002021204602F01DF9024B00221A70EFE7C3
:100FB00000080140000A002008B5FFF7A5FFFFF771
:100FC000BDFF144B1B78DBB2012B0DD0124B1B78ED
:100FD00013B9124B1B7833B1FFF752FF0120104BAE
:100FE0001870FFF7C5FF08BD0B4B1B7813B90B4BEF
:100FF0001B7853B1FFF744FF0120094B1870FFF72E
:10100000B7FF3220FFF746FFEDE70020FFF7B0FF04
:10101000E9E700BF01000020020A0020FF090020CC
:10102000FE09002030B583B0002501950C24009402
:101030000223224A127806210A2000F071FA019553
:10104000009402231E4A12780621322000F068FA2A
:101050000195009403231B4A128806215A2000F0B0
:101060005FFA194B1B78DBB2012B20D0174A002006
:1010700000900C23014600F01FFA154B1B78DBB2E1
:10108000012B16D0134A002000900C23022100F0FF
:1010900013FA114B1B78DBB2012B0CD00F4A002046
:1010A00000900C23042100F007FA03B030BD0C4A75
:1010B000DDE70C4AE7E70C4AF1E700BF0400002037
:1010C00003000020FC09002001000020E8F30008D4
:1010D000010A002008F40008000A002028F4000893
:1010E000F8F3000818F4000838F40008F8B50646CC
:1010F0004FF0E0239C6901F013FB054606EBC606A2
:10110000F700B4EBC60F0ED201F00AFBA842FBD0E9
:10111000E41B04F58C3303F5A0734FF0E0229269D1
:101120009A42FAD8F8BDE41B4FF0E0239B69A34232
:10113000F8D901F0F5FAA842F6D0F3E700B585B08A
:1011400000230093019302930393012300930193DF
:101150000293032303936946024801F029FF05B077
:101160005DF804FB000C014000B585B0002300933E
:10117000019302930393012300930323039369468E
:10118000024801F015FF05B05DF804FB000C0140BA
:1011900010B5FFF7D3FF094C00220121204602F0D1
:1011A00020F8142001F0C2FA01221146204602F074
:1011B00018F81E20FFF79AFF10BD00BF000C014079
:1011C00010B5FFF7D1FF00240121124802F002F808
:1011D00038B1632C05D80134E4B20120FFF786FF53
:1011E000F2E7632C11D8002404E00134E4B20120BA
:1011F000FFF77CFF0121074801F0ECFF08B9632CE1
:10120000F3D9632C03D8002010BD0120FCE7012096
:10121000FAE700BF000C014038B5002504E00135B5
:10122000EDB20120FFF762FF01210F4801F0D2FF6C
:10123000044640B1632DF2D9002404E00134E4B245
:101240000120FFF753FF0121074801F0C3FF08B950
:10125000632CF3D92820FFF749FF0121024801F050
:10126000B9FF00B1012038BD000C014038B50020A5
:10127000054607E04000C4B2FFF7CEFF2043C0B2EE
:101280000135EDB2072DF5D938BDF0B583B005466F
:101290000E46FFF77DFFFFF793FF10B907460446A0
:1012A0000AE0012719E0FFF7E1FF04F108036B44AE
:1012B00003F8080C0134E4B2042CF4D99DF80010B2
:1012C0009DF801300B449DF8022013449DF8030063
:1012D00003449DF80400834202D0384603B0F0BDB9
:1012E00031702A70F9E7000000B587B08DF817005B
:1012F0004FF480730293012301930DF117020092C2
:1013000000227821024802F0FDF907B05DF804FBE5
:10131000380A002010B5C82001F008FA002405E0C2
:10132000044B185DFFF7E0FF0134E4B2162CF7D947
:1013300010BD00BF0800002000B587B08DF8170071
:101340004FF480730293012301930DF11702009271
:1013500040227821024802F0D5F907B05DF804FB7D
:10136000380A002038B5002509E00020FFF7E4FF27
:101370000134E4B214F0800FF7D00135EDB2072D3F
:101380000CD8A5F15000C0B2FFF7AEFF0020FFF768
:10139000ABFF1020FFF7A8FF0024EBE738BD10B526
:1013A0000446A1F15000C0B2FFF79EFF200940F0B3
:1013B0001000FFF799FF04F00F00FFF795FF10BD35
:1013C0000246012002E002FB00F019464B1EDBB290
:1013D0000029F8D1704700002DE9F04180460F4602
:1013E0009DF81860203AD5B210F0800F07D1102B6D
:1013F0000AD039464046FFF7D2FF002447E00237C3
:10140000FFB24FF00008F2E739464046FFF7C7FF4A
:10141000002407E004EB0513254AD05CFFF78CFF9E
:101420000134E4B2072C0AD8002EF3D004EB0513E4
:101430001F4AD05CC043C0B2FFF77EFFF0E7791CC3
:10144000C9B24046FFF7ABFF002408E004EB0513E8
:101450000833174AD05CFFF76FFF0134E4B2072C62
:1014600024D8002EF2D004EB05130833104AD05CC8
:10147000C043C0B2FFF760FFEFE705EB45030D4A3D
:1014800002EB4303185DFFF757FF0134E4B2052C6C
:101490000CD8002EF1D005EB4503064A02EB4303BE
:1014A000185DC043C0B2FFF747FFEEE7BDE8F0812B
:1014B00070F6000848F400082DE9F04383B00446B4
:1014C0000E4617461D469DF828804FF0000909E09A
:1014D0000634E4B214E00136F6B2002409F101004A
:1014E0005FFA80F917F80920B2B1CDF800802B46D9
:1014F00031462046FFF770FF0C2DE9D00834E4B2E6
:101500007A2C01D90C2DE6D0782CE7D9102DE5D115
:101510000136F6B20024E1E703B0BDE8F083000035
:101520002DE9F04F83B08246894690461D469DF8CE
:1015300030609DF834B000273C461DE0700804FB85
:1015400000F0C0B25044CDF800B0334620224946E6
:10155000C0B2FFF741FF0DE0700804FB00F0C0B21D
:1015600030325044CDF800B03346D2B24946C0B212
:10157000FFF732FF0134E4B2AC421AD2291BC9B2E0
:101580000139C9B20A20FFF71BFFB8FBF0F00A4A85
:10159000A2FB0032D20802EB8202A0EB4202D2B2DE
:1015A000002FD9D16B1E9C42D6DA002AC6D0012763
:1015B000D2E703B0BDE8F08FCDCCCCCC00B585B080
:1015C00000230193029303931148124A026083603F
:1015D000037303754FF46022C2614360012303610A
:1015E00001F006FB68B9072301930123029300234E
:1015F000039301A9064801F073F928B905B05DF815
:1016000004FB00F017FDEEE700F014FDF6E700BF65
:10161000040A00200024014000B587B00023029393
:101620000393049305930268114B9A4202D007B0CA
:101630005DF804FB03F56C439A6942F400729A6109
:101640009A6902F400720092009A9A6942F00402C8
:101650009A619B6903F004030193019B8023029329
:101660000323039302A9034801F0A2FCDFE700BFB4
:101670000024014000080140844610B121B300B5A8
:101680000DE0401A18BF0120704702F1200E0FE054
:101690002030864514D1CAB10CF1010C01319CF8FF
:1016A00000200B4BD35C03F00303012BEDD09646D7
:1016B0000878074BC35C03F00303012BE9D1E7E78C
:1016C000AEEB00005DF804FB012070470020F9E755
:1016D000250101080378A3F13002D2B2092A1DD8EE
:1016E000303B1A014378A3F13001C9B2092923D84C
:1016F0001344303B1B018278A2F13001C9B20929A1
:101700002AD81344303B1B01C078A0F13002D2B27A
:10171000092A31D80344A3F130007047A3F14102F4
:10172000D2B2052A01D8373BDBE7A3F16102D2B27E
:10173000052A33D8573BD4E7A3F14101C9B20529A3
:1017400002D81344373BD5E7A3F16101C9B205299B
:1017500026D81344573BCDE7A2F14101C9B2052970
:1017600002D81344373BCEE7A2F16101C9B2052983
:1017700018D81344573BC6E7A0F14102D2B2052A5C
:1017800003D80344A3F137007047A0F16102D2B23D
:10179000052A09D80344A3F1570070470020704779
:1017A0000020704700207047002070472DE9F0416D
:1017B0000C4614F8013B222B03D10546224600209B
:1017C00004E0684B19600024C5E062461378222BC0
:1017D00009D043B1013006D002F1010C5C2BF4D1E9
:1017E00002F1020CF1E7604B1B6801309847074695
:1017F000002800F0B580064618E0611C6078A0F172
:101800006203132B00F29A80DFE803F00A9898989D
:101810001F98989898989898259898982B98313769
:101820003246082302F8013B16464C1C2378222B33
:1018300000F08980002B00F086805C2BDDD0013425
:10184000324602F8013B1646F0E732460C2302F816
:10185000013B1646E9E732460A2302F8013B1646E9
:10186000E3E732460D2302F8013B1646DDE7324638
:10187000092302F8013B1646D7E7A01CFFF72AFF11
:101880008046611DA0F55C43B3F5806FCDD3002881
:10189000CBD0A0F55843B3F5806F19D2A3795C2B58
:1018A000C3D1E379752BC0D104F10800FFF712FF13
:1018B00004F10B01A0F55C42B2F5806FB5D22B4A62
:1018C00002EA8828C0F3090348EA030303F58038D5
:1018D000B8F17F0F0AD8741C0120254B1B5C621ED7
:1018E00043EA080804F8018C16189EE7B8F5006F63
:1018F00018D3B8F5803F0BD2F31C03205A1E08F012
:101900003F0444F0800403F8014C4FEA98180BE0C0
:10191000F31C08F03F0242F08002F2704FEA981880
:101920000420EBE7B21C0220541E08F03F0343F0F2
:10193000800302F8013C4FEA9818CEE7324602F8DD
:10194000010B164671E7002333702378222B05D054
:101950002F610423EB602046BDE8F0810134F7E7F6
:101960000446F8E7340A00202400002000FC0F00A1
:1019700068FC000800E0013018B103780BB1202B9F
:10198000F9D9704710B5064B1B68282098470446C4
:1019900018B12822002104F03BFD204610BD00BFF5
:1019A000240000202DE9F04F83B005460C460B784B
:1019B0002D2B28D00022634BCDE900232378302B38
:1019C00027D02378313BDBB2082B24D80026002710
:1019D00000225D4B30463946FEF79CFE06460F4618
:1019E00020783038FEF706FD02460B463046394671
:1019F000FEF7B4FB06460F4614F8013F303BDBB25E
:101A0000092BE5D909E001340022504BCDE9002330
:101A1000D4E70134D5E70026002723782E2B0DD0FC
:101A20004FF000084FF000092378652B3DD0452B7F
:101A30003BD0A2464FF0010B002459E063782F2BD6
:101A400029D9392B2CD801344FF000084FF0000968
:101A500000223D4B30463946FEF75CFE06460F46F7
:101A600020783038FEF7C6FC02460B463046394631
:101A7000FEF774FB06460F460022324B40464946AD
:101A8000FEF76AFB8046894614F8013F303BDBB223
:101A9000092BDDD9C8E74FF000084FF00009C3E774
:101AA0004FF000084FF00009BEE704F1010A637827
:101AB0002B2B05D02D2B08D04FF0010B002410E06C
:101AC00004F1020A4FF0010BF8E704F1020A4FF0AB
:101AD000FF3BF3E704EB84040AF1010A303B03EB1C
:101AE00044049AF80030A3F13002D2B2092AF1D9A5
:101AF000DDE9002330463946FEF70CFE06460F4668
:101B00000BFB04F0FEF776FC42464B46FEF726FB45
:101B100002460B4600200C490CF0E8FC02460B463E
:101B200030463946FEF7F6FD02460B46C5E9062368
:101B3000FEF752FD68610323EB60504603B0BDE839
:101B4000F08F00BF0000F03F000024400000F0BF15
:101B500038B50C46002945D00546042222492046C6
:101B600004F0ECFEE8B105222049204604F0E6FE30
:101B7000D8B104221E49204604F0E0FEC8B1237803
:101B8000222B1BD02D2B1ED0A3F13002D2B2092A5A
:101B900019D95B2B1CD07B2B1FD0164B1C6000204F
:101BA00002E00223EB60201D38BD0023EB60601DC6
:101BB000FAE70123EB606B61201DF5E7214628461B
:101BC000FFF7F4FDF0E721462846FFF7EBFEEBE7D1
:101BD0002146284600F010F8E6E72146284600F0A6
:101BE00057F8E1E70846DFE750FC000858FC00081A
:101BF00060FC0008340A002070B50B785B2B2FD1F5
:101C000006460523C360481CFFF7B4FE044603786C
:101C10005D2B2AD0FFF7B6FE0546B06078B32046AC
:101C2000FFF7A8FE01462846FFF792FFFFF7A2FE46
:101C3000064630B333782C2B19D1FFF7A3FE0446A8
:101C400088B128604560701CFFF794FE014620466D
:101C5000FFF77EFFFFF78EFE0646A0B12546E9E7B7
:101C60000A4B19600024204670BD0134FBE75D2B50
:101C700003D0064B1E600024F5E7741CF3E704460E
:101C8000F1E70446EFE70446EDE700BF340A002021
:101C900070B50B787B2B56D105460623C360481CD4
:101CA000FFF768FE064603787D2B51D0FFF76AFEEA
:101CB0000446A860002849D03046FFF75BFE014685
:101CC0002046FFF773FDFFF755FE002852D022692A
:101CD00022620022226102783A2A3BD10130FFF7CA
:101CE00049FE01462046FFF733FFFFF743FE064655
:101CF000002841D033782C2B34D1FFF743FE054622
:101D000000283BD020604460701CFFF733FE014682
:101D10002846FFF74BFDFFF72DFE0446B0B12B69B7
:101D20002B6200232B6103783A2B17D10130FFF788
:101D300021FE01462846FFF70BFFFFF71BFE064674
:101D4000F0B12C46D6E70F4B19600024204670BD39
:101D5000441CFBE70B4A10600024F7E7094B1860AE
:101D60000024F3E77D2B03D0064B1E600024EDE733
:101D7000741CEBE70446E9E70446E7E70446E5E7B9
:101D80000446E3E7340A0020014B1868704700BF9F
:101D9000340A002038B5044616E0E36813F4807F67
:101DA00004D1206910B10F4B1B689847E36813F406
:101DB000007F04D1206A10B10A4B1B689847094B79
:101DC0001B68204698472C4654B12568E36813F4F5
:101DD000807FE2D1A0680028DFD0FFF7DBFFDCE7DF
:101DE00038BD00BF20000020F8B505460C46164659
:101DF000FFF7C8FD114B00221A60074680B1284644
:101E0000FFF7B8FD01463846FFF7A2FE054648B188
:101E100026B1FFF7AFFD0546037843B904B125604D
:101E20003846F8BD3846FFF7B5FF2F46F8E7384685
:101E3000FFF7B0FF014B1D600027F1E7340A0020D7
:101E400008B500221146FFF7CFFF08BD38B50D4693
:101E5000846800E024682CB12946206AFFF70CFC56
:101E60000028F7D1204638BD2DE9F04389B0002481
:101E70000494059406940794314B9A6942F0100239
:101E80009A619A6902F010020092009A9A6942F0EF
:101E900020029A619A6902F020020192019A9A69DD
:101EA00042F004029A619A6902F004020292029AD4
:101EB0009A6942F008029A619B6903F00803039350
:101EC000039BDFF8809022464FF40051484601F012
:101ED00088F9DFF8748022463021404601F081F90C
:101EE0001A4D22460321284601F07BF94FF4005396
:101EF00004930127059706940226079604A94846ED
:101F000001F056F83023049305970694079604A928
:101F1000404601F04DF80323049305970694079675
:101F200004A9284601F044F84FF44873049305943B
:101F3000069404A9284601F03BF809B0BDE8F083F7
:101F4000001002400010014000080140000C014058
:101F500008B50B480B4B03600B4B436000238360B9
:101F6000C3604FF48042026143618361C3610362D5
:101F700001F0EAFA00B908BD00F05CF8FBE700BF29
:101F8000380A002000540040A086010010B586B039
:101F9000002302930393049305930268114B9A4222
:101FA00001D006B010BD104CA36943F00803A36133
:101FB000A36903F008030093009BC023029312233C
:101FC00003930323059302A9084800F0F1FFE36996
:101FD00043F40013E361E36903F400130193019BED
:101FE000DFE700BF0054004000100240000C014039
:101FF00008B50C4B1B883F2B0CD8591C094A118083
:10200000094A1178094AD15401220749084802F0C7
:1020100050FE08BD0021034B19804022034804F004
:10202000F7F9F1E7B00B0020B40B0020700B002093
:10203000240B002072B6FEE700B595B028220021DF
:102040000DEB020004F0E4F90023059306930793D7
:1020500008930993019302930393049301220A9234
:102060004FF480330B930E920222119212934FF48D
:10207000E01313930AA801F00DFCC8B90F230593D0
:1020800002210691002307934FF48062089209937E
:1020900005A801F031FE68B9022301934FF4004313
:1020A000039301A801F004FF30B915B05DF804FBFB
:1020B000FFF7C0FFFFF7BEFFFFF7BCFF30B5A9B0C9
:1020C0003D4B279322AC3D4D0FCD0FC42B682360B1
:1020D00000F008FBFFF7B0FFFFF7C6FEFFF76EFA50
:1020E000FFF736FF00F0A4F900F0E2F900F0FAF98A
:1020F000334800F07DF8FEF7B9FEFFF70BF9FFF764
:1021000031F9FEF7DDFE01222E492F4802F0D1FD04
:1021100003F0ECFB01E003F037FB03F067FC002861
:10212000F9D1012127A803F0E5FC002400940C2339
:10213000264A07210A20FFF7BFF900940C23244AFE
:1021400007213220FFF7B8F900940C23214A072118
:102150005A20FFF7B1F90EE04FF400511E4801F08C
:1021600046F811E0032003F0A1FB08B103F018FDCD
:102170000A2000F0DBFAFEF755FFFEF71DFF174BB4
:102180001B78DBB2012BE7D00134A4B2632CE9D970
:10219000134B1B880093134B1B78134A1278134977
:1021A00002A804F0E7FA02A922A803F0CDFC03F08C
:1021B000EBFA0024D6E700BF70FC0008B0FC000872
:1021C000DC0A0020B40B0020240B002084FC000853
:1021D00088FC00088CFC000800100140FE0900206B
:1021E000FC090020030000200400002090FC0008EF
:1021F00008B5054B1860054B1868002302221946E4
:10220000806804F0DFF908BD8C0A0020340000204B
:10221000022801D80120704708B503F013FE0923F6
:102220000360002008BD000010B5013801280AD85D
:1022300014464FF0FF3392B20748006802F08AFA62
:1022400040B9204610BD03F0FDFD092303604FF0A7
:10225000FF30F7E70520F5E78C0A0020022801D8B7
:102260000020704708B503F0EDFD092303604FF02F
:10227000FF3008BD08B503F0E5FD092303604FF00A
:10228000FF3008BD08B548B94FF0FF3301220848B8
:10229000006802F0BEFA40B9012008BD03F0D2FD8B
:1022A000092303604FF0FF30F7E70520F5E700BF93
:1022B0008C0A002008B5022804D84FF400534B6064
:1022C000002008BD03F0BEFD09230360F8E700000D
:1022D00082B00E4B9A6942F001029A619A6902F04B
:1022E00001020092009ADA6942F08052DA61DB69F9
:1022F00003F080530193019B054A536823F0E06388
:1023000043F00073536002B0704700BF00100240FA
:1023100000000140FEE7FEE7FEE7FEE7FEE770474C
:102320007047704708B500F0EFF908BD08B50248DE
:1023300002F060FB08BD00BF240B002001207047A5
:1023400008B503F07FFD162303604FF0FF3008BD92
:1023500008B54FF0FF31FFF7F3FFFEE710B5034676
:102360000C4A0D490D48006840B10C480068034410
:10237000521A934206D8094A136010BD0748084C08
:102380000460F2E703F05EFD0C2303604FF0FF30C2
:10239000F3E700BF0050002000040000900A002076
:1023A000000C002070470368B3F1804F00D07047E5
:1023B00082B003F50433DA6942F00102DA61DB69C5
:1023C00003F001030193019B02B0704700B587B091
:1023D000002302930393049305930368B3F1804FA2
:1023E00002D007B05DF804FB03F504339A6942F0AC
:1023F00008029A619B6903F008030193019B4FF463
:102400008063029302230393059302A9064800F018
:10241000CFFD064A536823F4407343F0E06343F46E
:1024200000735360DDE700BF000C01400000014075
:1024300000B58BB000230893099301930293039393
:10244000049305930693079318484FF08042026067
:10245000436083604FF6FF72C2600361836101F0E5
:10246000DDFEC8B900230893099308A90F4802F0BC
:102470001FF8A0B9602301930023029303930593EF
:10248000082201A9094801F027FF58B90748FFF7BA
:102490009DFF0BB05DF804FBFFF7CCFDE2E7FFF713
:1024A000C9FDE7E7FFF7C6FDF0E700BF940A00208B
:1024B00008B50A480A4B03604FF4E1334360002338
:1024C0008360C36003610C2242618361C36102F0D7
:1024D00011F900B908BDFFF7ADFDFBE7DC0A0020EC
:1024E0000038014008B51148114B03604FF4E13347
:1024F000436000238360C36003610C2242618361F7
:10250000C36102F0F7F870B900220521262000F01F
:1025100085FC262000F0BAFC044B1A68D36843F00F
:102520002003D36008BDFFF785FDEDE7240B0020F5
:102530000044004030B589B000230493059306930E
:1025400007930368304A934204D0304A93422BD019
:1025500009B030BD2E4B9A6942F480429A619A6963
:1025600002F480420092009A9A6942F004029A6151
:102570009B6903F004030193019B4FF400730493E0
:102580000223059303230793224C04A9204600F05D
:102590000FFD4FF48063049300230593069304A971
:1025A000204600F005FDD3E7194BDA6942F400320A
:1025B000DA61DA6902F400320292029A9A6942F010
:1025C00004029A619B6903F004030393039B0423B1
:1025D000049302230593032307930E4D04A9284671
:1025E00000F0E6FC0823049300240594069404A953
:1025F000284600F0DDFC22462146262000F00EFC95
:10260000262000F043FCA3E70038014000440040CE
:10261000001002400008014084B070B504AC84E8AA
:102620000F001699BDF85C60002409E04D1C4FF0C6
:10263000FF33012204A802F08DF80134A4B2294628
:10264000B442F3D3BDE8704004B07047FFF7AAFE70
:102650000B480C490C4A002302E0D458C450043300
:10266000C4188C42F9D3094A094C002301E01360D5
:102670000432A242FBD303F0EBFBFFF71FFD7047D0
:1026800000000020E009002058050108E0090020B2
:10269000000C0020FEE7000010B504460E4B187831
:1026A0004FF47A73B3FBF0F30C4A1068B0FBF3F00D
:1026B00000F0FAFB68B90F2C01D901200AE00022D2
:1026C00021464FF0FF3000F0A9FB054B1C600020B5
:1026D00000E0012010BD00BF2C00002028000020D9
:1026E0003000002008B5074A136843F01003136058
:1026F000032000F081FB0F20FFF7CEFFFFF7E8FD7E
:10270000002008BD00200240034A1168034B1B78DB
:102710000B441360704700BF6C0B00202C0000209E
:10272000014B1868704700BF6C0B002038B5044699
:10273000FFF7F6FF0546B4F1FF3F02D0044B1B78CC
:102740001C44FFF7EDFF401BA042FAD338BD00BF89
:102750002C000020F0B583B005460C460023019301
:10276000FFF7DEFF2B689A6812F4807F23D10746BB
:102770005A6812F4807F03D1DB6A13F4700F29D0FA
:10278000504B1E68022001F01FFCB6FBF0F62B68D0
:1027900019694D4A114236D1D96802F15C421142A1
:1027A00031D11969494A114240D1DA68484B1A427D
:1027B0003ED0292041E0AB6A43F02003AB62002306
:1027C00085F82430012003B0F0BD2B681B6813F09E
:1027D000020F0FD02B681B6813F0020F4FD1B4F11A
:1027E000FF3FF7D0002CF0D0FFF79AFFC31BA342A6
:1027F000F0D9EAE7AB6A43F00403AB62002385F843
:1028000024300320DFE71969304A114204D1D96826
:1028100002F16E4211420DD019692E4A0A405AB98E
:10282000DA682C4B13405BB1FC2006E0292004E061
:10283000142002E0542000E0FC2000FB06F607E034
:102840005420FAE7019BB34210D3019B013301935B
:10285000019BB34213D2B4F1FF3FF6D0002CF1D06C
:10286000FFF75EFFC01BA042EFD9EBE7AB6A43F076
:102870000403AB62002385F824300320A3E72B6810
:102880006FF012021A60AB6A43F40073AB622B68FC
:102890009B6803F46023B3F5602F01D0002092E71A
:1028A000287B60B9AB6A23F48073AB62AB6A13F424
:1028B000805F88D1AB6A43F00103AB6283E70020FD
:1028C00081E700BF28000020244992249224491265
:1028D00092244900499224000368D86C7047000094
:1028E00030B482B00022019290F82420012A00F036
:1028F00091800346012280F824204A68062A2DD8B8
:102900000468606B02EB8202053A4FF01F0C0CFA70
:1029100002FC20EA0C000D6805FA02F20243626331
:102920000A68092A3AD91C68E06802EB42021E3A9A
:102930004FF0070C0CFA02FC20EA0C008D6805FA37
:1029400002F20243E2600A68103A012A36D90020F6
:10295000002283F8242002B030BC70470C2A0ED825
:102960000568286B02EB8202233A1F24944020EA78
:1029700004000C6804FA02F202432A63D0E70568F7
:10298000E86A02EB8202413A1F24944020EA0400E4
:102990000C6804FA02F20243EA62C1E71C6820698B
:1029A00002EB42024FF0070C0CFA02FC20EA0C008A
:1029B0008D6805FA02F202432261C4E71A681648DC
:1029C000824205D09A6A42F020029A620120BFE753
:1029D000906810F4000F1BD1906840F400009060E4
:1029E0000A68102A01D00020B2E70C4A12680C498C
:1029F000A1FB0212920C02EB82025200019202E051
:102A0000019A013A0192019A002AF9D100209FE728
:102A100000209DE702209EE70024014028000020BE
:102A200083DE1B43806A704730B583B00023019377
:102A300003689A6812F0010F33D104469A6842F095
:102A400001029A60184B1B68184AA2FB03239B0CD7
:102A5000019302E0019B013B0193019B002BF9D103
:102A6000FFF75EFE054623689B6813F0010F16D141
:102A7000FFF756FE431B022BF5D923689B6813F022
:102A8000010FF0D1A36A43F01003A362E36A43F09D
:102A90000103E362002384F82430012002E00020D7
:102AA00000E0002003B030BD2800002083DE1B437F
:102AB00090F82430012B68D010B50446012380F82B
:102AC0002430FFF7B1FF00285BD1A36A23F44073E1
:102AD00023F0010343F48073A36223682C4A9342DA
:102AE00027D0A26A22F48012A2625A6812F4806F80
:102AF00005D0A26A22F4405242F48052A262A26A35
:102B000012F4805F2BD0E26A22F00602E262002219
:102B100084F824206FF002021A6023689A6802F495
:102B20006022B2F5602F1DD09A6842F480129A603C
:102B30002AE0A2F58062526812F4702FD1D0A26A06
:102B400042F48012A262134A526812F4806FD6D007
:102B5000A26A22F4405242F48052A262CFE70022DD
:102B6000E262D4E70A4A934204D09A6842F4A0028F
:102B70009A6009E0A2F58062526812F4702FD3D1F6
:102B8000F3E7002384F8243010BD0220704700BF13
:102B9000002801400024014038B503689A6812F00B
:102BA000010F01D1002038BD04469A6822F00102CD
:102BB0009A60FFF7B5FD054623689B6813F0010F87
:102BC00013D0FFF7ADFD431B022BF5D923689B689B
:102BD00013F0010FF0D0A36A43F01003A362E36A7D
:102BE00043F00103E3620120DDE70020DBE70000A2
:102BF00000287BD070B50446836A002B4DD0204658
:102C0000FFF7CAFFA36A13F0100369D1002867D148
:102C1000A26A22F4885222F0020242F00202A26268
:102C20006268E1690A43217B42EA4102A568B5F581
:102C3000807F02D0012D36D01D46267D012E35D055
:102C40002668716821F46941294371602568AE687E
:102C5000274931401143A960A168B1F5807F01D0B7
:102C6000012902D12369013B1B052568E96A21F48A
:102C700070010B43EB62236899681E4B0B409A422C
:102C800025D0A36A23F0120343F01003A362E36A82
:102C900043F00103E362012027E0C36280F824309F
:102CA000FEF7BAFCABE74FF48075C6E731B9A1690E
:102CB000013945EA413141F40065C1E7A16A41F0BB
:102CC0002001A162E16A41F00101E162B8E700235D
:102CD000E362A36A23F0030343F00103A36204E069
:102CE000A36A43F01003A362012070BD0120704766
:102CF000FDF7E1FFFE0E1FFF70B582B000230193C8
:102D000090F82430012B72D00446012380F824303F
:102D1000FFF742FF2046FFF787FE054628B1002354
:102D200084F82430284602B070BDA36A23F4885387
:102D300023F0020343F00203A3622E4B1E6802201D
:102D400001F042F9B6FBF0F67600019602E0019B35
:102D5000013B0193019B002BF9D12268936843F05A
:102D600008039360FFF7DCFC064623689A6812F0BC
:102D7000080F14D0FFF7D4FC801B0A28F5D923686C
:102D80009B6813F0080FF0D0A36A23F0120343F0FE
:102D90001003A362002384F824300125C2E79A6857
:102DA00042F004029A60FFF7BBFC064623689B686A
:102DB00013F0040F14D0FFF7B3FC801B0A28F5D9D9
:102DC00023689B6813F0040FF0D0A36A23F012036A
:102DD00043F01003A362002384F824300125A1E707
:102DE000A36A23F0030343F00103A36297E70225DC
:102DF00098E700BF28000020074AD36823F4E06367
:102E00001B041B0C000200F4E060034343F0BF63AB
:102E100043F40033D360704700ED00E000B5194B78
:102E2000DB68C3F30223C3F1070CBCF1040F28BF16
:102E30004FF0040C03F1040EBEF1060F18D9033B4A
:102E40004FF0FF3E0EFA0CFC21EA0C0199400EFAFD
:102E500003F322EA0303194300280BDB0901C9B27B
:102E600000F1604000F5614080F800135DF804FB5C
:102E70000023E5E700F00F000901C9B2024B195425
:102E8000F4E700BF00ED00E014ED00E0002807DBF0
:102E900000F01F02400901239340024A42F820300B
:102EA000704700BF00E100E00138B0F1807F0BD235
:102EB0004FF0E0235861054AF02182F823100020EA
:102EC000986107221A6170470120704700ED00E009
:102ED00090F82130DBB2022B06D004238363002359
:102EE00080F82030012070470268136823F00E0339
:102EF00013600268136823F001031360036CC16B55
:102F0000012202FA03F34B6080F82120002380F8AD
:102F1000203018467047000008B590F82130DBB229
:102F2000022B03D004238363012008BD02681368C9
:102F300023F00E0313600268136823F0010313608B
:102F40000368194A934214D0143293421FD01432AA
:102F500093421ED0143293421ED0143293421ED09C
:102F60001432934202D04FF0807203E04FF480128B
:102F700000E001220D4B5A60012380F8213000232C
:102F800080F82030436B6BB198470020CDE71022CA
:102F9000F0E74FF48072EDE74FF48052EAE74FF428
:102FA0008032E7E70020C0E708000240000002404E
:102FB00070B582B00024A446A6E0804DAA4210D08D
:102FC00007D97F4DAA420CD005F58035AA4208D01A
:102FD00013E0A5F58015AA4203D005F57025AA4295
:102FE00007D18A68002A58D0012A51D043610824A9
:102FF00003E0A5F58015AA42F3D0BEF1FF0F4ED82D
:103000000646BEF1FF0F4CD84FEA8C0233680F25FD
:10301000954023EA050304FA02F2134333604B6838
:1030200013F0805F6ED0674B9A6942F001029A619B
:103030009B6903F001030193019B4FEA9C02951CDD
:10304000614B53F825600CF003039D000F23AB4048
:1030500026EA03065D4B984229D003F58063984227
:1030600000F08E8003F58063984200F08B8003F5BA
:103070008063984219D004231AE0CC68BDE7CC687D
:103080000434BAE7CC680834B7E7CC680C34B4E74A
:1030900003610824B1E70024AFE70424ADE7061D6F
:1030A000AFE7ACF108029200B0E7032300E0002391
:1030B000AB4033430232444D45F822304B6813F4A1
:1030C000801F61D0424A936843EA0E0393604B68C5
:1030D00013F4001F5ED03E4AD36843EA0E03D36068
:1030E0004B6813F4003F5BD0394A536843EA0E0340
:1030F00053604B6813F4803F58D0354A136843EA55
:103100000E0313600CF1010C0A6832FA0CF353D071
:10311000012303FA0CF302EA030E33EA0202F1D1AF
:103120004A68122A3FF649AF122A3FF666AF01A558
:1031300055F822F0E32F00087B30000885300008A6
:1031400097300008FB2F0008FB2F0008FB2F00081A
:10315000FB2F0008FB2F0008FB2F0008FB2F0008A7
:10316000FB2F0008FB2F0008FB2F0008FB2F000897
:10317000FB2F0008FB2F00087F3000088B30000871
:10318000012395E7022393E7114A936823EA0E038C
:1031900093609CE70E4AD36823EA0E03D3609FE74F
:1031A0000B4A536823EA0E035360A2E7084A1368E8
:1031B00023EA0E031360A5E702B070BD00002210E1
:1031C00000003110001002400000014000080140E2
:1031D000000401408368194201D00120704700209B
:1031E00070470AB101617047090401617047C36803
:1031F00001EA030221EA030141EA02410161704749
:1032000003685A6912F4806F01D1002070476FF48F
:1032100080625A6100230363202280F83D2080F8F9
:103220003E30026C42F00402026480F83C3001201F
:1032300070472DE9F04106460C46174698463BE09C
:10324000FFF76EFA069BC01A404502D8B8F1000F8E
:1032500032D1012D18D033689B6924EA03039BB255
:10326000B3FA83F35B099F4226D100233363202204
:1032700086F83D2086F83E30326C42F020023264FF
:1032800086F83C30012027E033685B6924EA0303B9
:103290009BB2B3FA83F35B09E5E733685B6924EA21
:1032A000030C1FFA8CFCBCFA8CFC4FEA5C1C6745D3
:1032B00011D1B8F1FF3FC3D1C4F30745012DECD0C4
:1032C00033689B6924EA030C1FFA8CFCBCFA8CFC63
:1032D0004FEA5C1CEBE70020BDE8F0812DE9F843E4
:1032E00005460E469046994653E01A6842F400722D
:1032F0001A602B686FF480625A6100232B632022CE
:1033000085F83D2085F83E302A6C42F004022A649C
:1033100085F83C3001204AE0FFF702FAA0EB0900F3
:10332000404502D8B8F1000F33D1012F17D02B68D8
:103330009B6926EA03039BB2003B18BF012343B3FA
:1033400000232B63202285F83D2085F83E302A6C2F
:1033500042F020022A6485F83C30012027E02B68E7
:103360005B6926EA03039BB2003B18BF0123E6E733
:103370002B689C6926EA0404A4B2003C18BF01240F
:10338000A4B12B685A6912F4806FAED1B8F1FF3F37
:10339000C2D1C6F30747012FEAD12B685C6926EA40
:1033A0000404A4B2003C18BF0124E9E70020BDE8F2
:1033B000F88370B504460D46164623685B6913F022
:1033C000800F21D12046FFF71BFFF8B9B5F1FF3F71
:1033D000F3D0FFF7A5F9801BA84201D8002DECD14E
:1033E00023685B6913F0800FE7D100232363202259
:1033F00084F83D2084F83E30226C42F020022264A2
:1034000084F83C30012000E0002070BD0120FCE782
:103410002DE9F04385B004460D4691461F46DDF880
:1034200030800D9E0368196841F480711960009620
:10343000434600224FF00111FFF7FBFE60B92368FD
:1034400005F0FE051D613346424626492046FFF73A
:1034500045FF68B1012008E023681B6813F4807FF2
:1034600002D04FF400732364032005B0BDE8F0835D
:103470000023039323685A6903929B690393039B78
:10348000324641462046FFF794FF30B9012F0FD155
:1034900023685FFA89F61E61E7E7236C042B01D0ED
:1034A0000120E2E72268136843F400731360F7E732
:1034B00023684FEA19221A61324641462046FFF737
:1034C00078FF20B923685FFA89F61E61CDE7236C87
:1034D000042B01D00120C8E72268136843F400736D
:1034E0001360F7E70200010070B504460D4616466A
:1034F00023685B6913F0040F21D12046FFF780FE9B
:10350000F8B9B5F1FF3FF3D0FFF70AF9801BA842E5
:1035100001D8002DECD123685B6913F0040FE7D1CB
:1035200000232363202284F83D2084F83E30226C5F
:1035300042F02002226484F83C30012000E00020A8
:1035400070BD0120FCE70000002800F0CC8070B5C1
:10355000044690F83D30002B77D0242384F83D308A
:103560002268136823F0010313602268136843F490
:10357000004313602268136823F40043136000F0D3
:1035800077FC62685A4B9A4264D85A4B98428CBF77
:1035900000230123002B40F0A8805749A1FB0031F4
:1035A0008B0C25686A6822F03F0242EA91426A6009
:1035B00021680A6A22F03F0266684D4DAE424FD83C
:1035C000013313430B622168CA6922F44F4222F08F
:1035D000FF026668464B9E424CD8431E7600B3FB02
:1035E000F6F3013340F6FC70034278D0C3F30B03CB
:1035F0001343CB6121680B6823F0C003E269206AA2
:10360000024313430B6021688B6823F4034323F0C8
:10361000FF032269E068024313438B602168CB6893
:1036200023F0FF036269A06902431343CB60226861
:10363000136843F00103136000202064202384F802
:103640003D30206384F83E0070BD80F83C30FEF7CA
:103650009DFC82E7294B98428CBF0023012399E708
:103660004FF4967505FB03F3254DA5FB03539B090A
:103670000133A6E7A368BBB9451E06EB460CB5FBB4
:10368000FCF50135C5F30B05B5FA85F56D0945BBAC
:10369000C3B9013806EB4603B0FBF3F30133C3F3C0
:1036A0000B0343F40043A3E7451E06EB860C0CEB2B
:1036B0008C0CB5FBFCF50135C5F30B05B5FA85F5AA
:1036C0006D09E4E7013806EB860303EB8303B0FBE7
:1036D000F3F30133C3F30B0343F4404388E70423BC
:1036E00086E7012384E7012070470120ACE700BF93
:1036F000A08601007F841E0083DE1B43FF083D007F
:10370000D34D62102DE9F04383B004460F46904636
:1037100099460C9EFFF704F8054694F83D00C0B2A8
:10372000202803D0022003B0BDE8F08300951923C0
:1037300001224B492046FFF77CFD002840F089809C
:1037400094F83C30012B00F08680012384F83C3053
:1037500023681A6812F0010F03D11A6842F00102BF
:103760001A602268136823F400631360212384F82D
:103770003D30402384F83E30002323640A9B63627B
:10378000BDF82C306385638D2385364BE36201954C
:1037900000964B46424639462046FFF739FE002840
:1037A0005BD1238D002B35D02A4631462046FFF7CA
:1037B00000FE20BB626A236812781A61626A531C99
:1037C0006362218D013989B22185638D9BB2013BF2
:1037D0009BB263852368586910F0040FE1D000297B
:1037E000DFD052781A61636A01336362238D013B33
:1037F0002385638D9BB2013B9BB26385D1E7236C2C
:10380000042B01D001208EE72268136843F4007373
:103810001360F7E72A4631462046FFF765FE50B1B0
:10382000236C042B01D001207DE72268136843F448
:1038300000731360F7E72268136843F400731360A2
:10384000202384F83D30002384F83E3084F83C3057
:1038500069E7022067E7022065E7012063E700BF10
:10386000020010000000FFFF82B0084B1B68084AEE
:10387000A2FB03235B0A00FB03F3019300BF019B40
:103880005A1E0192002BF9D102B070472800002087
:10389000D34D6210002800F0F18170B582B004466B
:1038A000036813F0010F2CD0994B5B6803F00C03F5
:1038B000042B1DD0964B5B6803F00C03082B12D031
:1038C0006368B3F5803F41D0002B55D103F18043AD
:1038D00003F504331A6822F480321A601A6822F45D
:1038E00080221A6037E08A4B5B6813F4803FE7D090
:1038F000874B1B6813F4003F03D06368002B00F074
:10390000BF81236813F0020F75D0814B5B6813F001
:103910000C0F5FD07E4B5B6803F00C03082B54D078
:103920002369002B00F08A807A4B01221A60FEF78F
:10393000F7FE0546764B1B6813F0020F75D1FEF7B4
:10394000EFFE401B0228F5D903209EE1704A136860
:1039500043F480331360636843B3FEF7E1FE05462A
:103960006B4B1B6813F4003FCBD1FEF7D9FE401B15
:103970006428F5D9032088E1B3F5A02F09D0644B62
:103980001A6822F480321A601A6822F480221A60BF
:10399000E1E703F18043A3F53C331A6842F4802247
:1039A0001A601A6842F480321A60D4E7FEF7B8FE53
:1039B0000546574B1B6813F4003FA2D0FEF7B0FE3C
:1039C000401B6428F5D903205FE1514B5B6813F479
:1039D000803FA5D14E4B1B6813F0020F03D0236923
:1039E000012B40F04F814A4A136823F0F8036169C4
:1039F00043EAC1031360236813F0080F33D0A369AF
:103A0000002B5CD0434B0122C3F88024FEF788FED4
:103A100005463F4B5B6A13F0020F21D1FEF780FE93
:103A2000401B0228F5D903202FE1394A136823F0FF
:103A3000F803616943EAC1031360DCE7354B0022F8
:103A40001A60FEF76DFE0546314B1B6813F0020F3E
:103A5000D1D0FEF765FE401B0228F5D9032014E102
:103A60000120FFF701FF236813F0040F00F0968098
:103A7000274BDB6913F0805F34D1254BDA6942F0C4
:103A80008052DA61DB6903F080530193019B0125C9
:103A9000214B1B6813F4807F26D0E368012B3DD0B7
:103AA000002B53D103F1804303F504331A6A22F04B
:103AB00001021A621A6A22F004021A6233E0154BFC
:103AC0000022C3F88024FEF72BFE0546104B5B6AEC
:103AD00013F0020FC7D0FEF723FE401B0228F5D9D2
:103AE0000320D2E00025D3E70B4A136843F4807328
:103AF0001360FEF715FE0646074B1B6813F4807F24
:103B0000CBD1FEF70DFE801B6428F5D90320BCE065
:103B10000010024000004242007000405F4A136AF9
:103B200043F001031362E36833B3FEF7F9FD064681
:103B30005A4B1B6A13F0020F2FD1FEF7F1FD801BC9
:103B400041F288339842F3D903209EE0052B09D037
:103B5000524B1A6A22F001021A621A6A22F0040217
:103B60001A62E0E74D4B1A6A42F004021A621A6ABE
:103B700042F001021A62D6E7FEF7D2FD0646474B35
:103B80001B6A13F0020F08D0FEF7CAFD801B41F23A
:103B900088339842F3D9032077E0E5B9E369002B35
:103BA00072D03E4A526802F00C02082A56D0022B0C
:103BB00017D03B4B00221A66FEF7B2FD0446374B86
:103BC0001B6813F0007F47D0FEF7AAFD001B0228F8
:103BD000F5D9032059E0314AD36923F08053D361EA
:103BE000DCE72F4B00221A66FEF79AFD05462B4BA9
:103BF0001B6813F0007F06D0FEF792FD401B0228E1
:103C0000F5D9032041E0236AB3F5803F1AD0234958
:103C10004B6823F47413226A606A024313434B60B7
:103C20001F4B01221A66FEF77BFD04461B4B1B68E7
:103C300013F0007F0ED1FEF773FD001B0228F5D9AB
:103C4000032022E0154A536823F40033A1680B4394
:103C50005360DCE7002018E0002016E0012B16D0AE
:103C60000E4B5B6803F48031226A914211D103F458
:103C70007013626A93420ED1002006E00120704763
:103C8000012002E0012000E0002002B070BD012010
:103C9000FBE70120F9E70120F7E700BF0010024031
:103CA000000042420F4B5B6803F00C02082A01D06F
:103CB0000D487047C3F383420C49885C13F4803F7E
:103CC0000BD0084B5B68C3F34043094AD35C064AF8
:103CD00002FB00F0B0FBF3F07047064B03FB00F073
:103CE000704700BF0010024000127A00DCFC0008A0
:103CF000ECFC000800093D00002800F0A08070B531
:103D00000D460446524B1B6803F007038B420BD24F
:103D10004F4A136823F007030B431360136803F043
:103D200007038B4240F08D80236813F0020F17D0F9
:103D300013F0040F04D0474A536843F4E063536020
:103D4000236813F0080F04D0424A536843F46053C9
:103D50005360404A536823F0F003A1680B4353605B
:103D6000236813F0010F31D06368012B20D0022BA0
:103D700025D0384A126812F0020F64D035494A68DB
:103D800022F0030213434B60FEF7CAFC0646314B98
:103D90005B6803F00C036268B3EB820F16D0FEF78A
:103DA000BFFC801B41F288339842F0D9032045E0E4
:103DB000284A126812F4003FE0D101203EE0254A73
:103DC000126812F0007FD9D1012037E0204B1B6828
:103DD00003F00703AB420AD91D4A136823F0070317
:103DE0002B431360136803F00703AB422DD1236804
:103DF00013F0040F06D0174A536823F4E063E16818
:103E00000B435360236813F0080F07D0114A53681F
:103E100023F46053216943EAC1035360FFF742FF73
:103E20000C4B5B68C3F303130B4AD35CD8400B4BBA
:103E300018600B4B1868FEF72FFC002070BD0120A6
:103E400070470120FAE70120F8E70120F6E700BFFC
:103E50000020024000100240C4FC0008280000209E
:103E600030000020014B1868704700BF2800002078
:103E700008B5FFF7F7FF044B5B68C3F30223034A5F
:103E8000D35CD84008BD00BF00100240D4FC00083D
:103E900008B5FFF7E7FF044B5B68C3F3C223034A8F
:103EA000D35CD84008BD00BF00100240D4FC00081D
:103EB00070B582B00446036813F0010F36D03F4B53
:103EC000DB6913F0805F49D13C4BDA6942F08052E4
:103ED000DA61DB6903F080530193019B0125384BC4
:103EE0001B6813F4807F3BD0344B1B6A13F4407380
:103EF00013D0626802F440729A420ED02F4A136ABD
:103F000023F440702F490126C1F840640026C1F80F
:103F10004064106213F0010F36D1284A136A23F46B
:103F2000407361680B431362002D3ED1236813F088
:103F3000020F06D0214A536823F44043A1680B4383
:103F40005360236813F0100F34D01C4A536823F4D5
:103F50008003E1680B43536000202CE00025BEE79E
:103F6000174A136843F480731360FEF7D9FB0646C3
:103F7000134B1B6813F4807FB6D1FEF7D1FB801B77
:103F80006428F5D9032016E0FEF7CAFB06460B4B62
:103F90001B6A13F0020FC0D1FEF7C2FB801B41F277
:103FA00088339842F3D9032005E0D36923F0805386
:103FB000D361BBE7002002B070BD00BF001002401B
:103FC000007000400000424208B502284ED0102880
:103FD00003D0012828D0002008BD2B4B5A68186850
:103FE00010F08070F8D0C2F383432849C85C12F403
:103FF000803F15D0244B5B68C3F34043244AD25C16
:10400000244BB3FBF2F303FB00F01F4B5B6813F48C
:10401000800FE1D14000204BA3FB00304008DBE7DC
:104020001E4B03FB00F0F0E7174B1B6A40F2023215
:104030001A40B2F5817F24D003F44073B3F5007FBA
:1040400004D0B3F5407F09D00020C5E70E4A526A7C
:1040500012F0020FF5D049F64040BDE70A4B186850
:1040600010F40030B8D04FF22440B5E7FFF710FF4E
:10407000054B5B68C3F3813301335B00B0FBF3F0A6
:10408000AAE74FF40040A7E700100240F0FC000848
:1040900000FD000800127A00ABAAAAAA00093D00A0
:1040A00070B4036A026A22F0010202624668826901
:1040B00022F073020C6844EA020523F002028B68C6
:1040C00013430D4CA04209D00B4CA0420DD04660CA
:1040D00085614A684263036270BC704723F008033D
:1040E000CA68134323F00403EEE726F440764A69D6
:1040F00032438E691643EAE7002C014030B4036A6C
:10410000026A22F4807202624568C26922F0730278
:104110000C68224323F400738C6843EA04230F4C99
:10412000A04209D00D4CA0420ED04560C2614A6841
:10413000C263036230BC704723F40063CC6843EA77
:10414000042323F48063EDE725F440554C6945EAE8
:1041500004158C6945EA0415E7E700BF002C01400F
:1041600030B4036A026A22F4805202624468C2696F
:1041700022F4E6420D6842EA052223F400538D68DA
:1041800043EA0533074DA84206D04460C2614A683D
:104190000264036230BC704724F480444D6944EAF1
:1041A0008514F2E7002C014003681B4A90420AD0B4
:1041B000B0F1804F07D0A2F59432904203D002F5BF
:1041C0008062904203D123F070034A681343124A7D
:1041D00090420AD0B0F1804F07D0A2F594329042BD
:1041E00003D002F58062904203D123F44073CA6881
:1041F000134323F080034A69134303608B68C3624F
:104200000B688362044B984202D0012343617047DC
:104210000B690363F9E700BF002C014040B310B500
:10422000044690F83D30F3B1022384F83D30214636
:1042300051F8040BFFF7B8FF012384F8463084F8E7
:104240003E3084F83F3084F8403084F8413084F8C0
:10425000423084F8433084F8443084F8453084F8A0
:104260003D30002010BD80F83C30FEF79CF8DBE7C5
:104270000120704730B4036A026A22F01002026221
:104280004468826922F4E6420D6842EA052223F07E
:1042900020038D6843EA05130E4DA84209D00D4D49
:1042A000A8420ED0446082614A688263036230BCD7
:1042B000704723F08003CD6843EA051323F04003E1
:1042C000EDE724F440644D6944EA85048D6944EACD
:1042D0008504E7E7002C014038B590F83C30012B0D
:1042E00066D004460D46012380F83C300C2A5AD88B
:1042F000DFE802F0075959591B5959593059595992
:1043000044000068FFF7CCFE2268936943F008037D
:1043100093612268936923F004039361226893698F
:1043200029690B43936100203EE00068FFF7A2FF7C
:104330002268936943F4006393612268936923F4CC
:104340008063936122689369296943EA0123936139
:10435000002029E00068FFF7D1FE2268D36943F00E
:104360000803D3612268D36923F00403D361226870
:10437000D36929690B43D361002015E00068FFF77A
:10438000EFFE2268D36943F40063D3612268D369E6
:1043900023F48063D3612268D369296943EA012346
:1043A000D361002000E00120002384F83C3038BDB8
:1043B0000220FCE701F01F01012303FA01FC036A5C
:1043C00023EA0C030362036A02FA01F10B4303625E
:1043D0007047000010B50446084651BB94F83E30C3
:1043E000DBB2013B18BF0123002B5BD1002839D180
:1043F000022384F83E30012201462068FFF7DAFFED
:1044000023682A4A93423DD02368284A93423ED0EB
:10441000B3F1804F3BD0A2F59432934237D002F5EE
:104420008062934233D01A6842F001021A60002081
:1044300039E0042908D008290DD094F84130DBB2C6
:10444000013B18BF0123CFE794F83F30DBB2013BBB
:1044500018BF0123C8E794F84030DBB2013B18BF16
:104460000123C1E7042805D0082807D0022384F8D7
:104470004130C0E7022384F83F30BCE7022384F8D0
:104480004030B8E75A6C42F400425A64BCE79A687C
:1044900002F00702062A07D01A6842F001021A60E9
:1044A000002000E0012010BD0020FCE7002C0140AE
:1044B00090F83C30012B2CD010B4012380F83C3014
:1044C000022380F83D3003685A689C6822F0700C23
:1044D0000A6842EA0C025A6003680F4A93420AD003
:1044E000B3F1804F07D0A2F59432934203D002F586
:1044F0008062934204D124F080044A6814439C6093
:10450000012380F83D30002380F83C30184610BC71
:1045100070470220704700BF002C0140026802F182
:104520000C0353E8003F23F490730C3242E800314F
:104530000029F3D1026802F1140353E8003F23F08D
:104540000103143242E800310029F3D1036B012B3F
:1045500005D0202380F842300023036370470268AF
:1045600002F10C0353E8003F23F010030C3242E841
:1045700000310029F3D1ECE790F84130DBB2212B78
:1045800001D0022070478368B3F5805F17D0036ABB
:104590005A1C02621A7803685A60C38C9BB2013BB2
:1045A0009BB2C3844BB90268D36823F08003D36005
:1045B0000268D36843F04003D3600020704703696A
:1045C000002BE4D1036A1B880268C3F3080353601D
:1045D000036A02330362E0E710B504460268136918
:1045E00023F44053C1680B4313618368026913438A
:1045F00042691A430168CB6823F4B05323F00C03DB
:104600001343CB600268536923F4407381690B4301
:1046100053610268134B9A4220D0FFF729FC0246EF
:1046200002EB820202EB820263689B00B2FBF3F2B0
:104630000D48A0FB02314909642303FB11231B0130
:104640003233A0FB03235B0903F0F00202EB0112FB
:1046500003F00F03216813448B6010BDFFF718FCB3
:104660000246DDE7003801401F85EB512DE9F84394
:1046700005460F4616469946DDF820802C682468CA
:1046800037EA04030CBF4FF0010C4FF0000CB445A7
:104690002DD1B8F1FF3FF1D0B8F1000F05D0FEF7F2
:1046A0003FF8A0EB09004045E8D92A6802F10C0365
:1046B00053E8003F23F4D0730C3242E80031002964
:1046C000F3D12A6802F1140353E8003F23F00103F9
:1046D000143242E800310029F3D1202385F841301B
:1046E00085F84230002385F84030032000E00020A8
:1046F000BDE8F88360B310B5044690F8413013B3B9
:10470000242384F841302268D36823F40053D36013
:104710002046FFF761FF2268136923F49043136179
:104720002268536923F02A0353612268D36843F453
:104730000053D36000206064202384F8413084F863
:104740004230606310BD80F84030FDF7F3FED7E7DC
:10475000012070472DE9F04182B01E4690F84130AB
:10476000DBB2202B4BD104460D46904600294AD09F
:104770000AB9012044E000234364212380F841303A
:10478000FDF7CEFF0746A4F82480A4F82680A3688E
:10479000B3F5805F02D04FF000080FE02369FBB152
:1047A0004FF000080AE038F8023B2268C3F3080320
:1047B0005360E28C92B2013A92B2E284E38C9BB2F3
:1047C0008BB100963B46002280212046FFF74EFF2A
:1047D000D8B9002DE7D015F8012B23685A60E8E717
:1047E000A8460025EAE700963B46002240212046E5
:1047F000FFF73CFF58B9202384F8413000E0022045
:1048000002B0BDE8F0810120FAE70320F8E70320B9
:10481000F6E72DE9F04182B01E4690F84230DBB257
:10482000202B53D104460D469046002952D00AB998
:1048300001204CE000234364222280F842200363DD
:10484000FDF76EFF0746A4F82C80A4F82E80A3681D
:10485000B3F5805F02D04FF0000817E0236913B171
:104860004FF0000812E0A84600250FE023685B68BF
:10487000C3F3080328F8023B03E023685B682B704E
:104880000135E28D92B2013A92B2E285E38D9BB29C
:10489000BBB100963B46002220212046FFF7E6FEF2
:1048A000D0B9002DE2D0A368B3F5805FE5D013B98D
:1048B0002369002BE1D023685B6803F07F032B7032
:1048C000DEE7202384F84230002000E0022002B01E
:1048D000BDE8F0810120FAE70320F8E7704708B54A
:1048E0000168CA6822F04002CA60202280F8412094
:1048F000FFF7F4FF002008BD704708B5406A0023A9
:10490000C385C384FFF7F8FF08BD704790F84230B5
:10491000DBB2222B69D18368B3F5805F4FD0826A06
:10492000B3F5805F04D0002B56D10369002B53D11F
:1049300003685B681370836A01338362C38D9BB223
:10494000013B9BB2C385002B51D100B583B00268F7
:10495000D36823F02003D3600268D36823F4807304
:10496000D3600268536923F001035361202380F868
:10497000423000234363036B012B33D100230363D5
:10498000026802F10C0353E8003F23F010030C32DD
:1049900042E800310029F3D103681A6812F0100FC1
:1049A00006D0002201921A6801925B680193019B74
:1049B000818DFFF7AAFF002003B05DF804FB0269B8
:1049C000002AACD1826A03685B68C3F308031380D2
:1049D000836A02338362B1E703685B6803F07F0395
:1049E0001370A8E7FDF704FBE5E7022070470020FD
:1049F0007047000030B583B0044602681368D06881
:104A0000516913F00F0505D113F0200F02D010F0FB
:104A1000200F19D12DB111F0010119D110F4907F9F
:104A200016D1216B01297DD013F0800F03D010F037
:104A3000800F40F0188113F0400F03D010F0400FAA
:104A400040F0158103B030BD2046FFF75FFFF9E766
:104A500013F0010F06D010F4807F03D0626C42F097
:104A60000102626413F0040F04D019B1626C42F0C9
:104A70000202626413F0020F04D019B1626C42F0BA
:104A80000402626413F0080F07D010F0200F00D169
:104A900019B1626C42F008026264626C002AD1D0E3
:104AA00013F0200F02D010F0200F29D123685B698A
:104AB00003F04003626C12F0080F00D163B320468C
:104AC000FFF72CFD23685B6913F0400F20D02268AC
:104AD00002F1140353E8003F23F04003143242E88C
:104AE00000310029F3D1E36B73B1634A5A63E06B81
:104AF000FEF712FA0028A5D0E06B436B9847A1E7B8
:104B00002046FFF703FFD1E72046FFF7F5FE99E7C0
:104B10002046FFF7F1FE95E72046FFF7EDFE002364
:104B200063648FE713F0100F3FF47EAF10F0100FA7
:104B30003FF47AAF00230193136801935368019304
:104B4000019B536913F0400F51D0E26B13685B680F
:104B50009BB2002B3FF476AFA18D99427FF672AFE6
:104B6000E3859369202B37D0226802F10C0353E8C8
:104B7000003F23F480730C3242E800310029F3D166
:104B8000226802F1140353E8003F23F001031432BA
:104B900042E800310029F3D1226802F1140353E8FE
:104BA000003F23F04003143242E800310029F3D1E2
:104BB000202384F8423000232363226802F10C038F
:104BC00053E8003F23F010030C3242E80031002983
:104BD000F3D1E06BFEF77CF902236363A18DE38DD3
:104BE0009BB2C91A89B22046FFF78FFE2AE7A18D32
:104BF000E38D9BB2C91A89B2E38D9BB2002B3FF4BF
:104C000021AF00293FF41EAF226802F10C0353E8E4
:104C1000003F23F490730C3242E800300028F3D1B7
:104C2000226802F1140353E8003F23F00103143219
:104C300042E800300028F3D1202384F842300023DA
:104C40002363226802F10C0353E8003F23F01003B2
:104C50000C3242E800300028F3D10223636320467F
:104C6000FFF753FEEEE62046FFF786FCEAE6204615
:104C7000FFF735FEE6E600BFFB480008816282854B
:104C8000C28500234364222380F84230036923B1A4
:104C90000268D36843F48073D3600268536943F0B9
:104CA000010353610268D36843F02003D3600020FE
:104CB000704708B590F84230DBB2202B08D149B1DB
:104CC0000AB9012008BD00230363FFF7D7FFF9E706
:104CD0000220F7E70120F5E738B504460D460368E2
:104CE0001BB102230373002318E00123037308465A
:104CF00001F0D2F82060C8B100236360A56003E032
:104D000022680021D1540133A2689A42F8D80DE0FC
:104D100022684FF0000C02F803C00133A2689A42E7
:104D2000F6D800236360AA4200D2236038BD10B5D4
:104D30000446037B012B05D0002323606360A3603E
:104D4000237310BD006801F0AFF8F5E703460120BA
:104D500004280ADC03F07F020A70DB0907D062F046
:104D60007F0201F8012B0130F2E74FF0FF3070476E
:104D7000002313604FF0010C8B421BDA10B5C45CAA
:104D800004F07F04D2F800E00CFB04E41460C45685
:104D9000002C0ADA4FEACC1CBCF5001F07D2013305
:104DA0008B42ECDB4FF0FF3003E0581C01E06FF06A
:104DB000010010BD4FF0FF307047000030B583B0E8
:104DC00004782409631EDBB20D2B26D80546032C7C
:104DD00002D0204603B030BD0023019301AA042174
:104DE0000130FFF7C5FF431CE818019A012A12D9C8
:104DF000297811F0010F0ED1E95C437843EA0123D1
:104E000002339A4207D30649023001F031FF0028ED
:104E1000DFD00F24DDE7FF24DBE7FF24D9E700BF65
:104E200004FD00082DE9F04F85B001900F461646AD
:104E300003939DF838509DF83CB0139C104601F048
:104E400021FD0290002E00F03A810FFA80FA00F165
:104E500011091FFA89F91DBB4FF00008109B8BB197
:104E600048F00408184601F00DFDC5B2119801F094
:104E700009FD0544ADB2A9441FFA89F909F10409F5
:104E80001FFA89F9BBF1010F0DD0BBF1020F00F041
:104E9000EF80BBF1000F08D0022005B0BDE8F08F15
:104EA0004FF00208DAE748F00C08129B0BB148F00B
:104EB00024080198002800F00481002F00F00381ED
:104EC00048F0C00B01F0DEFC0546384601F0DAFC84
:104ED0000544ADB2A9441FFA89F909F104091FFA82
:104EE00089F949462046FFF7F7FE2068002800F0C0
:104EF000EC804A46002101F08BFA22686368591C55
:104F000061601021D154216863681944A9F105003A
:104F1000FFF71CFF00B20028C0F2AD8063681844A0
:104F200060602368421C626000221A542168636832
:104F30005A1C62600422CA5421686368581C60606D
:104F40004D20C85421686368581C60605120C854C3
:104F500020686368591C61605421C15420686368EB
:104F60005D1C6560C15421686368581C6060CA5448
:104F700022686368591C616002F803B022686368A4
:104F8000591C61600398010AD15422686368591C56
:104F90006160D05422686368591C6160CAF30721BC
:104FA000D15422686368591C61600299D154206809
:104FB000636852463146184401F092FC65685544D6
:104FC000656018F0040F34D0119B002B58D0109856
:104FD00001F058FC86B223686A1C6260C0F30722A5
:104FE0005A5522686368591C6160D0542068636810
:104FF00032461099184401F073FC656835446560C9
:10500000119801F03FFC86B223686A1C6260C0F30D
:1050100007225A5522686368591C6160D054206881
:10502000636832461199184401F05AFC63683344AE
:1050300063601BF0800F26D1384601F023FC85B257
:1050400022686368591C6160C0F30721D15422684B
:105050006368591C6160D054206863682A463946E9
:10506000184401F03DFC63682B446360002014E7A2
:1050700048F0140819E72046FFF759FE05200CE711
:10508000134B1193A3E7019E304601F0FBFB85B261
:1050900022686368591C6160C0F30721D1542268FB
:1050A0006368591C6160D054206863682A463146A1
:1050B000184401F015FC63682B446360BCE70120D1
:1050C000EBE60320E9E60320E7E60420E5E600BF7F
:1050D00038FD00084378022B04D18378012B03D8D4
:1050E000C078704701207047FF2070472DE9F043DA
:1050F00083B004460F4616461D462F21063001F0A8
:105100005BFB00230193002843D0814600F1010896
:1051100001AA0421601CFFF72BFE252000F0BCFE35
:105120003860002837D02522002101F071F940466F
:105130003C6809F12108D0F800C041688268C36862
:10514000C4F800C06160A260E360103010344045D4
:10515000F1D10368236009F1250901982C3880B248
:105160002880013000F098FE306068B12A88013252
:10517000002101F04DF92A8849463068FBF754FABE
:10518000002003B0BDE8F083386800F08DFE0320F6
:10519000F7E70120F5E70220F3E72DE9F047089D46
:1051A00000286AD0884616461F4682460024A1463B
:1051B000BC4209D256F82400002861D001F062FBFD
:1051C00081440134E4B2F3E707EB470149448C1C06
:1051D00007312846FFF780FD2B68002B52D06A6804
:1051E000511C69608221995429686B6819442046D2
:1051F000FFF7ACFD03B2002B11DB6A6813446B6050
:105200002A68591C69604FEA1A21D1542A686B68D0
:10521000591C696002F803A04FF0000929E02846F4
:10522000FFF785FD042029E056F8290001F02AFB4C
:1052300004462A686B68591C6960C0F30721D15481
:105240002A686B68591C6960D05428686B682246CC
:1052500056F82910184401F043FB686804446C6058
:105260002B68621C6A6003F8048009F101095FFA87
:1052700089F9B945D8D3002000E00120BDE8F087C6
:105280000220FBE70320F9E70346807858B9DA7873
:10529000142A01D0FF2070471B79022B06D9802BDE
:1052A00003D101207047FF207047022070478378A8
:1052B00023B9C3781E2B03D001207047012070470B
:1052C000002070472DE9F04F85B000939DF838908D
:1052D000DDF844800190002800F0E6800E46174675
:1052E000002500E00135745D34B1232C00F0E1802D
:1052F0002B2CF7D10224D8E00F9B8BB930230293DB
:10530000009BEB1803F1020AB9F1010F0BD0B9F1C0
:10531000020F00F08D80B9F1000F0AD00324C4E021
:1053200031230293ECE7029A42F00202029203F167
:10533000040A002F00F093803B78022B7FD10023DA
:105340001A460133B95C7D29FAD1531D0393009AA3
:10535000A3EB020BD3440BF1030B59464046FFF776
:10536000BBFCD8F80000002800F0A5805A460021B8
:1053700001F04EF8D8F80020D8F80430591CC8F8CD
:1053800004100299D154D8F80010D8F80430194408
:105390005046FFF7DBFC002871DBD8F804300344EB
:1053A000C8F80430D8F80020591CC8F80410C5F318
:1053B0000721D154D8F80020D8F80430591CC8F877
:1053C0000410D554D8F80000D8F804302A463146E5
:1053D000184401F085FAD8F804301D44C8F8045088
:1053E000B9F1000F0FD0D8F800306A1CC8F80420BB
:1053F0000198020A5A55D8F80020D8F80430591CF0
:10540000C8F80410D054002F4FD03B78022B3BD06B
:10541000D8F80000D8F80430009D2A4639461844D0
:10542000FBF702F9D8F804302B44C8F804303CE00C
:10543000029A42F00402029203F1040A79E70AF1A7
:10544000050B59464046FFF747FCD8F80000A0B3CB
:105450005A46002100F0DCFF002303938AE70AF19B
:10546000050B59464046FFF737FCD8F8000030B32B
:105470005A46002100F0CCFF002303937AE7404610
:10548000FFF755FC052410E0D8F80000D8F80430E8
:10549000039D2A4639461844FBF7C6F8D8F804306D
:1054A0002B44C8F8043000E00124204605B0BDE8D4
:1054B000F08F0224F9E70424F7E70424F5E7042435
:1054C000F3E700002DE9F04F83B006460F4615467E
:1054D000984610F8014B00230193C4F341030D9A41
:1054E000137001AA0421FFF743FC013006EB000909
:1054F000019B012B40F2A48004F0080B14F001047E
:1055000040F0A080335C99F8016046EA03262E80C3
:10551000B21C019B9A4200F2978009F1020A544999
:10552000504601F0A5FB002840F090800D9B1B78B1
:10553000002B4BD0013BDBB2012B00F28C804E44A0
:10554000B278F37843EA02230E9A1380002A00F01F
:1055500088802888013000F09FFC3860002800F027
:1055600082802A880132002100F052FF2A885146A9
:105570003868FBF759F82B880198C01A043880B2B4
:105580000C9B1880013000F087FCC8F80000002850
:1055900051D00C9B1A880132002100F039FF298874
:1055A00004310C9B1A884944D8F80000FBF73CF8FA
:1055B0002B21384601F000F9002856D12321384626
:1055C00001F0FAF8002842D0FF2440E0BBF1000FC0
:1055D00043D1701C00F060FC386000283FD02A885E
:1055E0000132002100F014FF2A8851463868FBF789
:1055F0001BF82B880198C01A023880B20C9B1880C7
:10560000013000F049FCC8F8000078B10C9B1A8802
:105610000132002100F0FCFE298802310C9B1A881F
:105620004944D8F80000FAF7FFFFC1E7386800F0F6
:105630003BFCFF240BE0386800F036FCFF2406E05A
:10564000FF2404E0FF2402E0FF2400E00F242046B2
:1056500003B0BDE8F08FFF24F9E7FF24F7E7FF244C
:10566000F5E7FF24F3E7FF24F1E7FF24EFE700BFAE
:1056700004FD00084378022B06D1837833B9C37840
:105680000A2B05D001207047012070470120704788
:10569000002070474378022B06D1837833B9C37852
:1056A0000A2B05D001207047012070470120704768
:1056B0000020704738B505460C4604212046FFF708
:1056C0000BFB2368BBB16268511C61606221995475
:1056D00022686368591C61600221D15422686368A2
:1056E000591C6160290AD15422686368591C6160A1
:1056F000D554002038BD0120FCE74378022B09D1A6
:105700008378B3EB112F07D1C378C9B28B4205D090
:10571000012070470120704701207047002070472A
:1057200038B505460C4604212046FFF7D5FA236814
:10573000BBB16268511C6160702199542268636832
:10574000591C61600221D15422686368591C616050
:10575000290AD15422686368591C6160D55400201D
:1057600038BD0120FCE74378022B06D1837833B99A
:10577000C3780A2B05D00120704701207047012013
:10578000704700207047000008B540220021034800
:1057900000F03EFE024B00221A8008BD700B002074
:1057A000B00B0020084B1B885BB1084A128893425B
:1057B00003D0064A1380012070470020024B188056
:1057C00070470120704700BFB00B0020B20B0020D3
:1057D000F0B591B004460E4601F054F8174F80B270
:1057E0000F900E946C4607F110050FCD0FC40FCD2E
:1057F0000FC40FCD0FC495E8030084E8030097E8B9
:105800000F00FCF709FFC82203E00A20FCF78EFF17
:105810002246531EDCB27AB1FFF7C4FF05460028CA
:10582000F3D13146064801F023FA0028EDD0FFF706
:10583000ABFF284611B0F0BD0125FAE7240B00208C
:10584000700B002070B598B005460C46FFF79CFF22
:105850002246134910A800F08DFF124910A8FFF747
:10586000B7FF08B118B070BD0F4E0F940E95EC46FF
:1058700006F1100EBEE80F00ACE80F00BEE80F0006
:10588000ACE80F00BEE80F00ACE80F009EE8030094
:105890008CE8030096E80F00FCF7BEFEE2E700BFCD
:1058A0000CFD00081CFD0008240B002010B5044668
:1058B00006E00520FCF73AFF631E9BB284B11C464C
:1058C000FFF770FF0028F4D10649074801F0D0F92E
:1058D0000028EED03A2100F06FFF10B1013000E057
:1058E000002010BD20FD0008700B002010B5FFF750
:1058F0004BFF2C4800F04CFE2B492C48FFF768FF6B
:105900000028F9D12A4800F043FE2A4C21462A48B3
:10591000FFF75EFF4FF4FA70FCF708FF21462748B7
:10592000FFF756FF4FF4FA70FCF700FF244800F031
:105930002FFE03E04FF4FA70FCF7F8FE1A492148F5
:10594000FFF746FF0028F5D11F4800F021FE03E0D5
:105950004FF4FA70FCF7EAFE13491C48FFF738FFD2
:105960000028F5D11A4800F013FE03E04FF4FA7056
:10597000FCF7DCFE17491848FFF72AFF0028F5D18D
:10598000164800F005FE03E04FF4FA70FCF7CEFE77
:1059900013491448FFF71CFF0028F5D1124800F006
:1059A000F7FD10BD28FD000830FD000834FD00089B
:1059B0003CFD000838FD000844FD000850FD0008CB
:1059C00060FD00086CFD00087CFD00088CFD0008EF
:1059D0009CFD0008A8FD0008B0FD0008D0FD0008EF
:1059E000E0FD0008E8FD000814FE00082DE9F04184
:1059F0008AB006AD00240694079408940994DFF851
:105A0000C480314F314E43463A463146304800F06B
:105A10005DFD0595049403940294019400944FF461
:105A20008073424639463046FFF7FCF9002841D1E1
:105A3000BDF81C100698FFF705FFFA20FFF736FFA8
:105A4000044690B3FFF7BAF9022801D001242DE0F3
:105A50002046FFF73FFB052822D8DFE800F00308C7
:105A60000D12171C1B4800F093FD00241EE01A487D
:105A700000F08EFD012419E0184800F089FD012492
:105A800014E0174800F084FD01240FE0154800F0F1
:105A90007FFD01240AE0144800F07AFD012405E0AE
:105AA000124800F075FD012400E0012406A8FFF76C
:105AB0003EF903E00E4800F06BFD012420460AB0D9
:105AC000BDE8F08128FE000830FE000838FE00081E
:105AD00040FE000870FE000880FE00089CFE0008E2
