:020000040800F2
:100000000050002041100008FD0A0008FF0A000807
:10001000010B0008030B0008050B0008000000009E
:10002000000000000000000000000000070B0008B6
:10003000090B0008000000000B0B00080D0B000866
:10004000891000088910000889100008891000082C
:10005000891000088910000889100008891000081C
:10006000891000088910000889100008891000080C
:1000700089100008891000088910000889100008FC
:1000800089100008891000088910000889100008EC
:10009000891000088910000889100008150B000855
:1000A00089100008891000088910000889100008CC
:1000B000310B0008410B0008510B000889100008A3
:1000C00089100008891000088910000889100008AC
:1000D0008910000889100008610B000889100008C9
:1000E000891000088910000889100008000000002D
:1000F0000000000000000000000000000000000000
:0C01000000000000000000005FF808F1A3
:10010C0010B5054C237833B9044B13B10448AFF345
:10011C0000800123237010BD6C080020000000003B
:10012C004452000808B5034B1BB103490348AFF315
:10013C00008008BD00000000700800204452000838
:10014C00844641EA000313F0030349D1403A23D318
:10015C000B6803604B6843608B688360CB68C3603B
:10016C000B6903614B6943618B698361CB69C36123
:10017C000B6A03624B6A43628B6A8362CB6AC3620B
:10018C000B6B03634B6B43638B6B8363CB6BC363F3
:10019C0040304031403ADBD230320BD30B68036035
:1001AC004B6843608B688360CB68C3601030103140
:1001BC00103AF3D20C3205D351F8043B40F8043B0F
:1001CC00043AF9D2043208D0D2071CBF11F8013B13
:1001DC0000F8013B01D30B8803806046704700BFD9
:1001EC00082A13D38B07B1D010F00303AED0C3F1A0
:1001FC000403D21ADB071CBF11F8013B00F8013BCA
:10020C00A4D331F8023B20F8023B9FE7043AD9D340
:10021C00013A11F8013B00F8013BF9D20B7803705D
:10022C004B7843708B7883706046704708B5012219
:10023C000221024801F0C2FA08BD00BF000C0140C7
:10024C0008B50368094A934203D0094A934206D081
:10025C0008BD4FF40051074801F0B6FAF8E74FF427
:10026C000051044801F0B0FAF2E700BF000400406E
:10027C00000800400010014000B583B0202808D0D1
:10028C00B0F5807F1DD0B0F5007F32D003B05DF8A3
:10029C0004FB204A1378C3F10103DBB2137013780B
:1002AC003BB10020009010231B4A014600F01CF9C2
:1002BC00ECE7002000901023184A014600F014F9D6
:1002CC00E4E7144B1B78002BE0D1002000F050F930
:1002DC00002000F03DF9124B00221A701B78002B05
:1002EC00D4D11046009210230E4A062100F0FCF8DF
:1002FC00CCE75A2000F04CF90B4B00221A701B78FB
:10030C00002BC3D1104600921023084A032100F0A1
:10031C00EBF8BBE7000000205C5200086C520008B0
:10032C00880800207C520008890800208C520008A4
:10033C0000B587B08DF817004FF48073029301233A
:10034C0001930DF11702009200227821024801F06E
:10035C00D5FC07B05DF804FBBC08002010B5C82024
:10036C0000F0D8FE002405E0044B185DFFF7E0FF19
:10037C000134E4B2162CF7D910BD00BF04000020E4
:10038C0000B587B08DF817004FF4807302930123EA
:10039C0001930DF11702009240227821024801F0DE
:1003AC00ADFC07B05DF804FBBC08002038B5002597
:1003BC0009E00020FFF7E4FF0134E4B214F0800FF1
:1003CC00F7D00135EDB2072D0CD8A5F15000C0B215
:1003DC00FFF7AEFF0020FFF7ABFF1020FFF7A8FFE1
:1003EC000024EBE738BD10B50446A1F15000C0B2B3
:1003FC00FFF79EFF200940F01000FFF799FF04F073
:10040C000F00FFF795FF10BD2DE9F04180460F4618
:10041C009DF81860203AD5B210F0800F07D1102B40
:10042C000AD039464046FFF7DEFF002447E002378A
:10043C00FFB24FF00008F2E739464046FFF7D3FF12
:10044C00002407E004EB0513254AD05CFFF798FF66
:10045C000134E4B2072C0AD8002EF3D004EB0513B8
:10046C001F4AD05CC043C0B2FFF78AFFF0E7791C8B
:10047C00C9B24046FFF7B7FF002408E004EB0513B0
:10048C000833174AD05CFFF77BFF0134E4B2072C2A
:10049C0024D8002EF2D004EB05130833104AD05C9C
:1004AC00C043C0B2FFF76CFFEFE705EB45030D4A05
:1004BC0002EB4303185DFFF763FF0134E4B2052C34
:1004CC000CD8002EF1D005EB4503064A02EB430392
:1004DC00185DC043C0B2FFF753FFEEE7BDE8F081F3
:1004EC00C0540008985200082DE9F04383B004462C
:1004FC000E4617461D469DF828804FF0000909E06E
:10050C000634E4B214E00136F6B2002409F101001D
:10051C005FFA80F917F80920B2B1CDF800802B46AC
:10052C0031462046FFF770FF0C2DE9D00834E4B2B9
:10053C007A2C01D90C2DE6D0782CE7D9102DE5D1E9
:10054C000136F6B20024E1E703B0BDE8F083000009
:10055C0008B528B101221021044801F02FF908BD7B
:10056C0000221021014801F029F9F8E700080140A8
:10057C0008B528B101222021044801F01FF908BD5B
:10058C0000222021014801F019F9F8E70008014088
:10059C00024B1B683230D863704700BF60090020E3
:1005AC0008B50821034802F07FFB5A20FFF7F0FF43
:1005BC0008BD00BF6009002000B585B00023019381
:1005CC00029303931148124A02608360037303750C
:1005DC004FF46022C26143600123036100F07CFE92
:1005EC0068B907230193012302930023039301A904
:1005FC00064800F0A3FD28B905B05DF804FB00F037
:10060C0057F9EEE700F054F9F6E700BF8C0800202C
:10061C000024014000B587B0002302930393049398
:10062C0005930268114B9A4202D007B05DF804FBA7
:10063C0003F56C439A6942F400729A619A6902F468
:10064C0000720092009A9A6942F004029A619B69C6
:10065C0003F004030193019B802302930323039370
:10066C0002A9034800F098FFDFE700BF0024014017
:10067C00000801402DE9F04389B00024049405944E
:10068C0006940794464B9A6942F010029A619A6953
:10069C0002F010020092009A9A6942F020029A61CC
:1006AC009A6902F020020192019A9A6942F00402BE
:1006BC009A619A6902F004020292029A9A6942F0D3
:1006CC0008029A619B6903F008030393039BDFF80C
:1006DC00D49001224FF40051484601F06FF8DFF836
:1006EC00C88022463221404601F068F82F4F012283
:1006FC001146384601F062F822460A21384601F0CC
:10070C005DF84FF4005304930125059506940226D9
:10071C00079604A9484600F03FFF22230493059551
:10072C000694079604A9404600F036FF1023049364
:10073C000595069507960DEB0301404600F02CFF3E
:10074C000495059506950323079304A9384600F0F4
:10075C0023FF049605950696079604A9384600F0E3
:10076C001BFF0823049305950694079604A93846A5
:10077C0000F012FF4FF4487304930D4B059306954C
:10078C0004A9384600F008FF22462146172000F045
:10079C0039FE172000F06EFE09B0BDE8F08300BFF3
:1007AC00001002400010014000080140000C014004
:1007BC000000111008B50B480B4B03600B4B43604A
:1007CC0000238360C3604FF4804202614361836104
:1007DC00C361036201F0B4F900B908BD00F068F818
:1007EC00FBE700BFBC08002000540040A0860100BD
:1007FC0010B586B00023029303930493059302680B
:10080C00114B9A4201D006B010BD104CA36943F0B5
:10081C000803A361A36903F008030093009BC023A2
:10082C000293122303930323059302A9084800F0B3
:10083C00B3FEE36943F40013E361E36903F40013CB
:10084C000193019BDFE700BF005400400010024001
:10085C00000C014008B5104B1B887F2B0CD8591C81
:10086C000D4A11800D4A11780D4AD15401220B49C1
:10087C000C4802F08AFE08BD0021074B198080222B
:10088C00074803F073F94FF6FF730A22064907482D
:10089C0002F0CCFBEAE700BF4C0B00204E0B002013
:1008AC00CC0A0020800A0020A05A0008380A002038
:1008BC0072B6FEE700B595B0282200210DEB0200C0
:1008CC0003F054F9002305930693079308930993B7
:1008DC00019302930393049301220A924FF4803301
:1008EC000B930E920222119212934FF4E013139376
:1008FC000AA801F0CBFAC8B90F230593022106917F
:10090C00002307934FF480620892099305A801F025
:10091C00EFFC68B9022301934FF40043039301A841
:10092C0001F0C2FD30B915B05DF804FBFFF7C0FF54
:10093C00FFF7BEFFFFF7BCFF10B582B000F0C6FB9F
:10094C00FFF7B8FFFFF796FE00F0C0FAFFF732FF93
:10095C0000F02EF900F078FA00F0D2FAFFF72CFE36
:10096C0000F05EF900F09AF9134800F02FF8FFF749
:10097C005DFCFFF7F3FCFFF719FDFFF711FE0024F8
:10098C0000940C230D4A21462046FFF7ADFD009440
:10099C000C230B4A02212046FFF7A6FD00940C23E2
:1009AC00084A04212046FFF79FFD074803F08AF907
:1009BC000A2000F0AFFBFBE7380A0020C85A0008F9
:1009CC008C520008D45A0008E45A000808B5054BAC
:1009DC001860054B1868002302221946806803F042
:1009EC008BF908BD1009002028000020022801D82E
:1009FC000120704708B502F0DBFD092303600020DD
:100A0C0008BD000010B5013801280AD814464FF073
:100A1C00FF3392B20748006802F008FB40B9204649
:100A2C0010BD02F0C5FD092303604FF0FF30F7E75E
:100A3C000520F5E710090020022801D80020704796
:100A4C0008B502F0B5FD092303604FF0FF3008BD77
:100A5C0008B502F0ADFD092303604FF0FF3008BD6F
:100A6C0008B548B94FF0FF3301220848006802F07E
:100A7C003CFB40B9012008BD02F09AFD092303603C
:100A8C004FF0FF30F7E70520F5E700BF1009002015
:100A9C0008B5022804D84FF400534B60002008BD61
:100AAC0002F086FD09230360F8E7000082B00E4BCC
:100ABC009A6942F001029A619A6902F0010200926D
:100ACC00009ADA6942F08052DA61DB6903F08053F4
:100ADC000193019B054A536823F0E06343F00073D4
:100AEC00536002B0704700BF00100240000001408C
:100AFC00FEE7FEE7FEE7FEE7FEE77047704770474C
:100B0C0008B500F0F5FA08BD08B5202000F066FE27
:100B1C004FF4807000F062FE4FF4007000F05EFE47
:100B2C0008BD000008B5024801F034FE08BD00BF46
:100B3C006009002008B5024801F02CFE08BD00BF7A
:100B4C00A809002008B5024801F024FE08BD00BF2A
:100B5C00F009002008B5024802F0B8FB08BD00BF40
:100B6C00800A002010B503460C4A0D490D48006858
:100B7C0040B10C4800680344521A934206D8094A03
:100B8C00136010BD0748084C0460F2E702F010FD3A
:100B9C000C2303604FF0FF30F3E700BF0050002040
:100BAC000004000014090020980B0020704700007E
:100BBC0000B587B00023029303930493059300932D
:100BCC0001931548154A02604722426083604FF634
:100BDC00FF72C26003614361836101F0D3FE90B97F
:100BEC004FF48053029302A90B4801F0CFFF68B970
:100BFC000023009301936946074802F0C3F840B9FB
:100C0C0007B05DF804FBFFF753FEE9E7FFF750FE72
:100C1C00EEE7FFF74DFEF3E718090020002C01402A
:100C2C0010B586B0002302930393049305930093AD
:100C3C0001931848184A026040F2CF224260836048
:100C4C00C722C2600361836101F09CFEC0B94FF4FE
:100C5C008053029302A90F4801F098FF98B9002322
:100C6C000093019369460B4802F08CF870B9094C5B
:100C7C00204601F087FE204601F054FD06B010BD61
:100C8C00FFF716FEE3E7FFF713FEE8E7FFF710FEAA
:100C9C00EDE700BFA80900200004004010B586B0A5
:100CAC000023029303930493059300930193184834
:100CBC00184A026040F2CF224260836040F2E73271
:100CCC00C2600361836101F05DFEC0B94FF48053D3
:100CDC00029302A90E4801F059FF98B90023009322
:100CEC00019369460A4802F04DF870B9084C204649
:100CFC0001F048FE204601F015FD06B010BDFFF7CF
:100D0C00D7FDE3E7FFF7D4FDE8E7FFF7D1FDEDE70B
:100D1C00F00900200008004000B585B003681E4AA9
:100D2C00934208D01D4A934210D01D4A934220D0C2
:100D3C0005B05DF804FB1B4B9A6942F400629A61A2
:100D4C009B6903F400630193019BF1E7154BDA698E
:100D5C0042F00202DA61DB6903F002030293029BA8
:100D6C00002211461D2000F04DFB1D2000F082FBDF
:100D7C00DEE70C4BDA6942F00402DA61DB6903F05E
:100D8C0004030393039B002211461E2000F03AFB40
:100D9C001E2000F06FFBCBE7002C0140000400404C
:100DAC0000080040001002400368B3F1804F00D0EF
:100DBC00704700B583B003F50433DA6942F00102E1
:100DCC00DA61DB6903F001030193019B00221146F8
:100DDC001C2000F017FB1C2000F04CFB03B05DF84E
:100DEC0004FB000000B587B0002302930393049327
:100DFC0005930368B3F1804F02D007B05DF804FB94
:100E0C0003F504339A6942F008029A619B6903F076
:100E1C0008030193019B4FF4806302930223039315
:100E2C00059302A9064800F0B7FB064A536823F461
:100E3C00407343F0E06343F400735360DDE700BF9D
:100E4C00000C01400000014000B58BB0002308935A
:100E5C0009930193029303930493059306930793C9
:100E6C0019484FF08042026040F2CF22426083600A
:100E7C0040F2CF72C2600361836101F0AFFDC8B96B
:100E8C0000230893099308A90F4801F07BFFA0B930
:100E9C00602301930023029303930593082201A975
:100EAC00094801F0F9FD58B90748FFF79BFF0BB053
:100EBC005DF804FBFFF7FCFCE2E7FFF7F9FCE7E762
:100ECC00FFF7F6FCF0E700BF6009002008B50A4800
:100EDC000A4B03604FF4E133436000238360C3602B
:100EEC0003610C2242618361C36102F06FF800B9A7
:100EFC0008BDFFF7DDFCFBE7380A00200038014095
:100F0C0008B51148114B03604FF4E13343600023E3
:100F1C008360C36003610C2242618361C36102F090
:100F2C0055F870B900220521262000F06BFA262016
:100F3C0000F0A0FA044B1A68D36843F02003D36086
:100F4C0008BDFFF7B5FCEDE7800A00200044004027
:100F5C0030B589B000230493059306930793036877
:100F6C00304A934204D0304A93422BD009B030BD62
:100F7C002E4B9A6942F480429A619A6902F480423B
:100F8C000092009A9A6942F004029A619B6903F0FC
:100F9C0004030193019B4FF4007304930223059304
:100FAC0003230793224C04A9204600F0F5FA4FF4D2
:100FBC008063049300230593069304A9204600F054
:100FCC00EBFAD3E7194BDA6942F40032DA61DA69E9
:100FDC0002F400320292029A9A6942F004029A6177
:100FEC009B6903F004030393039B042304930223E0
:100FFC000593032307930E4D04A9284600F0CCFA61
:10100C000823049300240594069404A9284600F0B0
:10101C00C3FA22462146262000F0F4F9262000F0DF
:10102C0029FAA3E7003801400044004000100240B8
:10103C0000080140FFF7BAFD0B480C490C4A00238D
:10104C0002E0D458C4500433C4188C42F9D3094A72
:10105C00094C002301E013600432A242FBD302F0DE
:10106C00ADFAFFF769FC7047000000206C08002007
:10107C00345B00086C080020980B0020FEE7000091
:10108C0010B504460E4B18784FF47A73B3FBF0F39B
:10109C000C4A1068B0FBF3F000F0FAF968B90F2CA9
:1010AC0001D901200AE0002221464FF0FF3000F068
:1010BC00A9F9054B1C60002000E0012010BD00BF09
:1010CC00200000201C0000202400002008B5074A46
:1010DC00136843F010031360032000F081F90F2014
:1010EC00FFF7CEFFFFF7E2FC002008BD0020024016
:1010FC00034A1168034B1B780B441360704700BF05
:10110C00C80A002020000020014B1868704700BF5F
:10111C00C80A002038B50446FFF7F6FF0546B4F1BF
:10112C00FF3F02D0044B1B781C44FFF7EDFF401B24
:10113C00A042FAD338BD00BF2000002030B482B0EA
:10114C000022019290F82420012A00F0918003469D
:10115C00012280F824204A68062A2DD80468606B86
:10116C0002EB8202053A4FF01F0C0CFA02FC20EA4B
:10117C000C000D6805FA02F2024362630A68092A40
:10118C003AD91C68E06802EB42021E3A4FF0070C99
:10119C000CFA02FC20EA0C008D6805FA02F20243FC
:1011AC00E2600A68103A012A36D90020002283F83E
:1011BC00242002B030BC70470C2A0ED80568286B6E
:1011CC0002EB8202233A1F24944020EA04000C68AC
:1011DC0004FA02F202432A63D0E70568E86A02EBDC
:1011EC008202413A1F24944020EA04000C6804FA5D
:1011FC0002F20243EA62C1E71C68206902EB420278
:10120C004FF0070C0CFA02FC20EA0C008D6805FA72
:10121C0002F202432261C4E71A681648824205D0E2
:10122C009A6A42F020029A620120BFE7906810F49B
:10123C00000F1BD1906840F4000090600A68102ADF
:10124C0001D00020B2E70C4A12680C49A1FB021233
:10125C00920C02EB82025200019202E0019A013AD6
:10126C000192019A002AF9D100209FE700209DE706
:10127C0002209EE7002401401C00002083DE1B435B
:10128C0038B503689A6812F0010F01D1002038BDFF
:10129C0004469A6822F001029A60FFF735FF054672
:1012AC0023689B6813F0010F13D0FFF72DFF431B2E
:1012BC00022BF5D923689B6813F0010FF0D0A36AB9
:1012CC0043F01003A362E36A43F00103E3620120DD
:1012DC00DDE70020DBE7000000287BD070B504467A
:1012EC00836A002B4DD02046FFF7CAFFA36A13F088
:1012FC00100369D1002867D1A26A22F4885222F027
:10130C00020242F00202A2626268E1690A43217B96
:10131C0042EA4102A568B5F5807F02D0012D36D096
:10132C001D46267D012E35D02668716821F4694151
:10133C00294371602568AE68274931401143A96083
:10134C00A168B1F5807F01D0012902D12369013B4D
:10135C001B052568E96A21F470010B43EB622368D5
:10136C0099681E4B0B409A4225D0A36A23F01203B6
:10137C0043F01003A362E36A43F00103E36201202C
:10138C0027E0C36280F82430FFF744F9ABE74FF451
:10139C008075C6E731B9A169013945EA413141F49B
:1013AC000065C1E7A16A41F02001A162E16A41F048
:1013BC000101E162B8E70023E362A36A23F00303AF
:1013CC0043F00103A36204E0A36A43F01003A36299
:1013DC00012070BD01207047FDF7E1FFFE0E1FFFDD
:1013EC00074AD36823F4E0631B041B0C000200F4CF
:1013FC00E060034343F0BF6343F40033D3607047B2
:10140C0000ED00E000B5194BDB68C3F30223C3F118
:10141C00070CBCF1040F28BF4FF0040C03F1040EB1
:10142C00BEF1060F18D9033B4FF0FF3E0EFA0CFC31
:10143C0021EA0C0199400EFA03F322EA0303194343
:10144C0000280BDB0901C9B200F1604000F56140D6
:10145C0080F800135DF804FB0023E5E700F00F00B3
:10146C000901C9B2024B1954F4E700BF00ED00E0CA
:10147C0014ED00E0002807DB00F01F0240090123F7
:10148C009340024A42F82030704700BF00E100E070
:10149C000138B0F1807F0BD24FF0E0235861054A40
:1014AC00F02182F823100020986107221A617047FE
:1014BC000120704700ED00E090F82130DBB2022BE8
:1014CC0006D004238363002380F82030012070476A
:1014DC000268136823F00E0313600268136823F08C
:1014EC0001031360036CC16B012202FA03F34B601E
:1014FC0080F82120002380F8203018467047000027
:10150C0008B590F82130DBB2022B03D0042383639F
:10151C00012008BD0268136823F00E0313600268F3
:10152C00136823F0010313600368194A934214D023
:10153C00143293421FD0143293421ED01432934271
:10154C001ED0143293421ED01432934202D04FF06C
:10155C00807203E04FF4801200E001220D4B5A60C0
:10156C00012380F82130002380F82030436B6BB1CD
:10157C0098470020CDE71022F0E74FF48072EDE79A
:10158C004FF48052EAE74FF48032E7E70020C0E7DF
:10159C00080002400000024070B582B00024A4464E
:1015AC00A6E0804DAA4210D007D97F4DAA420CD09C
:1015BC0005F58035AA4208D013E0A5F58015AA429E
:1015CC0003D005F57025AA4207D18A68002A58D0A5
:1015DC00012A51D04361082403E0A5F58015AA42E5
:1015EC00F3D0BEF1FF0F4ED80646BEF1FF0F4CD81C
:1015FC004FEA8C0233680F25954023EA050304FA61
:10160C0002F2134333604B6813F0805F6ED0674B6C
:10161C009A6942F001029A619B6903F001030193FC
:10162C00019B4FEA9C02951C614B53F825600CF012
:10163C0003039D000F23AB4026EA03065D4B984243
:10164C0029D003F58063984200F08E8003F5806307
:10165C00984200F08B8003F58063984219D00423E4
:10166C001AE0CC68BDE7CC680434BAE7CC6808341F
:10167C00B7E7CC680C34B4E703610824B1E7002465
:10168C00AFE70424ADE7061DAFE7ACF1080292000A
:10169C00B0E7032300E00023AB4033430232444D58
:1016AC0045F822304B6813F4801F61D0424A93688E
:1016BC0043EA0E0393604B6813F4001F5ED03E4A5E
:1016CC00D36843EA0E03D3604B6813F4003F5BD03E
:1016DC00394A536843EA0E0353604B6813F4803F56
:1016EC0058D0354A136843EA0E0313600CF1010C11
:1016FC000A6832FA0CF353D0012303FA0CF302EA12
:10170C00030E33EA0202F1D14A68122A3FF649AFBE
:10171C00122A3FF666AF01A555F822F0D71500083E
:10172C006F160008791600088B160008EF150008D4
:10173C00EF150008EF150008EF150008EF1500086D
:10174C00EF150008EF150008EF150008EF1500085D
:10175C00EF150008EF150008EF150008EF1500084D
:10176C00731600087F160008012395E7022393E700
:10177C00114A936823EA0E0393609CE70E4AD368E0
:10178C0023EA0E03D3609FE70B4A536823EA0E0348
:10179C005360A2E7084A136823EA0E031360A5E717
:1017AC0002B070BD00002210000031100010024089
:1017BC000000014000080140000401400AB1016131
:1017CC007047090401617047C36801EA030221EA0A
:1017DC00030141EA024101617047000008B5054B65
:1017EC005B69034200D108BD024B5861FEF744FD12
:1017FC00F9E700BF0004014003685A6912F4806FD6
:10180C0001D1002070476FF480625A61002303639A
:10181C00202280F83D2080F83E30026C42F0040219
:10182C00026480F83C30012070472DE9F0410646F7
:10183C000C46174698463BE0FFF766FC069BC01A21
:10184C00404502D8B8F1000F32D1012D18D03368C1
:10185C009B6924EA03039BB2B3FA83F35B099F42AF
:10186C0026D100233363202286F83D2086F83E30B3
:10187C00326C42F02002326486F83C30012027E0C2
:10188C0033685B6924EA03039BB2B3FA83F35B0905
:10189C00E5E733685B6924EA030C1FFA8CFCBCFA9D
:1018AC008CFC4FEA5C1C674511D1B8F1FF3FC3D1EA
:1018BC00C4F30745012DECD033689B6924EA030C73
:1018CC001FFA8CFCBCFA8CFC4FEA5C1CEBE700208A
:1018DC00BDE8F0812DE9F84305460E469046994641
:1018EC0053E01A6842F400721A602B686FF480623D
:1018FC005A6100232B63202285F83D2085F83E3069
:10190C002A6C42F004022A6485F83C3001204AE03B
:10191C00FFF7FAFBA0EB0900404502D8B8F1000F25
:10192C0033D1012F17D02B689B6926EA03039BB296
:10193C00003B18BF012343B300232B63202285F8FF
:10194C003D2085F83E302A6C42F020022A6485F84E
:10195C003C30012027E02B685B6926EA03039BB22D
:10196C00003B18BF0123E6E72B689C6926EA0404B8
:10197C00A4B2003C18BF0124A4B12B685A6912F41C
:10198C00806FAED1B8F1FF3FC2D1C6F30747012F2C
:10199C00EAD12B685C6926EA0404A4B2003C18BFA7
:1019AC000124E9E70020BDE8F88370B504460D4634
:1019BC00164623685B6913F0800F21D12046FFF790
:1019CC001BFFF8B9B5F1FF3FF3D0FFF79DFB801B70
:1019DC00A84201D8002DECD123685B6913F0800F6D
:1019EC00E7D100232363202284F83D2084F83E3085
:1019FC00226C42F02002226484F83C30012000E08A
:101A0C00002070BD0120FCE72DE9F04385B00446B1
:101A1C000D4691461F46DDF830800D9E036819680F
:101A2C0041F4807119600096434600224FF0011179
:101A3C00FFF7FBFE60B9236805F0FE051D61334618
:101A4C00424626492046FFF745FF68B1012008E0D1
:101A5C0023681B6813F4807F02D04FF40073236457
:101A6C00032005B0BDE8F0830023039323685A6973
:101A7C0003929B690393039B324641462046FFF732
:101A8C0094FF30B9012F0FD123685FFA89F61E61DC
:101A9C00E7E7236C042B01D00120E2E722681368EE
:101AAC0043F400731360F7E723684FEA19221A61B5
:101ABC00324641462046FFF778FF20B923685FFA8B
:101ACC0089F61E61CDE7236C042B01D00120C8E7F9
:101ADC002268136843F400731360F7E702000100F7
:101AEC0070B504460D46164623685B6913F0040F67
:101AFC0021D12046FFF780FEF8B9B5F1FF3FF3D0B6
:101B0C00FFF702FB801BA84201D8002DECD1236803
:101B1C005B6913F0040FE7D100232363202284F8C0
:101B2C003D2084F83E30226C42F02002226484F87E
:101B3C003C30012000E0002070BD0120FCE70000DB
:101B4C00002800F0CC8070B5044690F83D30002B96
:101B5C0077D0242384F83D302268136823F00103E6
:101B6C0013602268136843F40043136022681368FF
:101B7C0023F40043136000F077FC62685A4B9A42DE
:101B8C0064D85A4B98428CBF00230123002B40F0A1
:101B9C00A8805749A1FB00318B0C25686A6822F09C
:101BAC003F0242EA91426A6021680A6A22F03F02CF
:101BBC0066684D4DAE424FD8013313430B6221681A
:101BCC00CA6922F44F4222F0FF026668464B9E42DD
:101BDC004CD8431E7600B3FBF6F3013340F6FC7091
:101BEC00034278D0C3F30B031343CB6121680B681A
:101BFC0023F0C003E269206A024313430B6021689F
:101C0C008B6823F4034323F0FF032269E06802434B
:101C1C0013438B602168CB6823F0FF036269A069D2
:101C2C0002431343CB602268136843F00103136033
:101C3C0000202064202384F83D30206384F83E008B
:101C4C0070BD80F83C30FEF7D3FD82E7294B9842FB
:101C5C008CBF0023012399E74FF4967505FB03F322
:101C6C00254DA5FB03539B090133A6E7A368BBB91C
:101C7C00451E06EB460CB5FBFCF50135C5F30B0513
:101C8C00B5FA85F56D0945BBC3B9013806EB4603BA
:101C9C00B0FBF3F30133C3F30B0343F40043A3E7AB
:101CAC00451E06EB860C0CEB8C0CB5FBFCF50135DC
:101CBC00C5F30B05B5FA85F56D09E4E7013806EBBC
:101CCC00860303EB8303B0FBF3F30133C3F30B0382
:101CDC0043F4404388E7042386E7012384E701208B
:101CEC0070470120ACE700BFA08601007F841E0076
:101CFC0083DE1B43FF083D00D34D62102DE9F043FA
:101D0C0083B004460F46904699460C9EFFF7FCF9AB
:101D1C00054694F83D00C0B2202803D0022003B041
:101D2C00BDE8F0830095192301224B492046FFF7AB
:101D3C007CFD002840F0898094F83C30012B00F0A9
:101D4C008680012384F83C3023681A6812F0010F56
:101D5C0003D11A6842F001021A602268136823F456
:101D6C0000631360212384F83D30402384F83E3017
:101D7C00002323640A9B6362BDF82C306385638D5A
:101D8C002385364BE362019500964B464246394615
:101D9C002046FFF739FE00285BD1238D002B35D070
:101DAC002A4631462046FFF700FE20BB626A2368B4
:101DBC0012781A61626A531C6362218D013989B2EF
:101DCC002185638D9BB2013B9BB263852368586967
:101DDC0010F0040FE1D00029DFD052781A61636A49
:101DEC0001336362238D013B2385638D9BB2013BE1
:101DFC009BB26385D1E7236C042B01D001208EE7C5
:101E0C002268136843F400731360F7E72A463146DF
:101E1C002046FFF765FE50B1236C042B01D0012046
:101E2C007DE72268136843F400731360F7E72268B8
:101E3C00136843F400731360202384F83D300023AF
:101E4C0084F83E3084F83C3069E7022067E70220D2
:101E5C0065E7012063E700BF020010000000FFFFF0
:101E6C0082B0084B1B68084AA2FB03235B0A00FBE9
:101E7C0003F3019300BF019B5A1E0192002BF9D171
:101E8C0002B070471C000020D34D6210002800F0F7
:101E9C00F18170B582B00446036813F0010F2CD0A9
:101EAC00994B5B6803F00C03042B1DD0964B5B68BD
:101EBC0003F00C03082B12D06368B3F5803F41D0BC
:101ECC00002B55D103F1804303F504331A6822F437
:101EDC0080321A601A6822F480221A6037E08A4B2A
:101EEC005B6813F4803FE7D0874B1B6813F4003F0B
:101EFC0003D06368002B00F0BF81236813F0020F3E
:101F0C0075D0814B5B6813F00C0F5FD07E4B5B6818
:101F1C0003F00C03082B54D02369002B00F08A80AB
:101F2C007A4B01221A60FFF7EFF80546764B1B68D7
:101F3C0013F0020F75D1FFF7E7F8401B0228F5D913
:101F4C0003209EE1704A136843F480331360636886
:101F5C0043B3FFF7D9F805466B4B1B6813F4003FEE
:101F6C00CBD1FFF7D1F8401B6428F5D9032088E1C9
:101F7C00B3F5A02F09D0644B1A6822F480321A6092
:101F8C001A6822F480221A60E1E703F18043A3F57A
:101F9C003C331A6842F480221A601A6842F4803288
:101FAC001A60D4E7FFF7B0F80546574B1B6813F4DB
:101FBC00003FA2D0FFF7A8F8401B6428F5D90320F6
:101FCC005FE1514B5B6813F4803FA5D14E4B1B680E
:101FDC0013F0020F03D02369012B40F04F814A4AC2
:101FEC00136823F0F803616943EAC10313602368A3
:101FFC0013F0080F33D0A369002B5CD0434B0122A4
:10200C00C3F88024FFF780F805463F4B5B6A13F05A
:10201C00020F21D1FFF778F8401B0228F5D90320D5
:10202C002FE1394A136823F0F803616943EAC103CD
:10203C001360DCE7354B00221A60FFF765F80546A4
:10204C00314B1B6813F0020FD1D0FFF75DF8401B2A
:10205C000228F5D9032014E10120FFF701FF2368C2
:10206C0013F0040F00F09680274BDB6913F0805FB0
:10207C0034D1254BDA6942F08052DA61DB6903F026
:10208C0080530193019B0125214B1B6813F4807F26
:10209C0026D0E368012B3DD0002B53D103F18043B4
:1020AC0003F504331A6A22F001021A621A6A22F04A
:1020BC0004021A6233E0154B0022C3F88024FFF7A8
:1020CC0023F80546104B5B6A13F0020FC7D0FFF7DD
:1020DC001BF8401B0228F5D90320D2E00025D3E7DA
:1020EC000B4A136843F480731360FFF70DF8064630
:1020FC00074B1B6813F4807FCBD1FFF705F8801BCF
:10210C006428F5D90320BCE00010024000004242D4
:10211C00007000405F4A136A43F001031362E368E6
:10212C0033B3FEF7F1FF06465A4B1B6A13F0020F4E
:10213C002FD1FEF7E9FF801B41F288339842F3D987
:10214C0003209EE0052B09D0524B1A6A22F00102A3
:10215C001A621A6A22F004021A62E0E74D4B1A6AFC
:10216C0042F004021A621A6A42F001021A62D6E7BD
:10217C00FEF7CAFF0646474B1B6A13F0020F08D046
:10218C00FEF7C2FF801B41F288339842F3D903203B
:10219C0077E0E5B9E369002B72D03E4A526802F051
:1021AC000C02082A56D0022B17D03B4B00221A6681
:1021BC00FEF7AAFF0446374B1B6813F0007F47D08D
:1021CC00FEF7A2FF001B0228F5D9032059E0314A83
:1021DC00D36923F08053D361DCE72F4B00221A66BE
:1021EC00FEF792FF05462B4B1B6813F0007F06D0C1
:1021FC00FEF78AFF401B0228F5D9032041E0236A31
:10220C00B3F5803F1AD023494B6823F47413226A28
:10221C00606A024313434B601F4B01221A66FEF7A0
:10222C0073FF04461B4B1B6813F0007F0ED1FEF7A7
:10223C006BFF001B0228F5D9032022E0154A5368D6
:10224C0023F40033A1680B435360DCE7002018E053
:10225C00002016E0012B16D00E4B5B6803F4803186
:10226C00226A914211D103F47013626A93420ED127
:10227C00002006E001207047012002E0012000E070
:10228C00002002B070BD0120FBE70120F9E701201E
:10229C00F7E700BF00100240000042420F4B5B68A2
:1022AC0003F00C02082A01D00D487047C3F3834297
:1022BC000C49885C13F4803F0BD0084B5B68C3F36C
:1022CC004043094AD35C064A02FB00F0B0FBF3F032
:1022DC007047064B03FB00F0704700BF0010024034
:1022EC0000127A000C5B00081C5B000800093D0022
:1022FC00002800F0A08070B50D460446524B1B68B8
:10230C0003F007038B420BD24F4A136823F00703E9
:10231C000B431360136803F007038B4240F08D806E
:10232C00236813F0020F17D013F0040F04D0474AA0
:10233C00536843F4E0635360236813F0080F04D030
:10234C00424A536843F460535360404A536823F045
:10235C00F003A1680B435360236813F0010F31D0D5
:10236C006368012B20D0022B25D0384A126812F05A
:10237C00020F64D035494A6822F0030213434B60C4
:10238C00FEF7C2FE0646314B5B6803F00C03626835
:10239C00B3EB820F16D0FEF7B7FE801B41F28833E9
:1023AC009842F0D9032045E0284A126812F4003F05
:1023BC00E0D101203EE0254A126812F0007FD9D10D
:1023CC00012037E0204B1B6803F00703AB420AD90E
:1023DC001D4A136823F007032B431360136803F0A3
:1023EC000703AB422DD1236813F0040F06D0174A14
:1023FC00536823F4E063E1680B435360236813F0E4
:10240C00080F07D0114A536823F46053216943EA3B
:10241C00C1035360FFF742FF0C4B5B68C3F303131C
:10242C000B4AD35CD8400B4B18600B4B1868FEF76B
:10243C0027FE002070BD012070470120FAE7012023
:10244C00F8E70120F6E700BF002002400010024030
:10245C00F45A00081C00002024000020014B1868CE
:10246C00704700BF1C00002008B5FFF7F7FF044BB6
:10247C005B68C3F30223034AD35CD84008BD00BF9A
:10248C0000100240045B000808B5FFF7E7FF044B9F
:10249C005B68C3F3C223034AD35CD84008BD00BFBA
:1024AC0000100240045B000870B582B0044603685B
:1024BC0013F0010F36D03F4BDB6913F0805F49D12D
:1024CC003C4BDA6942F08052DA61DB6903F08053ED
:1024DC000193019B0125384B1B6813F4807F3BD083
:1024EC00344B1B6A13F4407313D0626802F44072CD
:1024FC009A420ED02F4A136A23F440702F490126BA
:10250C00C1F840640026C1F84064106213F0010F5A
:10251C0036D1284A136A23F4407361680B43136263
:10252C00002D3ED1236813F0020F06D0214A5368C8
:10253C0023F44043A1680B435360236813F0100F3E
:10254C0034D01C4A536823F48003E1680B43536076
:10255C0000202CE00025BEE7174A136843F4807373
:10256C001360FEF7D1FD0646134B1B6813F4807FF6
:10257C00B6D1FEF7C9FD801B6428F5D9032016E0FF
:10258C00FEF7C2FD06460B4B1B6A13F0020FC0D1BF
:10259C00FEF7BAFD801B41F288339842F3D9032031
:1025AC0005E0D36923F08053D361BBE7002002B070
:1025BC0070BD00BF0010024000700040000042429D
:1025CC0070B4036A026A22F00102026246688269F0
:1025DC0022F073020C6844EA020523F002028B68B5
:1025EC0013430D4CA04209D00B4CA0420DD04660B9
:1025FC0085614A684263036270BC704723F008032C
:10260C00CA68134323F00403EEE726F440764A69C4
:10261C0032438E691643EAE7002C014030B4036A5A
:10262C00026A22F4807202624568C26922F0730267
:10263C000C68224323F400738C6843EA04230F4C88
:10264C00A04209D00D4CA0420ED04560C2614A6830
:10265C00C263036230BC704723F40063CC6843EA66
:10266C00042323F48063EDE725F440554C6945EAD7
:10267C0004158C6945EA0415E7E700BF002C0140FE
:10268C0030B4036A026A22F4805202624468C2695E
:10269C0022F4E6420D6842EA052223F400538D68C9
:1026AC0043EA0533074DA84206D04460C2614A682C
:1026BC000264036230BC704724F480444D6944EAE0
:1026CC008514F2E7002C014010B4036A046A24F06C
:1026DC0001040462846924F0F00C4CEA021223F029
:1026EC000A030B438261036210BC704710B4036A87
:1026FC00046A24F010040462846924F4704C4CEADB
:10270C00023223F0A00343EA01138261036210BC7E
:10271C007047836823F070030B4343F00703836017
:10272C007047000090F83D30DBB2012B27D102231B
:10273C0080F83D300268D36843F00103D36003682E
:10274C00114A934210D0B3F1804F0DD0A2F59432C0
:10275C00934209D002F58062934205D01A6842F088
:10276C0001021A60002070479A6802F00702062ADC
:10277C0007D01A6842F001021A600020704701204D
:10278C0070470020704700BF002C01407047704715
:10279C007047704710B5044603681A6912F0020FAF
:1027AC0011D0DA6812F0020F0DD06FF002021A612C
:1027BC000123037703689B6913F0030F70D0FFF7B5
:1027CC00E6FF0023237723681A6912F0040F12D056
:1027DC00DA6812F0040F0ED06FF004021A610223B3
:1027EC00237723689B6913F4407F5FD02046FFF763
:1027FC00CEFF0023237723681A6912F0080F12D03A
:10280C00DA6812F0080F0ED06FF008021A61042378
:10281C0023772368DB6913F0030F4ED02046FFF7B4
:10282C00B6FF0023237723681A6912F0100F12D019
:10283C00DA6812F0100F0ED06FF010021A61082334
:10284C0023772368DB6913F4407F3DD02046FFF7E4
:10285C009EFF0023237723681A6912F0010F03D01F
:10286C00DA6812F0010F36D123681A6912F0800F62
:10287C0003D0DA6812F0800F34D123681A6912F091
:10288C00400F03D0DA6812F0400F32D123681A6976
:10289C0012F0200F03D0DA6812F0200F30D110BDE7
:1028AC00FFF774FF2046FFF773FF8AE72046FFF718
:1028BC006DFF2046FFF76CFF9BE72046FFF766FF96
:1028CC002046FFF765FFACE72046FFF75FFF204689
:1028DC00FFF75EFFBDE76FF001021A612046FDF7BE
:1028EC00AFFCC1E76FF080021A61204600F081FA5C
:1028FC00C3E76FF040021A612046FFF74AFFC5E7B5
:10290C006FF020021A61204600F072FAC7E700004F
:10291C0003681B4A90420AD0B0F1804F07D0A2F551
:10292C009432904203D002F58062904203D123F09E
:10293C0070034A681343124A90420AD0B0F1804F98
:10294C0007D0A2F59432904203D002F580629042F7
:10295C0003D123F44073CA68134323F080034A69FC
:10296C00134303608B68C3620B688362044B984209
:10297C0002D00123436170470B690363F9E700BF81
:10298C00002C014040B310B5044690F83D30F3B133
:10299C00022384F83D30214651F8040BFFF7B8FFB1
:1029AC00012384F8463084F83E3084F83F3084F8B4
:1029BC00403084F8413084F8423084F8433084F855
:1029CC00443084F8453084F83D30002010BD80F848
:1029DC003C30FEF7A1F9DBE70120704740B310B59E
:1029EC00044690F83D30F3B1022384F83D30214683
:1029FC0051F8040BFFF78CFF012384F8463084F860
:102A0C003E3084F83F3084F8403084F8413084F80C
:102A1C00423084F8433084F8443084F8453084F8EC
:102A2C003D30002010BD80F83C30FEF7BDF9DBE7EF
:102A3C000120704730B4036A026A22F0100202626D
:102A4C004468826922F4E6420D6842EA052223F0CA
:102A5C0020038D6843EA05130E4DA84209D00D4D95
:102A6C00A8420ED0446082614A688263036230BC23
:102A7C00704723F08003CD6843EA051323F040032D
:102A8C00EDE724F440644D6944EA85048D6944EA19
:102A9C008504E7E7002C014038B590F83C30012B59
:102AAC0066D004460D46012380F83C300C2A5AD8D7
:102ABC00DFE802F0075959591B59595930595959DE
:102ACC0044000068FFF77CFD2268936943F008031B
:102ADC0093612268936923F00403936122689369DC
:102AEC0029690B43936100203EE00068FFF7A2FFC9
:102AFC002268936943F4006393612268936923F419
:102B0C008063936122689369296943EA0123936185
:102B1C00002029E00068FFF781FD2268D36943F0AB
:102B2C000803D3612268D36923F00403D3612268BC
:102B3C00D36929690B43D361002015E00068FFF7C6
:102B4C009FFD2268D36943F40063D3612268D36983
:102B5C0023F48063D3612268D369296943EA012392
:102B6C00D361002000E00120002384F83C3038BD04
:102B7C000220FCE710B4846824F47F4C42EA032260
:102B8C000A4342EA0C02826010BC704790F83C3059
:102B9C00012B78D010B50446012380F83C30022379
:102BAC0080F83D300268936823F47F4323F0770369
:102BBC0093600B68602B4CD029D8402B54D00CD987
:102BCC00502B22D1CA6849680068FFF77DFD50215F
:102BDC002068FFF79EFD002005E0202B0DD009D9C1
:102BEC00302B0AD00120012384F83D30002384F8D7
:102BFC003C3010BD0BB1102B05D119462068FFF7E6
:102C0C0088FD0020EFE70120EDE70120EBE7B3F5AD
:102C1C00805F34D0B3F5005F0CD1CB684A6889680B
:102C2C000068FFF7A7FF2268936843F48043936022
:102C3C000020D8E7702B24D1CB684A6889680068DB
:102C4C00FFF798FF2268936843F0770393600020A6
:102C5C00C9E7CA6849680068FFF748FD6021206829
:102C6C00FFF757FD0020BEE7CA6849680068FFF708
:102C7C002BFD40212068FFF74CFD0020B3E700201E
:102C8C00B1E70120AFE70220704701F01F010123DB
:102C9C0003FA01FC036A23EA0C030362036A02FAD7
:102CAC0001F10B430362704710B50446084651BB53
:102CBC0094F83E30DBB2013B18BF0123002B5BD1F3
:102CCC00002839D1022384F83E30012201462068C5
:102CDC00FFF7DBFF23682A4A93423DD02368284A3A
:102CEC0093423ED0B3F1804F3BD0A2F59432934245
:102CFC0037D002F58062934233D01A6842F0010259
:102D0C001A60002039E0042908D008290DD094F865
:102D1C004130DBB2013B18BF0123CFE794F83F30C1
:102D2C00DBB2013B18BF0123C8E794F84030DBB29B
:102D3C00013B18BF0123C1E7042805D0082807D0A0
:102D4C00022384F84130C0E7022384F83F30BCE70B
:102D5C00022384F84030B8E75A6C42F400425A64BB
:102D6C00BCE79A6802F00702062A07D01A6842F0FC
:102D7C0001021A60002000E0012010BD0020FCE7D9
:102D8C00002C014090F83C30012B2CD010B40123C6
:102D9C0080F83C30022380F83D3003685A689C6808
:102DAC0022F0700C0A6842EA0C025A6003680F4A5F
:102DBC0093420AD0B3F1804F07D0A2F594329342DC
:102DCC0003D002F58062934204D124F080044A6857
:102DDC0014439C60012380F83D30002380F83C3084
:102DEC00184610BC70470220704700BF002C0140F1
:102DFC0070477047026802F10C0353E8003F23F45C
:102E0C0090730C3242E800310029F3D1026802F1D0
:102E1C00140353E8003F23F00103143242E800315D
:102E2C000029F3D1036B012B05D0202380F842300D
:102E3C00002303637047026802F10C0353E8003F60
:102E4C0023F010030C3242E800310029F3D1ECE7F7
:102E5C0090F84130DBB2212B01D0022070478368FF
:102E6C00B3F5805F17D0036A5A1C02621A780368A4
:102E7C005A60C38C9BB2013B9BB2C3844BB90268B2
:102E8C00D36823F08003D3600268D36843F0400317
:102E9C00D360002070470369002BE4D1036A1B88C0
:102EAC000268C3F308035360036A02330362E0E76A
:102EBC0010B504460268136923F44053C1680B43F0
:102ECC00136183680269134342691A430168CB6832
:102EDC0023F4B05323F00C031343CB600268536903
:102EEC0023F4407381690B4353610268134B9A427C
:102EFC0020D0FFF7B9FA024602EB820202EB820203
:102F0C0063689B00B2FBF3F20D48A0FB0231490948
:102F1C00642303FB11231B013233A0FB03235B0946
:102F2C0003F0F00202EB011203F00F0321681344CB
:102F3C008B6010BDFFF7A8FA0246DDE700380140B0
:102F4C001F85EB512DE9F84305460F461646994669
:102F5C00DDF820802C68246837EA04030CBF4FF09E
:102F6C00010C4FF0000CB4452DD1B8F1FF3FF1D05E
:102F7C00B8F1000F05D0FEF7C7F8A0EB09004045EB
:102F8C00E8D92A6802F10C0353E8003F23F4D0730C
:102F9C000C3242E800310029F3D12A6802F1140303
:102FAC0053E8003F23F00103143242E800310029BA
:102FBC00F3D1202385F8413085F84230002385F881
:102FCC004030032000E00020BDE8F88360B310B56A
:102FDC00044690F8413013B3242384F8413022681E
:102FEC00D36823F40053D3602046FFF761FF2268B7
:102FFC00136923F4904313612268536923F02A0365
:10300C0053612268D36843F40053D360002060649A
:10301C00202384F8413084F84230606310BD80F87E
:10302C004030FDF795FFD7E7012070472DE9F041BF
:10303C0082B01E4690F84130DBB2202B4BD10446B7
:10304C000D46904600294AD00AB9012044E00023DD
:10305C004364212380F84130FEF756F80746A4F864
:10306C002480A4F82680A368B3F5805F02D04FF0CB
:10307C0000080FE02369FBB14FF000080AE038F8B4
:10308C00023B2268C3F308035360E28C92B2013A0C
:10309C0092B2E284E38C9BB28BB100963B46002249
:1030AC0080212046FFF74EFFD8B9002DE7D015F848
:1030BC00012B23685A60E8E7A8460025EAE700964A
:1030CC003B46002240212046FFF73CFF58B9202305
:1030DC0084F8413000E0022002B0BDE8F08101200C
:1030EC00FAE70320F8E70320F6E72DE9F04182B078
:1030FC001E4690F84230DBB2202B53D104460D46CD
:10310C009046002952D00AB901204CE000234364B8
:10311C00222280F842200363FDF7F6FF0746A4F84D
:10312C002C80A4F82E80A368B3F5805F02D04FF0FA
:10313C00000817E0236913B14FF0000812E0A8460D
:10314C0000250FE023685B68C3F3080328F8023BF3
:10315C0003E023685B682B700135E28D92B2013A73
:10316C0092B2E285E38D9BB2BBB100963B46002246
:10317C0020212046FFF7E6FED0B9002DE2D0A3684F
:10318C00B3F5805FE5D013B92369002BE1D0236838
:10319C005B6803F07F032B70DEE7202384F842305A
:1031AC00002000E0022002B0BDE8F0810120FAE727
:1031BC000320F8E7704708B50168CA6822F040029E
:1031CC00CA60202280F84120FFF7F4FF002008BDE0
:1031DC00704708B5406A0023C385C384FFF7F8FF26
:1031EC0008BD704790F84230DBB2222B69D183685E
:1031FC00B3F5805F4FD0826AB3F5805F04D0002BAB
:10320C0056D10369002B53D103685B681370836A32
:10321C0001338362C38D9BB2013B9BB2C385002BF0
:10322C0051D100B583B00268D36823F02003D3607A
:10323C000268D36823F48073D3600268536923F067
:10324C0001035361202380F8423000234363036B56
:10325C00012B33D100230363026802F10C0353E802
:10326C00003F23F010030C3242E800310029F3D167
:10327C0003681A6812F0100F06D0002201921A6827
:10328C0001925B680193019B818DFFF7AAFF0020DF
:10329C0003B05DF804FB0269002AACD1826A0368B2
:1032AC005B68C3F308031380836A02338362B1E75C
:1032BC0003685B6803F07F031370A8E7FDF7CAFA95
:1032CC00E5E70220704700207047000030B583B05E
:1032DC00044602681368D068516913F00F0505D1D4
:1032EC0013F0200F02D010F0200F19D12DB111F0D6
:1032FC00010119D110F4907F16D1216B01297DD0D9
:10330C0013F0800F03D010F0800F40F0188113F0F1
:10331C00400F03D010F0400F40F0158103B030BDCA
:10332C002046FFF75FFFF9E713F0010F06D010F40A
:10333C00807F03D0626C42F00102626413F0040FD0
:10334C0004D019B1626C42F00202626413F0020FF5
:10335C0004D019B1626C42F00402626413F0080FDD
:10336C0007D010F0200F00D119B1626C42F00802A6
:10337C006264626C002AD1D013F0200F02D010F0DE
:10338C00200F29D123685B6903F04003626C12F0B3
:10339C00080F00D163B32046FFF72CFD23685B694F
:1033AC0013F0400F20D0226802F1140353E8003FC1
:1033BC0023F04003143242E800310029F3D1E36BCF
:1033CC0073B1634A5A63E06BFEF79AF80028A5D0F4
:1033DC00E06B436B9847A1E72046FFF703FFD1E76B
:1033EC002046FFF7F5FE99E72046FFF7F1FE95E73B
:1033FC002046FFF7EDFE002363648FE713F0100FF8
:10340C003FF47EAF10F0100F3FF47AAF002301931E
:10341C001368019353680193019B536913F0400F98
:10342C0051D0E26B13685B689BB2002B3FF476AF14
:10343C00A18D99427FF672AFE3859369202B37D02B
:10344C00226802F10C0353E8003F23F480730C3222
:10345C0042E800310029F3D1226802F1140353E849
:10346C00003F23F00103143242E800310029F3D16C
:10347C00226802F1140353E8003F23F04003143296
:10348C0042E800310029F3D1202384F84230002394
:10349C002363226802F10C0353E8003F23F010036E
:1034AC000C3242E800310029F3D1E06BFEF704F84E
:1034BC0002236363A18DE38D9BB2C91A89B22046A6
:1034CC00FFF78FFE2AE7A18DE38D9BB2C91A89B253
:1034DC00E38D9BB2002B3FF421AF00293FF41EAFCC
:1034EC00226802F10C0353E8003F23F490730C3272
:1034FC0042E800300028F3D1226802F1140353E8AB
:10350C00003F23F00103143242E800300028F3D1CD
:10351C00202384F8423000232363226802F10C0339
:10352C0053E8003F23F010030C3242E8003000282F
:10353C00F3D1022363632046FFF753FEEEE62046E9
:10354C00FFF786FCEAE62046FFF735FEE6E600BF0D
:10355C00DF31000881628285C28500234364222307
:10356C0080F84230036923B10268D36843F4807356
:10357C00D3600268536943F0010353610268D36856
:10358C0043F02003D3600020704708B590F8423018
:10359C00DBB2202B08D149B10AB9012008BD0023A8
:1035AC000363FFF7D7FFF9E70220F7E70120F5E700
:1035BC00014B1868704700BF2800002070B50D4EF5
:1035CC000D4D761BB61006D0002455F8043B013483
:1035DC009847A642F9D1094E094D01F02DFE761BF4
:1035EC00B61006D0002455F8043B01349847A64287
:1035FC00F9D170BD285B0008285B0008305B00081F
:10360C00285B0008024B0146186800F003B800BFA5
:10361C00280000202DE9F04F01F10B05162D064670
:10362C0083B025D8102900F2B88000F0F1FA1025EB
:10363C0018224FF0020CB54F3A445368A2F108011E
:10364C008B4200F0B7805A68D96822F003021A4402
:10365C009C683046E1608C60516803F1080441F0CD
:10366C000101516000F0DAFA204603B0BDE8F08F9A
:10367C0035F0070500F19180A94200F28E8000F030
:10368C00C7FAB5F5FC7FC0F094816B0A00F08C8012
:10369C00042B00F26A81AB0903F1390C03F13804F5
:1036AC004FEACC00994F384443680838984206D109
:1036BC000CE0002980F22681DB68984206D05A681B
:1036CC0022F00302511B0F29F3DDA4463C69DFF8FD
:1036DC0040E274457AD0626822F00302531B0F2B30
:1036EC0000F37681002BC7E904EE80F26781B2F516
:1036FC00007F80F019810121D30852090B449140BD
:10370C007A6857F833000A4307EBC3010839A06005
:10371C00E1607A6047F83340C46001214FEAAC03A2
:10372C009940914259D8114206D12CF0030C490012
:10373C0011420CF1040CFAD007EBCC094846644654
:10374C00D0F80C80404508D11CE1002B80F221817F
:10375C00D8F80C80404500F01581D8F8042022F0F0
:10376C000302531B0F2BF0DD08EB050145F001059F
:10377C00C8F804503046D8E90264F460A66043F0FF
:10378C000104C7E904114C60C1E902EE48F80230AB
:10379C0000F044FA08F1080402E00C230024336022
:1037AC00204603B0BDE8F08F4FF400704FF0400C92
:1037BC003F2477E7D3689A4208BF0CF1020C7FF4E0
:1037CC0042AF3C69DFF848E1744584D101217A6845
:1037DC004FEAAC0399409142A5D9BC68636823F0C9
:1037EC0003094D4503D8A9EB05030F2B7ADCDFF851
:1037FC0024B1494BDBF800201B6801322B4404EB4D
:10380C00090A00F02F8103F580530F3323F47F68EE
:10381C0028F00F084146304600F05CFA411C024685
:10382C0000F0EF80824500F2EA803C4B196841447D
:10383C000846196000F04981DBF800100193013152
:10384C001BBFA2EB0A0A5044CBF80020186012F000
:10385C00070B00F01181CBF108010A44CBF5805124
:10386C0090440831A1EB0801C1F30B0A51463046D4
:10387C00009200F02FFA421CDDE9002300F04B818E
:10388C00801A00EB0A08196848F001005144BC4248
:10389C00BA601960506000F02481B9F10F0F40F24A
:1038AC0022814FF0050E6068A9F10C0C2CF0070C6E
:1038BC0000F0010040EA0C006060BCF10F0F04EB5B
:1038CC000C00C0E901EE00F22E8114465068144B36
:1038DC001A688A4238BF1960124B1A688A4238BF7C
:1038EC00196090E0621943F0010345F00105656031
:1038FC003046BA600834536000F090F9204603B0AB
:10390C00BDE8F08FD9681A44A2E600BF5804002025
:10391C006004002060080020800B0020500B002069
:10392C00780B00207C0B0020B2F5206F4FEA52235D
:10393C005FD3142B00F2B18003F15C01C9005B333F
:10394C00781879580838884200F08F804B6823F03B
:10395C000303934202D989688842F7D1C8687A6810
:10396C00C4E902108460CC60D7E6142B59D9542BCF
:10397C0000F29B802B0B03F16F0C03F16E044FEAEA
:10398C00CC008FE60134A30700F108007FF4D8AE19
:10399C0053E0444642445368D8F80C1043F00103FA
:1039AC00536054F8083F3046D9608B6000F036F90C
:1039BC00F6E64FEAD50C05F108023CE622445368C2
:1039CC00304643F00103536000F028F90834E7E671
:1039DC00611945F00105656043F00105C7E9041163
:1039EC003046C1E902EE4D60A35000F017F90834DF
:1039FC00D6E6930903F13901C9003833A0E7BC427C
:103A0C005ED0BC68606820F003084545A8EB050350
:103A1C0002D80F2B3FF766AF304600F0FFF80024BA
:103A2C00BEE603F15C0C03F15B044FEACC0039E613
:103A3C0059F808394B4540F095801CF0030F0CF1F8
:103A4C00FF3CF5D17B6823EA01037B604900994276
:103A5C003FF6C3AE11B9C0E6490004341942FBD09D
:103A6C00A44669E603F11008D4E601229B109A40A3
:103A7C007B681A437A6073E702EB08014942C1F391
:103A8C000B0A51463046009200F024F9431CDDE944
:103A9C0000237FF4F5AEDA46F5E6542B26D8130B4B
:103AAC0003F16F01C9006E334AE7B3F5AA7F26D83C
:103ABC00EB0B03F1780C03F177044FEACC00F1E542
:103ACC00294B186840441860B6E6CAF30B0CBCF1DD
:103ADC00000F7FF4B1AEBC68C84448F001006060D0
:103AEC00F5E61446F3E60123536095E7B3F5AA7F98
:103AFC0024D8D30B03F17801C900773320E740F2C7
:103B0C005452934224D8AB0C03F17D0C03F17C048A
:103B1C004FEACC00C6E5ABF1080BD8444FF0000AD5
:103B2C00A8EB0208AFE604F108013046009300F060
:103B3C0021FCBC68009B60681968C8E640F25451CF
:103B4C008B420BD8930C03F17D01C9007C33F7E653
:103B5C004FF47E704FF07F0C7E24A3E54FF47E7102
:103B6C007E23EDE67B6871E7500B0020830730B5B0
:103B7C0048D0541E002A3FD00346CAB201E0013C93
:103B8C003AD303F8012B9D07F9D1032C2DD9CDB2D3
:103B9C0045EA05250F2C45EA054536D9A4F1100256
:103BAC0022F00F0C03F1200EE6444FEA121C03F135
:103BBC00100242E9045542E9025510327245F8D11F
:103BCC000CF1010214F00C0F03EB021204F00F0CB9
:103BDC0013D0ACF1040323F003030433134442F871
:103BEC00045B9342FBD10CF003042CB1CAB21C440D
:103BFC0003F8012B9C42FBD130BD64461346002CCC
:103C0C00F4D1F9E703461446BFE71A46A446E0E7A9
:103C1C00014800F04FBE00BF880B0020014800F0A7
:103C2C004BBE00BF880B002030B5054689B0084656
:103C3C000C4600F039F901210223214A0494069222
:103C4C00AA6B04AC0590084401940791AC680293EC
:103C5C00039022B3636E13F0010FB4F90C309AB2D7
:103C6C0001D1980525D5910406D4626E43F4005316
:103C7C0022F40052A3816266284601AA214600F074
:103C8C0079FC636E002814BF4FF0FF350A25DA0764
:103C9C0002D4A3899B0506D5284609B030BD284619
:103CAC0000F070FAD6E7A06D00F006FE284609B0C9
:103CBC0030BDA06D00F0FEFDB4F90C309AB2D2E725
:103CCC00245B0008024B01461868FFF7ADBF00BF2C
:103CDC0028000020002238B5064D044608462A600C
:103CEC00FCF740FF431C00D038BD2B68002BFBD0E9
:103CFC00236038BD940B00202DE9F043694C0E462F
:103D0C00D4F80080174604461D4683B0B8F1000F66
:103D1C0003D0D8F83830002B77D0022F05D0012FE4
:103D2C0000F2AC80002DC0F2A980636EDA0752D588
:103D3C002146404600F0F2F9216B41B104F14003F9
:103D4C00994202D0404600F015FB00232363002368
:103D5C00B4F90CC0A3611CF0800F636064D12CF427
:103D6C004A6C2CF0030C022FA4F80CC06AD001ABE7
:103D7C00214640466A4600F011FEA3891843A081F3
:103D8C00002D2FD0002E2ED0D8F83830002B38D064
:103D9C00009BC4E90465AB42B4F90C3026601CBF2F
:103DAC0043F40063A381012F04BF43F00103A381FB
:103DBC009AB213F008032CD0D1075DD500216D42C7
:103DCC00A561656EA16015F0010527D00025284678
:103DDC0003B0BDE8F083A3899B05A9D4A06D00F0C6
:103DEC0069FDA5E7009D2846FFF70CFC0646002858
:103DFC0047D0A38943F08003A381D8F83830002B37
:103E0C00C6D1404600F0BEF9C2E7404600F0BAF910
:103E1C0083E7A360656E15F00105D7D1930524D512
:103E2C00284603B0BDE8F0834046216900F0A2FAB1
:103E3C00B4F90CC0022F2CF44A6C2CF0030CA4F82F
:103E4C000CC094D100250021012204F1430323600E
:103E5C002361636E4CF0020CD807A4F80CC0A1606F
:103E6C006261DDD41CF4007FDAD1A06D00F024FD7A
:103E7C00284603B0BDE8F083A560CBE74FF0FF35D3
:103E8C00CEE7DDF80090A94504D04846FFF7BAFB11
:103E9C00064620B94FF0FF35B4F90CC0D3E74D46B8
:103EAC00A7E700BF2800002020F0030110F003005A
:103EBC00C0F1000051F8043B00F1040C4FEACC0CAB
:103ECC006FF000021CBF22FA0CF213434FF0010CEE
:103EDC004CEA0C2C4CEA0C4CA3EB0C0222EA03022D
:103EEC0012EACC1204BF51F8043B0430F4D0C2F1F6
:103EFC00000102EA0102B2FA82F2C2F11F0200EBE7
:103F0C00D200704738B5334B05461B680C460BB1D5
:103F1C009A6B12B3B4F90C3018079AB225D52169F3
:103F2C0000292DD012F0010007D000256069A56092
:103F3C004042A06139B1002038BD950758BF606977
:103F4C00A0600029F7D1120658BF0846F4D543F0FB
:103F5C0040034FF0FF30A38138BD184600F012F932
:103F6C00B4F90C3018079AB2D9D4D1062AD5520715
:103F7C0014D4216943F00803A3819AB20029D1D14A
:103F8C0002F42070B0F5007FCCD02146284600F01A
:103F9C0095FCB4F90C3021699AB2C3E7216B51B18D
:103FAC0004F14002914204D0284600F0E3F9B4F940
:103FBC000C30002222630022216923F02403C4E97F
:103FCC000012D7E7092243F040032A604FF0FF307C
:103FDC00A38138BD28000020024B13B1024800F029
:103FEC0005B8704700000000B542000800230146E8
:103FFC001A46184601F010B8B1F90C20F8B50C4669
:10400C001107074643D4636842F40062002BA28177
:10401C005BDDA56A002D56D000233E683B6093B251
:10402C0012F4805255D101233846E169A847421C4D
:10403C0065D0A389A56A5B0705D56368C01A236B95
:10404C000BB1E36BC01A0246E16900233846A8475E
:10405C00411C40D13B68002B3DD01D2B01D0162BB1
:10406C0054D10022A38923F40063A3812369C4E9FA
:10407C000032216B3E6031B304F14003994202D00F
:10408C00384600F077F9002318462363F8BD2669FB
:10409C00CEB193B29A0718BF0023256808BF636995
:1040AC002660AD1BA3600CE02B463246D4F824C02E
:1040BC003846E169E047B0F1000CA5EB0C0566440D
:1040CC0016DD002DF0DC0020F8BDE36B002BA0DC2E
:1040DC00F9E7206DAFE70022B4F90C30626023F4ED
:1040EC0000632269A381DB042260C2D52065C0E78E
:1040FC00A3894FF0FF3043F04003A381F8BD3B6828
:10410C00002B96D01D2B06D0162B04D0A38943F080
:10411C004003A381F8BD00203E60F8BD38B50546CC
:10412C000C4608B1836BA3B1B4F90C00B8B1636E43
:10413C00DB0701D4810515D528462146FFF75CFF26
:10414C00636E0546DA0702D4A3899B050ED5284673
:10415C0038BD00F017F8B4F90C000028E7D105467B
:10416C00284638BDA06D00F0A5FBE5E7A06D00F07A
:10417C00A3FB284638BD00BF014900F073BB00BF4C
:10418C00D55000082DE9F0478246394800F092FBE3
:10419C00DAF83840002C66D1042303223549DAF8CA
:1041AC000450CAF83C10DFF8D090DFF8D080344FC0
:1041BC00344E0AF53B71CAE9B921CAF8E0422146EE
:1041CC00EB600822C5E90044C5E904446C66AC60A8
:1041DC00AC6105F15C00FFF7C9FCC5E90759C5E9FD
:1041EC000987EE6205F1580000F060FBDAF8085020
:1041FC00254B2146EB600822C5E90044C5E904447F
:10420C006C66AC60AC6105F15C00FFF7AFFCC5E916
:10421C000759C5E90987EE6205F1580000F046FB25
:10422C00DAF80C50194B2146EB600822C5E9004422
:10423C00C5E904446C66AC60AC6105F15C00FFF749
:10424C0095FC05F15800C5E90759C5E90A76C5F88A
:10425C00248000F02BFB01230548CAF83830BDE858
:10426C00F04700F029BB0248BDE8F04700F024BB42
:10427C00900B0020854100086D4F0008914F0008FD
:10428C00D14F0008F14F0008090001001200020094
:10429C00014800F00FBB00BF8C0B0020014800F060
:1042AC000BBB00BF8C0B002038B5084B084D5B1BBB
:1042BC009C1007D0043B1D44013C55F80439984729
:1042CC00002CF9D1BDE8384000F0BCBF345B0008CD
:1042DC00305B0008F8B50C46234F0646FFF798FCF8
:1042EC00BB685D68C4F57E6325F003050F332B4472
:1042FC0023F47F6323F00F03A3F58054B4F5805FA0
:10430C0007DB00213046FFF7E5FCBB682B449842E5
:10431C0004D03046FFF782FC0020F8BD30466142E5
:10432C00FFF7D8FC01300DD0104ABB682D1B45F0AF
:10433C0001055D60136830461B1B1360FFF76EFCB4
:10434C000120F8BD00213046FFF7C4FCBA68831A7F
:10435C000F2BDEDD43F001035360054B03491B6853
:10436C00C01A0860D5E700BF58040020500B00208D
:10437C006008002000295ED0F8B50C460646FFF711
:10438C0047FC54F8042C784FA4F1080522F00101E5
:10439C006818D7F808C04368844523F0030300F07D
:1043AC008780D207436034D454F8082C07F10804F2
:1043BC00AD1A1144AA68A24268D000EB030CDCF8D9
:1043CC0004E0D5F80CC01EF0010FC2F80CC0CCF8FC
:1043DC00082000F0918041F001036B600160B1F5A1
:1043EC00007F31D24A09CB08012191407A68013310
:1043FC001143796007EBC30257F83310083AC5E94B
:10440C00021247F83350CD603046BDE8F840FFF754
:10441C0005BCC2185268D2070ED4194407F108041F
:10442C008368A34270D0C268DA60936041F00103E4
:10443C006B606950D3E7704741F00103B1F5007F21
:10444C0044F8043C0160CDD3B1F5206F4FEA512301
:10445C0047D28B0903F1390003F13802C300F81875
:10446C00FB580838984258D05A6822F003028A4206
:10447C0002D99B689842F7D1D868C5E902308560AB
:10448C003046DD60BDE8F840FFF7C8BBC218526883
:10449C00D20763D40B44D0E90212CA60916043F096
:1044AC0001026A603046EB50BDE8F840FFF7B6BB3E
:1044BC000B44D10707D454F8082CAD1A1344D5E992
:1044CC000212CA60916043F001026A60274ABD6023
:1044DC0012689A4298D8264B30461968FFF7FAFEB4
:1044EC0092E7142B0AD9542B1FD80B0B03F16F0036
:1044FC0003F16E02C300B2E7194491E703F15C00CB
:10450C0003F15B02C300AAE741F00103C7E90455BC
:10451C00C5E902446B60695076E70121921001FAFB
:10452C0002F279680A437A60A7E7B3F5AA7F06D846
:10453C00CB0B03F1780003F17702C3008FE740F255
:10454C005452934206D88B0C03F17D0003F17C028C
:10455C00C30084E74FF47E737E2280E741F00103B1
:10456C006B60016050E700BF580400206408002015
:10457C00800B00209368002B00F0B7802DE9F04FE2
:10458C00B1F90C300C4619078046174683B098B227
:10459C0025D523691BB310F002033D682DD04FF0D5
:1045AC00000B5E46DFF8B8A2002E00F08B8056455B
:1045BC0033465A4628BF53464046E169D4F824C0D6
:1045CC00E047002840F38780BB6883441B1A361AE7
:1045DC00BB60002BE8D1002003B0BDE8F08F214672
:1045EC004046FFF78FFC002840F03681B4F90C30C0
:1045FC003D6898B210F00203D1D110F0010976D1C8
:10460C004E46002E5AD08205D4F808B040F1B58041
:10461C00B3455A4600F2CD8010F4906F00F0CB8079
:10462C0023682169A3EB010B636903EB430A0AEBD3
:10463C00DA7A0BF101034FEA6A0A334453455246C6
:10464C0084BF9A465246430540F1EA8011464046E3
:10465C00FEF7E0FF002800F0F9805A46216901902E
:10466C00FBF76EFDA289019B22F4906242F080025E
:10467C00A28103EB0B0023613246AAEB0B03B3467A
:10468C00C4F814A0A3602060B246002649460192EB
:10469C0000F0FCF9A3682168019AA3EB0B030A4410
:1046AC00A3602260B868D144A0EB0A00B86000286F
:1046BC0091D0B4F90C0080B2002EA4D1D5E90096AB
:1046CC0008359EE7D5E900B608356DE7214640462A
:1046DC00FFF724FD80B3B4F90C304FF0FF3043F0FA
:1046EC004003A38103B0BDE8F08F002070471E4645
:1046FC00AA46994618461D4656B3002832D04A465B
:10470C0020682169B24228BF32468842636904D9C5
:10471C00A16803EB010B5A4574DC934265DC2A4615
:10472C004046E169D4F824C0E047B0F1000BD2DD7B
:10473C00B9EB0B09CAD00120BB685D44A3EB0B039A
:10474C00A6EB0B06BB60002B3FF445AF002ED4D17B
:10475C000AF1080353F8046C9A4653F8085C0833C2
:10476C00002EF7D032460A21284600F047F90028DF
:10477C0069D00130A0EB0509C1E720682369984294
:10478C001BD86369B34218D86FF0004CB44528BFEE
:10479C00B4469CFBF3FC4A4603FB0CF34046E16930
:1047AC00D4F824C0E047B0F1000A94DDA6EB0A0669
:1047BC0078E7B3463246206866E7B345DA4628BF49
:1047CC00B2464946524600F061F9A3682268A3EB51
:1047DC000A035244A3602260002BE7D121464046D5
:1047EC00FFF79CFC0028E1D075E72946934601921F
:1047FC0000F04CF9A368019A9B1AA36023681A4431
:10480C00226095E729465A4600F040F92368214674
:10481C005B4440462360FFF781FC002888D05AE7B0
:10482C00404600F0AFF9034600287FF422AF404623
:10483C002169FFF79FFD0C22B4F90C30C8F8002059
:10484C0023F0800349E7721C914659E70C22B4F916
:10485C000C30C8F8002040E74FF0FF30BCE600BF3A
:10486C0000FCFF7F2DE9F8434FF00009074688460E
:10487C0000F53876D6E90154013D10D4A389013DE9
:10488C00012B08D9B4F90E30013304D02146384637
:10489C00C04749EA00096B1C04F16804EED1366884
:1048AC00002EE7D14846BDE8F88300BF704700BF33
:1048BC00704700BF704700BF704700BF2DE9F04143
:1048CC008B890C46990796B008D5012204F1430355
:1048DC00C4E90432236016B0BDE8F081B4F90E10BF
:1048EC000646002927DB6A4600F054FC002821DB31
:1048FC00019D4FF4806805F47045A5F50055B5FA97
:10490C0085F54FF400676D0941463046FEF782FE8F
:10491C00B4F90C30F0B1204A43F08003F263C4F8D0
:10492C001480A3812060206135BB3B43A38116B06A
:10493C00BDE8F081A38913F0800519D04FF0400831
:10494C00304641460025FEF765FE2F46B4F90C3083
:10495C000028E0D19A05BED4012123F0030304F111
:10496C00430243F00203C4E90421A3812260B2E7AD
:10497C004FF480682F46C7E73046B4F90E1000F0AC
:10498C001DFC10B9B4F90C30CFE7A38923F0030355
:10499C0043F001031BB2C8E78541000870B50C4613
:1049AC00B1F90E10154600291E4696B014DB6A4666
:1049BC0000F0F0FB00280FDB019A4FF4806302F447
:1049CC007042A2F50052B2FA82F24FF40060520922
:1049DC0032602B6016B070BD0023B4F90C1033603C
:1049EC0011F0800004D0402218462A6016B070BD29
:1049FC004FF480632B6016B070BD00BF5FFA81FC72
:104A0C00810710D00346511E2AB90AE09A071846AE
:104A1C000AD0013905D3184613F8012B6245F5D19C
:104A2C00704700207047114603290CD80029F8D094
:104A3C000346014401E08B42F3D0184613F8012BD6
:104A4C006245F8D1ECE7024610B54CEA0C2444EA76
:104A5C0004441046036804326340A3F1013E2EEA7D
:104A6C00030313F0803F04D1043903291046F0D816
:104A7C0051B10346014401E08B4205D0184613F8AE
:104A8C00012B6245F8D110BD002010BD88420DD914
:104A9C008B1883420AD900EB020CBAB1624613F8A8
:104AAC0001CD994202F801CDF9D170470F2A0ED8E9
:104ABC00034602F1FF3C4AB10CF1010C013B8C4462
:104ACC0011F8012B614503F8012FF9D1704740EA29
:104ADC0001039B074FD1A2F1100370B501F1200C1B
:104AEC0023F00F0501F1100E00F11004AC441B096A
:104AFC005EF8105C0EF1100E44F8105C5EF81C5C55
:104B0C00103444F81C5C5EF8185C44F8185C5EF8D1
:104B1C00145CE64544F8145CEAD1013312F00C0F36
:104B2C0001EB031102F00F0400EB031327D08E46A8
:104B3C00043C24F003064FEA940C1E441C1F5EF840
:104B4C00045B44F8045FB442F9D10CF1010402F0A7
:104B5C00030203EB840301EB840102F1FF3C4AB135
:104B6C000CF1010C013B8C4411F8012B614503F84D
:104B7C00012FF9D170BD034602F1FF3C9CE72246A0
:104B8C00EBE700BF2DE9F84F1646002900F098809E
:104B9C0006F10B0580460C46FFF73AF8162D5DD84A
:104BAC0010252A46AE425ED854F8041CA4F108091C
:104BBC0021F00307974262DABC4B09EB0700D3F8EC
:104BCC0008C0844500F09780D0F804C02CF0010395
:104BDC0003445B68DB0768D42CF0030C07EB0C0375
:104BEC00934247DACB0710D454F8083CA9EB030ADC
:104BFC00DAF8043023F003018C44BC44944580F271
:104C0C0011817B18934280F2E88031464046FEF7D2
:104C1C0001FD0646E0B154F8043CA0F1080223F073
:104C2C0001034B44934200F0D2803A1F242A00F235
:104C3C00F580132A00F2AC800346224611681960F5
:104C4C005168596092689A6021464046FFF792FB82
:104C5C004046FEF7E3FF3046BDE8F88F25F0070528
:104C6C00002D2A469EDA0C230026C8F80030304668
:104C7C00BDE8F88F1F46D0E90223D3609A607B1BF6
:104C8C000F2B22D8D9F8043003F001033B43C9F8A9
:104C9C0004304F447B6843F001037B60264640465A
:104CAC00FEF7BCFF3046BDE8F88FC907ADD454F809
:104CBC00083CA9EB030ADAF8041021F00301A0E781
:104CCC001146BDE8F84FFEF7A5BCD9F8041043F027
:104CDC00010301F001012943C9F8041009EB050196
:104CEC004B604F447B68404643F0010308317B60C6
:104CFC00FFF740FBD2E7DCF8040020F0030B07EBD6
:104D0C000B0C05F1100084454DDAC9073FF57DAF5A
:104D1C0054F8081CA9EB010ADAF8041021F003017D
:104D2C008B44BB4458453FF76CAF5646DAF80C1031
:104D3C0056F8080F3A1F242AC160886000F2DB8005
:104D4C00132A40F2D68021681B2ACAF80810616821
:104D5C00CAF80C1000F2E08008340AF11002216845
:104D6C00116061685160A1689160ABEB05020AEBC0
:104D7C00050142F0010299604A60DAF804304046BD
:104D8C0003F001031D43CAF80450FEF747FF6EE71A
:104D9C0023681B2A03606368436068D804F1080227
:104DAC0000F108034AE709EB0502ACEB050C9A602D
:104DBC004CF00103536054F8043C404603F00103EB
:104DCC001D4344F8045CFEF729FF26464FE750F8D4
:104DDC00043C23F003031F4451E75646DAF80C1049
:104DEC0056F8080F3A1F242AC16088604CD8132A41
:104DFC0048D921681B2ACAF808106168CAF80C1037
:104E0C0056D808340AF110021F462368D1461360A5
:104E1C0063685360A3683446936030E72146FFF71C
:104E2C0035FE11E75646D0E90213CB60996056F86F
:104E3C00081FDAF80C303A1F242ACB6099602DD861
:104E4C00132A29D923681B2ACAF808306368CAF8C0
:104E5C000C3042D808340AF11003226867461A60F5
:104E6C006268D1465A60A26834469A6007E7A36824
:104E7C00242A8360E368C36026D004F1100200F199
:104E8C001003DBE63246BFE7214630461F46D146CB
:104E9C00FFF7FCFD3446F2E63346DEE721463046AA
:104EAC006746D146FFF7F2FD3446E8E65804002089
:104EBC00A168242ACAF81010E168CAF8141020D08E
:104ECC0010340AF118029FE7236904F118020361F8
:104EDC006369436100F11803B0E6A368242ACAF899
:104EEC001030E368CAF8143022D010340AF11803D9
:104EFC00B3E7324633E721463046FFF7C7FD174B81
:104F0C0033E722691834CAF8182054F8042CCAF86C
:104F1C001C200AF1200277E7A168242ACAF8101095
:104F2C00E168CAF814100ED010340AF1180216E712
:104F3C0023691834CAF8183054F8043CCAF81C30E9
:104F4C000AF1200389E722691834CAF8182054F8AA
:104F5C00042CCAF81C200AF1200200E75804002097
:104F6C0010B50C46B1F90E1000F050F9002803DB17
:104F7C00236D0344236510BDA38923F48053A381BF
:104F8C0010BD00BF2DE9F0410C46B1F90C101F46C5
:104F9C00CB05054616460BD421F48051A1813B4626
:104FAC0032462846B4F90E10BDE8F04100F01EB8A8
:104FBC00B4F90E100223002200F012F9B4F90C100F
:104FCC00EAE700BF10B50C46B1F90E1000F008F975
:104FDC00A389421C0EBF23F4805343F480532065F5
:104FEC00A38110BDB1F90E1000F05CB838B50C46B9
:104FFC00114600228446074D20462A601A46644614
:10500C00FBF700FD431C00D038BD2B68002BFBD0F8
:10501C00236038BD940B00202DE9F047DFF87CA00D
:10502C000646DAF8000098460F469146FFF742FC18
:10503C001B4B1B68D3F8484124B365681F2D26DC35
:10504C005EB96B1C0235DAF80000636044F8257019
:10505C00FFF732FC0020BDE8F087012304EB85014B
:10506C00C1F88890D4F88821AB401A43022EC4F8BA
:10507C008821C1F80881E4D1D4F88C211343C4F8F9
:10508C008C31DEE703F5A674C3F84841D5E7DAF8AE
:10509C000000FFF711FC4FF0FF30DCE76808002040
:1050AC00205B0008002238B5064D044608462A60ED
:1050BC00FBF7C2FC431C00D038BD2B68002BFBD087
:1050CC00236038BD940B002070B500294BD00646E8
:1050DC000C4610B1836B002B48D0636ED80734D5C7
:1050EC00B4F90C30002B3ED021463046FEF784FF3D
:1050FC00E36A054633B13046E16998470028B8BFEA
:10510C004FF0FF35A3891A063BD4216B41B104F152
:10511C004003994202D03046FFF72CF90023236359
:10512C00616C21B13046FFF725F900236364FFF76A
:10513C00AFF80022636EA281DB0727D5A06DFFF7C5
:10514C00B7FBFFF7ABF8284670BDA3899905CBD404
:10515C00A06DFFF7AFFBB4F90C30002BC4D1656E1A
:10516C0015F0010508D00025284670BDFFF70AF898
:10517C00636ED807B4D4E8E7A06DFFF79DFB284613
:10518C0070BD30462169FFF7F5F8BEE7A06DFFF75B
:10519C0093FBD3E770B50026074D0446084611462D
:1051AC002E60FBF775FC431C00D070BD2B68002BE8
:1051BC00FBD0236070BD00BF940B0020002238B5DB
:1051CC00064D044608462A60FBF710FC431C00D031
:1051DC0038BD2B68002BFBD0236038BD940B00200E
:1051EC0038B50C46114600228446074D20462A60ED
:1051FC001A466446FBF72CFC431C00D038BD2B68C8
:10520C00002BFBD0236038BD940B002038B50C4626
:10521C00114600228446074D20462A601A466446F1
:10522C00FBF71EFC431C00D038BD2B68002BFBD0B9
:10523C00236038BD940B0020F8B500BFF8BC08BC47
:10524C009E467047F8B500BFF8BC08BC9E46704738
:10525C004D6F64653A204175746F2020000000008A
:10526C004D6F64653A204D616E75616C00000000F5
:10527C0046414E2F4D4F544F3A204F4646000000AA
:10528C0053544545523A204F46460000000000005A
:10529C0000000000002F00000000070007000014B1
:1052AC007F147F1400242A7F2A12006264081323BF
:1052BC0000364955225000000503000000001C2256
:1052CC004100000041221C000014083E0814000894
:1052DC00083E0808000000A0600000080808080844
:1052EC00000060600000002010080402003E5149DC
:1052FC00453E0000427F400000426151494600217A
:10530C0041454B31001814127F1000274545453993
:10531C00003C4A49493000017109050300364949EE
:10532C00493600064949291E0000363600000000A7
:10533C0056360000000814224100001414141414F2
:10534C00000041221408000201510906003249599B
:10535C00513E007C1211127C007F49494936003EB7
:10536C0041414122007F4141221C007F4949494172
:10537C00007F09090901003E4149497A007F08086C
:10538C00087F0000417F4100002040413F01007F29
:10539C0008142241007F40404040007F020C027FF5
:1053AC00007F0408107F003E4141413E007F090907
:1053BC000906003E4151215E007F0919294600462D
:1053CC00494949310001017F0101003F4040403F04
:1053DC00001F2040201F003F4038403F006314084E
:1053EC001463000708700807006151494543000029
:1053FC007F41410000552A552A55000041417F004C
:10540C000004020102040040404040400000010240
:10541C000400002054545478007F48444438003829
:10542C004444442000384444487F003854545418B1
:10543C0000087E0901020018A4A4A47C007F0804C3
:10544C0004780000447D4000004080847D00007F93
:10545C00102844000000417F4000007C04180478B0
:10546C00007C0804047800384444443800FC2424AC
:10547C0024180018242418FC007C08040408004894
:10548C005454542000043F444020003C4040207CB5
:10549C00001C2040201C003C4030403C00442810A4
:1054AC002844001CA0A0A07C004464544C44141458
:1054BC001414141400000000000000000000000090
:1054CC0000000000000000F80000000000000033A5
:1054DC003000000000100C06100C0600000000004C
:1054EC000000000040C07840C0784000043F040435
:1054FC003F040400007088FC08300000001820FFF6
:10550C00211E0000F008F000E018000000211C0330
:10551C001E211E0000F00888700000001E212324AC
:10552C001927211010160E000000000000000000CA
:10553C0000000000000000E018040200000000075A
:10554C001820400000020418E00000000040201861
:10555C0007000000404080F0804040000202010F34
:10556C0001020200000000F0000000000101011F18
:10557C0001010100000000000000000080B070007C
:10558C00000000000000000000000000000101010C
:10559C00010101010000000000000000003030009B
:1055AC000000000000000000806018040060180675
:1055BC000100000000E010080810E000000F1020AF
:1055CC0020100F00001010F8000000000020203FF9
:1055DC002020000000700808088870000030282483
:1055EC002221300000300888884830000018202024
:1055FC0020110E000000C02010F800000007042449
:10560C00243F240000F8088888080800001921208D
:10561C0020110E0000E0108888180000000F1120E7
:10562C0020110E0000380808C83808000000003FA0
:10563C00000000000070880808887000001C2221FF
:10564C0021221C0000E010080810E00000003122AC
:10565C0022110F00000000C0C0000000000000304C
:10566C00300000000000008000000000000080609E
:10567C00000000000000804020100800000102041F
:10568C000810200040404040404040000404040406
:10569C0004040400000810204080000000201008C2
:1056AC0004020100007048080808F00000000030F7
:1056BC0036010000C030C828E810E0000718272485
:1056CC0023140B000000C038E0000000203C230233
:1056DC000227382008F8888888700000203F202096
:1056EC0020110E00C03008080808380007182020C8
:1056FC002010080008F808080810E000203F2020BF
:10570C0020100F0008F88888E8081000203F20209F
:10571C002320180008F88888E8081000203F200093
:10572C0003000000C03008080838000007182020CB
:10573C00221E020008F808000008F808203F21018A
:10574C0001213F20000808F8080800000020203F35
:10575C002020000000000808F8080800C0808080A5
:10576C007F00000008F888C028180800203F20019E
:10577C002638200008F8080000000000203F2020F8
:10578C002020300008F8F800F8F80800203F003F0F
:10579C00003F200008F830C00008F808203F200027
:1057AC0007183F00E01008080810E0000F10202038
:1057BC0020100F0008F808080808F000203F21010D
:1057CC0001010000E01008080810E0000F18242464
:1057DC0038504F0008F8888888887000203F2000D7
:1057EC00030C30200070880808083800003820218D
:1057FC0021221C00180808F8080818000000203F97
:10580C002000000008F808000008F808001F2020FD
:10581C0020201F000878880000C8380800000738CE
:10582C000E010000F80800F80008F800033C07001F
:10583C00073C0300081868808068180820302C0387
:10584C00032C30200838C800C83808000000203F5E
:10585C002000000010080808C8380800203826214D
:10586C0020201800000000FE020202000000007F51
:10587C0040404000000C30C000000000000000015F
:10588C000638C00000020202FE000000004040404A
:10589C007F0000000000040202020400000000006F
:1058AC0000000000000000000000000080808080EC
:1058BC0080808080000202040000000000000000D4
:1058CC00000000000000808080800000001924226D
:1058DC0022223F2008F8008080000000003F1120A9
:1058EC0020110E000000008080800000000E1120AE
:1058FC0020201100000000808088F800000E11208C
:10590C0020103F200000808080800000001F222299
:10591C0022221300008080F0888888180020203F05
:10592C00202000000000808080808000006B949418
:10593C009493600008F8008080800000203F2100D4
:10594C0000203F2000809898000000000020203F9D
:10595C0020200000000000809898000000C080808B
:10596C00807F000008F8000080808000203F240227
:10597C002D302000000808F8000000000020203F17
:10598C00202000008080808080808000203F2000CC
:10599C003F20003F8080008080800000203F21005D
:1059AC0000203F200000808080800000001F20200D
:1059BC0020201F00808000808000000080FFA1203C
:1059CC0020110E000000008080808000000E11204D
:1059DC0020A0FF80808080008080800020203F21DC
:1059EC00200001000000808080808000003324248F
:1059FC0024241900008080E0808000000000001F3B
:105A0C00202000008080000000808000001F2020EB
:105A1C0020103F20808080000080808000010E30AC
:105A2C000806010080800080008080800F300C030D
:105A3C000C300F0000808000808080000020312E10
:105A4C000E312000808080000080808080818E70EC
:105A5C001806010000808080808080000021302C9E
:105A6C002221300000000000807C020200000000B7
:105A7C00003F40400002027C800000000040403F9C
:105A8C000000000000000000FF000000000000000B
:105A9C00FF000000E68EA5E694B6E7BC93E5AD9852
:105AAC00E6BAA2E587BA00002F6D79736D61727446
:105ABC006B69746368656E2F737562004D6F6465F6
:105ACC003A204175746F000046414E2F4D4F544F94
