:020000040800F2
:1000000000500020D9200008411B0008431B0008B5
:10001000451B0008471B0008491B000800000000A2
:100020000000000000000000000000004B1B000862
:100030004D1B0008000000004F1B0008511B00086A
:100040002121000821210008212100082121000888
:100050002121000821210008212100082121000878
:100060002121000821210008212100082121000868
:100070002121000821210008212100082121000858
:100080002121000821210008212100082121000848
:10009000212100082121000821210008591B000806
:1000A0002121000821210008212100082121000828
:1000B000751B0008851B0008951B000821210008FE
:1000C0002121000821210008212100082121000808
:1000D0002121000821210008A51B0008212100087A
:1000E0002121000821210008212100080000000032
:1000F0000000000000000000000000000000000000
:0C01000000000000000000005FF808F1A3
:1001100010B5054C237833B9044B13B10448AFF341
:1001200000800123237010BDD809002000000000CA
:10013000E4D8000808B5034B1BB103490348AFF3EB
:10014000008008BD00000000DC090020E4D80008A1
:10015000844641EA000313F0030349D1403A23D314
:100160000B6803604B6843608B688360CB68C36037
:100170000B6903614B6943618B698361CB69C3611F
:100180000B6A03624B6A43628B6A8362CB6AC36207
:100190000B6B03634B6B43638B6B8363CB6BC363EF
:1001A00040304031403ADBD230320BD30B68036031
:1001B0004B6843608B688360CB68C360103010313C
:1001C000103AF3D20C3205D351F8043B40F8043B0B
:1001D000043AF9D2043208D0D2071CBF11F8013B0F
:1001E00000F8013B01D30B8803806046704700BFD5
:1001F000082A13D38B07B1D010F00303AED0C3F19C
:100200000403D21ADB071CBF11F8013B00F8013BC5
:10021000A4D331F8023B20F8023B9FE7043AD9D33C
:10022000013A11F8013B00F8013BF9D20B78037059
:100230004B7843708B7883706046704781F0004143
:1002400002E000BF83F0004330B54FEA41044FEABB
:10025000430594EA050F08BF90EA020F1FBF54EA56
:10026000000C55EA020C7FEA645C7FEA655C00F0F2
:10027000E2804FEA5454D4EB5555B8BF6D420CDDC3
:100280002C4480EA020281EA030382EA000083EA46
:10029000010180EA020281EA0303362D88BF30BDE6
:1002A00011F0004F4FEA01314FF4801C4CEA11313C
:1002B00002D0404261EB410113F0004F4FEA03339B
:1002C0004CEA133302D0524263EB430394EA050F26
:1002D00000F0A780A4F10104D5F1200E0DDB02FA95
:1002E0000EFC22FA05F2801841F1000103FA0EF229
:1002F000801843FA05F359410EE0A5F120050EF1EF
:10030000200E012A03FA0EFC28BF4CF0020C43FA1F
:1003100005F3C01851EBE37101F0004507D54FF02C
:10032000000EDCF1000C7EEB00006EEB0101B1F57C
:10033000801F1BD3B1F5001F0CD349085FEA3000C2
:100340004FEA3C0C04F101044FEA445212F5800FCD
:1003500080F09A80BCF1004F08BF5FEA500C50F16A
:10036000000041EB045141EA050130BD5FEA4C0C4D
:10037000404141EB0101013C28BFB1F5801FE9D2AA
:1003800091F0000F04BF01460020B1FA81F308BFCD
:100390002033A3F10B03B3F120020CDA0C3208DD99
:1003A00002F1140CC2F10C0201FA0CF021FA02F174
:1003B0000CE002F11402D8BFC2F1200C01FA02F1E4
:1003C00020FA0CFCDCBF41EA0C019040E41AA2BF09
:1003D00001EB0451294330BD6FEA04041F3C1CDAD1
:1003E0000C340EDC04F11404C4F1200220FA04F0F1
:1003F00001FA02F340EA030021FA04F345EA03019B
:1004000030BDC4F10C04C4F1200220FA02F001FA5C
:1004100004F340EA0300294630BD21FA04F02946DE
:1004200030BD94F0000F83F4801306BF81F4801177
:100430000134013D4EE77FEA645C18BF7FEA655CEA
:1004400029D094EA050F08BF90EA020F05D054EABC
:10045000000C04BF1946104630BD91EA030F1EBFC1
:100460000021002030BD5FEA545C05D140004941C5
:1004700028BF41F0004130BD14F580043CBF01F5B8
:10048000801130BD01F0004545F0FE4141F470019E
:100490004FF0000030BD7FEA645C1ABF1946104679
:1004A0007FEA655C1CBF0B46024650EA013406BF7A
:1004B00052EA033591EA030F41F4002130BD00BF39
:1004C00090F0000F04BF0021704730B54FF48064F6
:1004D00004F132044FF000054FF0000150E700BF77
:1004E00090F0000F04BF0021704730B54FF48064D6
:1004F00004F1320410F0004548BF40424FF00001C3
:100500003EE700BF42004FEAE2014FEA31014FEA05
:1005100002701FBF12F07F4393F07F4F81F0605154
:10052000704732F07F4208BF704793F07F4F04BF9F
:1005300041F40021704730B54FF4607401F000457C
:1005400021F000411CE700BF50EA010208BF7047DC
:1005500030B54FF000050AE050EA010208BF7047CD
:1005600030B511F0004502D5404261EB41014FF436
:10057000806404F132045FEA915C3FF4D8AE4FF03E
:1005800003025FEADC0C18BF03325FEADC0C18BF21
:10059000033202EBDC02C2F1200300FA03FC20FA72
:1005A00002F001FA03FE40EA0E0021FA02F11444BF
:1005B000BDE600BF70B54FF0FF0C4CF4E06C1CEAD8
:1005C00011541DBF1CEA135594EA0C0F95EA0C0F49
:1005D00000F0DEF82C4481EA030621EA4C5123EABC
:1005E0004C5350EA013518BF52EA033541F48011EB
:1005F00043F4801338D0A0FB02CE4FF00005E1FB9E
:1006000002E506F00042E0FB03E54FF00006E1FBE7
:1006100003569CF0000F18BF4EF0010EA4F1FF042A
:10062000B6F5007F64F5407404D25FEA4E0E6D416A
:1006300046EB060642EAC62141EA55514FEAC5207B
:1006400040EA5E504FEACE2EB4F1FD0C88BFBCF5F7
:10065000E06F1ED8BEF1004F08BF5FEA500E50F1A8
:10066000000041EB045170BD06F0004646EA01016E
:1006700040EA020081EA0301B4EB5C04C2BFD4EBA0
:100680000C0541EA045170BD41F480114FF0000E99
:10069000013C00F3AB8014F1360FDEBF002001F007
:1006A000004170BDC4F10004203C35DA0C341BDC81
:1006B00004F11404C4F1200500FA05F320FA04F053
:1006C00001FA05F240EA020001F0004221F0004187
:1006D00010EBD37021FA04F642EB06015EEA430EFA
:1006E00008BF20EAD37070BDC4F10C04C4F120052A
:1006F00000FA04F320FA05F001FA04F240EA0200DD
:1007000001F0004110EBD37041F100015EEA430EAD
:1007100008BF20EAD37070BDC4F1200500FA05F2CD
:100720004EEA020E20FA04F301FA05F243EA02034C
:1007300021FA04F001F0004121FA04F220EA02005B
:1007400000EBD3705EEA430E08BF20EAD37070BDA1
:1007500094F0000F0FD101F00046400041EB010181
:1007600011F4801F08BF013CF7D041EA060195F063
:10077000000F18BF704703F00046520043EB03031D
:1007800013F4801F08BF013DF7D043EA060370470A
:1007900094EA0C0F0CEA135518BF95EA0C0F0CD015
:1007A00050EA410618BF52EA4306D1D181EA03015B
:1007B00001F000414FF0000070BD50EA410606BF55
:1007C0001046194652EA430619D094EA0C0F02D19A
:1007D00050EA013613D195EA0C0F05D152EA0336DF
:1007E0001CBF104619460AD181EA030101F00041FD
:1007F00041F0FE4141F470014FF0000070BD41F046
:10080000FE4141F4780170BD70B54FF0FF0C4CF41F
:10081000E06C1CEA11541DBF1CEA135594EA0C0F3E
:1008200095EA0C0F00F0A7F8A4EB050481EA030E8B
:1008300052EA03354FEA013100F088804FEA033372
:100840004FF0805545EA131343EA12634FEA022240
:1008500045EA111545EA10654FEA00260EF0004101
:100860009D4208BF964244F1FD0404F5407402D253
:100870005B084FEA3202B61A65EB03055B084FEAE4
:1008800032024FF480104FF4002CB6EB020E75EBE1
:10089000030E22BFB61A754640EA0C005B084FEA09
:1008A0003202B6EB020E75EB030E22BFB61A754686
:1008B00040EA5C005B084FEA3202B6EB020E75EBD1
:1008C000030E22BFB61A754640EA9C005B084FEA49
:1008D0003202B6EB020E75EB030E22BFB61A754656
:1008E00040EADC0055EA060E18D04FEA051545EA45
:1008F00016754FEA06164FEAC30343EA52734FEAEE
:10090000C2025FEA1C1CC0D111F4801F0BD141EA66
:1009100000014FF000004FF0004CB6E711F4801FCB
:1009200004BF01430020B4F1FD0C88BFBCF5E06FAB
:100930003FF6AFAEB5EB030C04BFB6EB020C5FEABB
:10094000500C50F1000041EB045170BD0EF0004E10
:100950004EEA113114EB5C04C2BFD4EB0C0541EA42
:10096000045170BD41F480114FF0000E013C90E63F
:1009700045EA060E8DE60CEA135594EA0C0F08BF03
:1009800095EA0C0F3FF43BAF94EA0C0F0AD150EA02
:1009900001347FF434AF95EA0C0F7FF425AF104695
:1009A00019462CE795EA0C0F06D152EA03353FF4BD
:1009B000FDAE1046194622E750EA410618BF52EA3A
:1009C00043067FF4C5AE50EA41047FF40DAF52EA0E
:1009D00043057FF4EBAE12E74FF0FF3C06E000BFAB
:1009E0004FF0010C02E000BF4FF0010C4DF804CDB8
:1009F0004FEA410C7FEA6C5C4FEA430C18BF7FEA78
:100A00006C5C1BD001B050EA410C0CBF52EA430CA5
:100A100091EA030F02BF90EA020F0020704710F125
:100A2000000F91EA030F58BF994208BF90422CBFB4
:100A3000D8176FEAE37040F0010070474FEA410CAD
:100A40007FEA6C5C02D150EA013C07D14FEA430CCB
:100A50007FEA6C5CD6D152EA033CD3D05DF8040B3C
:100A6000704700BF8446104662468C46194663466E
:100A700000E000BF01B5FFF7B7FF002848BF10F145
:100A8000000F01BD4DF808EDFFF7F4FF0CBF01208A
:100A900000205DF808FB00BF4DF808EDFFF7EAFF06
:100AA00034BF012000205DF808FB00BF4DF808EDC1
:100AB000FFF7E0FF94BF012000205DF808FB00BFB6
:100AC0004DF808EDFFF7CEFF94BF012000205DF840
:100AD00008FB00BF4DF808EDFFF7C4FF34BF01204D
:100AE00000205DF808FB00BF4FEA410C7FEA6C5C18
:100AF00002D150EA013C0AD14FEA430C7FEA6C5C18
:100B000002D152EA033C02D14FF0000070474FF08F
:100B1000010070474FEA410212F5001215D211D5BB
:100B20006FF47873B3EB625212D94FEAC12343F0EA
:100B3000004343EA505311F0004F23FA02F018BF6C
:100B4000404270474FF00000704750EA013005D135
:100B500011F0004008BF6FF0004070474FF00000F8
:100B6000704700BF53B94AB9002908BF00281CBF0D
:100B70004FF0FF314FF0FF3000F076B9ADF1080CC7
:100B80006DE904CE00F006F8DDF804E0DDE90223AB
:100B900004B070472DE9F047089E0D46044688468C
:100BA000002B4DD18A42944668D9B2FA82F252B1F2
:100BB00001FA02F3C2F1200120FA01F10CFA02FC61
:100BC00041EA030894404FEA1C41B8FBF1F71FFAD1
:100BD0008CFE01FB178807FB0EF0230C43EA084349
:100BE00098420AD91CEB030307F1FF3580F01E8100
:100BF000984240F21B81023F63441B1AB3FBF1F0A1
:100C000001FB103300FB0EFEA4B244EA0344A645E8
:100C10000AD91CEB040400F1FF3380F00981A645DA
:100C200040F20681644402380021A4EB0E0440EA3D
:100C300007401EB10023D440C6E90043BDE8F08759
:100C40008B4208D9002E00F0EE800021C6E9000595
:100C50000846BDE8F087B3FA83F100294AD1AB42D8
:100C600002D3824200F2FC80841A65EB0303012068
:100C70009846002EE2D0C6E90048DFE702B9FFDE61
:100C8000B2FA82F2002A40F09180A1EB0C0001211F
:100C90004FEA1C471FFA8CFEB0FBF7F307FB13006B
:100CA000250C45EA00450EFB03F0A84208D91CEBD1
:100CB000050503F1FF3802D2A84200F2CE80434678
:100CC0002D1AB5FBF7F007FB10550EFB00FEA4B282
:100CD00044EA0544A64508D91CEB040400F1FF359D
:100CE00002D2A64500F2B6802846A4EB0E0440EAE4
:100CF00003409EE7C1F120078B4022FA07FC4CEA33
:100D0000030C25FA07FA4FEA1C49BAFBF9F820FA56
:100D100007F309FB18AA8D401FFA8CFE1D4300FA49
:100D200001F308FB0EF02C0C44EA0A44A04202FA3C
:100D300001F20BD91CEB040408F1FF3A80F0888023
:100D4000A04240F28580A8F102086444241AB4FB52
:100D5000F9F009FB104400FB0EFEADB245EA044475
:100D6000A64508D91CEB040400F1FF356CD2A6455A
:100D70006AD90238644440EA0840A0FB0295A4EB1B
:100D80000E04AC42C846AE4656D353D0002E69D0AE
:100D9000B3EB080264EB0E0422FA01F304FA07F73E
:100DA0001F43CC40C6E90074002147E70CFA02FC5F
:100DB000C2F1200125FA01F34FEA1C4720FA01F1A4
:100DC00095400D43B3FBF7F107FB11331FFA8CFE7F
:100DD000280C40EA034001FB0EF3834204FA02F4BC
:100DE00008D91CEB000001F1FF382FD283422DD926
:100DF00002396044C01AB0FBF7F307FB1300ADB231
:100E000045EA004503FB0EF0A84208D91CEB050596
:100E100003F1FF3816D2A84214D9023B6544281AC0
:100E200043EA014138E73146304607E72F46E4E61A
:100E30001846F9E64B45A9D2B9EB020865EB0C0E52
:100E40000138A3E74346EAE7284694E74146D1E75D
:100E5000D0467BE76444023847E7023B65442FE70E
:100E6000084606E73146E9E6704700BF08B50122AB
:100E70000221024801F0FBFE08BD00BF000C01404A
:100E800030B583B0002501950C24009402232B4A31
:100E9000127806210A2000F0C1FA0195009402237D
:100EA000274A12780621322000F0B8FA0195009402
:100EB0000323244A128806215A2000F0AFFA224B5D
:100EC0001B78DBB2012B20D0002000900C231F4A9E
:100ED000014600F06FFA1E4B1B78DBB2012B1CD0D1
:100EE000002000900C231B4A022100F063FA1A4BE9
:100EF0001B78DBB2012B18D0002000900C23174A7E
:100F0000042100F057FA03B030BD2846009523466F
:100F1000134A294600F04EFADDE7002000900C232A
:100F2000104A022100F046FAE1E7002000900C236D
:100F30000D4A042100F03EFAE5E700BF0200002060
:100F400001000020F80900200000002010D900084E
:100F5000F609002030D90008F509002050D9000812
:100F600000D9000820D9000840D900087047F8B51A
:100F700006464FF0E0239C6901F018F9054606EBA0
:100F8000C606F700B4EBC60F0ED201F00FF9A84267
:100F9000FBD0E41B04F58C3303F5A0734FF0E02283
:100FA00092699A42FAD8F8BDE41B4FF0E0239B699E
:100FB000A342F8D901F0FAF8A842F6D0F3E700000E
:100FC00000B585B00023009301930293039301239E
:100FD000009301930293032303936946024801F0AF
:100FE0002DFD05B05DF804FB000C014000B585B097
:100FF000002300930193029303930123009303239F
:1010000003936946024801F019FD05B05DF804FB41
:10101000000C014010B5FFF7D3FF094C002201215D
:10102000204601F024FE142001F0C6F801221146EA
:10103000204601F01CFE1E20FFF799FF10BD00BFE7
:10104000000C014010B5FFF7D1FF00240121124828
:1010500001F006FE38B1632C05D80134E4B201205A
:10106000FFF785FFF2E7632C11D8002404E0013478
:10107000E4B20120FFF77BFF0121074801F0F0FDFA
:1010800008B9632CF3D9632C03D8002010BD0120CC
:10109000FCE70120FAE700BF000C014038B500254D
:1010A00004E00135EDB20120FFF761FF01210F4897
:1010B00001F0D6FD044640B1632DF2D9002404E0CE
:1010C0000134E4B20120FFF752FF0121074801F08B
:1010D000C7FD08B9632CF3D92820FFF748FF012189
:1010E000024801F0BDFD00B1012038BD000C0140F7
:1010F00038B50020054607E04000C4B2FFF7CEFF38
:101100002043C0B20135EDB2072DF5D938BDF0B599
:1011100083B005460E46FFF77DFFFFF793FF10B93A
:10112000074604460AE0012719E0FFF7E1FF04F152
:1011300008036B4403F8080C0134E4B2042CF4D91E
:101140009DF800109DF801300B449DF802201344D7
:101150009DF8030003449DF80400834202D0384602
:1011600003B0F0BD31702A70F9E7000008B52028FF
:1011700006D0B0F5807F0AD0B0F5007F12D008BD50
:101180000A4A1378C3F10103DBB21370F7E7074B88
:101190001B78002BF3D1002000F08EF9044B0022C5
:1011A0001A70ECE75A2000F0ABF9E8E700000020E5
:1011B000F509002010B50A4C204601F0BFF9642162
:1011C000204601F00DF8204601F072F910F4007F7E
:1011D00001D1002010BD204601F0C4F880B2F9E72B
:1011E000FC09002000B587B08DF817004FF480731C
:1011F0000293012301930DF117020092002278213E
:10120000024801F0D3FF07B05DF804FB2C0A002070
:1012100010B5C82000F0D0FF002405E0044B185D95
:10122000FFF7E0FF0134E4B2162CF7D910BD00BF80
:101230000400002000B587B08DF817004FF48073CC
:101240000293012301930DF11702009240227821AD
:10125000024801F0ABFF07B05DF804FB2C0A002048
:1012600038B5002509E00020FFF7E4FF0134E4B2BF
:1012700014F0800FF7D00135EDB2072D0CD8A5F191
:101280005000C0B2FFF7AEFF0020FFF7ABFF102009
:10129000FFF7A8FF0024EBE738BD10B50446A1F125
:1012A0005000C0B2FFF79EFF200940F01000FFF78A
:1012B00099FF04F00F00FFF795FF10BD02460120D3
:1012C00002E002FB00F019464B1EDBB20029F8D108
:1012D000704700002DE9F04180460F469DF81860E8
:1012E000203AD5B210F0800F07D1102B0AD0394622
:1012F0004046FFF7D2FF002447E00237FFB24FF02D
:101300000008F2E739464046FFF7C7FF002407E030
:1013100004EB0513254AD05CFFF78CFF0134E4B2DF
:10132000072C0AD8002EF3D004EB05131F4AD05C1B
:10133000C043C0B2FFF77EFFF0E7791CC9B2404658
:10134000FFF7ABFF002408E004EB05130833174A4E
:10135000D05CFFF76FFF0134E4B2072C24D8002ED5
:10136000F2D004EB05130833104AD05CC043C0B27E
:10137000FFF760FFEFE705EB45030D4A02EB430380
:10138000185DFFF757FF0134E4B2052C0CD8002E8E
:10139000F1D005EB4503064A02EB4303185DC04359
:1013A000C0B2FFF747FFEEE7BDE8F08188DB000839
:1013B00060D900082DE9F04383B004460E46174675
:1013C0001D469DF828804FF0000909E00634E4B27C
:1013D00014E00136F6B2002409F101005FFA80F949
:1013E00017F80920B2B1CDF800802B4631462046CF
:1013F000FFF770FF0C2DE9D00834E4B27A2C01D944
:101400000C2DE6D0782CE7D9102DE5D10136F6B2B7
:101410000024E1E703B0BDE8F08300002DE9F04FC0
:1014200083B08246894690461D469DF830609DF8FF
:1014300034B000273C461DE0700804FB00F0C0B249
:101440005044CDF800B0334620224946C0B2FFF7E1
:1014500041FF0DE0700804FB00F0C0B23032504490
:10146000CDF800B03346D2B24946C0B2FFF732FFE2
:101470000134E4B2AC421AD2291BC9B20139C9B253
:101480000A20FFF71BFFB8FBF0F00A4AA2FB00326C
:10149000D20802EB8202A0EB4202D2B2002FD9D1D5
:1014A0006B1E9C42D6DA002AC6D00127D2E703B0D1
:1014B000BDE8F08FCDCCCCCC10B570B10E4C012274
:1014C0001021204601F0D3FB01222021204601F00B
:1014D000CEFB0A4B01221A7010BD074C00221021CE
:1014E000204601F0C4FB00222021204601F0BFFB72
:1014F000024B00221A70EFE700080140F5090020B6
:10150000084B1B6800F13202DA63322802D05A28F5
:1015100004D07047044B01221A70F8E7024B0022F6
:101520001A70F6E7D00A0020F609002008B5082155
:10153000034802F07DFE5A20FFF7E2FF08BD00BF1E
:10154000D00A002000B585B00023019302930393D5
:101550001148124A02608360037303754FF46022DE
:10156000C26143600123036101F088F868B9072371
:101570000193012302930023039301A9064800F07D
:10158000F5FE28B905B05DF804FB00F05BF9EEE765
:1015900000F058F9F6E700BFFC09002000240140E4
:1015A00000B587B000230293039304930593026868
:1015B000114B9A4202D007B05DF804FB03F56C436F
:1015C0009A6942F400729A619A6902F40072009278
:1015D000009A9A6942F004029A619B6903F004033D
:1015E0000193019B802302930323039302A90348E1
:1015F00001F024FADFE700BF0024014000080140A9
:101600002DE9F04389B000240494059406940794CE
:10161000464B9A6942F010029A619A6902F01002F0
:101620000092009A9A6942F020029A619A6902F047
:1016300020020192019A9A6942F004029A619A6921
:1016400002F004020292029A9A6942F008029A6138
:101650009B6903F008030393039BDFF8D4900122F6
:101660004FF40051484601F002FBDFF8C8802246E3
:101670003221404601F0FBFA2F4F01221146384635
:1016800001F0F5FA22460A21384601F0F0FA4FF44B
:10169000005304930125059506940226079604A994
:1016A000484601F0CBF9222304930595069407964A
:1016B00004A9404601F0C2F910230493059506954C
:1016C00007960DEB0301404601F0B8F90495059526
:1016D00006950323079304A9384601F0AFF9049651
:1016E00005950696079604A9384601F0A7F9082340
:1016F000049305950694079604A9384601F09EF9CF
:101700004FF4487304930D4B0593069504A938468E
:1017100001F094F922462146172001F0C5F8172060
:1017200001F0FAF809B0BDE8F08300BF00100240F4
:101730000010014000080140000C014000001110A1
:1017400008B50B480B4B03600B4B436000238360D1
:10175000C3604FF48042026143618361C3610362ED
:1017600001F046FC00B908BD00F06CF8FBE700BFD3
:101770002C0A002000540040A086010010B586B05D
:10178000002302930393049305930268114B9A423A
:1017900001D006B010BD104CA36943F00803A3614B
:1017A000A36903F008030093009BC0230293122354
:1017B00003930323059302A9084801F03FF9E36965
:1017C00043F40013E361E36903F400130193019B05
:1017D000DFE700BF0054004000100240000C014051
:1017E00008B5114804F0B4F9104B1B887F2B0CD8B6
:1017F000591C0E4A11800E4A11780E4AD15401220A
:101800000B490D4803F085F908BD0021074B1980ED
:101810008022084804F0DCF84FF6FF730A220749DB
:10182000074802F0C7FEEAE768E10008BC0C0020A8
:10183000C00C00203C0C0020F00B002070E10008E0
:10184000A80B002072B6FEE700B595B02822002153
:101850000DEB020004F0BCF80023059306930793F8
:1018600008930993019302930393049301220A922C
:101870004FF480330B930E920222119212934FF485
:10188000E01313930AA801F059FDC8B90F2305937B
:1018900002210691002307934FF480620892099376
:1018A00005A801F07DFF68B9022301934FF40043BE
:1018B000039301A802F050F830B915B05DF804FBAD
:1018C000FFF7C0FFFFF7BEFFFFF7BCFF10B584B006
:1018D000404B039300F04CFCFFF7B6FFFFF790FE80
:1018E00000F02CFBFFF72CFF00F09AF900F0E4FA6F
:1018F00000F03EFBFFF726FE00F0CAF900F006FA02
:10190000354800F08BF8FFF7B1FAFFF781FCFFF7DD
:10191000A7FCFFF70BFE314804F01AF90122304909
:10192000304803F0F6F803F03BFC01E003F086FBDF
:1019300003F0BAFC0028F9D1012103A803F038FD17
:10194000002400940C23284A21462046FFF732FD4C
:1019500000940C23254A02212046FFF72BFD00941A
:101960000C23234A04212046FFF724FD00940C2376
:10197000204A07210A20FFF71DFD00940C231E4A70
:1019800007213220FFF716FD00940C231B4A072184
:101990005A20FFF70FFD1A4804F0DAF807E04FF479
:1019A0000051184801F069F9642000F005FC164860
:1019B00000F0E8FEFFF7FEFB144B188014491548B1
:1019C000FFF7A5FBFFF75CFA134B1B78DBB2012B8B
:1019D000E5D0E9E784E10008A80B002098E10008C1
:1019E000C00C0020F00B002000D9000830D90008FE
:1019F00050D90008ACE10008B0E10008B4E10008EB
:101A0000B8E1000800100140FC090020F80900209E
:101A10000100002002000020F409002008B5054B59
:101A20001860054B1868002302221946806804F0EC
:101A3000A9F808BD800A002028000020022801D84B
:101A40000120704708B503F0DDFC09230360002086
:101A500008BD000010B5013801280AD814464FF01F
:101A6000FF3392B20748006802F0A4FD40B9204657
:101A700010BD03F0C7FC092303604FF0FF30F7E708
:101A80000520F5E7800A0020022801D800207047D1
:101A900008B503F0B7FC092303604FF0FF3008BD21
:101AA00008B503F0AFFC092303604FF0FF3008BD19
:101AB00008B548B94FF0FF3301220848006802F02A
:101AC000D8FD40B9012008BD03F09CFC0923036048
:101AD0004FF0FF30F7E70520F5E700BF800A002050
:101AE00008B5022804D84FF400534B60002008BD0D
:101AF00003F088FC09230360F8E7000082B00E4B76
:101B00009A6942F001029A619A6902F00102009218
:101B1000009ADA6942F08052DA61DB6903F080539F
:101B20000193019B054A536823F0E06343F000737F
:101B3000536002B0704700BF001002400000014037
:101B4000FEE7FEE7FEE7FEE7FEE7704770477047F7
:101B500008B500F01FFB08BD08B5202001F096F87D
:101B60004FF4807001F092F84FF4007001F08EF89D
:101B700008BD000008B5024802F0D0F808BD00BF5B
:101B8000D00A002008B5024802F0C8F808BD00BF1E
:101B9000180B002008B5024802F0C0F808BD00BFCD
:101BA000600B002008B5024802F054FE08BD00BFDB
:101BB000F00B00200120704708B503F023FC16232A
:101BC00003604FF0FF3008BD08B54FF0FF31FFF75D
:101BD000F3FFFEE710B503460C4A0D490D480068B7
:101BE00040B10C4800680344521A934206D8094A8F
:101BF000136010BD0748084C0460F2E703F002FCD4
:101C00000C2303604FF0FF30F3E700BF00500020CB
:101C100000040000840A0020100D0020704700001E
:101C200000B587B0002302930393049305930093B8
:101C300001931548154A02604722426083604FF6BF
:101C4000FF72C26003614361836102F05FF990B982
:101C50004FF48053029302A90B4802F05BFA68B973
:101C60000023009301936946074802F04FFB40B9F7
:101C700007B05DF804FBFFF7E5FDE9E7FFF7E2FDDC
:101C8000EEE7FFF7DFFDF3E7880A0020002C0140B4
:101C900010B586B000230293039304930593009339
:101CA00001931848184A026040F2CF2242608360D4
:101CB00040F2CF72C2600361836102F027F9C0B9BC
:101CC0004FF48053029302A90E4802F023FA98B908
:101CD00000230093019369460A4802F017FB70B98C
:101CE000084C204602F012F9204601F0DFFF06B052
:101CF00010BDFFF7A7FDE3E7FFF7A4FDE8E7FFF757
:101D0000A1FDEDE7180B00200004004010B586B0DF
:101D100000230293039304930593009301931848BF
:101D2000184A026040F2CF224260836042F20F7292
:101D3000C2600361836102F0E9F8C0B94FF48053D7
:101D4000029302A90E4802F0E5F998B90023009326
:101D5000019369460A4802F0D9FA70B9084C204646
:101D600002F0D4F8204601F0A1FF06B010BDFFF745
:101D700069FDE3E7FFF766FDE8E7FFF763FDEDE7E1
:101D8000600B00200008004000B585B003681E4AC3
:101D9000934208D01D4A934210D01D4A934220D04E
:101DA00005B05DF804FB1B4B9A6942F400629A612E
:101DB0009B6903F400630193019BF1E7154BDA691A
:101DC00042F00202DA61DB6903F002030293029B34
:101DD000002211461D2000F067FD1D2000F09CFD33
:101DE000DEE70C4BDA6942F00402DA61DB6903F0EA
:101DF00004030393039B002211461E2000F054FDB0
:101E00001E2000F089FDCBE7002C014000040040BB
:101E100000080040001002400368B3F1804F00D07A
:101E2000704700B583B003F50433DA6942F001026C
:101E3000DA61DB6903F001030193019B0022114683
:101E40001C2000F031FD1C2000F066FD03B05DF8A1
:101E500004FB000000B587B00023029303930493B2
:101E600005930368B3F1804F02D007B05DF804FB1F
:101E700003F504339A6942F008029A619B6903F002
:101E800008030193019B4FF48063029302230393A1
:101E9000059302A9064800F0D1FD064A536823F4D1
:101EA000407343F0E06343F400735360DDE700BF29
:101EB000000C01400000014000B58BB000230893E6
:101EC0000993019302930393049305930693079355
:101ED00019484FF08042026040F2CF224260836096
:101EE00040F2CF72C2600361836102F03BF8C8B96F
:101EF00000230893099308A90F4802F007FAA0B934
:101F0000602301930023029303930593082201A900
:101F1000094802F085F858B90748FFF79BFF0BB056
:101F20005DF804FBFFF78EFCE2E7FFF78BFCE7E7C9
:101F3000FFF788FCF0E700BFD00A002008B50A4888
:101F40000A4B03604FF4E133436000238360C360B6
:101F500003610C2242618361C36102F0FBFA00B9A4
:101F600008BDFFF76FFCFBE7A80B0020003801401D
:101F700008B51148114B03604FF4E133436000236F
:101F80008360C36003610C2242618361C36102F01C
:101F9000E1FA70B900220521262000F085FC2620F8
:101FA00000F0BAFC044B1A68D36843F02003D360F6
:101FB00008BDFFF747FCEDE7F00B002000440040B0
:101FC00030B589B000230493059306930793036803
:101FD000304A934204D0304A93422BD009B030BDEE
:101FE0002E4B9A6942F480429A619A6902F48042C7
:101FF0000092009A9A6942F004029A619B6903F088
:1020000004030193019B4FF400730493022305938F
:1020100003230793224C04A9204600F00FFD4FF440
:102020008063049300230593069304A9204600F0DF
:1020300005FDD3E7194BDA6942F40032DA61DA6957
:1020400002F400320292029A9A6942F004029A6102
:102050009B6903F004030393039B0423049302236B
:102060000593032307930E4D04A9284600F0E6FCD0
:102070000823049300240594069404A9284600F03C
:10208000DDFC22462146262000F00EFC262000F032
:1020900043FCA3E700380140004400400010024028
:1020A0000008014084B070B504AC84E80F001699B4
:1020B000BDF85C60002409E04D1C4FF0FF330122A5
:1020C00004A802F077FA0134A4B22946B442F3D34B
:1020D000BDE8704004B07047FFF7A0FD0B480C4905
:1020E0000C4A002302E0D458C4500433C4188C4274
:1020F000F9D3094A094C002301E013600432A242DB
:10210000FBD303F085F9FFF7E1FB704700000020E7
:10211000D8090020B8E80008D80900200C0D0020DC
:10212000FEE7000010B504460E4B18784FF47A73A2
:10213000B3FBF0F30C4A1068B0FBF3F000F0FAFBCD
:1021400068B90F2C01D901200AE0002221464FF086
:10215000FF3000F0A9FB054B1C60002000E00120CF
:1021600010BD00BF200000201C0000202400002023
:1021700008B5074A136843F010031360032000F00A
:1021800081FB0F20FFF7CEFFFFF7B8FC002008BD52
:1021900000200240034A1168034B1B780B44136074
:1021A000704700BF380C002020000020014B186849
:1021B000704700BF380C002038B50446FFF7F6FF23
:1021C0000546B4F1FF3F02D0044B1B781C44FFF7D7
:1021D000EDFF401BA042FAD338BD00BF2000002015
:1021E000F0B583B005460C4600230193FFF7DEFFF0
:1021F0002B689A6812F4807F23D107465A6812F43C
:10220000807F03D1DB6A13F4700F29D0504B1E6816
:10221000022001F02DFCB6FBF0F62B6819694D4A3F
:10222000114236D1D96802F15C42114231D11969AB
:10223000494A114240D1DA68484B1A423ED029201F
:1022400041E0AB6A43F02003AB62002385F8243001
:10225000012003B0F0BD2B681B6813F0020F0FD0F4
:102260002B681B6813F0020F4FD1B4F1FF3FF7D07A
:10227000002CF0D0FFF79AFFC31BA342F0D9EAE786
:10228000AB6A43F00403AB62002385F824300320DB
:10229000DFE71969304A114204D1D96802F16E4270
:1022A00011420DD019692E4A0A405AB9DA682C4BEE
:1022B00013405BB1FC2006E0292004E0142002E07A
:1022C000542000E0FC2000FB06F607E05420FAE76B
:1022D000019BB34210D3019B01330193019BB34295
:1022E00013D2B4F1FF3FF6D0002CF1D0FFF75EFF20
:1022F000C01BA042EFD9EBE7AB6A43F00403AB622B
:10230000002385F824300320A3E72B686FF0120226
:102310001A60AB6A43F40073AB622B689B6803F4EA
:102320006023B3F5602F01D0002092E7287B60B9CD
:10233000AB6A23F48073AB62AB6A13F4805F88D11D
:10234000AB6A43F00103AB6283E7002081E700BF83
:102350001C0000202449922492244912922449000E
:10236000499224000368D86C7047000030B482B0F2
:102370000022019290F82420012A00F09180034667
:10238000012280F824204A68062A2DD80468606B50
:1023900002EB8202053A4FF01F0C0CFA02FC20EA15
:1023A0000C000D6805FA02F2024362630A68092A0A
:1023B0003AD91C68E06802EB42021E3A4FF0070C63
:1023C0000CFA02FC20EA0C008D6805FA02F20243C6
:1023D000E2600A68103A012A36D90020002283F808
:1023E000242002B030BC70470C2A0ED80568286B38
:1023F00002EB8202233A1F24944020EA04000C6876
:1024000004FA02F202432A63D0E70568E86A02EBA5
:102410008202413A1F24944020EA04000C6804FA26
:1024200002F20243EA62C1E71C68206902EB420241
:102430004FF0070C0CFA02FC20EA0C008D6805FA3C
:1024400002F202432261C4E71A681648824205D0AC
:102450009A6A42F020029A620120BFE7906810F465
:10246000000F1BD1906840F4000090600A68102AA9
:1024700001D00020B2E70C4A12680C49A1FB0212FD
:10248000920C02EB82025200019202E0019A013AA0
:102490000192019A002AF9D100209FE700209DE7D0
:1024A00002209EE7002401401C00002083DE1B4325
:1024B000806A704730B583B00023019303689A683F
:1024C00012F0010F33D104469A6842F001029A607B
:1024D000184B1B68184AA2FB03239B0C019302E0D4
:1024E000019B013B0193019B002BF9D1FFF75EFE9D
:1024F000054623689B6813F0010F16D1FFF756FEBF
:10250000431B022BF5D923689B6813F0010FF0D110
:10251000A36A43F01003A362E36A43F00103E3629A
:10252000002384F82430012002E0002000E0002095
:1025300003B030BD1C00002083DE1B4390F8243024
:10254000012B68D010B50446012380F82430FFF732
:10255000B1FF00285BD1A36A23F4407323F0010389
:1025600043F48073A36223682C4A934227D0A26A63
:1025700022F48012A2625A6812F4806F05D0A26A17
:1025800022F4405242F48052A262A26A12F4805FA6
:102590002BD0E26A22F00602E262002284F82420B4
:1025A0006FF002021A6023689A6802F46022B2F5A2
:1025B000602F1DD09A6842F480129A602AE0A2F53A
:1025C0008062526812F4702FD1D0A26A42F4801255
:1025D000A262134A526812F4806FD6D0A26A22F423
:1025E000405242F48052A262CFE70022E262D4E776
:1025F0000A4A934204D09A6842F4A0029A6009E021
:10260000A2F58062526812F4702FD3D1F3E7002351
:1026100084F8243010BD0220704700BF002801401C
:102620000024014038B503689A6812F0010F01D107
:10263000002038BD04469A6822F001029A60FFF734
:10264000B5FD054623689B6813F0010F13D0FFF713
:10265000ADFD431B022BF5D923689B6813F0010FD6
:10266000F0D0A36A43F01003A362E36A43F00103CE
:10267000E3620120DDE70020DBE7000000287BD0DB
:1026800070B50446836A002B4DD02046FFF7CAFF81
:10269000A36A13F0100369D1002867D1A26A22F45B
:1026A000885222F0020242F00202A2626268E169EC
:1026B0000A43217B42EA4102A568B5F5807F02D03A
:1026C000012D36D01D46267D012E35D02668716835
:1026D00021F46941294371602568AE68274931407A
:1026E0001143A960A168B1F5807F01D0012902D111
:1026F0002369013B1B052568E96A21F470010B433E
:10270000EB62236899681E4B0B409A4225D0A36A5E
:1027100023F0120343F01003A362E36A43F00103C2
:10272000E362012027E0C36280F82430FEF738FF1F
:10273000ABE74FF48075C6E731B9A169013945EAC5
:10274000413141F40065C1E7A16A41F02001A16275
:10275000E16A41F00101E162B8E70023E362A36AA4
:1027600023F0030343F00103A36204E0A36A43F0F0
:102770001003A362012070BD01207047FDF7E1FF47
:10278000FE0E1FFF70B582B00023019390F8243035
:10279000012B72D00446012380F82430FFF742FF5A
:1027A0002046FFF787FE054628B1002384F8243031
:1027B000284602B070BDA36A23F4885323F00203B5
:1027C00043F00203A3622E4B1E68022001F050F971
:1027D000B6FBF0F67600019602E0019B013B019307
:1027E000019B002BF9D12268936843F008039360A2
:1027F000FFF7DCFC064623689A6812F0080F14D035
:10280000FFF7D4FC801B0A28F5D923689B6813F0D6
:10281000080FF0D0A36A23F0120343F01003A36261
:10282000002384F824300125C2E79A6842F00402AC
:102830009A60FFF7BBFC064623689B6813F0040F01
:1028400014D0FFF7B3FC801B0A28F5D923689B68D6
:1028500013F0040FF0D0A36A23F0120343F0100327
:10286000A362002384F824300125A1E7A36A23F0A2
:10287000030343F00103A36297E7022598E700BF33
:102880001C000020074AD36823F4E0631B041B0CE0
:10289000000200F4E060034343F0BF6343F40033FD
:1028A000D360704700ED00E000B5194BDB68C3F35F
:1028B0000223C3F1070CBCF1040F28BF4FF0040C36
:1028C00003F1040EBEF1060F18D9033B4FF0FF3E93
:1028D0000EFA0CFC21EA0C0199400EFA03F322EAED
:1028E0000303194300280BDB0901C9B200F1604062
:1028F00000F5614080F800135DF804FB0023E5E774
:1029000000F00F000901C9B2024B1954F4E700BFEF
:1029100000ED00E014ED00E0002807DB00F01F02EE
:10292000400901239340024A42F82030704700BF1B
:1029300000E100E00138B0F1807F0BD24FF0E023DE
:102940005861054AF02182F823100020986107227F
:102950001A6170470120704700ED00E090F82130C7
:10296000DBB2022B06D004238363002380F82030DF
:10297000012070470268136823F00E031360026899
:10298000136823F001031360036CC16B012202FA88
:1029900003F34B6080F82120002380F82030184694
:1029A0007047000008B590F82130DBB2022B03D04D
:1029B00004238363012008BD0268136823F00E031B
:1029C00013600268136823F0010313600368194A57
:1029D000934214D0143293421FD0143293421ED02B
:1029E000143293421ED0143293421ED014329342BA
:1029F00002D04FF0807203E04FF4801200E0012219
:102A00000D4B5A60012380F82130002380F82030DC
:102A1000436B6BB198470020CDE71022F0E74FF4ED
:102A20008072EDE74FF48052EAE74FF48032E7E737
:102A30000020C0E7080002400000024070B582B0EC
:102A40000024A446A6E0804DAA4210D007D97F4DAD
:102A5000AA420CD005F58035AA4208D013E0A5F5AE
:102A60008015AA4203D005F57025AA4207D18A68CD
:102A7000002A58D0012A51D04361082403E0A5F56B
:102A80008015AA42F3D0BEF1FF0F4ED80646BEF124
:102A9000FF0F4CD84FEA8C0233680F25954023EA8C
:102AA000050304FA02F2134333604B6813F0805FAE
:102AB0006ED0674B9A6942F001029A619B6903F0FC
:102AC00001030193019B4FEA9C02951C614B53F853
:102AD00025600CF003039D000F23AB4026EA03069C
:102AE0005D4B984229D003F58063984200F08E80B8
:102AF00003F58063984200F08B8003F58063984271
:102B000019D004231AE0CC68BDE7CC680434BAE7D6
:102B1000CC680834B7E7CC680C34B4E70361082408
:102B2000B1E70024AFE70424ADE7061DAFE7ACF141
:102B300008029200B0E7032300E00023AB403343D8
:102B40000232444D45F822304B6813F4801F61D0A7
:102B5000424A936843EA0E0393604B6813F4001FE4
:102B60005ED03E4AD36843EA0E03D3604B6813F449
:102B7000003F5BD0394A536843EA0E0353604B6809
:102B800013F4803F58D0354A136843EA0E031360AC
:102B90000CF1010C0A6832FA0CF353D0012303FA4A
:102BA0000CF302EA030E33EA0202F1D14A68122A58
:102BB0003FF649AF122A3FF666AF01A555F822F05D
:102BC0006F2A0008072B0008112B0008232B000890
:102BD000872A0008872A0008872A0008872A000811
:102BE000872A0008872A0008872A0008872A000801
:102BF000872A0008872A0008872A0008872A0008F1
:102C0000872A00080B2B0008172B0008012395E7E3
:102C1000022393E7114A936823EA0E0393609CE72B
:102C20000E4AD36823EA0E03D3609FE70B4A53682A
:102C300023EA0E035360A2E7084A136823EA0E034F
:102C40001360A5E702B070BD000022100000311033
:102C50000010024000000140000801400004014053
:102C60008368194201D001207047002070470AB1E3
:102C700001617047090401617047C36801EA0302FA
:102C800021EA030141EA02410161704708B5054BA1
:102C90005B69034200D108BD024B5861FEF766FA3A
:102CA000F9E700BF0004014003685A6912F4806F1D
:102CB00001D1002070476FF480625A6100230363E2
:102CC000202280F83D2080F83E30026C42F0040261
:102CD000026480F83C30012070472DE9F04106463F
:102CE0000C46174698463BE0FFF760FA069BC01A71
:102CF000404502D8B8F1000F32D1012D18D0336809
:102D00009B6924EA03039BB2B3FA83F35B099F42F6
:102D100026D100233363202286F83D2086F83E30FA
:102D2000326C42F02002326486F83C30012027E009
:102D300033685B6924EA03039BB2B3FA83F35B094C
:102D4000E5E733685B6924EA030C1FFA8CFCBCFAE4
:102D50008CFC4FEA5C1C674511D1B8F1FF3FC3D131
:102D6000C4F30745012DECD033689B6924EA030CBA
:102D70001FFA8CFCBCFA8CFC4FEA5C1CEBE70020D1
:102D8000BDE8F0812DE9F84305460E469046994688
:102D900053E01A6842F400721A602B686FF4806284
:102DA0005A6100232B63202285F83D2085F83E30B0
:102DB0002A6C42F004022A6485F83C3001204AE083
:102DC000FFF7F4F9A0EB0900404502D8B8F1000F75
:102DD00033D1012F17D02B689B6926EA03039BB2DE
:102DE000003B18BF012343B300232B63202285F847
:102DF0003D2085F83E302A6C42F020022A6485F896
:102E00003C30012027E02B685B6926EA03039BB274
:102E1000003B18BF0123E6E72B689C6926EA0404FF
:102E2000A4B2003C18BF0124A4B12B685A6912F463
:102E3000806FAED1B8F1FF3FC2D1C6F30747012F73
:102E4000EAD12B685C6926EA0404A4B2003C18BFEE
:102E50000124E9E70020BDE8F88370B504460D467B
:102E6000164623685B6913F0800F21D12046FFF7D7
:102E70001BFFF8B9B5F1FF3FF3D0FFF797F9801BBF
:102E8000A84201D8002DECD123685B6913F0800FB4
:102E9000E7D100232363202284F83D2084F83E30CC
:102EA000226C42F02002226484F83C30012000E0D1
:102EB000002070BD0120FCE72DE9F04385B00446F9
:102EC0000D4691461F46DDF830800D9E0368196857
:102ED00041F4807119600096434600224FF00111C1
:102EE000FFF7FBFE60B9236805F0FE051D61334660
:102EF000424626492046FFF745FF68B1012008E019
:102F000023681B6813F4807F02D04FF4007323649E
:102F1000032005B0BDE8F0830023039323685A69BA
:102F200003929B690393039B324641462046FFF779
:102F300094FF30B9012F0FD123685FFA89F61E6123
:102F4000E7E7236C042B01D00120E2E72268136835
:102F500043F400731360F7E723684FEA19221A61FC
:102F6000324641462046FFF778FF20B923685FFAD2
:102F700089F61E61CDE7236C042B01D00120C8E740
:102F80002268136843F400731360F7E7020001003E
:102F900070B504460D46164623685B6913F0040FAE
:102FA00021D12046FFF780FEF8B9B5F1FF3FF3D0FD
:102FB000FFF7FCF8801BA84201D8002DECD1236854
:102FC0005B6913F0040FE7D100232363202284F808
:102FD0003D2084F83E30226C42F02002226484F8C6
:102FE0003C30012000E0002070BD0120FCE7000023
:102FF000002800F0CC8070B5044690F83D30002BDE
:1030000077D0242384F83D302268136823F001032D
:1030100013602268136843F4004313602268136846
:1030200023F40043136000F077FC62685A4B9A4225
:1030300064D85A4B98428CBF00230123002B40F0E8
:10304000A8805749A1FB00318B0C25686A6822F0E3
:103050003F0242EA91426A6021680A6A22F03F0216
:1030600066684D4DAE424FD8013313430B62216861
:10307000CA6922F44F4222F0FF026668464B9E4224
:103080004CD8431E7600B3FBF6F3013340F6FC70D8
:10309000034278D0C3F30B031343CB6121680B6861
:1030A00023F0C003E269206A024313430B602168E6
:1030B0008B6823F4034323F0FF032269E068024393
:1030C00013438B602168CB6823F0FF036269A0691A
:1030D00002431343CB602268136843F0010313607B
:1030E00000202064202384F83D30206384F83E00D3
:1030F00070BD80F83C30FEF741FB82E7294B9842D7
:103100008CBF0023012399E74FF4967505FB03F369
:10311000254DA5FB03539B090133A6E7A368BBB963
:10312000451E06EB460CB5FBFCF50135C5F30B055A
:10313000B5FA85F56D0945BBC3B9013806EB460301
:10314000B0FBF3F30133C3F30B0343F40043A3E7F2
:10315000451E06EB860C0CEB8C0CB5FBFCF5013523
:10316000C5F30B05B5FA85F56D09E4E7013806EB03
:10317000860303EB8303B0FBF3F30133C3F30B03C9
:1031800043F4404388E7042386E7012384E70120D2
:1031900070470120ACE700BFA08601007F841E00BD
:1031A00083DE1B43FF083D00D34D62102DE9F04341
:1031B00083B004460F46904699460C9EFEF7F6FFF4
:1031C000054694F83D00C0B2202803D0022003B089
:1031D000BDE8F0830095192301224B492046FFF7F3
:1031E0007CFD002840F0898094F83C30012B00F0F1
:1031F0008680012384F83C3023681A6812F0010F9E
:1032000003D11A6842F001021A602268136823F49D
:1032100000631360212384F83D30402384F83E305E
:10322000002323640A9B6362BDF82C306385638DA1
:103230002385364BE362019500964B46424639465C
:103240002046FFF739FE00285BD1238D002B35D0B7
:103250002A4631462046FFF700FE20BB626A2368FB
:1032600012781A61626A531C6362218D013989B236
:103270002185638D9BB2013B9BB2638523685869AE
:1032800010F0040FE1D00029DFD052781A61636A90
:1032900001336362238D013B2385638D9BB2013B28
:1032A0009BB26385D1E7236C042B01D001208EE70C
:1032B0002268136843F400731360F7E72A46314627
:1032C0002046FFF765FE50B1236C042B01D001208E
:1032D0007DE72268136843F400731360F7E7226800
:1032E000136843F400731360202384F83D300023F7
:1032F00084F83E3084F83C3069E7022067E702201A
:1033000065E7012063E700BF020010000000FFFF37
:1033100082B0084B1B68084AA2FB03235B0A00FB30
:1033200003F3019300BF019B5A1E0192002BF9D1B8
:1033300002B070471C000020D34D6210002800F03E
:10334000F18170B582B00446036813F0010F2CD0F0
:10335000994B5B6803F00C03042B1DD0964B5B6804
:1033600003F00C03082B12D06368B3F5803F41D003
:10337000002B55D103F1804303F504331A6822F47E
:1033800080321A601A6822F480221A6037E08A4B71
:103390005B6813F4803FE7D0874B1B6813F4003F52
:1033A00003D06368002B00F0BF81236813F0020F85
:1033B00075D0814B5B6813F00C0F5FD07E4B5B6860
:1033C00003F00C03082B54D02369002B00F08A80F3
:1033D0007A4B01221A60FEF7E9FE0546764B1B6820
:1033E00013F0020F75D1FEF7E1FE401B0228F5D95C
:1033F00003209EE1704A136843F4803313606368CE
:1034000043B3FEF7D3FE05466B4B1B6813F4003F36
:10341000CBD1FEF7CBFE401B6428F5D9032088E111
:10342000B3F5A02F09D0644B1A6822F480321A60D9
:103430001A6822F480221A60E1E703F18043A3F5C1
:103440003C331A6842F480221A601A6842F48032CF
:103450001A60D4E7FEF7AAFE0546574B1B6813F423
:10346000003FA2D0FEF7A2FE401B6428F5D903203E
:103470005FE1514B5B6813F4803FA5D14E4B1B6855
:1034800013F0020F03D02369012B40F04F814A4A09
:10349000136823F0F803616943EAC10313602368EA
:1034A00013F0080F33D0A369002B5CD0434B0122EB
:1034B000C3F88024FEF77AFE05463F4B5B6A13F0A3
:1034C000020F21D1FEF772FE401B0228F5D903201E
:1034D0002FE1394A136823F0F803616943EAC10315
:1034E0001360DCE7354B00221A60FEF75FFE0546ED
:1034F000314B1B6813F0020FD1D0FEF757FE401B73
:103500000228F5D9032014E10120FFF701FF236809
:1035100013F0040F00F09680274BDB6913F0805FF7
:1035200034D1254BDA6942F08052DA61DB6903F06D
:1035300080530193019B0125214B1B6813F4807F6D
:1035400026D0E368012B3DD0002B53D103F18043FB
:1035500003F504331A6A22F001021A621A6A22F091
:1035600004021A6233E0154B0022C3F88024FEF7F0
:103570001DFE0546104B5B6A13F0020FC7D0FEF725
:1035800015FE401B0228F5D90320D2E00025D3E721
:103590000B4A136843F480731360FEF707FE064678
:1035A000074B1B6813F4807FCBD1FEF7FFFD801B18
:1035B0006428F5D90320BCE000100240000042421C
:1035C000007000405F4A136A43F001031362E3682E
:1035D00033B3FEF7EBFD06465A4B1B6A13F0020F9E
:1035E0002FD1FEF7E3FD801B41F288339842F3D9D7
:1035F00003209EE0052B09D0524B1A6A22F00102EB
:103600001A621A6A22F004021A62E0E74D4B1A6A43
:1036100042F004021A621A6A42F001021A62D6E704
:10362000FEF7C4FD0646474B1B6A13F0020F08D095
:10363000FEF7BCFD801B41F288339842F3D903208A
:1036400077E0E5B9E369002B72D03E4A526802F098
:103650000C02082A56D0022B17D03B4B00221A66C8
:10366000FEF7A4FD0446374B1B6813F0007F47D0DC
:10367000FEF79CFD001B0228F5D9032059E0314AD2
:10368000D36923F08053D361DCE72F4B00221A6605
:10369000FEF78CFD05462B4B1B6813F0007F06D010
:1036A000FEF784FD401B0228F5D9032041E0236A80
:1036B000B3F5803F1AD023494B6823F47413226A70
:1036C000606A024313434B601F4B01221A66FEF7E8
:1036D0006DFD04461B4B1B6813F0007F0ED1FEF7F7
:1036E00065FD001B0228F5D9032022E0154A536826
:1036F00023F40033A1680B435360DCE7002018E09B
:10370000002016E0012B16D00E4B5B6803F48031CD
:10371000226A914211D103F47013626A93420ED16E
:10372000002006E001207047012002E0012000E0B7
:10373000002002B070BD0120FBE70120F9E7012065
:10374000F7E700BF00100240000042420F4B5B68E9
:1037500003F00C02082A01D00D487047C3F38342DE
:103760000C49885C13F4803F0BD0084B5B68C3F3B3
:103770004043094AD35C064A02FB00F0B0FBF3F079
:103780007047064B03FB00F0704700BF001002407B
:1037900000127A00E0E10008F0E1000800093D00B5
:1037A000002800F0A08070B50D460446524B1B68FF
:1037B00003F007038B420BD24F4A136823F0070331
:1037C0000B431360136803F007038B4240F08D80B6
:1037D000236813F0020F17D013F0040F04D0474AE8
:1037E000536843F4E0635360236813F0080F04D078
:1037F000424A536843F460535360404A536823F08D
:10380000F003A1680B435360236813F0010F31D01C
:103810006368012B20D0022B25D0384A126812F0A1
:10382000020F64D035494A6822F0030213434B600B
:10383000FEF7BCFC0646314B5B6803F00C03626884
:10384000B3EB820F16D0FEF7B1FC801B41F2883338
:103850009842F0D9032045E0284A126812F4003F4C
:10386000E0D101203EE0254A126812F0007FD9D154
:10387000012037E0204B1B6803F00703AB420AD955
:103880001D4A136823F007032B431360136803F0EA
:103890000703AB422DD1236813F0040F06D0174A5B
:1038A000536823F4E063E1680B435360236813F02B
:1038B000080F07D0114A536823F46053216943EA83
:1038C000C1035360FFF742FF0C4B5B68C3F3031364
:1038D0000B4AD35CD8400B4B18600B4B1868FEF7B3
:1038E00021FC002070BD012070470120FAE7012073
:1038F000F8E70120F6E700BF002002400010024078
:10390000C8E100081C00002024000020014B1868BA
:10391000704700BF1C00002008B5FFF7F7FF044BFD
:103920005B68C3F30223034AD35CD84008BD00BFE1
:1039300000100240D8E1000808B5FFF7E7FF044B8C
:103940005B68C3F3C223034AD35CD84008BD00BF01
:1039500000100240D8E1000870B582B00446036848
:1039600013F0010F36D03F4BDB6913F0805F49D174
:103970003C4BDA6942F08052DA61DB6903F0805334
:103980000193019B0125384B1B6813F4807F3BD0CA
:10399000344B1B6A13F4407313D0626802F4407214
:1039A0009A420ED02F4A136A23F440702F49012601
:1039B000C1F840640026C1F84064106213F0010FA2
:1039C00036D1284A136A23F4407361680B431362AB
:1039D000002D3ED1236813F0020F06D0214A536810
:1039E00023F44043A1680B435360236813F0100F86
:1039F00034D01C4A536823F48003E1680B435360BE
:103A000000202CE00025BEE7174A136843F48073BA
:103A10001360FEF7CBFB0646134B1B6813F4807F45
:103A2000B6D1FEF7C3FB801B6428F5D9032016E04E
:103A3000FEF7BCFB06460B4B1B6A13F0020FC0D10E
:103A4000FEF7B4FB801B41F288339842F3D9032080
:103A500005E0D36923F08053D361BBE7002002B0B7
:103A600070BD00BF001002400070004000004242E4
:103A700008B502284ED0102803D0012828D00020F5
:103A800008BD2B4B5A68186810F08070F8D0C2F34C
:103A900083432849C85C12F4803F15D0244B5B68EF
:103AA000C3F34043244AD25C244BB3FBF2F303FB41
:103AB00000F01F4B5B6813F4800FE1D14000204BF6
:103AC000A3FB00304008DBE71E4B03FB00F0F0E7F0
:103AD000174B1B6A40F202321A40B2F5817F24D0A4
:103AE00003F44073B3F5007F04D0B3F5407F09D0F1
:103AF0000020C5E70E4A526A12F0020FF5D049F6CF
:103B00004040BDE70A4B186810F40030B8D04FF2BF
:103B10002440B5E7FFF710FF054B5B68C3F3813323
:103B200001335B00B0FBF3F0AAE74FF40040A7E7D6
:103B300000100240F4E1000804E2000800127A00DC
:103B4000ABAAAAAA00093D0070B4036A026A22F077
:103B5000010202624668826922F073020C6844EA3C
:103B6000020523F002028B6813430D4CA04209D0DA
:103B70000B4CA0420DD0466085614A6842630362E7
:103B800070BC704723F00803CA68134323F0040392
:103B9000EEE726F440764A6932438E691643EAE737
:103BA000002C014030B4036A026A22F4807202627F
:103BB0004568C26922F073020C68224323F4007343
:103BC0008C6843EA04230F4CA04209D00D4CA0425C
:103BD0000ED04560C2614A68C263036230BC704760
:103BE00023F40063CC6843EA042323F48063EDE705
:103BF00025F440554C6945EA04158C6945EA0415DD
:103C0000E7E700BF002C014030B4036A026A22F4E7
:103C1000805202624468C26922F4E6420D6842EAB8
:103C2000052223F400538D6843EA0533074DA8426B
:103C300006D04460C2614A680264036230BC7047C7
:103C400024F480444D6944EA8514F2E7002C0140D5
:103C500010B4036A046A24F001040462846924F045
:103C6000F00C4CEA021223F00A030B438261036258
:103C700010BC704710B4036A046A24F01004046294
:103C8000846924F4704C4CEA023223F0A00343EA26
:103C900001138261036210BC7047836823F07003D4
:103CA0000B4343F0070383607047000090F83D30FA
:103CB000DBB2012B27D1022380F83D300268D368A4
:103CC00043F00103D3600368114A934210D0B3F16B
:103CD000804F0DD0A2F59432934209D002F5806254
:103CE000934205D01A6842F001021A600020704722
:103CF0009A6802F00702062A07D01A6842F0010209
:103D00001A6000207047012070470020704700BFF4
:103D1000002C0140704770477047704710B504464B
:103D200003681A6912F0020F11D0DA6812F0020F5C
:103D30000DD06FF002021A610123037703689B69BB
:103D400013F0030F70D0FFF7E6FF002323772368FB
:103D50001A6912F0040F12D0DA6812F0040F0ED0B4
:103D60006FF004021A610223237723689B6913F41E
:103D7000407F5FD02046FFF7CEFF002323772368E4
:103D80001A6912F0080F12D0DA6812F0080F0ED07C
:103D90006FF008021A61042323772368DB6913F0AC
:103DA000030F4ED02046FFF7B6FF0023237723688A
:103DB0001A6912F0100F12D0DA6812F0100F0ED03C
:103DC0006FF010021A61082323772368DB6913F46C
:103DD000407F3DD02046FFF79EFF002323772368D6
:103DE0001A6912F0010F03D0DA6812F0010F36D110
:103DF00023681A6912F0800F03D0DA6812F0800F7E
:103E000034D123681A6912F0400F03D0DA6812F037
:103E1000400F32D123681A6912F0200F03D0DA68FC
:103E200012F0200F30D110BDFFF774FF2046FFF7CE
:103E300073FF8AE72046FFF76DFF2046FFF76CFF10
:103E40009BE72046FFF766FF2046FFF765FFACE7DC
:103E50002046FFF75FFF2046FFF75EFFBDE76FF0EC
:103E600001021A612046FDF781F8C1E76FF0800278
:103E70001A61204600F081FAC3E76FF040021A6130
:103E80002046FFF74AFFC5E76FF020021A6120467F
:103E900000F072FAC7E7000003681B4A90420AD09C
:103EA000B0F1804F07D0A2F59432904203D002F5D2
:103EB0008062904203D123F070034A681343124A90
:103EC00090420AD0B0F1804F07D0A2F594329042D0
:103ED00003D002F58062904203D123F44073CA6894
:103EE000134323F080034A69134303608B68C36262
:103EF0000B688362044B984202D0012343617047F0
:103F00000B690363F9E700BF002C014040B310B513
:103F1000044690F83D30F3B1022384F83D30214649
:103F200051F8040BFFF7B8FF012384F8463084F8FA
:103F30003E3084F83F3084F8403084F8413084F8D3
:103F4000423084F8433084F8443084F8453084F8B3
:103F50003D30002010BD80F83C30FDF715FFDBE759
:103F60000120704740B310B5044690F83D30F3B1DE
:103F7000022384F83D30214651F8040BFFF78CFFF3
:103F8000012384F8463084F83E3084F83F3084F8CA
:103F9000403084F8413084F8423084F8433084F86B
:103FA000443084F8453084F83D30002010BD80F85E
:103FB0003C30FDF731FFDBE70120704730B4036A86
:103FC000026A22F0100202624468826922F4E64228
:103FD0000D6842EA052223F020038D6843EA0513A9
:103FE0000E4DA84209D00D4DA8420ED0446082610A
:103FF0004A688263036230BC704723F08003CD6857
:1040000043EA051323F04003EDE724F440644D69CF
:1040100044EA85048D6944EA8504E7E7002C014001
:1040200038B590F83C30012B66D004460D4601238C
:1040300080F83C300C2A5AD8DFE802F00759595969
:104040001B5959593059595944000068FFF77CFDF4
:104050002268936943F0080393612268936923F00F
:10406000040393612268936929690B4393610020DB
:104070003EE00068FFF7A2FF2268936943F4006303
:1040800093612268936923F4806393612268936942
:10409000296943EA01239361002029E00068FFF7C2
:1040A00081FD2268D36943F00803D3612268D36994
:1040B00023F00403D3612268D36929690B43D361D8
:1040C000002015E00068FFF79FFD2268D36943F4E4
:1040D0000063D3612268D36923F48063D3612268CB
:1040E000D369296943EA0123D361002000E001205C
:1040F000002384F83C3038BD0220FCE710B484680B
:1041000024F47F4C42EA03220A4342EA0C02826012
:1041100010BC704790F83C30012B78D010B50446A5
:10412000012380F83C30022380F83D300268936818
:1041300023F47F4323F0770393600B68602B4CD00C
:1041400029D8402B54D00CD9502B22D1CA684968A9
:104150000068FFF77DFD50212068FFF79EFD0020DD
:1041600005E0202B0DD009D9302B0AD001200123E6
:1041700084F83D30002384F83C3010BD0BB1102B87
:1041800005D119462068FFF788FD0020EFE70120E0
:10419000EDE70120EBE7B3F5805F34D0B3F5005FC6
:1041A0000CD1CB684A6889680068FFF7A7FF2268CE
:1041B000936843F4804393600020D8E7702B24D1A8
:1041C000CB684A6889680068FFF798FF226893689F
:1041D00043F0770393600020C9E7CA684968006824
:1041E000FFF748FD60212068FFF757FD0020BEE77C
:1041F000CA6849680068FFF72BFD40212068FFF777
:104200004CFD0020B3E70020B1E70120AFE702201A
:10421000704701F01F01012303FA01FC036A23EA3E
:104220000C030362036A02FA01F10B430362704755
:1042300010B50446084651BB94F83E30DBB2013B52
:1042400018BF0123002B5BD1002839D1022384F849
:104250003E30012201462068FFF7DBFF23682A4A2F
:1042600093423DD02368284A93423ED0B3F1804F19
:104270003BD0A2F59432934237D002F5806293424C
:1042800033D01A6842F001021A60002039E0042994
:1042900008D008290DD094F84130DBB2013B18BF9B
:1042A0000123CFE794F83F30DBB2013B18BF012375
:1042B000C8E794F84030DBB2013B18BF0123C1E7E7
:1042C000042805D0082807D0022384F84130C0E72D
:1042D000022384F83F30BCE7022384F84030B8E77B
:1042E0005A6C42F400425A64BCE79A6802F0070232
:1042F000062A07D01A6842F001021A60002000E086
:10430000012010BD0020FCE7002C014090F83C305B
:10431000012B2CD010B4012380F83C30022380F80C
:104320003D3003685A689C6822F0700C0A6842EAC3
:104330000C025A6003680F4A93420AD0B3F1804FCF
:1043400007D0A2F59432934203D002F580629342E3
:1043500004D124F080044A6814439C60012380F84F
:104360003D30002380F83C30184610BC70470220D6
:10437000704700BF002C014070477047026802F18F
:104380000C0353E8003F23F490730C3242E80031F1
:104390000029F3D1026802F1140353E8003F23F02F
:1043A0000103143242E800310029F3D1036B012BE1
:1043B00005D0202380F84230002303637047026851
:1043C00002F10C0353E8003F23F010030C3242E8E3
:1043D00000310029F3D1ECE790F84130DBB2212B1A
:1043E00001D0022070478368B3F5805F17D0036A5D
:1043F0005A1C02621A7803685A60C38C9BB2013B54
:104400009BB2C3844BB90268D36823F08003D360A6
:104410000268D36843F04003D3600020704703690B
:10442000002BE4D1036A1B880268C3F308035360BE
:10443000036A02330362E0E710B5044602681369B9
:1044400023F44053C1680B4313618368026913432B
:1044500042691A430168CB6823F4B05323F00C037C
:104460001343CB600268536923F4407381690B43A3
:1044700053610268134B9A4220D0FFF74DFA02466F
:1044800002EB820202EB820263689B00B2FBF3F252
:104490000D48A0FB02314909642303FB11231B01D2
:1044A0003233A0FB03235B0903F0F00202EB01129D
:1044B00003F00F03216813448B6010BDFFF73CFA33
:1044C0000246DDE7003801401F85EB512DE9F84336
:1044D00005460F4616469946DDF820802C6824686C
:1044E00037EA04030CBF4FF0010C4FF0000CB44549
:1044F0002DD1B8F1FF3FF1D0B8F1000F05D0FDF795
:1045000055FEA0EB09004045E8D92A6802F10C03EA
:1045100053E8003F23F4D0730C3242E80031002905
:10452000F3D12A6802F1140353E8003F23F001039A
:10453000143242E800310029F3D1202385F84130BC
:1045400085F84230002385F84030032000E0002049
:10455000BDE8F88360B310B5044690F8413013B35A
:10456000242384F841302268D36823F40053D360B5
:104570002046FFF761FF2268136923F4904313611B
:104580002268536923F02A0353612268D36843F4F5
:104590000053D36000206064202384F8413084F805
:1045A0004230606310BD80F84030FDF709FDD7E769
:1045B000012070472DE9F04182B01E4690F841304D
:1045C000DBB2202B4BD104460D46904600294AD041
:1045D0000AB9012044E000234364212380F84130DC
:1045E000FDF7E4FD0746A4F82480A4F82680A3681C
:1045F000B3F5805F02D04FF000080FE02369FBB1F4
:104600004FF000080AE038F8023B2268C3F30803C1
:104610005360E28C92B2013A92B2E284E38C9BB294
:104620008BB100963B46002280212046FFF74EFFCB
:10463000D8B9002DE7D015F8012B23685A60E8E7B8
:10464000A8460025EAE700963B4600224021204686
:10465000FFF73CFF58B9202384F8413000E00220E6
:1046600002B0BDE8F0810120FAE70320F8E703205B
:10467000F6E72DE9F04182B01E4690F84230DBB2F9
:10468000202B53D104460D469046002952D00AB93A
:1046900001204CE000234364222280F8422003637F
:1046A000FDF784FD0746A4F82C80A4F82E80A368AB
:1046B000B3F5805F02D04FF0000817E0236913B113
:1046C0004FF0000812E0A84600250FE023685B6861
:1046D000C3F3080328F8023B03E023685B682B70F0
:1046E0000135E28D92B2013A92B2E285E38D9BB23E
:1046F000BBB100963B46002220212046FFF7E6FE94
:10470000D0B9002DE2D0A368B3F5805FE5D013B92E
:104710002369002BE1D023685B6803F07F032B70D3
:10472000DEE7202384F84230002000E0022002B0BF
:10473000BDE8F0810120FAE70320F8E7704708B5EB
:104740000168CA6822F04002CA60202280F8412035
:10475000FFF7F4FF002008BD704708B5406A00234A
:10476000C385C384FFF7F8FF08BD704790F8423057
:10477000DBB2222B69D18368B3F5805F4FD0826AA8
:10478000B3F5805F04D0002B56D10369002B53D1C1
:1047900003685B681370836A01338362C38D9BB2C5
:1047A000013B9BB2C385002B51D100B583B0026899
:1047B000D36823F02003D3600268D36823F48073A6
:1047C000D3600268536923F001035361202380F80A
:1047D000423000234363036B012B33D10023036377
:1047E000026802F10C0353E8003F23F010030C327F
:1047F00042E800310029F3D103681A6812F0100F63
:1048000006D0002201921A6801925B680193019B15
:10481000818DFFF7AAFF002003B05DF804FB026959
:10482000002AACD1826A03685B68C3F30803138073
:10483000836A02338362B1E703685B6803F07F0336
:104840001370A8E7FCF7CCFFE5E7022070470020D3
:104850007047000030B583B0044602681368D06822
:10486000516913F00F0505D113F0200F02D010F09D
:10487000200F19D12DB111F0010119D110F4907F41
:1048800016D1216B01297DD013F0800F03D010F0D9
:10489000800F40F0188113F0400F03D010F0400F4C
:1048A00040F0158103B030BD2046FFF75FFFF9E708
:1048B00013F0010F06D010F4807F03D0626C42F039
:1048C0000102626413F0040F04D019B1626C42F06B
:1048D0000202626413F0020F04D019B1626C42F05C
:1048E0000402626413F0080F07D010F0200F00D10B
:1048F00019B1626C42F008026264626C002AD1D085
:1049000013F0200F02D010F0200F29D123685B692B
:1049100003F04003626C12F0080F00D163B320462D
:10492000FFF72CFD23685B6913F0400F20D022684D
:1049300002F1140353E8003F23F04003143242E82D
:1049400000310029F3D1E36B73B1634A5A63E06B22
:10495000FEF728F80028A5D0E06B436B9847A1E745
:104960002046FFF703FFD1E72046FFF7F5FE99E762
:104970002046FFF7F1FE95E72046FFF7EDFE002306
:1049800063648FE713F0100F3FF47EAF10F0100F49
:104990003FF47AAF002301931368019353680193A6
:1049A000019B536913F0400F51D0E26B13685B68B1
:1049B0009BB2002B3FF476AFA18D99427FF672AF88
:1049C000E3859369202B37D0226802F10C0353E86A
:1049D000003F23F480730C3242E800310029F3D108
:1049E000226802F1140353E8003F23F0010314325C
:1049F00042E800310029F3D1226802F1140353E8A0
:104A0000003F23F04003143242E800310029F3D183
:104A1000202384F8423000232363226802F10C0330
:104A200053E8003F23F010030C3242E80031002924
:104A3000F3D1E06BFDF792FF02236363A18DE38D59
:104A40009BB2C91A89B22046FFF78FFE2AE7A18DD3
:104A5000E38D9BB2C91A89B2E38D9BB2002B3FF460
:104A600021AF00293FF41EAF226802F10C0353E886
:104A7000003F23F490730C3242E800300028F3D159
:104A8000226802F1140353E8003F23F001031432BB
:104A900042E800300028F3D1202384F8423000237C
:104AA0002363226802F10C0353E8003F23F0100354
:104AB0000C3242E800300028F3D102236363204621
:104AC000FFF753FEEEE62046FFF786FCEAE62046B7
:104AD000FFF735FEE6E600BF5B470008816282858E
:104AE000C28500234364222380F84230036923B146
:104AF0000268D36843F48073D3600268536943F05B
:104B0000010353610268D36843F02003D36000209F
:104B1000704708B590F84230DBB2202B08D149B17C
:104B20000AB9012008BD00230363FFF7D7FFF9E7A7
:104B30000220F7E70120F5E738B504460D46036883
:104B40001BB102230373002318E0012303730846FB
:104B500000F082FC2060C8B100236360A56003E020
:104B600022680021D1540133A2689A42F8D80DE09E
:104B700022684FF0000C02F803C00133A2689A4289
:104B8000F6D800236360AA4200D2236038BD10B576
:104B90000446037B012B05D0002323606360A360E0
:104BA000237310BD006800F05FFCF5E703460120A9
:104BB00004280ADC03F07F020A70DB0907D062F0E8
:104BC0007F0201F8012B0130F2E74FF0FF30704710
:104BD000002313604FF0010C8B421BDA10B5C45C4C
:104BE00004F07F04D2F800E00CFB04E41460C45627
:104BF000002C0ADA4FEACC1CBCF5001F07D20133A7
:104C00008B42ECDB4FF0FF3003E0581C01E06FF00B
:104C1000010010BD4FF0FF307047000030B583B089
:104C200004782409631EDBB20D2B26D80546032C1D
:104C300002D0204603B030BD0023019301AA042115
:104C40000130FFF7C5FF431CE818019A012A12D969
:104C5000297811F0010F0ED1E95C437843EA012372
:104C600002339A4207D30649023001F0A3FA002822
:104C7000DFD00F24DDE7FF24DBE7FF24D9E700BF07
:104C800008E200082DE9F04F85B001900F46164666
:104C900003939DF838509DF83CB0139C104601F0EA
:104CA000D1F80290002E00F03A810FFA80FA00F15C
:104CB00011091FFA89F91DBB4FF00008109B8BB139
:104CC00048F00408184601F0BDF8C5B2119801F08B
:104CD000B9F80544ADB2A9441FFA89F909F10409EC
:104CE0001FFA89F9BBF1010F0DD0BBF1020F00F0E3
:104CF000EF80BBF1000F08D0022005B0BDE8F08FB7
:104D00004FF00208DAE748F00C08129B0BB148F0AC
:104D100024080198002800F00481002F00F003818E
:104D200048F0C00B01F08EF80546384601F08AF8CD
:104D30000544ADB2A9441FFA89F909F104091FFA23
:104D400089F949462046FFF7F7FE2068002800F061
:104D5000EC804A46002100F03BFE22686368591C43
:104D600061601021D154216863681944A9F10500DC
:104D7000FFF71CFF00B20028C0F2AD806368184442
:104D800060602368421C626000221A5421686368D4
:104D90005A1C62600422CA5421686368581C60600F
:104DA0004D20C85421686368581C60605120C85465
:104DB00020686368591C61605421C154206863688D
:104DC0005D1C6560C15421686368581C6060CA54EA
:104DD00022686368591C616002F803B02268636846
:104DE000591C61600398010AD15422686368591CF8
:104DF0006160D05422686368591C6160CAF307215E
:104E0000D15422686368591C61600299D1542068AA
:104E1000636852463146184401F042F865685544CB
:104E2000656018F0040F34D0119B002B58D01098F7
:104E300001F008F886B223686A1C6260C0F307229A
:104E40005A5522686368591C6160D05420686368B1
:104E500032461099184401F023F8656835446560BE
:104E6000119800F0EFFF86B223686A1C6260C0F3FD
:104E700007225A5522686368591C6160D054206823
:104E8000636832461199184401F00AF863683344A4
:104E900063601BF0800F26D1384600F0D3FF85B247
:104EA00022686368591C6160C0F30721D1542268ED
:104EB0006368591C6160D054206863682A4639468B
:104EC000184400F0EDFF63682B446360002014E792
:104ED00048F0140819E72046FFF759FE05200CE7B3
:104EE000134B1193A3E7019E304600F0ABFF85B250
:104EF00022686368591C6160C0F30721D15422689D
:104F00006368591C6160D054206863682A46314642
:104F1000184400F0C5FF63682B446360BCE70120C0
:104F2000EBE60320E9E60320E7E60420E5E600BF20
:104F30003CE200084378022B04D18378012B03D88C
:104F4000C078704701207047FF2070472DE9F04777
:104F5000089D00286AD0884616461F4682460024CF
:104F6000A146BC4209D256F82400002861D000F0C6
:104F700069FF81440134E4B2F3E707EB4701494498
:104F80008C1C07312846FFF7D7FD2B68002B52D029
:104F90006A68511C69608221995429686B681944B8
:104FA0002046FFF703FE03B2002B11DB6A681344AF
:104FB0006B602A68591C69604FEA1A21D1542A682B
:104FC0006B68591C696002F803A04FF0000929E0E2
:104FD0002846FFF7DCFD042029E056F8290000F000
:104FE00031FF04462A686B68591C6960C0F30721C9
:104FF000D1542A686B68591C6960D05428686B6862
:10500000224656F82910184400F04AFF6868044404
:105010006C602B68621C6A6003F8048009F1010966
:105020005FFA89F9B945D8D3002000E00120BDE836
:10503000F0870220FBE70320F9E7000008B5802293
:105040000021034800F0C4FC024B00221A8008BD76
:105050003C0C0020BC0C0020084B1B885BB1084AAC
:105060001288934203D0064A138001207047002023
:10507000024B188070470120704700BFBC0C002015
:10508000BE0C0020F0B591B004460E4600F0DAFEEA
:10509000174F80B20F900E946C4607F110050FCD9C
:1050A0000FC40FCD0FC40FCD0FC495E8030084E8E3
:1050B000030097E80F00FCF7F5FFC82203E00A2081
:1050C000FDF77AF82246531EDCB27AB1FFF7C4FF2F
:1050D00005460028F3D13146064801F06BF8002858
:1050E000EDD0FFF7ABFF284611B0F0BD0125FAE780
:1050F000F00B00203C0C002070B598B005460C4623
:10510000FFF79CFF2246134910A800F013FE124936
:1051100010A8FFF7B7FF08B118B070BD0F4E0F947D
:105120000E95EC4606F1100EBEE80F00ACE80F003D
:10513000BEE80F00ACE80F00BEE80F00ACE80F00BF
:105140009EE803008CE8030096E80F00FCF7AAFF36
:10515000E2E700BF10E2000820E20008F00B0020A8
:1051600010B5044605E00520FDF726F8013CA4B281
:105170007CB1FFF771FF0028F5D10749074801F01E
:1051800019F80028EFD03A2100F0F6FD10B10130F7
:1051900000E0002010BD00BF24E200083C0C00200D
:1051A00010B5FFF74BFF2E4800F0D2FC2D492E48DA
:1051B000FFF768FF0028F9D14FF4FA70FCF7FCFF05
:1051C0002A4800F0C5FC2A4C21462A48FFF75AFF1E
:1051D0004FF4FA70FCF7F0FF21462748FFF752FF23
:1051E0004FF4FA70FCF7E8FF244800F0B1FC03E04C
:1051F0004FF4FA70FCF7E0FF1A492148FFF742FF2D
:105200000028F5D11F4800F0A3FC03E04FF4FA702A
:10521000FCF7D2FF13491C48FFF734FF0028F5D1F3
:105220001A4800F095FC03E04FF4FA70FCF7C4FF55
:1052300017491848FFF726FF0028F5D1164800F057
:1052400087FC03E04FF4FA70FCF7B6FF13491448EB
:10525000FFF718FF0028F5D1124800F079FC10BDC7
:105260002CE2000834E2000838E2000840E20008BE
:105270003CE2000848E2000854E2000864E200084A
:1052800070E2000880E2000890E20008A0E2000856
:10529000ACE20008B4E20008D4E20008E4E200084E
:1052A000ECE2000818E300082DE9F0418AB006ADF1
:1052B00000240694079408940994DFF8C480314FC1
:1052C000314E43463A463146304800F0DFFB059503
:1052D000049403940294019400944FF48073424622
:1052E00039463046FFF7CEFC002841D1BDF81C10EE
:1052F0000698FFF701FFFA20FFF732FF044690B34C
:10530000FFF78CFC022801D001242DE02046FFF796
:1053100011FE052822D8DFE800F003080D12171C43
:105320001B4800F015FC00241EE01A4800F010FC99
:10533000012419E0184800F00BFC012414E0174880
:1053400000F006FC01240FE0154800F001FC0124E8
:105350000AE0144800F0FCFB012405E0124800F0CC
:10536000F7FB012400E0012406A8FFF710FC03E08E
:105370000E4800F0EDFB012420460AB0BDE8F081A4
:105380002CE3000834E300083CE3000844E3000891
:1053900074E3000884E30008A0E30008C0E3000809
:1053A000DCE3000800E400082CE4000848E40008FE
:1053B00070B586B006460D4600240294039404940A
:1053C000059406E056F824100D4800F05FFB013408
:1053D000E4B2AC42F6D302AB00932B463246022134
:1053E0001420FFF7B3FD08B106B070BDBDF80C1076
:1053F0000298FFF781FE02A8FFF7C9FBF4E700BFA0
:105400006CE40008014B1868704700BF28000020BA
:1054100070B50D4E0D4D761BB61006D0002455F814
:10542000043B01349847A642F9D1094E094D08F0D2
:1054300059FA761BB61006D0002455F8043B013407
:105440009847A642F9D170BDACE80008ACE8000866
:10545000B4E80008ACE80008024B0146186800F008
:105460000BB800BF28000020024B0146186805F069
:10547000CBBC00BF280000202DE9F04F01F10B0547
:10548000162D064683B025D8102900F2B88000F00A
:10549000F1FA102518224FF0020CB54F3A44536828
:1054A000A2F108018B4200F0B7805A68D96822F057
:1054B00003021A449C683046E1608C60516803F135
:1054C000080441F00101516000F0DAFA204603B00F
:1054D000BDE8F08F35F0070500F19180A94200F298
:1054E0008E8000F0C7FAB5F5FC7FC0F094816B0A9E
:1054F00000F08C80042B00F26A81AB0903F1390CB7
:1055000003F138044FEACC00994F38444368083817
:10551000984206D10CE0002980F22681DB6898428F
:1055200006D05A6822F00302511B0F29F3DDA4466E
:105530003C69DFF840E274457AD0626822F00302E9
:10554000531B0F2B00F37681002BC7E904EE80F28A
:105550006781B2F5007F80F019810121D3085209DB
:105560000B4491407A6857F833000A4307EBC301B4
:105570000839A060E1607A6047F83340C4600121D7
:105580004FEAAC039940914259D8114206D12CF010
:10559000030C490011420CF1040CFAD007EBCC09C2
:1055A00048466446D0F80C80404508D11CE1002BE9
:1055B00080F22181D8F80C80404500F01581D8F8A0
:1055C000042022F00302531B0F2BF0DD08EB050132
:1055D00045F00105C8F804503046D8E90264F4608B
:1055E000A66043F00104C7E904114C60C1E902EE72
:1055F00048F8023000F044FA08F1080402E00C23F5
:1056000000243360204603B0BDE8F08F4FF40070F3
:105610004FF0400C3F2477E7D3689A4208BF0CF163
:10562000020C7FF442AF3C69DFF848E1744584D155
:1056300001217A684FEAAC0399409142A5D9BC6830
:10564000636823F003094D4503D8A9EB05030F2B2D
:105650007ADCDFF824B1494BDBF800201B6801320B
:105660002B4404EB090A00F02F8103F580530F331C
:1056700023F47F6828F00F084146304600F070FAA6
:10568000411C024600F0EF80824500F2EA803C4B6C
:10569000196841440846196000F04981DBF80010A0
:1056A000019301311BBFA2EB0A0A5044CBF8002042
:1056B000186012F0070B00F01181CBF108010A44C9
:1056C000CBF5805190440831A1EB0801C1F30B0ADE
:1056D00051463046009200F043FA421CDDE90023B7
:1056E00000F04B81801A00EB0A08196848F00100AD
:1056F0005144BC42BA601960506000F02481B9F195
:105700000F0F40F222814FF0050E6068A9F10C0CDA
:105710002CF0070C00F0010040EA0C006060BCF1C6
:105720000F0F04EB0C00C0E901EE00F22E811446CD
:105730005068144B1A688A4238BF1960124B1A68B5
:105740008A4238BF196090E0621943F0010345F0C6
:10575000010565603046BA600834536000F090F986
:10576000204603B0BDE8F08FD9681A44A2E600BF16
:10577000580400206004002060080020F40C002081
:10578000C40C0020EC0C0020F00C0020B2F5206FBF
:105790004FEA52235FD3142B00F2B18003F15C0176
:1057A000C9005B33781879580838884200F08F8038
:1057B0004B6823F00303934202D989688842F7D1EA
:1057C000C8687A68C4E902108460CC60D7E6142BFC
:1057D00059D9542B00F29B802B0B03F16F0C03F172
:1057E0006E044FEACC008FE60134A30700F10800F5
:1057F0007FF4D8AE53E0444642445368D8F80C10C6
:1058000043F00103536054F8083F3046D9608B6081
:1058100000F036F9F6E64FEAD50C05F108023CE651
:1058200022445368304643F00103536000F028F9E6
:105830000834E7E6611945F00105656043F00105AC
:10584000C7E904113046C1E902EE4D60A35000F0F3
:1058500017F90834D6E6930903F13901C900383342
:10586000A0E7BC425ED0BC68606820F003084545F4
:10587000A8EB050302D80F2B3FF766AF304600F0C8
:10588000FFF80024BEE603F15C0C03F15B044FEA71
:10589000CC0039E659F808394B4540F095801CF0AA
:1058A000030F0CF1FF3CF5D17B6823EA01037B6019
:1058B000490099423FF6C3AE11B9C0E6490004342D
:1058C0001942FBD0A44669E603F11008D4E6012290
:1058D0009B109A407B681A437A6073E702EB0801D9
:1058E0004942C1F30B0A51463046009200F038F9A4
:1058F000431CDDE900237FF4F5AEDA46F5E6542BD0
:1059000026D8130B03F16F01C9006E334AE7B3F5D4
:10591000AA7F26D8EB0B03F1780C03F177044FEA4A
:10592000CC00F1E5294B186840441860B6E6CAF38C
:105930000B0CBCF1000F7FF4B1AEBC68C84448F05A
:1059400001006060F5E61446F3E60123536095E735
:10595000B3F5AA7F24D8D30B03F17801C9007733BC
:1059600020E740F25452934224D8AB0C03F17D0C53
:1059700003F17C044FEACC00C6E5ABF1080BD84438
:105980004FF0000AA8EB0208AFE604F10801304628
:10599000009305F039FABC68009B60681968C8E696
:1059A00040F254518B420BD8930C03F17D01C90096
:1059B0007C33F7E64FF47E704FF07F0C7E24A3E536
:1059C0004FF47E717E23EDE67B6871E7C40C002006
:1059D000830730B548D0541E002A3FD00346CAB2D0
:1059E00001E0013C3AD303F8012B9D07F9D1032CC8
:1059F0002DD9CDB245EA05250F2C45EA054536D906
:105A0000A4F1100222F00F0C03F1200EE6444FEA3D
:105A1000121C03F1100242E9045542E9025510320A
:105A20007245F8D10CF1010214F00C0F03EB0212D5
:105A300004F00F0C13D0ACF1040323F00303043380
:105A4000134442F8045B9342FBD10CF003042CB1E5
:105A5000CAB21C4403F8012B9C42FBD130BD644602
:105A60001346002CF4D1F9E703461446BFE71A4663
:105A7000A446E0E7014805F06BBC00BFFC0C002029
:105A8000014805F067BC00BFFC0C00200FB400B556
:105A9000074A83B004AB106853F8042B8168019364
:105AA00002F08EF903B05DF804EB04B0704700BF5C
:105AB0002800002030B5054689B008460C4600F0A5
:105AC000C1F901210223214A04940692AA6B04AC75
:105AD0000590084401940791AC680293039022B3A7
