:020000040800F2
:1000000000500020B90800085506000857060008EF
:10001000590600085B0600085D06000800000000A5
:100020000000000000000000000000005F06000863
:10003000610600080000000063060008650600086D
:100040000109000801090008010900080109000868
:100050000109000801090008010900080109000858
:100060000109000801090008010900080109000848
:100070000109000801090008010900080109000838
:100080000109000801090008010900080109000828
:100090000109000801090008010900080109000818
:1000A0000109000801090008010900080109000808
:1000B00001090008010900080109000801090008F8
:1000C00001090008010900080109000801090008E8
:1000D0000109000801090008010900086D0600086F
:1000E00001090008010900080109000800000000DA
:1000F0000000000000000000000000000000000000
:0C01000000000000000000005FF808F1A3
:10010C0010B5054C237833B9044B13B10448AFF345
:10011C0000800123237010BD640800200000000043
:10012C008839000808B5034B1BB103490348AFF3EA
:10013C00008008BD00000000680800208839000815
:10014C0008B501220221024800F074FF08BD00BF6F
:10015C00000C014000B587B08DF817004FF4807388
:10016C000293012301930DF11702009200227821D2
:10017C00024801F0F1F907B05DF804FBB00800206B
:10018C0010B5C82000F002FC002405E0044B185DFB
:10019C00FFF7E0FF0134E4B2162CF7D910BD00BF15
:1001AC000000002000B587B08DF817004FF4807365
:1001BC000293012301930DF1170200924022782142
:1001CC00024801F0C9F907B05DF804FBB008002043
:1001DC0038B5002509E00020FFF7E4FF0134E4B254
:1001EC0014F0800FF7D00135EDB2072D0CD8A5F126
:1001FC005000C0B2FFF7AEFF0020FFF7ABFF10209E
:10020C00FFF7A8FF0024EBE738BD000000B585B070
:10021C0000230193029303931148124A02608360F6
:10022C00037303754FF46022C261436001230361C1
:10023C0000F08EFC68B90223019301230293002382
:10024C00039301A9064800F0B5FB28B905B05DF889
:10025C0004FB00F007F9EEE700F004F9F6E700BF45
:10026C00800800200024014000B587B000230293D1
:10027C000393049305930268114B9A4202D007B082
:10028C005DF804FB03F56C439A6942F400729A61C1
:10029C009A6902F400720092009A9A6942F0040280
:1002AC009A619B6903F004030193019B042302935D
:1002BC000323039302A9034800F0AAFDDFE700BF64
:1002CC0000240140000801402DE9F04389B00024CE
:1002DC000494059406940794364B9A6942F01002E4
:1002EC009A619A6902F010020092009A9A6942F09F
:1002FC0020029A619A6902F020020192019A9A698D
:10030C0042F004029A619A6902F004020292029A83
:10031C009A6942F008029A619B6903F008030393FF
:10032C00039BDFF8949001224FF40051484600F0F3
:10033C0081FEDFF8888022463A21404600F07AFEA2
:10034C001F4F22460B21384600F074FE4FF4005329
:10035C0004930125059506940226079604A94846A0
:10036C0000F056FD2A23049305950694079604A9DC
:10037C00404600F04DFD1023049305950695079615
:10038C000DEB0301404600F043FD0B230493059550
:10039C000694079604A9384600F03AFD4FF44C73C6
:1003AC0004930594069404A9384600F031FD09B075
:1003BC00BDE8F0830010024000100140000801402D
:1003CC00000C014008B50B480B4B03600B4B436012
:1003DC0000238360C3604FF48042026143618361F8
:1003EC00C361036200F0DAFF00B908BD00F03AF80F
:1003FC00FBE700BFB008002000540040A0860100BD
:10040C0010B586B0002302930393049305930268FE
:10041C00114B9A4201D006B010BD104CA36943F0A9
:10042C000803A361A36903F008030093009BC02396
:10043C000293122303930323059302A9084800F0A7
:10044C00E7FCE36943F40013E361E36903F400138D
:10045C000193019BDFE700BF0054004000100240F5
:10046C00000C014072B6FEE700B595B028220021C1
:10047C000DEB020002F0B6FC0023059306930793E4
:10048C0008930993019302930393049301220A9214
:10049C004FF480330B930E920222119212934FF46D
:1004AC00E01313930AA801F01FF9C8B90F230593A1
:1004BC0002210691002307934FF48062089209935E
:1004CC0005A801F043FB68B9022301934FF40043E4
:1004DC00039301A801F016FC30B915B05DF804FBCC
:1004EC00FFF7C0FFFFF7BEFFFFF7BCFF08B500F03A
:1004FC0029FAFFF7B9FFFFF7E7FE00F02DF9FFF738
:10050C0061FF00F0DBF8FFF781FE00F03FF90948CE
:10051C0000F014F8FFF714FEFFF732FEFFF758FE59
:10052C004FF40051044800F08BFD322000F02EFAFD
:10053C00F6E700BF540900200010014008B5054B38
:10054C001860054B1868002302221946806802F0D7
:10055C00B9FC08BD040900202400002010B50138A6
:10056C0001280AD814464FF0FF3392B207480068AE
:10057C0001F0C6FE40B9204610BD02F055F9092322
:10058C0003604FF0FF30F7E70520F5E70409002082
:10059C00022801D80020704708B502F045F909235C
:1005AC0003604FF0FF3008BD08B502F03DF9092398
:1005BC0003604FF0FF3008BD08B548B94FF0FF336A
:1005CC0001220848006801F0FAFE40B9012008BD7C
:1005DC0002F02AF9092303604FF0FF30F7E70520FA
:1005EC00F5E700BF0409002008B5022804D84FF431
:1005FC0000534B60002008BD02F016F9092303607C
:10060C00F8E7000082B00E4B9A6942F001029A6141
:10061C009A6902F001020092009ADA6942F0805263
:10062C00DA61DB6903F080530193019B054A53683F
:10063C0023F0E06343F00073536002B0704700BFD7
:10064C000010024000000140FEE7FEE7FEE7FEE777
:10065C00FEE770477047704708B500F085F908BD94
:10066C0008B5024801F09CFF08BD00BF9C090020A2
:10067C0010B503460C4A0D490D48006840B10C48B2
:10068C0000680344521A934206D8094A136010BDFD
:10069C000748084C0460F2E702F0C6F80C2303602C
:1006AC004FF0FF30F3E700BF0050002000040000C3
:1006BC0008090020300A00207047000000B587B000
:1006CC00002302930393049305930093019315481D
:1006DC00154A02604722426083604FF6FF72C26087
:1006EC0003614361836101F001FC90B94FF48053C5
:1006FC00029302A90B4801F031FC68B90023009366
:10070C0001936946074801F0A9FC40B907B05DF8B0
:10071C0004FBFFF7A7FEE9E7FFF7A4FEEEE7FFF700
:10072C00A1FEF3E70C090020002C01400268094BE4
:10073C009A4200D0704782B003F564439A6942F440
:10074C0000629A619B6903F400630193019B02B000
:10075C00704700BF002C014008B50A480A4B0360E3
:10076C004FF4E133436000238360C36003610C22C8
:10077C0042618361C36101F093FD00B908BDFFF7CD
:10078C0071FEFBE7540900200038014008B50A4807
:10079C000A4B03604FF4E133436000238360C36072
:1007AC0003610C2242618361C36101F079FD00B9E0
:1007BC0008BDFFF757FEFBE79C09002000480040EE
:1007CC0030B589B00023049305930693079303680F
:1007DC00314A934204D0314A93422BD009B030BDF8
:1007EC002F4B9A6942F480429A619A6902F48042D2
:1007FC000092009A9A6942F004029A619B6903F094
:10080C0004030193019B4FF400730493022305939B
:10081C0003230793234C04A9204600F0F9FA4FF464
:10082C008063049300230593069304A9204600F0EB
:10083C00EFFAD3E71A4BDA6942F48022DA61DA690B
:10084C0002F480220292029A9A6942F008029A619A
:10085C009B6903F008030393039B4FF48063049399
:10086C0002230593032307930F4D04A9284600F098
:10087C00CFFA4FF40063049300240594069404A962
:10088C00284600F0C5FA22462146272000F0F6F94A
:10089C00272000F02BFAA1E7003801400048004067
:1008AC000010024000080140000C0140FFF704FF5B
:1008BC000B480C490C4A002302E0D458C4500433B2
:1008CC00C4188C42F9D3094A094C002301E0136087
:1008DC000432A242FBD301F0ADFFFFF707FE7047D5
:1008EC000000002064080020DC39000864080020A7
:1008FC00300A0020FEE7000010B504460E4B1878B5
:10090C004FF47A73B3FBF0F30C4A1068B0FBF3F0BE
:10091C0000F0FAF968B90F2C01D901200AE0002285
:10092C0021464FF0FF3000F0A9F9054B1C60002068
:10093C0000E0012010BD00BF1C00002018000020AA
:10094C002000002008B5074A136843F01003136019
:10095C00032000F081F90F20FFF7CEFFFFF752FEC6
:10096C00002008BD00200240034A1168034B1B788D
:10097C000B441360704700BFE40900201C000020EA
:10098C00014B1868704700BFE409002038B50446D5
:10099C00FFF7F6FF0546B4F1FF3F02D0044B1B787E
:1009AC001C44FFF7EDFF401BA042FAD338BD00BF3B
:1009BC001C00002030B482B00022019290F8242058
:1009CC00012A00F091800346012280F824204A6815
:1009DC00062A2DD80468606B02EB8202053A4FF0B0
:1009EC001F0C0CFA02FC20EA0C000D6805FA02F24E
:1009FC00024362630A68092A3AD91C68E06802EB70
:100A0C0042021E3A4FF0070C0CFA02FC20EA0C00D2
:100A1C008D6805FA02F20243E2600A68103A012A74
:100A2C0036D90020002283F8242002B030BC704755
:100A3C000C2A0ED80568286B02EB8202233A1F247D
:100A4C00944020EA04000C6804FA02F202432A6380
:100A5C00D0E70568E86A02EB8202413A1F24944011
:100A6C0020EA04000C6804FA02F20243EA62C1E7CD
:100A7C001C68206902EB42024FF0070C0CFA02FCD6
:100A8C0020EA0C008D6805FA02F202432261C4E7E9
:100A9C001A681648824205D09A6A42F020029A627D
:100AAC000120BFE7906810F4000F1BD1906840F450
:100ABC00000090600A68102A01D00020B2E70C4AAE
:100ACC0012680C49A1FB0212920C02EB820252003A
:100ADC00019202E0019A013A0192019A002AF9D19D
:100AEC0000209FE700209DE702209EE700240140A4
:100AFC001800002083DE1B4338B503689A6812F097
:100B0C00010F01D1002038BD04469A6822F0010281
:100B1C009A60FFF735FF054623689B6813F0010FB9
:100B2C0013D0FFF72DFF431B022BF5D923689B68CD
:100B3C0013F0010FF0D0A36A43F01003A362E36A31
:100B4C0043F00103E3620120DDE70020DBE7000056
:100B5C0000287BD070B50446836A002B4DD020460C
:100B6C00FFF7CAFFA36A13F0100369D1002867D1FD
:100B7C00A26A22F4885222F0020242F00202A2621D
:100B8C006268E1690A43217B42EA4102A568B5F536
:100B9C00807F02D0012D36D01D46267D012E35D00A
:100BAC002668716821F46941294371602568AE6833
:100BBC00274931401143A960A168B1F5807F01D06C
:100BCC00012902D12369013B1B052568E96A21F43F
:100BDC0070010B43EB62236899681E4B0B409A42E1
:100BEC0025D0A36A23F0120343F01003A362E36A37
:100BFC0043F00103E362012027E0C36280F8243054
:100C0C00FFF732FBABE74FF48075C6E731B9A1694A
:100C1C00013945EA413141F40065C1E7A16A41F06F
:100C2C002001A162E16A41F00101E162B8E7002311
:100C3C00E362A36A23F0030343F00103A36204E01D
:100C4C00A36A43F01003A362012070BD012070471A
:100C5C00FDF7E1FFFE0E1FFF074AD36823F4E063A4
:100C6C001B041B0C000200F4E060034343F0BF6361
:100C7C0043F40033D360704700ED00E000B5194B2E
:100C8C00DB68C3F30223C3F1070CBCF1040F28BFCC
:100C9C004FF0040C03F1040EBEF1060F18D9033B00
:100CAC004FF0FF3E0EFA0CFC21EA0C0199400EFAB3
:100CBC0003F322EA0303194300280BDB0901C9B231
:100CCC0000F1604000F5614080F800135DF804FB12
:100CDC000023E5E700F00F000901C9B2024B1954DB
:100CEC00F4E700BF00ED00E014ED00E0002807DBA6
:100CFC0000F01F02400901239340024A42F82030C1
:100D0C00704700BF00E100E00138B0F1807F0BD2EA
:100D1C004FF0E0235861054AF02182F8231000209F
:100D2C00986107221A6170470120704700ED00E0BE
:100D3C0090F82130DBB2022B06D00423836300230E
:100D4C0080F82030012070470268136823F00E03EE
:100D5C0013600268136823F001031360036CC16B0A
:100D6C00012202FA03F34B6080F82120002380F863
:100D7C00203018467047000008B590F82130DBB2DF
:100D8C00022B03D004238363012008BD026813687F
:100D9C0023F00E0313600268136823F00103136041
:100DAC000368194A934214D0143293421FD0143260
:100DBC0093421ED0143293421ED0143293421ED052
:100DCC001432934202D04FF0807203E04FF4801241
:100DDC0000E001220D4B5A60012380F821300023E2
:100DEC0080F82030436B6BB198470020CDE7102280
:100DFC00F0E74FF48072EDE74FF48052EAE74FF4DE
:100E0C008032E7E70020C0E7080002400000024003
:100E1C0070B582B00024A446A6E0804DAA4210D042
:100E2C0007D97F4DAA420CD005F58035AA4208D0CF
:100E3C0013E0A5F58015AA4203D005F57025AA424A
:100E4C0007D18A68002A58D0012A51D0436108245E
:100E5C0003E0A5F58015AA42F3D0BEF1FF0F4ED8E2
:100E6C000646BEF1FF0F4CD84FEA8C0233680F25B3
:100E7C00954023EA050304FA02F2134333604B68EE
:100E8C0013F0805F6ED0674B9A6942F001029A6151
:100E9C009B6903F001030193019B4FEA9C02951C93
:100EAC00614B53F825600CF003039D000F23AB40FE
:100EBC0026EA03065D4B984229D003F580639842DD
:100ECC0000F08E8003F58063984200F08B8003F570
:100EDC008063984219D004231AE0CC68BDE7CC6833
:100EEC000434BAE7CC680834B7E7CC680C34B4E700
:100EFC0003610824B1E70024AFE70424ADE7061D25
:100F0C00AFE7ACF108029200B0E7032300E0002346
:100F1C00AB4033430232444D45F822304B6813F456
:100F2C00801F61D0424A936843EA0E0393604B687A
:100F3C0013F4001F5ED03E4AD36843EA0E03D3601D
:100F4C004B6813F4003F5BD0394A536843EA0E03F5
:100F5C0053604B6813F4803F58D0354A136843EA0A
:100F6C000E0313600CF1010C0A6832FA0CF353D027
:100F7C00012303FA0CF302EA030E33EA0202F1D165
:100F8C004A68122A3FF649AF122A3FF666AF01A50E
:100F9C0055F822F04F0E0008E70E0008F10E00087D
:100FAC00030F0008670E0008670E0008670E0008A4
:100FBC00670E0008670E0008670E0008670E000831
:100FCC00670E0008670E0008670E0008670E000821
:100FDC00670E0008670E0008EB0E0008F70E0008FD
:100FEC00012395E7022393E7114A936823EA0E0342
:100FFC0093609CE70E4AD36823EA0E03D3609FE705
:10100C000B4A536823EA0E035360A2E7084A13689D
:10101C0023EA0E031360A5E702B070BD0000221096
:10102C000000311000100240000001400008014097
:10103C00000401400AB10161704709040161704765
:10104C00C36801EA030221EA030141EA024101619A
:10105C00704703685A6912F4806F01D10020704701
:10106C006FF480625A6100230363202280F83D20D4
:10107C0080F83E30026C42F00402026480F83C308E
:10108C00012070472DE9F04106460C46174698465C
:10109C003BE0FFF775FC069BC01A404502D8B8F13F
:1010AC00000F32D1012D18D033689B6924EA030359
:1010BC009BB2B3FA83F35B099F4226D100233363BF
:1010CC00202286F83D2086F83E30326C42F0200219
:1010DC00326486F83C30012027E033685B6924EAEF
:1010EC0003039BB2B3FA83F35B09E5E733685B69EF
:1010FC0024EA030C1FFA8CFCBCFA8CFC4FEA5C1C37
:10110C00674511D1B8F1FF3FC3D1C4F30745012D99
:10111C00ECD033689B6924EA030C1FFA8CFCBCFAF4
:10112C008CFC4FEA5C1CEBE70020BDE8F0812DE95C
:10113C00F84305460E469046994653E01A6842F429
:10114C0000721A602B686FF480625A6100232B6363
:10115C00202285F83D2085F83E302A6C42F00402AE
:10116C002A6485F83C3001204AE0FFF709FCA0EB2B
:10117C000900404502D8B8F1000F33D1012F17D028
:10118C002B689B6926EA03039BB2003B18BF012323
:10119C0043B300232B63202285F83D2085F83E3095
:1011AC002A6C42F020022A6485F83C30012027E0AA
:1011BC002B685B6926EA03039BB2003B18BF012333
:1011CC00E6E72B689C6926EA0404A4B2003C18BF2D
:1011DC000124A4B12B685A6912F4806FAED1B8F116
:1011EC00FF3FC2D1C6F30747012FEAD12B685C69D8
:1011FC0026EA0404A4B2003C18BF0124E9E700204D
:10120C00BDE8F88370B504460D46164623685B6945
:10121C0013F0800F21D12046FFF71BFFF8B9B5F171
:10122C00FF3FF3D0FFF7ACFB801BA84201D8002D89
:10123C00ECD123685B6913F0800FE7D100232363A3
:10124C00202284F83D2084F83E30226C42F02002AB
:10125C00226484F83C30012000E0002070BD0120A5
:10126C00FCE700002DE9F04385B004460D4691469D
:10127C001F46DDF830800D9E0368196841F48071BB
:10128C0019600096434600224FF00111FFF7FAFE59
:10129C0060B9236805F0FE051D61334642462649B8
:1012AC002046FFF744FF68B1012008E023681B6863
:1012BC0013F4807F02D04FF400732364032005B035
:1012CC00BDE8F0830023039323685A6903929B695A
:1012DC000393039B324641462046FFF793FF30B9F8
:1012EC00012F0FD123685FFA89F61E61E7E7236CA3
:1012FC00042B01D00120E2E72268136843F4007349
:10130C001360F7E723684FEA19221A613246414607
:10131C002046FFF777FF20B923685FFA89F61E6134
:10132C00CDE7236C042B01D00120C8E72268136899
:10133C0043F400731360F7E70200010070B5044634
:10134C000D46164623685B6913F0040F21D1204625
:10135C00FFF77FFEF8B9B5F1FF3FF3D0FFF710FBB5
:10136C00801BA84201D8002DECD123685B6913F0D7
:10137C00040FE7D100232363202284F83D2084F856
:10138C003E30226C42F02002226484F83C30012072
:10139C0000E0002070BD0120FCE70000002800F0F8
:1013AC00CC8070B5044690F83D30002B77D02423C8
:1013BC0084F83D302268136823F00103136022681F
:1013CC00136843F4004313602268136823F400434A
:1013DC00136000F077FC62685A4B9A4264D85A4BFF
:1013EC0098428CBF00230123002B40F0A880574962
:1013FC00A1FB00318B0C25686A6822F03F0242EA9F
:10140C0091426A6021680A6A22F03F0266684D4D7B
:10141C00AE424FD8013313430B622168CA6922F4E0
:10142C004F4222F0FF026668464B9E424CD8431E48
:10143C007600B3FBF6F3013340F6FC70034278D030
:10144C00C3F30B031343CB6121680B6823F0C00378
:10145C00E269206A024313430B6021688B6823F412
:10146C00034323F0FF032269E068024313438B60BC
:10147C002168CB6823F0FF036269A0690243134320
:10148C00CB602268136843F00103136000202064D2
:10149C00202384F83D30206384F83E0070BD80F832
:1014AC003C30FEF7ADFF82E7294B98428CBF0023FE
:1014BC00012399E74FF4967505FB03F3254DA5FB26
:1014CC0003539B090133A6E7A368BBB9451E06EB82
:1014DC00460CB5FBFCF50135C5F30B05B5FA85F5E6
:1014EC006D0945BBC3B9013806EB4603B0FBF3F3FA
:1014FC000133C3F30B0343F40043A3E7451E06EB90
:10150C00860C0CEB8C0CB5FBFCF50135C5F30B050F
:10151C00B5FA85F56D09E4E7013806EB860303EBB4
:10152C008303B0FBF3F30133C3F30B0343F44043E6
:10153C0088E7042386E7012384E701207047012014
:10154C00ACE700BFA08601007F841E0083DE1B4336
:10155C00FF083D00D34D62102DE9F04383B00446E3
:10156C000F46904699460C9EFFF70AFA054694F8EA
:10157C003D00C0B2202803D0022003B0BDE8F083A8
:10158C000095192301224B492046FFF77BFD0028CB
:10159C0040F0898094F83C30012B00F086800123C8
:1015AC0084F83C3023681A6812F0010F03D11A68D2
:1015BC0042F001021A602268136823F4006313607E
:1015CC00212384F83D30402384F83E3000232364EB
:1015DC000A9B6362BDF82C306385638D2385364B83
:1015EC00E362019500964B46424639462046FFF78A
:1015FC0039FE00285BD1238D002B35D02A4631468D
:10160C002046FFF7FFFD20BB626A236812781A613F
:10161C00626A531C6362218D013989B22185638D05
:10162C009BB2013B9BB263852368586910F0040F91
:10163C00E1D00029DFD052781A61636A013363620A
:10164C00238D013B2385638D9BB2013B9BB263854C
:10165C00D1E7236C042B01D001208EE7226813689C
:10166C0043F400731360F7E72A4631462046FFF730
:10167C0065FE50B1236C042B01D001207DE722685C
:10168C00136843F400731360F7E72268136843F49C
:10169C0000731360202384F83D30002384F83E301F
:1016AC0084F83C3069E7022067E7022065E70120F7
:1016BC0063E700BF020010000000FFFF82B0084B80
:1016CC001B68084AA2FB03235B0A00FB03F301938C
:1016DC0000BF019B5A1E0192002BF9D102B070473A
:1016EC0018000020D34D6210002800F0F18170B575
:1016FC0082B00446036813F0010F2CD0994B5B6841
:10170C0003F00C03042B1DD0964B5B6803F00C0309
:10171C00082B12D06368B3F5803F41D0002B55D114
:10172C0003F1804303F504331A6822F480321A6003
:10173C001A6822F480221A6037E08A4B5B6813F433
:10174C00803FE7D0874B1B6813F4003F03D06368DE
:10175C00002B00F0BF81236813F0020F75D0814B72
:10176C005B6813F00C0F5FD07E4B5B6803F00C03CF
:10177C00082B54D02369002B00F08A807A4B01226D
:10178C001A60FFF7FDF80546764B1B6813F0020F45
:10179C0075D1FFF7F5F8401B0228F5D903209EE11F
:1017AC00704A136843F480331360636843B3FFF7E4
:1017BC00E7F805466B4B1B6813F4003FCBD1FFF7E2
:1017CC00DFF8401B6428F5D9032088E1B3F5A02F7E
:1017DC0009D0644B1A6822F480321A601A6822F419
:1017EC0080221A60E1E703F18043A3F53C331A68C9
:1017FC0042F480221A601A6842F480321A60D4E7EC
:10180C00FFF7BEF80546574B1B6813F4003FA2D0F8
:10181C00FFF7B6F8401B6428F5D903205FE1514B64
:10182C005B6813F4803FA5D14E4B1B6813F0020F7D
:10183C0003D02369012B40F04F814A4A136823F0EF
:10184C00F803616943EAC1031360236813F0080FBE
:10185C0033D0A369002B5CD0434B0122C3F8802406
:10186C00FFF78EF805463F4B5B6A13F0020F21D150
:10187C00FFF786F8401B0228F5D903202FE1394ADF
:10188C00136823F0F803616943EAC1031360DCE7D2
:10189C00354B00221A60FFF773F80546314B1B6875
:1018AC0013F0020FD1D0FFF76BF8401B0228F5D9CB
:1018BC00032014E10120FFF701FF236813F0040F4C
:1018CC0000F09680274BDB6913F0805F34D1254BF9
:1018DC00DA6942F08052DA61DB6903F080530193DC
:1018EC00019B0125214B1B6813F4807F26D0E368F4
:1018FC00012B3DD0002B53D103F1804303F504336E
:10190C001A6A22F001021A621A6A22F004021A629E
:10191C0033E0154B0022C3F88024FFF731F805465D
:10192C00104B5B6A13F0020FC7D0FFF729F8401B6E
:10193C000228F5D90320D2E00025D3E70B4A13681F
:10194C0043F480731360FFF71BF80646074B1B68C4
:10195C0013F4807FCBD1FFF713F8801B6428F5D9E3
:10196C000320BCE000100240000042420070004026
:10197C005F4A136A43F001031362E36833B3FEF763
:10198C00FFFF06465A4B1B6A13F0020F2FD1FEF7CE
:10199C00F7FF801B41F288339842F3D903209EE075
:1019AC00052B09D0524B1A6A22F001021A621A6AEC
:1019BC0022F004021A62E0E74D4B1A6A42F004026C
:1019CC001A621A6A42F001021A62D6E7FEF7D8FFD1
:1019DC000646474B1B6A13F0020F08D0FEF7D0FFE8
:1019EC00801B41F288339842F3D9032077E0E5B9A4
:1019FC00E369002B72D03E4A526802F00C02082AAE
:101A0C0056D0022B17D03B4B00221A66FEF7B8FFBC
:101A1C000446374B1B6813F0007F47D0FEF7B0FF2E
:101A2C00001B0228F5D9032059E0314AD36923F071
:101A3C008053D361DCE72F4B00221A66FEF7A0FF20
:101A4C0005462B4B1B6813F0007F06D0FEF798FF62
:101A5C00401B0228F5D9032041E0236AB3F5803FEF
:101A6C001AD023494B6823F47413226A606A024328
:101A7C0013434B601F4B01221A66FEF781FF04468D
:101A8C001B4B1B6813F0007F0ED1FEF779FF001B78
:101A9C000228F5D9032022E0154A536823F40033B9
:101AAC00A1680B435360DCE7002018E0002016E02F
:101ABC00012B16D00E4B5B6803F48031226A9142E5
:101ACC0011D103F47013626A93420ED1002006E028
:101ADC0001207047012002E0012000E0002002B04C
:101AEC0070BD0120FBE70120F9E70120F7E700BFFB
:101AFC0000100240000042420F4B5B6803F00C02E6
:101B0C00082A01D00D487047C3F383420C49885C06
:101B1C0013F4803F0BD0084B5B68C3F34043094A76
:101B2C00D35C064A02FB00F0B0FBF3F07047064BA7
:101B3C0003FB00F0704700BF0010024000127A0057
:101B4C00B8390008C839000800093D00002800F029
:101B5C00A08070B50D460446524B1B6803F007037A
:101B6C008B420BD24F4A136823F007030B431360CD
:101B7C00136803F007038B4240F08D80236813F049
:101B8C00020F17D013F0040F04D0474A536843F4E4
:101B9C00E0635360236813F0080F04D0424A536883
:101BAC0043F460535360404A536823F0F003A16838
:101BBC000B435360236813F0010F31D06368012B82
:101BCC0020D0022B25D0384A126812F0020F64D0B4
:101BDC0035494A6822F0030213434B60FEF7D0FEEE
:101BEC000646314B5B6803F00C036268B3EB820F63
:101BFC0016D0FEF7C5FE801B41F288339842F0D90F
:101C0C00032045E0284A126812F4003FE0D101207D
:101C1C003EE0254A126812F0007FD9D1012037E04E
:101C2C00204B1B6803F00703AB420AD91D4A13680B
:101C3C0023F007032B431360136803F00703AB4235
:101C4C002DD1236813F0040F06D0174A536823F4E0
:101C5C00E063E1680B435360236813F0080F07D06F
:101C6C00114A536823F46053216943EAC10353605A
:101C7C00FFF742FF0C4B5B68C3F303130B4AD35CB7
:101C8C00D8400B4B18600B4B1868FEF735FE002044
:101C9C0070BD012070470120FAE70120F8E7012010
:101CAC00F6E700BF0020024000100240A0390008F7
:101CBC001800002020000020014B1868704700BF5E
:101CCC001800002008B5FFF7F7FF044B5B68C3F35F
:101CDC000223034AD35CD84008BD00BF0010024069
:101CEC00B039000808B5FFF7E7FF044B5B68C3F396
:101CFC00C223034AD35CD84008BD00BF0010024089
:101D0C00B039000870B582B00446036813F0010FB7
:101D1C0036D03F4BDB6913F0805F49D13C4BDA691D
:101D2C0042F08052DA61DB6903F080530193019B2E
:101D3C000125384B1B6813F4807F3BD0344B1B6A56
:101D4C0013F4407313D0626802F440729A420ED0BE
:101D5C002F4A136A23F440702F490126C1F84064BE
:101D6C000026C1F84064106213F0010F36D1284AE6
:101D7C00136A23F4407361680B431362002D3ED148
:101D8C00236813F0020F06D0214A536823F4404312
:101D9C00A1680B435360236813F0100F34D01C4A16
:101DAC00536823F48003E1680B43536000202CE05C
:101DBC000025BEE7174A136843F480731360FEF7DF
:101DCC00DFFD0646134B1B6813F4807FB6D1FEF77C
:101DDC00D7FD801B6428F5D9032016E0FEF7D0FD53
:101DEC0006460B4B1B6A13F0020FC0D1FEF7C8FD61
:101DFC00801B41F288339842F3D9032005E0D36964
:101E0C0023F08053D361BBE7002002B070BD00BF4C
:101E1C0000100240007000400000424210B4036AFF
:101E2C00046A24F001040462846924F0F00C4CEA86
:101E3C00021223F00A030B438261036210BC704749
:101E4C0010B4036A046A24F010040462846924F454
:101E5C00704C4CEA023223F0A00343EA0113826176
:101E6C00036210BC7047836823F070030B4343F08C
:101E7C00070383607047000003681B4A90420AD036
:101E8C00B0F1804F07D0A2F59432904203D002F506
:101E9C008062904203D123F070034A681343124AC4
:101EAC0090420AD0B0F1804F07D0A2F59432904204
:101EBC0003D002F58062904203D123F44073CA68C8
:101ECC00134323F080034A69134303608B68C36296
:101EDC000B688362044B984202D001234361704724
:101EEC000B690363F9E700BF002C014040B310B548
:101EFC00044690F83D30F3B1022384F83D3021467E
:101F0C0051F8040BFFF7B8FF012384F8463084F82E
:101F1C003E3084F83F3084F8403084F8413084F807
:101F2C00423084F8433084F8443084F8453084F8E7
:101F3C003D30002010BD80F83C30FEF7F7FBDBE7AE
:101F4C000120704710B4846824F47F4C42EA0322C9
:101F5C000A4342EA0C02826010BC704790F83C3095
:101F6C00012B78D010B50446012380F83C300223B5
:101F7C0080F83D300268936823F47F4323F07703A5
:101F8C0093600B68602B4CD029D8402B54D00CD9C3
:101F9C00502B22D1CA6849680068FFF73FFF5021D7
:101FAC002068FFF760FF002005E0202B0DD009D939
:101FBC00302B0AD00120012384F83D30002384F813
:101FCC003C3010BD0BB1102B05D119462068FFF722
:101FDC004AFF0020EFE70120EDE70120EBE7B3F526
:101FEC00805F34D0B3F5005F0CD1CB684A68896848
:101FFC000068FFF7A7FF2268936843F4804393605F
:10200C000020D8E7702B24D1CB684A688968006817
:10201C00FFF798FF2268936843F0770393600020E2
:10202C00C9E7CA6849680068FFF70AFF60212068A1
:10203C00FFF719FF0020BEE7CA6849680068FFF780
:10204C00EDFE40212068FFF70EFF0020B3E70020D3
:10205C00B1E70120AFE702207047000090F83C3058
:10206C00012B2CD010B4012380F83C30022380F8D3
:10207C003D3003685A689C6822F0700C0A6842EA8A
:10208C000C025A6003680F4A93420AD0B3F1804F96
:10209C0007D0A2F59432934203D002F580629342AA
:1020AC0004D124F080044A6814439C60012380F816
:1020BC003D30002380F83C30184610BC704702209D
:1020CC00704700BF002C0140026802F10C0353E87A
:1020DC00003F23F490730C3242E800310029F3D115
:1020EC00026802F1140353E8003F23F00103143299
:1020FC0042E800310029F3D1036B012B05D02023DA
:10210C0080F84230002303637047026802F10C032D
:10211C0053E8003F23F010030C3242E80031002951
:10212C00F3D1ECE790F84130DBB2212B01D0022047
:10213C0070478368B3F5805F17D0036A5A1C02623C
:10214C001A7803685A60C38C9BB2013B9BB2C38460
:10215C004BB90268D36823F08003D3600268D3685C
:10216C0043F04003D360002070470369002BE4D197
:10217C00036A1B880268C3F308035360036A0233C3
:10218C000362E0E710B504460268136923F4405378
:10219C00C1680B43136183680269134342691A4394
:1021AC000168CB6823F4B05323F00C031343CB60CA
:1021BC000268536923F4407381690B4353610268CD
:1021CC00134B9A4220D0FFF77DFD024602EB8202B0
:1021DC0002EB820263689B00B2FBF3F20D48A0FB9A
:1021EC0002314909642303FB11231B013233A0FB89
:1021FC0003235B0903F0F00202EB011203F00F035F
:10220C00216813448B6010BDFFF76CFD0246DDE7BF
:10221C00003801401F85EB512DE9F84305460F4668
:10222C0016469946DDF820802C68246837EA0403AA
:10223C000CBF4FF0010C4FF0000CB4452DD1B8F190
:10224C00FF3FF1D0B8F1000F05D0FEF799FBA0EBE2
:10225C0009004045E8D92A6802F10C0353E8003F15
:10226C0023F4D0730C3242E800310029F3D12A68F0
:10227C0002F1140353E8003F23F00103143242E847
:10228C0000310029F3D1202385F8413085F8423004
:10229C00002385F84030032000E00020BDE8F883DF
:1022AC0060B310B5044690F8413013B3242384F87E
:1022BC0041302268D36823F40053D3602046FFF7E3
:1022CC0061FF2268136923F49043136122685369F8
:1022DC0023F02A0353612268D36843F40053D3607C
:1022EC0000206064202384F8413084F8423060631D
:1022FC0010BD80F84030FEF763FAD7E70120704735
:10230C002DE9F04182B01E4690F84130DBB2202B13
:10231C004BD104460D46904600294AD00AB90120FB
:10232C0044E000234364212380F84130FEF728FB6E
:10233C000746A4F82480A4F82680A368B3F5805F30
:10234C0002D04FF000080FE02369FBB14FF00008FA
:10235C000AE038F8023B2268C3F308035360E28CAE
:10236C0092B2013A92B2E284E38C9BB28BB10096AA
:10237C003B46002280212046FFF74EFFD8B9002DA6
:10238C00E7D015F8012B23685A60E8E7A84600252A
:10239C00EAE700963B46002240212046FFF73CFF2F
:1023AC0058B9202384F8413000E0022002B0BDE887
:1023BC00F0810120FAE70320F8E70320F6E72DE986
:1023CC00F04182B01E4690F84230DBB2202B53D144
:1023DC0004460D469046002952D00AB901204CE023
:1023EC0000234364222280F842200363FEF7C8FADC
:1023FC000746A4F82C80A4F82E80A368B3F5805F60
:10240C0002D04FF0000817E0236913B14FF0000819
:10241C0012E0A84600250FE023685B68C3F30803AD
:10242C0028F8023B03E023685B682B700135E28DD2
:10243C0092B2013A92B2E285E38D9BB2BBB10096A7
:10244C003B46002220212046FFF7E6FED0B9002DA6
:10245C00E2D0A368B3F5805FE5D013B92369002BF4
:10246C00E1D023685B6803F07F032B70DEE7202349
:10247C0084F84230002000E0022002B0BDE8F08178
:10248C000120FAE70320F8E7704708B50168CA682D
:10249C0022F04002CA60202280F84120FFF7F4FFAE
:1024AC00002008BD7047704708B5406A0023C385FB
:1024BC00C384FFF7F8FF08BD704790F84230DBB2D9
:1024CC00222B69D18368B3F5805F4FD0826AB3F554
:1024DC00805F04D0002B56D10369002B53D10368C5
:1024EC005B681370836A01338362C38D9BB2013BBB
:1024FC009BB2C385002B51D100B583B00268D36861
:10250C0023F02003D3600268D36823F48073D36074
:10251C000268536923F001035361202380F8423091
:10252C0000234363036B012B33D100230363026845
:10253C0002F10C0353E8003F23F010030C3242E885
:10254C0000310029F3D103681A6812F0100F06D07D
:10255C00002201921A6801925B680193019B818DA4
:10256C00FFF7AAFF002003B05DF804FB0269002A04
:10257C00ACD1826A03685B68C3F308031380836A77
:10258C0002338362B1E703685B6803F07F03137067
:10259C00A8E7FFF787FFE5E70220704700207047A8
:1025AC0030B583B0044602681368D068516913F0E3
:1025BC000F0505D113F0200F02D010F0200F19D108
:1025CC002DB111F0010119D110F4907F16D1216BAE
:1025DC0001297DD013F0800F03D010F0800F40F054
:1025EC00188113F0400F03D010F0400F40F015810C
:1025FC0003B030BD2046FFF760FFF9E713F0010F81
:10260C0006D010F4807F03D0626C42F00102626449
:10261C0013F0040F04D019B1626C42F00202626430
:10262C0013F0020F04D019B1626C42F00402626420
:10263C0013F0080F07D010F0200F00D119B1626C05
:10264C0042F008026264626C002AD1D013F0200FB1
:10265C0002D010F0200F29D123685B6903F04003EE
:10266C00626C12F0080F00D163B32046FFF72CFD0B
:10267C0023685B6913F0400F20D0226802F1140329
:10268C0053E8003F23F04003143242E800310029A4
:10269C00F3D1E36B73B1634A5A63E06BFEF76CFBE7
:1026AC000028A5D0E06B436B9847A1E72046FFF7C5
:1026BC0004FFD1E72046FFF7F6FE99E72046FFF727
:1026CC00F2FE95E72046FFF7EEFE002363648FE7EA
:1026DC0013F0100F3FF47EAF10F0100F3FF47AAFF1
:1026EC00002301931368019353680193019B536971
:1026FC0013F0400F51D0E26B13685B689BB2002B58
:10270C003FF476AFA18D99427FF672AFE385936962
:10271C00202B37D0226802F10C0353E8003F23F43E
:10272C0080730C3242E800310029F3D1226802F1A7
:10273C00140353E8003F23F00103143242E8003144
:10274C000029F3D1226802F1140353E8003F23F06F
:10275C004003143242E800310029F3D1202384F8DD
:10276C00423000232363226802F10C0353E8003F3C
:10277C0023F010030C3242E800310029F3D1E06B56
:10278C00FEF7D6FA02236363A18DE38D9BB2C91ABF
:10279C0089B22046FFF790FE2AE7A18DE38D9BB20C
:1027AC00C91A89B2E38D9BB2002B3FF421AF0029EB
:1027BC003FF41EAF226802F10C0353E8003F23F4F0
:1027CC0090730C3242E800300028F3D1226802F1F9
:1027DC00140353E8003F23F00103143242E80030A5
:1027EC000028F3D1202384F842300023236322688D
:1027FC0002F10C0353E8003F23F010030C3242E8C3
:10280C0000300028F3D1022363632046FFF754FE07
:10281C00EEE62046FFF786FCEAE62046FFF735FE9B
:10282C00E6E600BFB5240008014B1868704700BFEE
:10283C002400002070B50D4E0D4D761BB61006D041
:10284C00002455F8043B01349847A642F9D1094EAF
:10285C00094D01F093F8761BB61006D0002455F8FC
:10286C00043B01349847A642F9D170BDD039000819
:10287C00D0390008D8390008D0390008024B01467D
:10288C00186800F003B800BF240000202DE9F04FB9
:10289C0001F10B05162D064683B025D8102900F240
:1028AC00B88000F0F1FA102518224FF0020CB54F49
:1028BC003A445368A2F108018B4200F0B7805A6881
:1028CC00D96822F003021A449C683046E1608C609F
:1028DC00516803F1080441F00101516000F0DAFA8B
:1028EC00204603B0BDE8F08F35F0070500F191806C
:1028FC00A94200F28E8000F0C7FAB5F5FC7FC0F05B
:10290C0094816B0A00F08C80042B00F26A81AB0975
:10291C0003F1390C03F138044FEACC00994F3844D9
:10292C0043680838984206D10CE0002980F22681D1
:10293C00DB68984206D05A6822F00302511B0F291B
:10294C00F3DDA4463C69DFF840E274457AD0626856
:10295C0022F00302531B0F2B00F37681002BC7E9E7
:10296C0004EE80F26781B2F5007F80F019810121BD
:10297C00D30852090B4491407A6857F833000A4344
:10298C0007EBC3010839A060E1607A6047F8334077
:10299C00C46001214FEAAC039940914259D81142CD
:1029AC0006D12CF0030C490011420CF1040CFAD0A6
:1029BC0007EBCC0948466446D0F80C80404508D15A
:1029CC001CE1002B80F22181D8F80C80404500F0EE
:1029DC001581D8F8042022F00302531B0F2BF0DDD5
:1029EC0008EB050145F00105C8F804503046D8E95C
:1029FC000264F460A66043F00104C7E904114C6062
:102A0C00C1E902EE48F8023000F044FA08F108047B
:102A1C0002E00C2300243360204603B0BDE8F08FA5
:102A2C004FF400704FF0400C3F2477E7D3689A4284
:102A3C0008BF0CF1020C7FF442AF3C69DFF848E1AF
:102A4C00744584D101217A684FEAAC0399409142D4
:102A5C00A5D9BC68636823F003094D4503D8A9EBDD
:102A6C0005030F2B7ADCDFF824B1494BDBF800208F
:102A7C001B6801322B4404EB090A00F02F8103F58B
:102A8C0080530F3323F47F6828F00F0841463046FB
:102A9C0000F006FA411C024600F0EF80824500F27D
:102AAC00EA803C4B196841440846196000F04981A2
:102ABC00DBF80010019301311BBFA2EB0A0A504452
:102ACC00CBF80020186012F0070B00F01181CBF14D
:102ADC0008010A44CBF5805190440831A1EB080160
:102AEC00C1F30B0A51463046009200F0D9F9421C52
:102AFC00DDE9002300F04B81801A00EB0A0819680D
:102B0C0048F001005144BC42BA601960506000F0BA
:102B1C002481B9F10F0F40F222814FF0050E60684D
:102B2C00A9F10C0C2CF0070C00F0010040EA0C0091
:102B3C006060BCF10F0F04EB0C00C0E901EE00F279
:102B4C002E8114465068144B1A688A4238BF19609B
:102B5C00124B1A688A4238BF196090E0621943F030
:102B6C00010345F0010565603046BA6008345360D6
:102B7C0000F090F9204603B0BDE8F08FD9681A44F4
:102B8C00A2E600BF50040020580400205808002082
:102B9C00180A0020E8090020100A0020140A00205E
:102BAC00B2F5206F4FEA52235FD3142B00F2B180A1
:102BBC0003F15C01C9005B337818795808388842F6
:102BCC0000F08F804B6823F00303934202D989688D
:102BDC008842F7D1C8687A68C4E902108460CC6076
:102BEC00D7E6142B59D9542B00F29B802B0B03F1F5
:102BFC006F0C03F16E044FEACC008FE60134A3078F
:102C0C0000F108007FF4D8AE53E0444642445368C8
:102C1C00D8F80C1043F00103536054F8083F3046C9
:102C2C00D9608B6000F036F9F6E64FEAD50C05F169
:102C3C0008023CE622445368304643F001035360DB
:102C4C0000F028F90834E7E6611945F001056560E4
:102C5C0043F00105C7E904113046C1E902EE4D60AD
:102C6C00A35000F017F90834D6E6930903F13901A3
:102C7C00C9003833A0E7BC425ED0BC68606820F065
:102C8C0003084545A8EB050302D80F2B3FF766AFA9
:102C9C00304600F0FFF80024BEE603F15C0C03F1B3
:102CAC005B044FEACC0039E659F808394B4540F043
:102CBC0095801CF0030F0CF1FF3CF5D17B6823EAE7
:102CCC0001037B60490099423FF6C3AE11B9C0E6DF
:102CDC00490004341942FBD0A44669E603F11008FC
:102CEC00D4E601229B109A407B681A437A6073E702
:102CFC0002EB08014942C1F30B0A514630460092DF
:102D0C0000F0CEF8431CDDE900237FF4F5AEDA4683
:102D1C00F5E6542B26D8130B03F16F01C9006E3363
:102D2C004AE7B3F5AA7F26D8EB0B03F1780C03F135
:102D3C0077044FEACC00F1E5294B18684044186041
:102D4C00B6E6CAF30B0CBCF1000F7FF4B1AEBC6855
:102D5C00C84448F001006060F5E61446F3E6012330
:102D6C00536095E7B3F5AA7F24D8D30B03F1780110
:102D7C00C900773320E740F25452934224D8AB0C6D
:102D8C0003F17D0C03F17C044FEACC00C6E5ABF1FA
:102D9C00080BD8444FF0000AA8EB0208AFE604F188
:102DAC0008013046009300F033FBBC68009B606860
:102DBC001968C8E640F254518B420BD8930C03F1BE
:102DCC007D01C9007C33F7E64FF47E704FF07F0C29
:102DDC007E24A3E54FF47E717E23EDE67B6871E7DC
:102DEC00E8090020830730B548D0541E002A3FD094
:102DFC000346CAB201E0013C3AD303F8012B9D070C
:102E0C00F9D1032C2DD9CDB245EA05250F2C45EA75
:102E1C00054536D9A4F1100222F00F0C03F1200E57
:102E2C00E6444FEA121C03F1100242E9045542E950
:102E3C00025510327245F8D10CF1010214F00C0F4E
:102E4C0003EB021204F00F0C13D0ACF1040323F0CB
:102E5C0003030433134442F8045B9342FBD10CF09C
:102E6C0003042CB1CAB21C4403F8012B9C42FBD1C5
:102E7C0030BD64461346002CF4D1F9E703461446E2
:102E8C00BFE71A46A446E0E7014800F0E9BB00BFE3
:102E9C00200A0020014800F0E5BB00BF200A0020FA
:102EAC00002238B5064D044608462A60FDF7E0FBC3
:102EBC00431C00D038BD2B68002BFBD0236038BDE1
:102ECC002C0A00202DE9F043694C0E46D4F8008002
:102EDC00174604461D4683B0B8F1000F03D0D8F84E
:102EEC003830002B77D0022F05D0012F00F2AC80A8
:102EFC00002DC0F2A980636EDA0752D521464046F8
:102F0C0000F05AF9216B41B104F14003994202D00F
:102F1C00404600F07DFA002323630023B4F90CC073
:102F2C00A3611CF0800F636064D12CF44A6C2CF00C
:102F3C00030C022FA4F80CC06AD001AB214640460A
:102F4C006A4600F091FBA3891843A081002D2FD075
:102F5C00002E2ED0D8F83830002B38D0009BC4E986
:102F6C000465AB42B4F90C3026601CBF43F400631B
:102F7C00A381012F04BF43F00103A3819AB213F084
:102F8C0008032CD0D1075DD500216D42A561656E7B
:102F9C00A16015F0010527D00025284603B0BDE837
:102FAC00F083A3899B05A9D4A06D00F059FBA5E77C
:102FBC00009D2846FFF762FC0646002847D0A389EF
:102FCC0043F08003A381D8F83830002BC6D140469B
:102FDC0000F026F9C2E7404600F022F983E7A3602F
:102FEC00656E15F00105D7D1930524D5284603B09D
:102FFC00BDE8F0834046216900F00AFAB4F90CC030
:10300C00022F2CF44A6C2CF0030CA4F80CC094D1B5
:10301C0000250021012204F1430323602361636E28
:10302C004CF0020CD807A4F80CC0A1606261DDD48E
:10303C001CF4007FDAD1A06D00F014FB284603B01D
:10304C00BDE8F083A560CBE74FF0FF35CEE7DDF8A8
:10305C000090A94504D04846FFF710FC064620B95D
:10306C004FF0FF35B4F90CC0D3E74D46A7E700BFCE
:10307C0024000020024B13B1024800F005B8704741
:10308C000000000051330008002301461A46184680
:10309C0000F076BBB1F90C20F8B50C4611070746C9
:1030AC0043D4636842F40062002BA2815BDDA56A05
:1030BC00002D56D000233E683B6093B212F4805230
:1030CC0055D101233846E169A847421C65D0A38934
:1030DC00A56A5B0705D56368C01A236B0BB1E36B5C
:1030EC00C01A0246E16900233846A847411C40D16A
:1030FC003B68002B3DD01D2B01D0162B54D1002248
:10310C00A38923F40063A3812369C4E90032216BF2
:10311C003E6031B304F14003994202D0384600F0CE
:10312C0077F9002318462363F8BD2669CEB193B214
:10313C009A0718BF0023256808BF63692660AD1B7A
:10314C00A3600CE02B463246D4F824C03846E16923
:10315C00E047B0F1000CA5EB0C05664416DD002D24
:10316C00F0DC0020F8BDE36B002BA0DCF9E7206D50
:10317C00AFE70022B4F90C30626023F400632269DB
:10318C00A381DB042260C2D52065C0E7A3894FF080
:10319C00FF3043F04003A381F8BD3B68002B96D071
:1031AC001D2B06D0162B04D0A38943F04003A3811A
:1031BC00F8BD00203E60F8BD38B505460C4608B198
:1031CC00836BA3B1B4F90C00B8B1636EDB0701D407
:1031DC00810515D528462146FFF75CFF636E054631
:1031EC00DA0702D4A3899B050ED5284638BD00F01A
:1031FC0017F8B4F90C000028E7D10546284638BD6D
:10320C00A06D00F02DFAE5E7A06D00F02BFA284632
:10321C0038BD00BF014900F0FBB900BF3D380008C4
:10322C002DE9F0478246394800F01AFADAF83840AE
:10323C00002C66D1042303223549DAF80450CAF86D
:10324C003C10DFF8D090DFF8D080344F344E0AF5C4
:10325C003B71CAE9B921CAF8E0422146EB60082269
:10326C00C5E90044C5E904446C66AC60AC6105F189
:10327C005C00FFF7B7FDC5E90759C5E90987EE62A0
:10328C0005F1580000F0E8F9DAF80850254B214612
:10329C00EB600822C5E90044C5E904446C66AC60E7
:1032AC00AC6105F15C00FFF79DFDC5E90759C5E967
:1032BC000987EE6205F1580000F0CEF9DAF80C50EF
:1032CC00194B2146EB600822C5E90044C5E90444CA
:1032DC006C66AC60AC6105F15C00FFF783FD05F139
:1032EC005800C5E90759C5E90A76C5F8248000F0ED
:1032FC00B3F901230548CAF83830BDE8F04700F0AF
:10330C00B1B90248BDE8F04700F0ACB9280A00207A
:10331C0021320008D5360008F93600083937000884
:10332C00593700080900010012000200014800F0A2
:10333C0097B900BF240A0020014800F093B900BFE0
:10334C00240A002038B5084B084D5B1B9C1007D095
:10335C00043B1D44013C55F804399847002CF9D125
:10336C00BDE8384000F010BBDC390008D839000843
:10337C00F8B50C46234F0646FFF786FDBB685D6823
:10338C00C4F57E6325F003050F332B4423F47F63D0
:10339C0023F00F03A3F58054B4F5805F07DB002105
:1033AC003046FFF77DFDBB682B44984204D0304675
:1033BC00FFF770FD0020F8BD30466142FFF770FD4D
:1033CC0001300DD0104ABB682D1B45F001055D6026
:1033DC00136830461B1B1360FFF75CFD0120F8BD22
:1033EC0000213046FFF75CFDBA68831A0F2BDEDD37
:1033FC0043F001035360054B03491B68C01A086076
:10340C00D5E700BF50040020E80900205808002030
:10341C0000295ED0F8B50C460646FFF735FD54F88A
:10342C00042C784FA4F1080522F001016818D7F894
:10343C0008C04368844523F0030300F08780D2075B
:10344C00436034D454F8082C07F10804AD1A114425
:10345C00AA68A24268D000EB030CDCF804E0D5F8B3
:10346C000CC01EF0010FC2F80CC0CCF8082000F004
:10347C00918041F001036B600160B1F5007F31D2A6
:10348C004A09CB08012191407A68013311437960D4
:10349C0007EBC30257F83310083AC5E9021247F894
:1034AC003350CD603046BDE8F840FFF7F3BCC2188E
:1034BC005268D2070ED4194407F108048368A3425A
:1034CC0070D0C268DA60936041F001036B606950A0
:1034DC00D3E7704741F00103B1F5007F44F8043C99
:1034EC000160CDD3B1F5206F4FEA512347D28B0940
:1034FC0003F1390003F13802C300F818FB580838FF
:10350C00984258D05A6822F003028A4202D99B682A
:10351C009842F7D1D868C5E9023085603046DD6045
:10352C00BDE8F840FFF7B6BCC2185268D20763D4A6
:10353C000B44D0E90212CA60916043F001026A6048
:10354C003046EB50BDE8F840FFF7A4BC0B44D10764
:10355C0007D454F8082CAD1A1344D5E90212CA60EA
:10356C00916043F001026A60274ABD6012689A427A
:10357C0098D8264B30461968FFF7FAFE92E7142BC1
:10358C000AD9542B1FD80B0B03F16F0003F16E02F9
:10359C00C300B2E7194491E703F15C0003F15B024D
:1035AC00C300AAE741F00103C7E90455C5E9024489
:1035BC006B60695076E70121921001FA02F279688A
:1035CC000A437A60A7E7B3F5AA7F06D8CB0B03F1C1
:1035DC00780003F17702C3008FE740F25452934214
:1035EC0006D88B0C03F17D0003F17C02C30084E749
:1035FC004FF47E737E2280E741F001036B60016023
:10360C0050E700BF500400205C080020180A00207E
:10361C002DE9F8434FF000090746884600F5387647
:10362C00D6E90154013D10D4A389013D012B08D9E1
:10363C00B4F90E30013304D021463846C04749EA6C
:10364C0000096B1C04F16804EED13668002EE7D13A
:10365C004846BDE8F88300BF704700BF704700BF05
:10366C00704700BF704700BF70B50C46B1F90E1023
:10367C00154600291E4696B014DB6A4600F03EF94A
:10368C0000280FDB019A4FF4806302F47042A2F51C
:10369C000052B2FA82F24FF40060520932602B6091
:1036AC0016B070BD0023B4F90C10336011F080001B
:1036BC0004D0402218462A6016B070BD4FF48063C7
:1036CC002B6016B070BD00BF10B50C46B1F90E10D2
:1036DC0000F03EF9002803DB236D0344236510BD85
:1036EC00A38923F48053A38110BD00BF2DE9F041C1
:1036FC000C46B1F90C101F46CB05054616460BD4EB
:10370C0021F48051A1813B4632462846B4F90E1073
:10371C00BDE8F04100F01EB8B4F90E1002230022EF
:10372C0000F000F9B4F90C10EAE700BF10B50C4634
:10373C00B1F90E1000F0F6F8A389421C0EBF23F469
:10374C00805343F480532065A38110BDB1F90E1052
:10375C0000F05CB838B50C46114600228446074D83
:10376C0020462A601A466446FCF7F8FE431C00D03B
:10377C0038BD2B68002BFBD0236038BD2C0A0020F1
:10378C002DE9F047DFF87CA00646DAF800009846F1
:10379C000F469146FFF764FF1B4B1B68D3F848415B
:1037AC0024B365681F2D26DC5EB96B1C0235DAF874
:1037BC000000636044F82570FFF754FF0020BDE85B
:1037CC00F087012304EB8501C1F88890D4F8882197
:1037DC00AB401A43022EC4F88821C1F80881E4D109
:1037EC00D4F88C211343C4F88C31DEE703F5A674AE
:1037FC00C3F84841D5E7DAF80000FFF733FF4FF084
:10380C00FF30DCE760080020CC390008002238B516
:10381C00064D044608462A60FCF7BAFE431C00D04D
:10382C0038BD2B68002BFBD0236038BD2C0A002040
:10383C0070B500294BD006460C4610B1836B002B9B
:10384C0048D0636ED80734D5B4F90C30002B3ED079
:10385C0021463046FFF71EFCE36A054633B130467D
:10386C00E16998470028B8BF4FF0FF35A3891A06C5
:10387C003BD4216B41B104F14003994202D0304654
:10388C00FFF7C6FD00232363616C21B13046FFF7BF
:10389C00BFFD00236364FFF749FD0022636EA28124
:1038AC00DB0727D5A06DFFF7D9FEFFF745FD2846AE
:1038BC0070BDA3899905CBD4A06DFFF7D1FEB4F9E7
:1038CC000C30002BC4D1656E15F0010508D0002515
:1038DC00284670BDFFF7A4FC636ED807B4D4E8E7A4
:1038EC00A06DFFF7BFFE284670BD30462169FFF77B
:1038FC008FFDBEE7A06DFFF7B5FED3E770B50026D0
:10390C00074D0446084611462E60FCF76DFE431C1D
:10391C0000D070BD2B68002BFBD0236070BD00BFA6
:10392C002C0A002038B50C46114600228446074D5F
:10393C0020462A601A466446FCF736FE431C00D02B
:10394C0038BD2B68002BFBD0236038BD2C0A00201F
:10395C0038B50C46114600228446074D20462A6095
:10396C001A466446FCF728FE431C00D038BD2B6871
:10397C00002BFBD0236038BD2C0A0020F8B500BF0B
:10398C00F8BC08BC9E467047F8B500BFF8BC08BC34
:04399C009E4670478C
:1039A00000000000000000000102030406070809EF
:1039B00000000000010203040203040506070809D1
:1039C0000A0B0C0D0E0F1010010200002800002041
:0839D0008130000831010008FC
:0439D8000D010008D5
:1039DC00AED580A83FD30040A1C8DA1281CFD9F16F
:1039EC00DB40A4A68D14AF000024F40001000000FD
:1039FC00100000002800002000000000140300202C
:103A0C007C030020E4030020000000000000000004
:103A1C00000000000000000000000000000000009A
:103A2C00000000000000000000000000000000008A
:103A3C00000000000000000000000000000000007A
:103A4C00000000000000000000000000000000006A
:103A5C00000000000000000000000000000000005A
:103A6C00000000000000000000000000000000004A
:103A7C00000000000000000000000000000000003A
:103A8C00000000000000000000000000000000002A
:103A9C00000000000000000000000000000000001A
:103AAC0001000000000000000E33CDAB34126DE6B7
:103ABC00ECDE05000B000000000000000000000020
:103ACC0000000000000000000000000000000000EA
:103ADC0000000000000000000000000000000000DA
:103AEC0000000000000000000000000000000000CA
:103AFC0000000000000000000000000000000000BA
:103E2C00000000000000000050040020500400209E
:103E3C005804002058040020600400206004002076
:103E4C006804002068040020700400207004002026
:103E5C0078040020780400208004002080040020D6
:103E6C008804002088040020900400209004002086
:103E7C009804002098040020A0040020A004002036
:103E8C00A8040020A8040020B0040020B0040020E6
:103E9C00B8040020B8040020C0040020C004002096
:103EAC00C8040020C8040020D0040020D004002046
:103EBC00D8040020D8040020E0040020E0040020F6
:103ECC00E8040020E8040020F0040020F0040020A6
:103EDC00F8040020F8040020000500200005002054
:103EEC000805002008050020100500201005002002
:103EFC0018050020180500202005002020050020B2
:103F0C002805002028050020300500203005002061
:103F1C003805002038050020400500204005002011
:103F2C0048050020480500205005002050050020C1
:103F3C005805002058050020600500206005002071
:103F4C006805002068050020700500207005002021
:103F5C0078050020780500208005002080050020D1
:103F6C008805002088050020900500209005002081
:103F7C009805002098050020A0050020A005002031
:103F8C00A8050020A8050020B0050020B0050020E1
:103F9C00B8050020B8050020C0050020C005002091
:103FAC00C8050020C8050020D0050020D005002041
:103FBC00D8050020D8050020E0050020E0050020F1
:103FCC00E8050020E8050020F0050020F0050020A1
:103FDC00F8050020F805002000060020000600204F
:103FEC0008060020080600201006002010060020FD
:103FFC0018060020180600202006002020060020AD
:10400C00280600202806002030060020300600205C
:10401C00380600203806002040060020400600200C
:10402C0048060020480600205006002050060020BC
:10403C00580600205806002060060020600600206C
:10404C00680600206806002070060020700600201C
:10405C0078060020780600208006002080060020CC
:10406C00880600208806002090060020900600207C
:10407C009806002098060020A0060020A00600202C
:10408C00A8060020A8060020B0060020B0060020DC
:10409C00B8060020B8060020C0060020C00600208C
:1040AC00C8060020C8060020D0060020D00600203C
:1040BC00D8060020D8060020E0060020E0060020EC
:1040CC00E8060020E8060020F0060020F00600209C
:1040DC00F8060020F806002000070020000700204A
:1040EC0008070020080700201007002010070020F8
:1040FC0018070020180700202007002020070020A8
:10410C002807002028070020300700203007002057
:10411C003807002038070020400700204007002007
:10412C0048070020480700205007002050070020B7
:10413C005807002058070020600700206007002067
:10414C006807002068070020700700207007002017
:10415C0078070020780700208007002080070020C7
:10416C008807002088070020900700209007002077
:10417C009807002098070020A0070020A007002027
:10418C00A8070020A8070020B0070020B0070020D7
:10419C00B8070020B8070020C0070020C007002087
:1041AC00C8070020C8070020D0070020D007002037
:1041BC00D8070020D8070020E0070020E0070020E7
:1041CC00E8070020E8070020F0070020F007002097
:1041DC00F8070020F8070020000800200008002045
:1041EC0008080020080800201008002010080020F3
:1041FC0018080020180800202008002020080020A3
:10420C002808002028080020300800203008002052
:10421C003808002038080020400800204008002002
:10422C004808002048080020FFFFFFFF00000200A4
:04423C001C0A002038
:04000005080008B92E
:00000001FF
